{
	"MyContract.sol": {
		"MyContract": {
			"abi": [
				{
					"inputs": [
						{
							"internalType": "address payable",
							"name": "_wallet",
							"type": "address"
						},
						{
							"internalType": "address",
							"name": "_token",
							"type": "address"
						}
					],
					"stateMutability": "nonpayable",
					"type": "constructor"
				},
				{
					"anonymous": false,
					"inputs": [
						{
							"indexed": true,
							"internalType": "address",
							"name": "_buyer",
							"type": "address"
						},
						{
							"indexed": false,
							"internalType": "uint256",
							"name": "_amount",
							"type": "uint256"
						}
					],
					"name": "Purchase",
					"type": "event"
				},
				{
					"anonymous": false,
					"inputs": [
						{
							"indexed": false,
							"internalType": "address",
							"name": "_buyer",
							"type": "address"
						},
						{
							"indexed": false,
							"internalType": "uint256",
							"name": "tokensToBuy",
							"type": "uint256"
						}
					],
					"name": "TokensBought",
					"type": "event"
				},
				{
					"inputs": [],
					"name": "activate",
					"outputs": [
						{
							"internalType": "string",
							"name": "",
							"type": "string"
						}
					],
					"stateMutability": "nonpayable",
					"type": "function"
				},
				{
					"inputs": [
						{
							"internalType": "string",
							"name": "_firstName",
							"type": "string"
						},
						{
							"internalType": "string",
							"name": "_lastName",
							"type": "string"
						}
					],
					"name": "addPerson",
					"outputs": [],
					"stateMutability": "nonpayable",
					"type": "function"
				},
				{
					"inputs": [
						{
							"internalType": "address payable",
							"name": "buyer",
							"type": "address"
						}
					],
					"name": "buyToken",
					"outputs": [],
					"stateMutability": "payable",
					"type": "function"
				},
				{
					"inputs": [],
					"name": "buyTokenNew",
					"outputs": [],
					"stateMutability": "payable",
					"type": "function"
				},
				{
					"inputs": [],
					"name": "buyTokenOld",
					"outputs": [],
					"stateMutability": "payable",
					"type": "function"
				},
				{
					"inputs": [
						{
							"internalType": "address",
							"name": "_newOwner",
							"type": "address"
						}
					],
					"name": "changeOwner",
					"outputs": [],
					"stateMutability": "nonpayable",
					"type": "function"
				},
				{
					"inputs": [],
					"name": "isActive",
					"outputs": [
						{
							"internalType": "bool",
							"name": "",
							"type": "bool"
						}
					],
					"stateMutability": "view",
					"type": "function"
				},
				{
					"inputs": [],
					"name": "myBool",
					"outputs": [
						{
							"internalType": "bool",
							"name": "",
							"type": "bool"
						}
					],
					"stateMutability": "view",
					"type": "function"
				},
				{
					"inputs": [],
					"name": "openingTime",
					"outputs": [
						{
							"internalType": "uint256",
							"name": "",
							"type": "uint256"
						}
					],
					"stateMutability": "view",
					"type": "function"
				},
				{
					"inputs": [],
					"name": "owner",
					"outputs": [
						{
							"internalType": "address",
							"name": "",
							"type": "address"
						}
					],
					"stateMutability": "view",
					"type": "function"
				},
				{
					"inputs": [
						{
							"internalType": "uint256",
							"name": "",
							"type": "uint256"
						}
					],
					"name": "people",
					"outputs": [
						{
							"internalType": "uint256",
							"name": "_id",
							"type": "uint256"
						},
						{
							"internalType": "string",
							"name": "_firstName",
							"type": "string"
						},
						{
							"internalType": "string",
							"name": "_lastName",
							"type": "string"
						}
					],
					"stateMutability": "view",
					"type": "function"
				},
				{
					"inputs": [],
					"name": "peopleCount",
					"outputs": [
						{
							"internalType": "uint256",
							"name": "",
							"type": "uint256"
						}
					],
					"stateMutability": "view",
					"type": "function"
				},
				{
					"inputs": [],
					"name": "state",
					"outputs": [
						{
							"internalType": "enum MyContract.State",
							"name": "",
							"type": "uint8"
						}
					],
					"stateMutability": "view",
					"type": "function"
				},
				{
					"inputs": [],
					"name": "stringValue",
					"outputs": [
						{
							"internalType": "string",
							"name": "",
							"type": "string"
						}
					],
					"stateMutability": "view",
					"type": "function"
				},
				{
					"inputs": [],
					"name": "value",
					"outputs": [
						{
							"internalType": "string",
							"name": "",
							"type": "string"
						}
					],
					"stateMutability": "view",
					"type": "function"
				},
				{
					"stateMutability": "payable",
					"type": "receive"
				}
			],
			"devdoc": {
				"custom:dev-run-script": "file_path",
				"details": "This is a Solidity smart contract written in the Ethereum blockchain programming language. It is named \"MyContract\" and contains two functions, \"set\" and \"get\", which allow a user to set and retrieve a string value, respectively. The contract is licensed under the MIT License and includes a custom development script that can be run with the command \"dev-run-script file_path\". When the contract is deployed, the initial value of the string is set to \"default value\".",
				"kind": "dev",
				"methods": {},
				"title": "MyContract",
				"version": 1
			},
			"evm": {
				"assembly": "    /* \"MyContract.sol\":768:3564  contract MyContract {... */\n  mstore(0x40, 0x80)\n    /* \"MyContract.sol\":876:916  string public value = \"my default value\" */\n  mload(0x40)\n  dup1\n  0x40\n  add\n  0x40\n  mstore\n  dup1\n  0x10\n  dup2\n  mstore\n  0x20\n  add\n  0x6d792064656661756c742076616c756500000000000000000000000000000000\n  dup2\n  mstore\n  pop\n  0x03\n  swap1\n  dup2\n  tag_1\n  swap2\n  swap1\n  tag_2\n  jump\t// in\ntag_1:\n  pop\n    /* \"MyContract.sol\":922:968  string public stringValue = \"my default value\" */\n  mload(0x40)\n  dup1\n  0x40\n  add\n  0x40\n  mstore\n  dup1\n  0x10\n  dup2\n  mstore\n  0x20\n  add\n  0x6d792064656661756c742076616c756500000000000000000000000000000000\n  dup2\n  mstore\n  pop\n  0x04\n  swap1\n  dup2\n  tag_3\n  swap2\n  swap1\n  tag_2\n  jump\t// in\ntag_3:\n  pop\n    /* \"MyContract.sol\":995:999  true */\n  0x01\n    /* \"MyContract.sol\":974:999  bool public myBool = true */\n  0x05\n  exp(0x0100, 0x00)\n  dup2\n  sload\n  dup2\n  0xff\n  mul\n  not\n  and\n  swap1\n  dup4\n  iszero\n  iszero\n  mul\n  or\n  swap1\n  sstore\n  pop\n    /* \"MyContract.sol\":1018:1021  -24 */\n  0xffffffffffffffffffffffffffffffffffffffffffffffffffffffffffffffe8\n    /* \"MyContract.sol\":1005:1021  int256 age = -24 */\n  0x06\n  sstore\n    /* \"MyContract.sol\":1049:1126  33333333333333333333333333333333333333333333333333333333333333333333333333332 */\n  0x49b1ff823aa8f30618a504e7b15134ea38dd7e7a254635555555555555555554\n    /* \"MyContract.sol\":1027:1126  int256 temp =... */\n  0x07\n  sstore\n    /* \"MyContract.sol\":2368:2378  1681254150 */\n  0x6435e706\n    /* \"MyContract.sol\":2339:2378  uint256 public openingTime = 1681254150 */\n  0x09\n  sstore\n    /* \"MyContract.sol\":3136:3137  0 */\n  0x00\n    /* \"MyContract.sol\":3107:3137  uint256 public peopleCount = 0 */\n  0x0b\n  sstore\n    /* \"MyContract.sol\":1133:1327  constructor(address payable _wallet, address _token) {... */\n  callvalue\n  dup1\n  iszero\n  tag_4\n  jumpi\n  0x00\n  dup1\n  revert\ntag_4:\n  pop\n  mload(0x40)\n  sub(codesize, bytecodeSize)\n  dup1\n  bytecodeSize\n  dup4\n  codecopy\n  dup2\n  dup2\n  add\n  0x40\n  mstore\n  dup2\n  add\n  swap1\n  tag_5\n  swap2\n  swap1\n  tag_6\n  jump\t// in\ntag_5:\n    /* \"MyContract.sol\":1204:1217  State.Waiting */\n  0x00\n    /* \"MyContract.sol\":1196:1201  state */\n  0x08\n  0x00\n    /* \"MyContract.sol\":1196:1217  state = State.Waiting */\n  0x0100\n  exp\n  dup2\n  sload\n  dup2\n  0xff\n  mul\n  not\n  and\n  swap1\n  dup4\n  0x04\n  dup2\n  gt\n  iszero\n  tag_9\n  jumpi\n  tag_10\n  tag_11\n  jump\t// in\ntag_10:\ntag_9:\n  mul\n  or\n  swap1\n  sstore\n  pop\n    /* \"MyContract.sol\":1235:1245  msg.sender */\n  caller\n    /* \"MyContract.sol\":1227:1232  owner */\n  0x0a\n  0x00\n    /* \"MyContract.sol\":1227:1245  owner = msg.sender */\n  0x0100\n  exp\n  dup2\n  sload\n  dup2\n  0xffffffffffffffffffffffffffffffffffffffff\n  mul\n  not\n  and\n  swap1\n  dup4\n  0xffffffffffffffffffffffffffffffffffffffff\n  and\n  mul\n  or\n  swap1\n  sstore\n  pop\n    /* \"MyContract.sol\":1264:1271  _wallet */\n  dup2\n    /* \"MyContract.sol\":1255:1261  wallet */\n  0x00\n  dup1\n    /* \"MyContract.sol\":1255:1271  wallet = _wallet */\n  0x0100\n  exp\n  dup2\n  sload\n  dup2\n  0xffffffffffffffffffffffffffffffffffffffff\n  mul\n  not\n  and\n  swap1\n  dup4\n  0xffffffffffffffffffffffffffffffffffffffff\n  and\n  mul\n  or\n  swap1\n  sstore\n  pop\n    /* \"MyContract.sol\":1289:1295  _token */\n  dup1\n    /* \"MyContract.sol\":1281:1286  token */\n  0x01\n  0x00\n    /* \"MyContract.sol\":1281:1295  token = _token */\n  0x0100\n  exp\n  dup2\n  sload\n  dup2\n  0xffffffffffffffffffffffffffffffffffffffff\n  mul\n  not\n  and\n  swap1\n  dup4\n  0xffffffffffffffffffffffffffffffffffffffff\n  and\n  mul\n  or\n  swap1\n  sstore\n  pop\n    /* \"MyContract.sol\":1319:1320  1 */\n  0x01\n    /* \"MyContract.sol\":1305:1316  TOKEN_PRICE */\n  0x02\n    /* \"MyContract.sol\":1305:1320  TOKEN_PRICE = 1 */\n  dup2\n  swap1\n  sstore\n  pop\n    /* \"MyContract.sol\":1133:1327  constructor(address payable _wallet, address _token) {... */\n  pop\n  pop\n    /* \"MyContract.sol\":768:3564  contract MyContract {... */\n  jump(tag_12)\n    /* \"#utility.yul\":7:106   */\ntag_13:\n    /* \"#utility.yul\":59:65   */\n  0x00\n    /* \"#utility.yul\":93:98   */\n  dup2\n    /* \"#utility.yul\":87:99   */\n  mload\n    /* \"#utility.yul\":77:99   */\n  swap1\n  pop\n    /* \"#utility.yul\":7:106   */\n  swap2\n  swap1\n  pop\n  jump\t// out\n    /* \"#utility.yul\":112:292   */\ntag_14:\n    /* \"#utility.yul\":160:237   */\n  0x4e487b7100000000000000000000000000000000000000000000000000000000\n    /* \"#utility.yul\":157:158   */\n  0x00\n    /* \"#utility.yul\":150:238   */\n  mstore\n    /* \"#utility.yul\":257:261   */\n  0x41\n    /* \"#utility.yul\":254:255   */\n  0x04\n    /* \"#utility.yul\":247:262   */\n  mstore\n    /* \"#utility.yul\":281:285   */\n  0x24\n    /* \"#utility.yul\":278:279   */\n  0x00\n    /* \"#utility.yul\":271:286   */\n  revert\n    /* \"#utility.yul\":298:478   */\ntag_15:\n    /* \"#utility.yul\":346:423   */\n  0x4e487b7100000000000000000000000000000000000000000000000000000000\n    /* \"#utility.yul\":343:344   */\n  0x00\n    /* \"#utility.yul\":336:424   */\n  mstore\n    /* \"#utility.yul\":443:447   */\n  0x22\n    /* \"#utility.yul\":440:441   */\n  0x04\n    /* \"#utility.yul\":433:448   */\n  mstore\n    /* \"#utility.yul\":467:471   */\n  0x24\n    /* \"#utility.yul\":464:465   */\n  0x00\n    /* \"#utility.yul\":457:472   */\n  revert\n    /* \"#utility.yul\":484:804   */\ntag_16:\n    /* \"#utility.yul\":528:534   */\n  0x00\n    /* \"#utility.yul\":565:566   */\n  0x02\n    /* \"#utility.yul\":559:563   */\n  dup3\n    /* \"#utility.yul\":555:567   */\n  div\n    /* \"#utility.yul\":545:567   */\n  swap1\n  pop\n    /* \"#utility.yul\":612:613   */\n  0x01\n    /* \"#utility.yul\":606:610   */\n  dup3\n    /* \"#utility.yul\":602:614   */\n  and\n    /* \"#utility.yul\":633:651   */\n  dup1\n    /* \"#utility.yul\":623:704   */\n  tag_48\n  jumpi\n    /* \"#utility.yul\":689:693   */\n  0x7f\n    /* \"#utility.yul\":681:687   */\n  dup3\n    /* \"#utility.yul\":677:694   */\n  and\n    /* \"#utility.yul\":667:694   */\n  swap2\n  pop\n    /* \"#utility.yul\":623:704   */\ntag_48:\n    /* \"#utility.yul\":751:753   */\n  0x20\n    /* \"#utility.yul\":743:749   */\n  dup3\n    /* \"#utility.yul\":740:754   */\n  lt\n    /* \"#utility.yul\":720:738   */\n  dup2\n    /* \"#utility.yul\":717:755   */\n  sub\n    /* \"#utility.yul\":714:798   */\n  tag_49\n  jumpi\n    /* \"#utility.yul\":770:788   */\n  tag_50\n  tag_15\n  jump\t// in\ntag_50:\n    /* \"#utility.yul\":714:798   */\ntag_49:\n    /* \"#utility.yul\":535:804   */\n  pop\n    /* \"#utility.yul\":484:804   */\n  swap2\n  swap1\n  pop\n  jump\t// out\n    /* \"#utility.yul\":810:951   */\ntag_17:\n    /* \"#utility.yul\":859:863   */\n  0x00\n    /* \"#utility.yul\":882:885   */\n  dup2\n    /* \"#utility.yul\":874:885   */\n  swap1\n  pop\n    /* \"#utility.yul\":905:908   */\n  dup2\n    /* \"#utility.yul\":902:903   */\n  0x00\n    /* \"#utility.yul\":895:909   */\n  mstore\n    /* \"#utility.yul\":939:943   */\n  0x20\n    /* \"#utility.yul\":936:937   */\n  0x00\n    /* \"#utility.yul\":926:944   */\n  keccak256\n    /* \"#utility.yul\":918:944   */\n  swap1\n  pop\n    /* \"#utility.yul\":810:951   */\n  swap2\n  swap1\n  pop\n  jump\t// out\n    /* \"#utility.yul\":957:1050   */\ntag_18:\n    /* \"#utility.yul\":994:1000   */\n  0x00\n    /* \"#utility.yul\":1041:1043   */\n  0x20\n    /* \"#utility.yul\":1036:1038   */\n  0x1f\n    /* \"#utility.yul\":1029:1034   */\n  dup4\n    /* \"#utility.yul\":1025:1039   */\n  add\n    /* \"#utility.yul\":1021:1044   */\n  div\n    /* \"#utility.yul\":1011:1044   */\n  swap1\n  pop\n    /* \"#utility.yul\":957:1050   */\n  swap2\n  swap1\n  pop\n  jump\t// out\n    /* \"#utility.yul\":1056:1163   */\ntag_19:\n    /* \"#utility.yul\":1100:1108   */\n  0x00\n    /* \"#utility.yul\":1150:1155   */\n  dup3\n    /* \"#utility.yul\":1144:1148   */\n  dup3\n    /* \"#utility.yul\":1140:1156   */\n  shl\n    /* \"#utility.yul\":1119:1156   */\n  swap1\n  pop\n    /* \"#utility.yul\":1056:1163   */\n  swap3\n  swap2\n  pop\n  pop\n  jump\t// out\n    /* \"#utility.yul\":1169:1562   */\ntag_20:\n    /* \"#utility.yul\":1238:1244   */\n  0x00\n    /* \"#utility.yul\":1288:1289   */\n  0x08\n    /* \"#utility.yul\":1276:1286   */\n  dup4\n    /* \"#utility.yul\":1272:1290   */\n  mul\n    /* \"#utility.yul\":1311:1408   */\n  tag_55\n    /* \"#utility.yul\":1341:1407   */\n  0xffffffffffffffffffffffffffffffffffffffffffffffffffffffffffffffff\n    /* \"#utility.yul\":1330:1339   */\n  dup3\n    /* \"#utility.yul\":1311:1408   */\n  tag_19\n  jump\t// in\ntag_55:\n    /* \"#utility.yul\":1429:1468   */\n  tag_56\n    /* \"#utility.yul\":1459:1467   */\n  dup7\n    /* \"#utility.yul\":1448:1457   */\n  dup4\n    /* \"#utility.yul\":1429:1468   */\n  tag_19\n  jump\t// in\ntag_56:\n    /* \"#utility.yul\":1417:1468   */\n  swap6\n  pop\n    /* \"#utility.yul\":1501:1505   */\n  dup1\n    /* \"#utility.yul\":1497:1506   */\n  not\n    /* \"#utility.yul\":1490:1495   */\n  dup5\n    /* \"#utility.yul\":1486:1507   */\n  and\n    /* \"#utility.yul\":1477:1507   */\n  swap4\n  pop\n    /* \"#utility.yul\":1550:1554   */\n  dup1\n    /* \"#utility.yul\":1540:1548   */\n  dup7\n    /* \"#utility.yul\":1536:1555   */\n  and\n    /* \"#utility.yul\":1529:1534   */\n  dup5\n    /* \"#utility.yul\":1526:1556   */\n  or\n    /* \"#utility.yul\":1516:1556   */\n  swap3\n  pop\n    /* \"#utility.yul\":1245:1562   */\n  pop\n  pop\n    /* \"#utility.yul\":1169:1562   */\n  swap4\n  swap3\n  pop\n  pop\n  pop\n  jump\t// out\n    /* \"#utility.yul\":1568:1645   */\ntag_21:\n    /* \"#utility.yul\":1605:1612   */\n  0x00\n    /* \"#utility.yul\":1634:1639   */\n  dup2\n    /* \"#utility.yul\":1623:1639   */\n  swap1\n  pop\n    /* \"#utility.yul\":1568:1645   */\n  swap2\n  swap1\n  pop\n  jump\t// out\n    /* \"#utility.yul\":1651:1711   */\ntag_22:\n    /* \"#utility.yul\":1679:1682   */\n  0x00\n    /* \"#utility.yul\":1700:1705   */\n  dup2\n    /* \"#utility.yul\":1693:1705   */\n  swap1\n  pop\n    /* \"#utility.yul\":1651:1711   */\n  swap2\n  swap1\n  pop\n  jump\t// out\n    /* \"#utility.yul\":1717:1859   */\ntag_23:\n    /* \"#utility.yul\":1767:1776   */\n  0x00\n    /* \"#utility.yul\":1800:1853   */\n  tag_60\n    /* \"#utility.yul\":1818:1852   */\n  tag_61\n    /* \"#utility.yul\":1827:1851   */\n  tag_62\n    /* \"#utility.yul\":1845:1850   */\n  dup5\n    /* \"#utility.yul\":1827:1851   */\n  tag_21\n  jump\t// in\ntag_62:\n    /* \"#utility.yul\":1818:1852   */\n  tag_22\n  jump\t// in\ntag_61:\n    /* \"#utility.yul\":1800:1853   */\n  tag_21\n  jump\t// in\ntag_60:\n    /* \"#utility.yul\":1787:1853   */\n  swap1\n  pop\n    /* \"#utility.yul\":1717:1859   */\n  swap2\n  swap1\n  pop\n  jump\t// out\n    /* \"#utility.yul\":1865:1940   */\ntag_24:\n    /* \"#utility.yul\":1908:1911   */\n  0x00\n    /* \"#utility.yul\":1929:1934   */\n  dup2\n    /* \"#utility.yul\":1922:1934   */\n  swap1\n  pop\n    /* \"#utility.yul\":1865:1940   */\n  swap2\n  swap1\n  pop\n  jump\t// out\n    /* \"#utility.yul\":1946:2215   */\ntag_25:\n    /* \"#utility.yul\":2056:2095   */\n  tag_65\n    /* \"#utility.yul\":2087:2094   */\n  dup4\n    /* \"#utility.yul\":2056:2095   */\n  tag_23\n  jump\t// in\ntag_65:\n    /* \"#utility.yul\":2117:2208   */\n  tag_66\n    /* \"#utility.yul\":2166:2207   */\n  tag_67\n    /* \"#utility.yul\":2190:2206   */\n  dup3\n    /* \"#utility.yul\":2166:2207   */\n  tag_24\n  jump\t// in\ntag_67:\n    /* \"#utility.yul\":2158:2164   */\n  dup5\n    /* \"#utility.yul\":2151:2155   */\n  dup5\n    /* \"#utility.yul\":2145:2156   */\n  sload\n    /* \"#utility.yul\":2117:2208   */\n  tag_20\n  jump\t// in\ntag_66:\n    /* \"#utility.yul\":2111:2115   */\n  dup3\n    /* \"#utility.yul\":2104:2209   */\n  sstore\n    /* \"#utility.yul\":2022:2215   */\n  pop\n    /* \"#utility.yul\":1946:2215   */\n  pop\n  pop\n  pop\n  jump\t// out\n    /* \"#utility.yul\":2221:2294   */\ntag_26:\n    /* \"#utility.yul\":2266:2269   */\n  0x00\n    /* \"#utility.yul\":2221:2294   */\n  swap1\n  jump\t// out\n    /* \"#utility.yul\":2300:2489   */\ntag_27:\n    /* \"#utility.yul\":2377:2409   */\n  tag_70\n  tag_26\n  jump\t// in\ntag_70:\n    /* \"#utility.yul\":2418:2483   */\n  tag_71\n    /* \"#utility.yul\":2476:2482   */\n  dup2\n    /* \"#utility.yul\":2468:2474   */\n  dup5\n    /* \"#utility.yul\":2462:2466   */\n  dup5\n    /* \"#utility.yul\":2418:2483   */\n  tag_25\n  jump\t// in\ntag_71:\n    /* \"#utility.yul\":2353:2489   */\n  pop\n    /* \"#utility.yul\":2300:2489   */\n  pop\n  pop\n  jump\t// out\n    /* \"#utility.yul\":2495:2681   */\ntag_28:\n    /* \"#utility.yul\":2555:2675   */\ntag_73:\n    /* \"#utility.yul\":2572:2575   */\n  dup2\n    /* \"#utility.yul\":2565:2570   */\n  dup2\n    /* \"#utility.yul\":2562:2576   */\n  lt\n    /* \"#utility.yul\":2555:2675   */\n  iszero\n  tag_75\n  jumpi\n    /* \"#utility.yul\":2626:2665   */\n  tag_76\n    /* \"#utility.yul\":2663:2664   */\n  0x00\n    /* \"#utility.yul\":2656:2661   */\n  dup3\n    /* \"#utility.yul\":2626:2665   */\n  tag_27\n  jump\t// in\ntag_76:\n    /* \"#utility.yul\":2599:2600   */\n  0x01\n    /* \"#utility.yul\":2592:2597   */\n  dup2\n    /* \"#utility.yul\":2588:2601   */\n  add\n    /* \"#utility.yul\":2579:2601   */\n  swap1\n  pop\n    /* \"#utility.yul\":2555:2675   */\n  jump(tag_73)\ntag_75:\n    /* \"#utility.yul\":2495:2681   */\n  pop\n  pop\n  jump\t// out\n    /* \"#utility.yul\":2687:3230   */\ntag_29:\n    /* \"#utility.yul\":2788:2790   */\n  0x1f\n    /* \"#utility.yul\":2783:2786   */\n  dup3\n    /* \"#utility.yul\":2780:2791   */\n  gt\n    /* \"#utility.yul\":2777:3223   */\n  iszero\n  tag_78\n  jumpi\n    /* \"#utility.yul\":2822:2860   */\n  tag_79\n    /* \"#utility.yul\":2854:2859   */\n  dup2\n    /* \"#utility.yul\":2822:2860   */\n  tag_17\n  jump\t// in\ntag_79:\n    /* \"#utility.yul\":2906:2935   */\n  tag_80\n    /* \"#utility.yul\":2924:2934   */\n  dup5\n    /* \"#utility.yul\":2906:2935   */\n  tag_18\n  jump\t// in\ntag_80:\n    /* \"#utility.yul\":2896:2904   */\n  dup2\n    /* \"#utility.yul\":2892:2936   */\n  add\n    /* \"#utility.yul\":3089:3091   */\n  0x20\n    /* \"#utility.yul\":3077:3087   */\n  dup6\n    /* \"#utility.yul\":3074:3092   */\n  lt\n    /* \"#utility.yul\":3071:3120   */\n  iszero\n  tag_81\n  jumpi\n    /* \"#utility.yul\":3110:3118   */\n  dup2\n    /* \"#utility.yul\":3095:3118   */\n  swap1\n  pop\n    /* \"#utility.yul\":3071:3120   */\ntag_81:\n    /* \"#utility.yul\":3133:3213   */\n  tag_82\n    /* \"#utility.yul\":3189:3211   */\n  tag_83\n    /* \"#utility.yul\":3207:3210   */\n  dup6\n    /* \"#utility.yul\":3189:3211   */\n  tag_18\n  jump\t// in\ntag_83:\n    /* \"#utility.yul\":3179:3187   */\n  dup4\n    /* \"#utility.yul\":3175:3212   */\n  add\n    /* \"#utility.yul\":3162:3173   */\n  dup3\n    /* \"#utility.yul\":3133:3213   */\n  tag_28\n  jump\t// in\ntag_82:\n    /* \"#utility.yul\":2792:3223   */\n  pop\n  pop\n    /* \"#utility.yul\":2777:3223   */\ntag_78:\n    /* \"#utility.yul\":2687:3230   */\n  pop\n  pop\n  pop\n  jump\t// out\n    /* \"#utility.yul\":3236:3353   */\ntag_30:\n    /* \"#utility.yul\":3290:3298   */\n  0x00\n    /* \"#utility.yul\":3340:3345   */\n  dup3\n    /* \"#utility.yul\":3334:3338   */\n  dup3\n    /* \"#utility.yul\":3330:3346   */\n  shr\n    /* \"#utility.yul\":3309:3346   */\n  swap1\n  pop\n    /* \"#utility.yul\":3236:3353   */\n  swap3\n  swap2\n  pop\n  pop\n  jump\t// out\n    /* \"#utility.yul\":3359:3528   */\ntag_31:\n    /* \"#utility.yul\":3403:3409   */\n  0x00\n    /* \"#utility.yul\":3436:3487   */\n  tag_86\n    /* \"#utility.yul\":3484:3485   */\n  0x00\n    /* \"#utility.yul\":3480:3486   */\n  not\n    /* \"#utility.yul\":3472:3477   */\n  dup5\n    /* \"#utility.yul\":3469:3470   */\n  0x08\n    /* \"#utility.yul\":3465:3478   */\n  mul\n    /* \"#utility.yul\":3436:3487   */\n  tag_30\n  jump\t// in\ntag_86:\n    /* \"#utility.yul\":3432:3488   */\n  not\n    /* \"#utility.yul\":3517:3521   */\n  dup1\n    /* \"#utility.yul\":3511:3515   */\n  dup4\n    /* \"#utility.yul\":3507:3522   */\n  and\n    /* \"#utility.yul\":3497:3522   */\n  swap2\n  pop\n    /* \"#utility.yul\":3410:3528   */\n  pop\n    /* \"#utility.yul\":3359:3528   */\n  swap3\n  swap2\n  pop\n  pop\n  jump\t// out\n    /* \"#utility.yul\":3533:3828   */\ntag_32:\n    /* \"#utility.yul\":3609:3613   */\n  0x00\n    /* \"#utility.yul\":3755:3784   */\n  tag_88\n    /* \"#utility.yul\":3780:3783   */\n  dup4\n    /* \"#utility.yul\":3774:3778   */\n  dup4\n    /* \"#utility.yul\":3755:3784   */\n  tag_31\n  jump\t// in\ntag_88:\n    /* \"#utility.yul\":3747:3784   */\n  swap2\n  pop\n    /* \"#utility.yul\":3817:3820   */\n  dup3\n    /* \"#utility.yul\":3814:3815   */\n  0x02\n    /* \"#utility.yul\":3810:3821   */\n  mul\n    /* \"#utility.yul\":3804:3808   */\n  dup3\n    /* \"#utility.yul\":3801:3822   */\n  or\n    /* \"#utility.yul\":3793:3822   */\n  swap1\n  pop\n    /* \"#utility.yul\":3533:3828   */\n  swap3\n  swap2\n  pop\n  pop\n  jump\t// out\n    /* \"#utility.yul\":3833:5228   */\ntag_2:\n    /* \"#utility.yul\":3950:3987   */\n  tag_90\n    /* \"#utility.yul\":3983:3986   */\n  dup3\n    /* \"#utility.yul\":3950:3987   */\n  tag_13\n  jump\t// in\ntag_90:\n    /* \"#utility.yul\":4052:4070   */\n  0xffffffffffffffff\n    /* \"#utility.yul\":4044:4050   */\n  dup2\n    /* \"#utility.yul\":4041:4071   */\n  gt\n    /* \"#utility.yul\":4038:4094   */\n  iszero\n  tag_91\n  jumpi\n    /* \"#utility.yul\":4074:4092   */\n  tag_92\n  tag_14\n  jump\t// in\ntag_92:\n    /* \"#utility.yul\":4038:4094   */\ntag_91:\n    /* \"#utility.yul\":4118:4156   */\n  tag_93\n    /* \"#utility.yul\":4150:4154   */\n  dup3\n    /* \"#utility.yul\":4144:4155   */\n  sload\n    /* \"#utility.yul\":4118:4156   */\n  tag_16\n  jump\t// in\ntag_93:\n    /* \"#utility.yul\":4203:4270   */\n  tag_94\n    /* \"#utility.yul\":4263:4269   */\n  dup3\n    /* \"#utility.yul\":4255:4261   */\n  dup3\n    /* \"#utility.yul\":4249:4253   */\n  dup6\n    /* \"#utility.yul\":4203:4270   */\n  tag_29\n  jump\t// in\ntag_94:\n    /* \"#utility.yul\":4297:4298   */\n  0x00\n    /* \"#utility.yul\":4321:4325   */\n  0x20\n    /* \"#utility.yul\":4308:4325   */\n  swap1\n  pop\n    /* \"#utility.yul\":4353:4355   */\n  0x1f\n    /* \"#utility.yul\":4345:4351   */\n  dup4\n    /* \"#utility.yul\":4342:4356   */\n  gt\n    /* \"#utility.yul\":4370:4371   */\n  0x01\n    /* \"#utility.yul\":4365:4983   */\n  dup2\n  eq\n  tag_96\n  jumpi\n    /* \"#utility.yul\":5027:5028   */\n  0x00\n    /* \"#utility.yul\":5044:5050   */\n  dup5\n    /* \"#utility.yul\":5041:5118   */\n  iszero\n  tag_97\n  jumpi\n    /* \"#utility.yul\":5093:5102   */\n  dup3\n    /* \"#utility.yul\":5088:5091   */\n  dup8\n    /* \"#utility.yul\":5084:5103   */\n  add\n    /* \"#utility.yul\":5078:5104   */\n  mload\n    /* \"#utility.yul\":5069:5104   */\n  swap1\n  pop\n    /* \"#utility.yul\":5041:5118   */\ntag_97:\n    /* \"#utility.yul\":5144:5211   */\n  tag_98\n    /* \"#utility.yul\":5204:5210   */\n  dup6\n    /* \"#utility.yul\":5197:5202   */\n  dup3\n    /* \"#utility.yul\":5144:5211   */\n  tag_32\n  jump\t// in\ntag_98:\n    /* \"#utility.yul\":5138:5142   */\n  dup7\n    /* \"#utility.yul\":5131:5212   */\n  sstore\n    /* \"#utility.yul\":5000:5222   */\n  pop\n    /* \"#utility.yul\":4335:5222   */\n  jump(tag_95)\n    /* \"#utility.yul\":4365:4983   */\ntag_96:\n    /* \"#utility.yul\":4417:4421   */\n  0x1f\n    /* \"#utility.yul\":4413:4422   */\n  not\n    /* \"#utility.yul\":4405:4411   */\n  dup5\n    /* \"#utility.yul\":4401:4423   */\n  and\n    /* \"#utility.yul\":4451:4488   */\n  tag_99\n    /* \"#utility.yul\":4483:4487   */\n  dup7\n    /* \"#utility.yul\":4451:4488   */\n  tag_17\n  jump\t// in\ntag_99:\n    /* \"#utility.yul\":4510:4511   */\n  0x00\n    /* \"#utility.yul\":4524:4732   */\ntag_100:\n    /* \"#utility.yul\":4538:4545   */\n  dup3\n    /* \"#utility.yul\":4535:4536   */\n  dup2\n    /* \"#utility.yul\":4532:4546   */\n  lt\n    /* \"#utility.yul\":4524:4732   */\n  iszero\n  tag_102\n  jumpi\n    /* \"#utility.yul\":4617:4626   */\n  dup5\n    /* \"#utility.yul\":4612:4615   */\n  dup10\n    /* \"#utility.yul\":4608:4627   */\n  add\n    /* \"#utility.yul\":4602:4628   */\n  mload\n    /* \"#utility.yul\":4594:4600   */\n  dup3\n    /* \"#utility.yul\":4587:4629   */\n  sstore\n    /* \"#utility.yul\":4668:4669   */\n  0x01\n    /* \"#utility.yul\":4660:4666   */\n  dup3\n    /* \"#utility.yul\":4656:4670   */\n  add\n    /* \"#utility.yul\":4646:4670   */\n  swap2\n  pop\n    /* \"#utility.yul\":4715:4717   */\n  0x20\n    /* \"#utility.yul\":4704:4713   */\n  dup6\n    /* \"#utility.yul\":4700:4718   */\n  add\n    /* \"#utility.yul\":4687:4718   */\n  swap5\n  pop\n    /* \"#utility.yul\":4561:4565   */\n  0x20\n    /* \"#utility.yul\":4558:4559   */\n  dup2\n    /* \"#utility.yul\":4554:4566   */\n  add\n    /* \"#utility.yul\":4549:4566   */\n  swap1\n  pop\n    /* \"#utility.yul\":4524:4732   */\n  jump(tag_100)\ntag_102:\n    /* \"#utility.yul\":4760:4766   */\n  dup7\n    /* \"#utility.yul\":4751:4758   */\n  dup4\n    /* \"#utility.yul\":4748:4767   */\n  lt\n    /* \"#utility.yul\":4745:4924   */\n  iszero\n  tag_103\n  jumpi\n    /* \"#utility.yul\":4818:4827   */\n  dup5\n    /* \"#utility.yul\":4813:4816   */\n  dup10\n    /* \"#utility.yul\":4809:4828   */\n  add\n    /* \"#utility.yul\":4803:4829   */\n  mload\n    /* \"#utility.yul\":4861:4909   */\n  tag_104\n    /* \"#utility.yul\":4903:4907   */\n  0x1f\n    /* \"#utility.yul\":4895:4901   */\n  dup10\n    /* \"#utility.yul\":4891:4908   */\n  and\n    /* \"#utility.yul\":4880:4889   */\n  dup3\n    /* \"#utility.yul\":4861:4909   */\n  tag_31\n  jump\t// in\ntag_104:\n    /* \"#utility.yul\":4853:4859   */\n  dup4\n    /* \"#utility.yul\":4846:4910   */\n  sstore\n    /* \"#utility.yul\":4768:4924   */\n  pop\n    /* \"#utility.yul\":4745:4924   */\ntag_103:\n    /* \"#utility.yul\":4970:4971   */\n  0x01\n    /* \"#utility.yul\":4966:4967   */\n  0x02\n    /* \"#utility.yul\":4958:4964   */\n  dup9\n    /* \"#utility.yul\":4954:4968   */\n  mul\n    /* \"#utility.yul\":4950:4972   */\n  add\n    /* \"#utility.yul\":4944:4948   */\n  dup9\n    /* \"#utility.yul\":4937:4973   */\n  sstore\n    /* \"#utility.yul\":4372:4983   */\n  pop\n  pop\n  pop\n    /* \"#utility.yul\":4335:5222   */\ntag_95:\n  pop\n    /* \"#utility.yul\":3925:5228   */\n  pop\n  pop\n  pop\n    /* \"#utility.yul\":3833:5228   */\n  pop\n  pop\n  jump\t// out\n    /* \"#utility.yul\":5315:5432   */\ntag_34:\n    /* \"#utility.yul\":5424:5425   */\n  0x00\n    /* \"#utility.yul\":5421:5422   */\n  dup1\n    /* \"#utility.yul\":5414:5426   */\n  revert\n    /* \"#utility.yul\":5561:5687   */\ntag_36:\n    /* \"#utility.yul\":5598:5605   */\n  0x00\n    /* \"#utility.yul\":5638:5680   */\n  0xffffffffffffffffffffffffffffffffffffffff\n    /* \"#utility.yul\":5631:5636   */\n  dup3\n    /* \"#utility.yul\":5627:5681   */\n  and\n    /* \"#utility.yul\":5616:5681   */\n  swap1\n  pop\n    /* \"#utility.yul\":5561:5687   */\n  swap2\n  swap1\n  pop\n  jump\t// out\n    /* \"#utility.yul\":5693:5797   */\ntag_37:\n    /* \"#utility.yul\":5738:5745   */\n  0x00\n    /* \"#utility.yul\":5767:5791   */\n  tag_110\n    /* \"#utility.yul\":5785:5790   */\n  dup3\n    /* \"#utility.yul\":5767:5791   */\n  tag_36\n  jump\t// in\ntag_110:\n    /* \"#utility.yul\":5756:5791   */\n  swap1\n  pop\n    /* \"#utility.yul\":5693:5797   */\n  swap2\n  swap1\n  pop\n  jump\t// out\n    /* \"#utility.yul\":5803:5941   */\ntag_38:\n    /* \"#utility.yul\":5884:5916   */\n  tag_112\n    /* \"#utility.yul\":5910:5915   */\n  dup2\n    /* \"#utility.yul\":5884:5916   */\n  tag_37\n  jump\t// in\ntag_112:\n    /* \"#utility.yul\":5877:5882   */\n  dup2\n    /* \"#utility.yul\":5874:5917   */\n  eq\n    /* \"#utility.yul\":5864:5935   */\n  tag_113\n  jumpi\n    /* \"#utility.yul\":5931:5932   */\n  0x00\n    /* \"#utility.yul\":5928:5929   */\n  dup1\n    /* \"#utility.yul\":5921:5933   */\n  revert\n    /* \"#utility.yul\":5864:5935   */\ntag_113:\n    /* \"#utility.yul\":5803:5941   */\n  pop\n  jump\t// out\n    /* \"#utility.yul\":5947:6106   */\ntag_39:\n    /* \"#utility.yul\":6012:6017   */\n  0x00\n    /* \"#utility.yul\":6043:6049   */\n  dup2\n    /* \"#utility.yul\":6037:6050   */\n  mload\n    /* \"#utility.yul\":6028:6050   */\n  swap1\n  pop\n    /* \"#utility.yul\":6059:6100   */\n  tag_115\n    /* \"#utility.yul\":6094:6099   */\n  dup2\n    /* \"#utility.yul\":6059:6100   */\n  tag_38\n  jump\t// in\ntag_115:\n    /* \"#utility.yul\":5947:6106   */\n  swap3\n  swap2\n  pop\n  pop\n  jump\t// out\n    /* \"#utility.yul\":6112:6208   */\ntag_40:\n    /* \"#utility.yul\":6149:6156   */\n  0x00\n    /* \"#utility.yul\":6178:6202   */\n  tag_117\n    /* \"#utility.yul\":6196:6201   */\n  dup3\n    /* \"#utility.yul\":6178:6202   */\n  tag_36\n  jump\t// in\ntag_117:\n    /* \"#utility.yul\":6167:6202   */\n  swap1\n  pop\n    /* \"#utility.yul\":6112:6208   */\n  swap2\n  swap1\n  pop\n  jump\t// out\n    /* \"#utility.yul\":6214:6336   */\ntag_41:\n    /* \"#utility.yul\":6287:6311   */\n  tag_119\n    /* \"#utility.yul\":6305:6310   */\n  dup2\n    /* \"#utility.yul\":6287:6311   */\n  tag_40\n  jump\t// in\ntag_119:\n    /* \"#utility.yul\":6280:6285   */\n  dup2\n    /* \"#utility.yul\":6277:6312   */\n  eq\n    /* \"#utility.yul\":6267:6330   */\n  tag_120\n  jumpi\n    /* \"#utility.yul\":6326:6327   */\n  0x00\n    /* \"#utility.yul\":6323:6324   */\n  dup1\n    /* \"#utility.yul\":6316:6328   */\n  revert\n    /* \"#utility.yul\":6267:6330   */\ntag_120:\n    /* \"#utility.yul\":6214:6336   */\n  pop\n  jump\t// out\n    /* \"#utility.yul\":6342:6485   */\ntag_42:\n    /* \"#utility.yul\":6399:6404   */\n  0x00\n    /* \"#utility.yul\":6430:6436   */\n  dup2\n    /* \"#utility.yul\":6424:6437   */\n  mload\n    /* \"#utility.yul\":6415:6437   */\n  swap1\n  pop\n    /* \"#utility.yul\":6446:6479   */\n  tag_122\n    /* \"#utility.yul\":6473:6478   */\n  dup2\n    /* \"#utility.yul\":6446:6479   */\n  tag_41\n  jump\t// in\ntag_122:\n    /* \"#utility.yul\":6342:6485   */\n  swap3\n  swap2\n  pop\n  pop\n  jump\t// out\n    /* \"#utility.yul\":6491:7014   */\ntag_6:\n    /* \"#utility.yul\":6578:6584   */\n  0x00\n    /* \"#utility.yul\":6586:6592   */\n  dup1\n    /* \"#utility.yul\":6635:6637   */\n  0x40\n    /* \"#utility.yul\":6623:6632   */\n  dup4\n    /* \"#utility.yul\":6614:6621   */\n  dup6\n    /* \"#utility.yul\":6610:6633   */\n  sub\n    /* \"#utility.yul\":6606:6638   */\n  slt\n    /* \"#utility.yul\":6603:6722   */\n  iszero\n  tag_124\n  jumpi\n    /* \"#utility.yul\":6641:6720   */\n  tag_125\n  tag_34\n  jump\t// in\ntag_125:\n    /* \"#utility.yul\":6603:6722   */\ntag_124:\n    /* \"#utility.yul\":6761:6762   */\n  0x00\n    /* \"#utility.yul\":6786:6858   */\n  tag_126\n    /* \"#utility.yul\":6850:6857   */\n  dup6\n    /* \"#utility.yul\":6841:6847   */\n  dup3\n    /* \"#utility.yul\":6830:6839   */\n  dup7\n    /* \"#utility.yul\":6826:6848   */\n  add\n    /* \"#utility.yul\":6786:6858   */\n  tag_39\n  jump\t// in\ntag_126:\n    /* \"#utility.yul\":6776:6858   */\n  swap3\n  pop\n    /* \"#utility.yul\":6732:6868   */\n  pop\n    /* \"#utility.yul\":6907:6909   */\n  0x20\n    /* \"#utility.yul\":6933:6997   */\n  tag_127\n    /* \"#utility.yul\":6989:6996   */\n  dup6\n    /* \"#utility.yul\":6980:6986   */\n  dup3\n    /* \"#utility.yul\":6969:6978   */\n  dup7\n    /* \"#utility.yul\":6965:6987   */\n  add\n    /* \"#utility.yul\":6933:6997   */\n  tag_42\n  jump\t// in\ntag_127:\n    /* \"#utility.yul\":6923:6997   */\n  swap2\n  pop\n    /* \"#utility.yul\":6878:7007   */\n  pop\n    /* \"#utility.yul\":6491:7014   */\n  swap3\n  pop\n  swap3\n  swap1\n  pop\n  jump\t// out\n    /* \"#utility.yul\":7020:7200   */\ntag_11:\n    /* \"#utility.yul\":7068:7145   */\n  0x4e487b7100000000000000000000000000000000000000000000000000000000\n    /* \"#utility.yul\":7065:7066   */\n  0x00\n    /* \"#utility.yul\":7058:7146   */\n  mstore\n    /* \"#utility.yul\":7165:7169   */\n  0x21\n    /* \"#utility.yul\":7162:7163   */\n  0x04\n    /* \"#utility.yul\":7155:7170   */\n  mstore\n    /* \"#utility.yul\":7189:7193   */\n  0x24\n    /* \"#utility.yul\":7186:7187   */\n  0x00\n    /* \"#utility.yul\":7179:7194   */\n  revert\n    /* \"MyContract.sol\":768:3564  contract MyContract {... */\ntag_12:\n  dataSize(sub_0)\n  dup1\n  dataOffset(sub_0)\n  0x00\n  codecopy\n  0x00\n  return\nstop\n\nsub_0: assembly {\n        /* \"MyContract.sol\":768:3564  contract MyContract {... */\n      mstore(0x40, 0x80)\n      jumpi(tag_1, lt(calldatasize, 0x04))\n      shr(0xe0, calldataload(0x00))\n      dup1\n      0x7dc93929\n      gt\n      tag_18\n      jumpi\n      dup1\n      0xa6f9dae1\n      gt\n      tag_19\n      jumpi\n      dup1\n      0xa6f9dae1\n      eq\n      tag_14\n      jumpi\n      dup1\n      0xb7a8807c\n      eq\n      tag_15\n      jumpi\n      dup1\n      0xb96c9d6d\n      eq\n      tag_16\n      jumpi\n      dup1\n      0xc19d93fb\n      eq\n      tag_17\n      jumpi\n      jump(tag_2)\n    tag_19:\n      dup1\n      0x7dc93929\n      eq\n      tag_10\n      jumpi\n      dup1\n      0x7e72fb52\n      eq\n      tag_11\n      jumpi\n      dup1\n      0x8da5cb5b\n      eq\n      tag_12\n      jumpi\n      dup1\n      0x9e7a13ad\n      eq\n      tag_13\n      jumpi\n      jump(tag_2)\n    tag_18:\n      dup1\n      0x22f5b58d\n      gt\n      tag_20\n      jumpi\n      dup1\n      0x22f5b58d\n      eq\n      tag_6\n      jumpi\n      dup1\n      0x267c68e0\n      eq\n      tag_7\n      jumpi\n      dup1\n      0x3fa4f245\n      eq\n      tag_8\n      jumpi\n      dup1\n      0x6deecdbe\n      eq\n      tag_9\n      jumpi\n      jump(tag_2)\n    tag_20:\n      dup1\n      0x0f15f4c0\n      eq\n      tag_3\n      jumpi\n      dup1\n      0x0fbfb192\n      eq\n      tag_4\n      jumpi\n      dup1\n      0x22f3e2d4\n      eq\n      tag_5\n      jumpi\n      jump(tag_2)\n    tag_1:\n      jumpi(tag_2, calldatasize)\n        /* \"MyContract.sol\":1680:1696  buyToken(wallet) */\n      tag_23\n        /* \"MyContract.sol\":1689:1695  wallet */\n      0x00\n      dup1\n      sload\n      swap1\n      0x0100\n      exp\n      swap1\n      div\n      0xffffffffffffffffffffffffffffffffffffffff\n      and\n        /* \"MyContract.sol\":1680:1688  buyToken */\n      tag_24\n        /* \"MyContract.sol\":1680:1696  buyToken(wallet) */\n      jump\t// in\n    tag_23:\n        /* \"MyContract.sol\":768:3564  contract MyContract {... */\n      stop\n    tag_2:\n      0x00\n      dup1\n      revert\n        /* \"MyContract.sol\":2763:2902  function activate() public onlyOwner returns (string memory) {... */\n    tag_3:\n      callvalue\n      dup1\n      iszero\n      tag_25\n      jumpi\n      0x00\n      dup1\n      revert\n    tag_25:\n      pop\n      tag_26\n      tag_27\n      jump\t// in\n    tag_26:\n      mload(0x40)\n      tag_28\n      swap2\n      swap1\n      tag_29\n      jump\t// in\n    tag_28:\n      mload(0x40)\n      dup1\n      swap2\n      sub\n      swap1\n      return\n        /* \"MyContract.sol\":1333:1507  function buyTokenOld() public payable {... */\n    tag_4:\n      tag_30\n      tag_31\n      jump\t// in\n    tag_30:\n      stop\n        /* \"MyContract.sol\":2908:3000  function isActive() public view returns (bool) {... */\n    tag_5:\n      callvalue\n      dup1\n      iszero\n      tag_32\n      jumpi\n      0x00\n      dup1\n      revert\n    tag_32:\n      pop\n      tag_33\n      tag_34\n      jump\t// in\n    tag_33:\n      mload(0x40)\n      tag_35\n      swap2\n      swap1\n      tag_36\n      jump\t// in\n    tag_35:\n      mload(0x40)\n      dup1\n      swap2\n      sub\n      swap1\n      return\n        /* \"MyContract.sol\":3190:3426  function addPerson(string memory _firstName, string memory _lastName)... */\n    tag_6:\n      callvalue\n      dup1\n      iszero\n      tag_37\n      jumpi\n      0x00\n      dup1\n      revert\n    tag_37:\n      pop\n      tag_38\n      0x04\n      dup1\n      calldatasize\n      sub\n      dup2\n      add\n      swap1\n      tag_39\n      swap2\n      swap1\n      tag_40\n      jump\t// in\n    tag_39:\n      tag_41\n      jump\t// in\n    tag_38:\n      stop\n        /* \"MyContract.sol\":3107:3137  uint256 public peopleCount = 0 */\n    tag_7:\n      callvalue\n      dup1\n      iszero\n      tag_42\n      jumpi\n      0x00\n      dup1\n      revert\n    tag_42:\n      pop\n      tag_43\n      tag_44\n      jump\t// in\n    tag_43:\n      mload(0x40)\n      tag_45\n      swap2\n      swap1\n      tag_46\n      jump\t// in\n    tag_45:\n      mload(0x40)\n      dup1\n      swap2\n      sub\n      swap1\n      return\n        /* \"MyContract.sol\":876:916  string public value = \"my default value\" */\n    tag_8:\n      callvalue\n      dup1\n      iszero\n      tag_47\n      jumpi\n      0x00\n      dup1\n      revert\n    tag_47:\n      pop\n      tag_48\n      tag_49\n      jump\t// in\n    tag_48:\n      mload(0x40)\n      tag_50\n      swap2\n      swap1\n      tag_29\n      jump\t// in\n    tag_50:\n      mload(0x40)\n      dup1\n      swap2\n      sub\n      swap1\n      return\n        /* \"MyContract.sol\":974:999  bool public myBool = true */\n    tag_9:\n      callvalue\n      dup1\n      iszero\n      tag_51\n      jumpi\n      0x00\n      dup1\n      revert\n    tag_51:\n      pop\n      tag_52\n      tag_53\n      jump\t// in\n    tag_52:\n      mload(0x40)\n      tag_54\n      swap2\n      swap1\n      tag_36\n      jump\t// in\n    tag_54:\n      mload(0x40)\n      dup1\n      swap2\n      sub\n      swap1\n      return\n        /* \"MyContract.sol\":922:968  string public stringValue = \"my default value\" */\n    tag_10:\n      callvalue\n      dup1\n      iszero\n      tag_55\n      jumpi\n      0x00\n      dup1\n      revert\n    tag_55:\n      pop\n      tag_56\n      tag_57\n      jump\t// in\n    tag_56:\n      mload(0x40)\n      tag_58\n      swap2\n      swap1\n      tag_29\n      jump\t// in\n    tag_58:\n      mload(0x40)\n      dup1\n      swap2\n      sub\n      swap1\n      return\n        /* \"MyContract.sol\":1742:2142  function buyToken(address payable buyer) public payable {... */\n    tag_11:\n      tag_59\n      0x04\n      dup1\n      calldatasize\n      sub\n      dup2\n      add\n      swap1\n      tag_60\n      swap2\n      swap1\n      tag_61\n      jump\t// in\n    tag_60:\n      tag_24\n      jump\t// in\n    tag_59:\n      stop\n        /* \"MyContract.sol\":2515:2535  address public owner */\n    tag_12:\n      callvalue\n      dup1\n      iszero\n      tag_62\n      jumpi\n      0x00\n      dup1\n      revert\n    tag_62:\n      pop\n      tag_63\n      tag_64\n      jump\t// in\n    tag_63:\n      mload(0x40)\n      tag_65\n      swap2\n      swap1\n      tag_66\n      jump\t// in\n    tag_65:\n      mload(0x40)\n      dup1\n      swap2\n      sub\n      swap1\n      return\n        /* \"MyContract.sol\":3143:3183  mapping(uint256 => Person) public people */\n    tag_13:\n      callvalue\n      dup1\n      iszero\n      tag_67\n      jumpi\n      0x00\n      dup1\n      revert\n    tag_67:\n      pop\n      tag_68\n      0x04\n      dup1\n      calldatasize\n      sub\n      dup2\n      add\n      swap1\n      tag_69\n      swap2\n      swap1\n      tag_70\n      jump\t// in\n    tag_69:\n      tag_71\n      jump\t// in\n    tag_68:\n      mload(0x40)\n      tag_72\n      swap4\n      swap3\n      swap2\n      swap1\n      tag_73\n      jump\t// in\n    tag_72:\n      mload(0x40)\n      dup1\n      swap2\n      sub\n      swap1\n      return\n        /* \"MyContract.sol\":2666:2757  function changeOwner(address _newOwner) public onlyOwner {... */\n    tag_14:\n      callvalue\n      dup1\n      iszero\n      tag_74\n      jumpi\n      0x00\n      dup1\n      revert\n    tag_74:\n      pop\n      tag_75\n      0x04\n      dup1\n      calldatasize\n      sub\n      dup2\n      add\n      swap1\n      tag_76\n      swap2\n      swap1\n      tag_77\n      jump\t// in\n    tag_76:\n      tag_78\n      jump\t// in\n    tag_75:\n      stop\n        /* \"MyContract.sol\":2339:2378  uint256 public openingTime = 1681254150 */\n    tag_15:\n      callvalue\n      dup1\n      iszero\n      tag_79\n      jumpi\n      0x00\n      dup1\n      revert\n    tag_79:\n      pop\n      tag_80\n      tag_81\n      jump\t// in\n    tag_80:\n      mload(0x40)\n      tag_82\n      swap2\n      swap1\n      tag_46\n      jump\t// in\n    tag_82:\n      mload(0x40)\n      dup1\n      swap2\n      sub\n      swap1\n      return\n        /* \"MyContract.sol\":1513:1637  function buyTokenNew() public payable {... */\n    tag_16:\n      tag_83\n      tag_84\n      jump\t// in\n    tag_83:\n      stop\n        /* \"MyContract.sol\":2314:2332  State public state */\n    tag_17:\n      callvalue\n      dup1\n      iszero\n      tag_85\n      jumpi\n      0x00\n      dup1\n      revert\n    tag_85:\n      pop\n      tag_86\n      tag_87\n      jump\t// in\n    tag_86:\n      mload(0x40)\n      tag_88\n      swap2\n      swap1\n      tag_89\n      jump\t// in\n    tag_88:\n      mload(0x40)\n      dup1\n      swap2\n      sub\n      swap1\n      return\n        /* \"MyContract.sol\":1742:2142  function buyToken(address payable buyer) public payable {... */\n    tag_24:\n        /* \"MyContract.sol\":1808:1813  buyer */\n      dup1\n        /* \"MyContract.sol\":1808:1822  buyer.transfer */\n      0xffffffffffffffffffffffffffffffffffffffff\n      and\n        /* \"MyContract.sol\":1808:1833  buyer.transfer(msg.value) */\n      0x08fc\n        /* \"MyContract.sol\":1823:1832  msg.value */\n      callvalue\n        /* \"MyContract.sol\":1808:1833  buyer.transfer(msg.value) */\n      swap1\n      dup2\n      iszero\n      mul\n      swap1\n      mload(0x40)\n      0x00\n      mload(0x40)\n      dup1\n      dup4\n      sub\n      dup2\n      dup6\n      dup9\n      dup9\n      call\n      swap4\n      pop\n      pop\n      pop\n      pop\n      iszero\n      dup1\n      iszero\n      tag_92\n      jumpi\n      returndatasize\n      0x00\n      dup1\n      returndatacopy\n      revert(0x00, returndatasize)\n    tag_92:\n      pop\n        /* \"MyContract.sol\":1864:1865  0 */\n      0x00\n        /* \"MyContract.sol\":1852:1861  msg.value */\n      callvalue\n        /* \"MyContract.sol\":1852:1865  msg.value > 0 */\n      gt\n        /* \"MyContract.sol\":1844:1908  require(msg.value > 0, \"You must send some ether to buy tokens\") */\n      tag_93\n      jumpi\n      mload(0x40)\n      0x08c379a000000000000000000000000000000000000000000000000000000000\n      dup2\n      mstore\n      0x04\n      add\n      tag_94\n      swap1\n      tag_95\n      jump\t// in\n    tag_94:\n      mload(0x40)\n      dup1\n      swap2\n      sub\n      swap1\n      revert\n    tag_93:\n        /* \"MyContract.sol\":1918:1937  uint256 tokensToBuy */\n      0x00\n        /* \"MyContract.sol\":1952:1963  TOKEN_PRICE */\n      sload(0x02)\n        /* \"MyContract.sol\":1940:1949  msg.value */\n      callvalue\n        /* \"MyContract.sol\":1940:1963  msg.value * TOKEN_PRICE */\n      tag_96\n      swap2\n      swap1\n      tag_97\n      jump\t// in\n    tag_96:\n        /* \"MyContract.sol\":1918:1963  uint256 tokensToBuy = msg.value * TOKEN_PRICE */\n      swap1\n      pop\n        /* \"MyContract.sol\":2074:2084  msg.sender */\n      caller\n        /* \"MyContract.sol\":2065:2088  Purchase(msg.sender, 1) */\n      0xffffffffffffffffffffffffffffffffffffffff\n      and\n      0x2499a5330ab0979cc612135e7883ebc3cd5c9f7a8508f042540c34723348f632\n        /* \"MyContract.sol\":2086:2087  1 */\n      0x01\n        /* \"MyContract.sol\":2065:2088  Purchase(msg.sender, 1) */\n      mload(0x40)\n      tag_98\n      swap2\n      swap1\n      tag_99\n      jump\t// in\n    tag_98:\n      mload(0x40)\n      dup1\n      swap2\n      sub\n      swap1\n      log2\n        /* \"MyContract.sol\":2103:2135  TokensBought(buyer, tokensToBuy) */\n      0x745f661b8143944fb883f50694ebed3a871e43c451d9d4bf4648a9d551d7e47a\n        /* \"MyContract.sol\":2116:2121  buyer */\n      dup3\n        /* \"MyContract.sol\":2123:2134  tokensToBuy */\n      dup3\n        /* \"MyContract.sol\":2103:2135  TokensBought(buyer, tokensToBuy) */\n      mload(0x40)\n      tag_100\n      swap3\n      swap2\n      swap1\n      tag_101\n      jump\t// in\n    tag_100:\n      mload(0x40)\n      dup1\n      swap2\n      sub\n      swap1\n      log1\n        /* \"MyContract.sol\":1798:2142  {... */\n      pop\n        /* \"MyContract.sol\":1742:2142  function buyToken(address payable buyer) public payable {... */\n      pop\n      jump\t// out\n        /* \"MyContract.sol\":2763:2902  function activate() public onlyOwner returns (string memory) {... */\n    tag_27:\n        /* \"MyContract.sol\":2809:2822  string memory */\n      0x60\n        /* \"MyContract.sol\":2595:2600  owner */\n      0x0a\n      0x00\n      swap1\n      sload\n      swap1\n      0x0100\n      exp\n      swap1\n      div\n      0xffffffffffffffffffffffffffffffffffffffff\n      and\n        /* \"MyContract.sol\":2581:2600  msg.sender == owner */\n      0xffffffffffffffffffffffffffffffffffffffff\n      and\n        /* \"MyContract.sol\":2581:2591  msg.sender */\n      caller\n        /* \"MyContract.sol\":2581:2600  msg.sender == owner */\n      0xffffffffffffffffffffffffffffffffffffffff\n      and\n      eq\n        /* \"MyContract.sol\":2573:2642  require(msg.sender == owner, \"Only the owner can call this function\") */\n      tag_103\n      jumpi\n      mload(0x40)\n      0x08c379a000000000000000000000000000000000000000000000000000000000\n      dup2\n      mstore\n      0x04\n      add\n      tag_104\n      swap1\n      tag_105\n      jump\t// in\n    tag_104:\n      mload(0x40)\n      dup1\n      swap2\n      sub\n      swap1\n      revert\n    tag_103:\n        /* \"MyContract.sol\":2842:2854  State.Active */\n      0x02\n        /* \"MyContract.sol\":2834:2839  state */\n      0x08\n      0x00\n        /* \"MyContract.sol\":2834:2854  state = State.Active */\n      0x0100\n      exp\n      dup2\n      sload\n      dup2\n      0xff\n      mul\n      not\n      and\n      swap1\n      dup4\n      0x04\n      dup2\n      gt\n      iszero\n      tag_107\n      jumpi\n      tag_108\n      tag_109\n      jump\t// in\n    tag_108:\n    tag_107:\n      mul\n      or\n      swap1\n      sstore\n      pop\n        /* \"MyContract.sol\":2864:2895  return \"Activation successful!\" */\n      mload(0x40)\n      dup1\n      0x40\n      add\n      0x40\n      mstore\n      dup1\n      0x16\n      dup2\n      mstore\n      0x20\n      add\n      0x41637469766174696f6e207375636365737366756c2100000000000000000000\n      dup2\n      mstore\n      pop\n      swap1\n      pop\n        /* \"MyContract.sol\":2763:2902  function activate() public onlyOwner returns (string memory) {... */\n      swap1\n      jump\t// out\n        /* \"MyContract.sol\":1333:1507  function buyTokenOld() public payable {... */\n    tag_31:\n        /* \"MyContract.sol\":1381:1405  ERC20Token tokenContract */\n      0x00\n        /* \"MyContract.sol\":1427:1432  token */\n      0x01\n      0x00\n      swap1\n      sload\n      swap1\n      0x0100\n      exp\n      swap1\n      div\n      0xffffffffffffffffffffffffffffffffffffffff\n      and\n        /* \"MyContract.sol\":1381:1434  ERC20Token tokenContract = ERC20Token(address(token)) */\n      swap1\n      pop\n        /* \"MyContract.sol\":1444:1457  tokenContract */\n      dup1\n        /* \"MyContract.sol\":1444:1462  tokenContract.mint */\n      0xffffffffffffffffffffffffffffffffffffffff\n      and\n      0x1249c58b\n        /* \"MyContract.sol\":1444:1464  tokenContract.mint() */\n      mload(0x40)\n      dup2\n      0xffffffff\n      and\n      0xe0\n      shl\n      dup2\n      mstore\n      0x04\n      add\n      0x00\n      mload(0x40)\n      dup1\n      dup4\n      sub\n      dup2\n      0x00\n      dup8\n      dup1\n      extcodesize\n      iszero\n      dup1\n      iszero\n      tag_111\n      jumpi\n      0x00\n      dup1\n      revert\n    tag_111:\n      pop\n      gas\n      call\n      iszero\n      dup1\n      iszero\n      tag_113\n      jumpi\n      returndatasize\n      0x00\n      dup1\n      returndatacopy\n      revert(0x00, returndatasize)\n    tag_113:\n      pop\n      pop\n      pop\n      pop\n        /* \"MyContract.sol\":1474:1480  wallet */\n      0x00\n      dup1\n      sload\n      swap1\n      0x0100\n      exp\n      swap1\n      div\n      0xffffffffffffffffffffffffffffffffffffffff\n      and\n        /* \"MyContract.sol\":1474:1489  wallet.transfer */\n      0xffffffffffffffffffffffffffffffffffffffff\n      and\n        /* \"MyContract.sol\":1474:1500  wallet.transfer(msg.value) */\n      0x08fc\n        /* \"MyContract.sol\":1490:1499  msg.value */\n      callvalue\n        /* \"MyContract.sol\":1474:1500  wallet.transfer(msg.value) */\n      swap1\n      dup2\n      iszero\n      mul\n      swap1\n      mload(0x40)\n      0x00\n      mload(0x40)\n      dup1\n      dup4\n      sub\n      dup2\n      dup6\n      dup9\n      dup9\n      call\n      swap4\n      pop\n      pop\n      pop\n      pop\n      iszero\n      dup1\n      iszero\n      tag_115\n      jumpi\n      returndatasize\n      0x00\n      dup1\n      returndatacopy\n      revert(0x00, returndatasize)\n    tag_115:\n      pop\n        /* \"MyContract.sol\":1371:1507  {... */\n      pop\n        /* \"MyContract.sol\":1333:1507  function buyTokenOld() public payable {... */\n      jump\t// out\n        /* \"MyContract.sol\":2908:3000  function isActive() public view returns (bool) {... */\n    tag_34:\n        /* \"MyContract.sol\":2949:2953  bool */\n      0x00\n        /* \"MyContract.sol\":2981:2993  State.Active */\n      0x02\n        /* \"MyContract.sol\":2972:2993  state == State.Active */\n      0x04\n      dup2\n      gt\n      iszero\n      tag_117\n      jumpi\n      tag_118\n      tag_109\n      jump\t// in\n    tag_118:\n    tag_117:\n        /* \"MyContract.sol\":2972:2977  state */\n      0x08\n      0x00\n      swap1\n      sload\n      swap1\n      0x0100\n      exp\n      swap1\n      div\n      0xff\n      and\n        /* \"MyContract.sol\":2972:2993  state == State.Active */\n      0x04\n      dup2\n      gt\n      iszero\n      tag_119\n      jumpi\n      tag_120\n      tag_109\n      jump\t// in\n    tag_120:\n    tag_119:\n      eq\n        /* \"MyContract.sol\":2965:2993  return state == State.Active */\n      swap1\n      pop\n        /* \"MyContract.sol\":2908:3000  function isActive() public view returns (bool) {... */\n      swap1\n      jump\t// out\n        /* \"MyContract.sol\":3190:3426  function addPerson(string memory _firstName, string memory _lastName)... */\n    tag_41:\n        /* \"MyContract.sol\":2447:2458  openingTime */\n      sload(0x09)\n        /* \"MyContract.sol\":2428:2443  block.timestamp */\n      timestamp\n        /* \"MyContract.sol\":2428:2458  block.timestamp >= openingTime */\n      lt\n      iszero\n        /* \"MyContract.sol\":2420:2491  require(block.timestamp >= openingTime, \"The contract is not yet open\") */\n      tag_122\n      jumpi\n      mload(0x40)\n      0x08c379a000000000000000000000000000000000000000000000000000000000\n      dup2\n      mstore\n      0x04\n      add\n      tag_123\n      swap1\n      tag_124\n      jump\t// in\n    tag_123:\n      mload(0x40)\n      dup1\n      swap2\n      sub\n      swap1\n      revert\n    tag_122:\n        /* \"MyContract.sol\":2595:2600  owner */\n      0x0a\n      0x00\n      swap1\n      sload\n      swap1\n      0x0100\n      exp\n      swap1\n      div\n      0xffffffffffffffffffffffffffffffffffffffff\n      and\n        /* \"MyContract.sol\":2581:2600  msg.sender == owner */\n      0xffffffffffffffffffffffffffffffffffffffff\n      and\n        /* \"MyContract.sol\":2581:2591  msg.sender */\n      caller\n        /* \"MyContract.sol\":2581:2600  msg.sender == owner */\n      0xffffffffffffffffffffffffffffffffffffffff\n      and\n      eq\n        /* \"MyContract.sol\":2573:2642  require(msg.sender == owner, \"Only the owner can call this function\") */\n      tag_126\n      jumpi\n      mload(0x40)\n      0x08c379a000000000000000000000000000000000000000000000000000000000\n      dup2\n      mstore\n      0x04\n      add\n      tag_127\n      swap1\n      tag_105\n      jump\t// in\n    tag_127:\n      mload(0x40)\n      dup1\n      swap2\n      sub\n      swap1\n      revert\n    tag_126:\n        /* \"MyContract.sol\":3329:3345  incrementCount() */\n      tag_129\n        /* \"MyContract.sol\":3329:3343  incrementCount */\n      tag_130\n        /* \"MyContract.sol\":3329:3345  incrementCount() */\n      jump\t// in\n    tag_129:\n        /* \"MyContract.sol\":3377:3419  Person(peopleCount, _firstName, _lastName) */\n      mload(0x40)\n      dup1\n      0x60\n      add\n      0x40\n      mstore\n      dup1\n        /* \"MyContract.sol\":3384:3395  peopleCount */\n      sload(0x0b)\n        /* \"MyContract.sol\":3377:3419  Person(peopleCount, _firstName, _lastName) */\n      dup2\n      mstore\n      0x20\n      add\n        /* \"MyContract.sol\":3397:3407  _firstName */\n      dup4\n        /* \"MyContract.sol\":3377:3419  Person(peopleCount, _firstName, _lastName) */\n      dup2\n      mstore\n      0x20\n      add\n        /* \"MyContract.sol\":3409:3418  _lastName */\n      dup3\n        /* \"MyContract.sol\":3377:3419  Person(peopleCount, _firstName, _lastName) */\n      dup2\n      mstore\n      pop\n        /* \"MyContract.sol\":3355:3361  people */\n      0x0c\n        /* \"MyContract.sol\":3355:3374  people[peopleCount] */\n      0x00\n        /* \"MyContract.sol\":3362:3373  peopleCount */\n      sload(0x0b)\n        /* \"MyContract.sol\":3355:3374  people[peopleCount] */\n      dup2\n      mstore\n      0x20\n      add\n      swap1\n      dup2\n      mstore\n      0x20\n      add\n      0x00\n      keccak256\n        /* \"MyContract.sol\":3355:3419  people[peopleCount] = Person(peopleCount, _firstName, _lastName) */\n      0x00\n      dup3\n      add\n      mload\n      dup2\n      0x00\n      add\n      sstore\n      0x20\n      dup3\n      add\n      mload\n      dup2\n      0x01\n      add\n      swap1\n      dup2\n      tag_131\n      swap2\n      swap1\n      tag_132\n      jump\t// in\n    tag_131:\n      pop\n      0x40\n      dup3\n      add\n      mload\n      dup2\n      0x02\n      add\n      swap1\n      dup2\n      tag_133\n      swap2\n      swap1\n      tag_132\n      jump\t// in\n    tag_133:\n      pop\n      swap1\n      pop\n      pop\n        /* \"MyContract.sol\":3190:3426  function addPerson(string memory _firstName, string memory _lastName)... */\n      pop\n      pop\n      jump\t// out\n        /* \"MyContract.sol\":3107:3137  uint256 public peopleCount = 0 */\n    tag_44:\n      sload(0x0b)\n      dup2\n      jump\t// out\n        /* \"MyContract.sol\":876:916  string public value = \"my default value\" */\n    tag_49:\n      0x03\n      dup1\n      sload\n      tag_134\n      swap1\n      tag_135\n      jump\t// in\n    tag_134:\n      dup1\n      0x1f\n      add\n      0x20\n      dup1\n      swap2\n      div\n      mul\n      0x20\n      add\n      mload(0x40)\n      swap1\n      dup2\n      add\n      0x40\n      mstore\n      dup1\n      swap3\n      swap2\n      swap1\n      dup2\n      dup2\n      mstore\n      0x20\n      add\n      dup3\n      dup1\n      sload\n      tag_136\n      swap1\n      tag_135\n      jump\t// in\n    tag_136:\n      dup1\n      iszero\n      tag_137\n      jumpi\n      dup1\n      0x1f\n      lt\n      tag_138\n      jumpi\n      0x0100\n      dup1\n      dup4\n      sload\n      div\n      mul\n      dup4\n      mstore\n      swap2\n      0x20\n      add\n      swap2\n      jump(tag_137)\n    tag_138:\n      dup3\n      add\n      swap2\n      swap1\n      0x00\n      mstore\n      keccak256(0x00, 0x20)\n      swap1\n    tag_139:\n      dup2\n      sload\n      dup2\n      mstore\n      swap1\n      0x01\n      add\n      swap1\n      0x20\n      add\n      dup1\n      dup4\n      gt\n      tag_139\n      jumpi\n      dup3\n      swap1\n      sub\n      0x1f\n      and\n      dup3\n      add\n      swap2\n    tag_137:\n      pop\n      pop\n      pop\n      pop\n      pop\n      dup2\n      jump\t// out\n        /* \"MyContract.sol\":974:999  bool public myBool = true */\n    tag_53:\n      0x05\n      0x00\n      swap1\n      sload\n      swap1\n      0x0100\n      exp\n      swap1\n      div\n      0xff\n      and\n      dup2\n      jump\t// out\n        /* \"MyContract.sol\":922:968  string public stringValue = \"my default value\" */\n    tag_57:\n      0x04\n      dup1\n      sload\n      tag_140\n      swap1\n      tag_135\n      jump\t// in\n    tag_140:\n      dup1\n      0x1f\n      add\n      0x20\n      dup1\n      swap2\n      div\n      mul\n      0x20\n      add\n      mload(0x40)\n      swap1\n      dup2\n      add\n      0x40\n      mstore\n      dup1\n      swap3\n      swap2\n      swap1\n      dup2\n      dup2\n      mstore\n      0x20\n      add\n      dup3\n      dup1\n      sload\n      tag_141\n      swap1\n      tag_135\n      jump\t// in\n    tag_141:\n      dup1\n      iszero\n      tag_142\n      jumpi\n      dup1\n      0x1f\n      lt\n      tag_143\n      jumpi\n      0x0100\n      dup1\n      dup4\n      sload\n      div\n      mul\n      dup4\n      mstore\n      swap2\n      0x20\n      add\n      swap2\n      jump(tag_142)\n    tag_143:\n      dup3\n      add\n      swap2\n      swap1\n      0x00\n      mstore\n      keccak256(0x00, 0x20)\n      swap1\n    tag_144:\n      dup2\n      sload\n      dup2\n      mstore\n      swap1\n      0x01\n      add\n      swap1\n      0x20\n      add\n      dup1\n      dup4\n      gt\n      tag_144\n      jumpi\n      dup3\n      swap1\n      sub\n      0x1f\n      and\n      dup3\n      add\n      swap2\n    tag_142:\n      pop\n      pop\n      pop\n      pop\n      pop\n      dup2\n      jump\t// out\n        /* \"MyContract.sol\":2515:2535  address public owner */\n    tag_64:\n      0x0a\n      0x00\n      swap1\n      sload\n      swap1\n      0x0100\n      exp\n      swap1\n      div\n      0xffffffffffffffffffffffffffffffffffffffff\n      and\n      dup2\n      jump\t// out\n        /* \"MyContract.sol\":3143:3183  mapping(uint256 => Person) public people */\n    tag_71:\n      mstore(0x20, 0x0c)\n      dup1\n      0x00\n      mstore\n      keccak256(0x00, 0x40)\n      0x00\n      swap2\n      pop\n      swap1\n      pop\n      dup1\n      0x00\n      add\n      sload\n      swap1\n      dup1\n      0x01\n      add\n      dup1\n      sload\n      tag_145\n      swap1\n      tag_135\n      jump\t// in\n    tag_145:\n      dup1\n      0x1f\n      add\n      0x20\n      dup1\n      swap2\n      div\n      mul\n      0x20\n      add\n      mload(0x40)\n      swap1\n      dup2\n      add\n      0x40\n      mstore\n      dup1\n      swap3\n      swap2\n      swap1\n      dup2\n      dup2\n      mstore\n      0x20\n      add\n      dup3\n      dup1\n      sload\n      tag_146\n      swap1\n      tag_135\n      jump\t// in\n    tag_146:\n      dup1\n      iszero\n      tag_147\n      jumpi\n      dup1\n      0x1f\n      lt\n      tag_148\n      jumpi\n      0x0100\n      dup1\n      dup4\n      sload\n      div\n      mul\n      dup4\n      mstore\n      swap2\n      0x20\n      add\n      swap2\n      jump(tag_147)\n    tag_148:\n      dup3\n      add\n      swap2\n      swap1\n      0x00\n      mstore\n      keccak256(0x00, 0x20)\n      swap1\n    tag_149:\n      dup2\n      sload\n      dup2\n      mstore\n      swap1\n      0x01\n      add\n      swap1\n      0x20\n      add\n      dup1\n      dup4\n      gt\n      tag_149\n      jumpi\n      dup3\n      swap1\n      sub\n      0x1f\n      and\n      dup3\n      add\n      swap2\n    tag_147:\n      pop\n      pop\n      pop\n      pop\n      pop\n      swap1\n      dup1\n      0x02\n      add\n      dup1\n      sload\n      tag_150\n      swap1\n      tag_135\n      jump\t// in\n    tag_150:\n      dup1\n      0x1f\n      add\n      0x20\n      dup1\n      swap2\n      div\n      mul\n      0x20\n      add\n      mload(0x40)\n      swap1\n      dup2\n      add\n      0x40\n      mstore\n      dup1\n      swap3\n      swap2\n      swap1\n      dup2\n      dup2\n      mstore\n      0x20\n      add\n      dup3\n      dup1\n      sload\n      tag_151\n      swap1\n      tag_135\n      jump\t// in\n    tag_151:\n      dup1\n      iszero\n      tag_152\n      jumpi\n      dup1\n      0x1f\n      lt\n      tag_153\n      jumpi\n      0x0100\n      dup1\n      dup4\n      sload\n      div\n      mul\n      dup4\n      mstore\n      swap2\n      0x20\n      add\n      swap2\n      jump(tag_152)\n    tag_153:\n      dup3\n      add\n      swap2\n      swap1\n      0x00\n      mstore\n      keccak256(0x00, 0x20)\n      swap1\n    tag_154:\n      dup2\n      sload\n      dup2\n      mstore\n      swap1\n      0x01\n      add\n      swap1\n      0x20\n      add\n      dup1\n      dup4\n      gt\n      tag_154\n      jumpi\n      dup3\n      swap1\n      sub\n      0x1f\n      and\n      dup3\n      add\n      swap2\n    tag_152:\n      pop\n      pop\n      pop\n      pop\n      pop\n      swap1\n      pop\n      dup4\n      jump\t// out\n        /* \"MyContract.sol\":2666:2757  function changeOwner(address _newOwner) public onlyOwner {... */\n    tag_78:\n        /* \"MyContract.sol\":2595:2600  owner */\n      0x0a\n      0x00\n      swap1\n      sload\n      swap1\n      0x0100\n      exp\n      swap1\n      div\n      0xffffffffffffffffffffffffffffffffffffffff\n      and\n        /* \"MyContract.sol\":2581:2600  msg.sender == owner */\n      0xffffffffffffffffffffffffffffffffffffffff\n      and\n        /* \"MyContract.sol\":2581:2591  msg.sender */\n      caller\n        /* \"MyContract.sol\":2581:2600  msg.sender == owner */\n      0xffffffffffffffffffffffffffffffffffffffff\n      and\n      eq\n        /* \"MyContract.sol\":2573:2642  require(msg.sender == owner, \"Only the owner can call this function\") */\n      tag_156\n      jumpi\n      mload(0x40)\n      0x08c379a000000000000000000000000000000000000000000000000000000000\n      dup2\n      mstore\n      0x04\n      add\n      tag_157\n      swap1\n      tag_105\n      jump\t// in\n    tag_157:\n      mload(0x40)\n      dup1\n      swap2\n      sub\n      swap1\n      revert\n    tag_156:\n        /* \"MyContract.sol\":2741:2750  _newOwner */\n      dup1\n        /* \"MyContract.sol\":2733:2738  owner */\n      0x0a\n      0x00\n        /* \"MyContract.sol\":2733:2750  owner = _newOwner */\n      0x0100\n      exp\n      dup2\n      sload\n      dup2\n      0xffffffffffffffffffffffffffffffffffffffff\n      mul\n      not\n      and\n      swap1\n      dup4\n      0xffffffffffffffffffffffffffffffffffffffff\n      and\n      mul\n      or\n      swap1\n      sstore\n      pop\n        /* \"MyContract.sol\":2666:2757  function changeOwner(address _newOwner) public onlyOwner {... */\n      pop\n      jump\t// out\n        /* \"MyContract.sol\":2339:2378  uint256 public openingTime = 1681254150 */\n    tag_81:\n      sload(0x09)\n      dup2\n      jump\t// out\n        /* \"MyContract.sol\":1513:1637  function buyTokenNew() public payable {... */\n    tag_84:\n        /* \"MyContract.sol\":1580:1585  token */\n      0x01\n      0x00\n      swap1\n      sload\n      swap1\n      0x0100\n      exp\n      swap1\n      div\n      0xffffffffffffffffffffffffffffffffffffffff\n      and\n        /* \"MyContract.sol\":1561:1592  ERC20Token(address(token)).mint */\n      0xffffffffffffffffffffffffffffffffffffffff\n      and\n      0x1249c58b\n        /* \"MyContract.sol\":1561:1594  ERC20Token(address(token)).mint() */\n      mload(0x40)\n      dup2\n      0xffffffff\n      and\n      0xe0\n      shl\n      dup2\n      mstore\n      0x04\n      add\n      0x00\n      mload(0x40)\n      dup1\n      dup4\n      sub\n      dup2\n      0x00\n      dup8\n      dup1\n      extcodesize\n      iszero\n      dup1\n      iszero\n      tag_160\n      jumpi\n      0x00\n      dup1\n      revert\n    tag_160:\n      pop\n      gas\n      call\n      iszero\n      dup1\n      iszero\n      tag_162\n      jumpi\n      returndatasize\n      0x00\n      dup1\n      returndatacopy\n      revert(0x00, returndatasize)\n    tag_162:\n      pop\n      pop\n      pop\n      pop\n        /* \"MyContract.sol\":1604:1610  wallet */\n      0x00\n      dup1\n      sload\n      swap1\n      0x0100\n      exp\n      swap1\n      div\n      0xffffffffffffffffffffffffffffffffffffffff\n      and\n        /* \"MyContract.sol\":1604:1619  wallet.transfer */\n      0xffffffffffffffffffffffffffffffffffffffff\n      and\n        /* \"MyContract.sol\":1604:1630  wallet.transfer(msg.value) */\n      0x08fc\n        /* \"MyContract.sol\":1620:1629  msg.value */\n      callvalue\n        /* \"MyContract.sol\":1604:1630  wallet.transfer(msg.value) */\n      swap1\n      dup2\n      iszero\n      mul\n      swap1\n      mload(0x40)\n      0x00\n      mload(0x40)\n      dup1\n      dup4\n      sub\n      dup2\n      dup6\n      dup9\n      dup9\n      call\n      swap4\n      pop\n      pop\n      pop\n      pop\n      iszero\n      dup1\n      iszero\n      tag_164\n      jumpi\n      returndatasize\n      0x00\n      dup1\n      returndatacopy\n      revert(0x00, returndatasize)\n    tag_164:\n      pop\n        /* \"MyContract.sol\":1513:1637  function buyTokenNew() public payable {... */\n      jump\t// out\n        /* \"MyContract.sol\":2314:2332  State public state */\n    tag_87:\n      0x08\n      0x00\n      swap1\n      sload\n      swap1\n      0x0100\n      exp\n      swap1\n      div\n      0xff\n      and\n      dup2\n      jump\t// out\n        /* \"MyContract.sol\":3432:3500  function incrementCount() internal {... */\n    tag_130:\n        /* \"MyContract.sol\":3492:3493  1 */\n      0x01\n        /* \"MyContract.sol\":3477:3488  peopleCount */\n      0x0b\n      0x00\n        /* \"MyContract.sol\":3477:3493  peopleCount += 1 */\n      dup3\n      dup3\n      sload\n      tag_166\n      swap2\n      swap1\n      tag_167\n      jump\t// in\n    tag_166:\n      swap3\n      pop\n      pop\n      dup2\n      swap1\n      sstore\n      pop\n        /* \"MyContract.sol\":3432:3500  function incrementCount() internal {... */\n      jump\t// out\n        /* \"#utility.yul\":7:106   */\n    tag_168:\n        /* \"#utility.yul\":59:65   */\n      0x00\n        /* \"#utility.yul\":93:98   */\n      dup2\n        /* \"#utility.yul\":87:99   */\n      mload\n        /* \"#utility.yul\":77:99   */\n      swap1\n      pop\n        /* \"#utility.yul\":7:106   */\n      swap2\n      swap1\n      pop\n      jump\t// out\n        /* \"#utility.yul\":112:281   */\n    tag_169:\n        /* \"#utility.yul\":196:207   */\n      0x00\n        /* \"#utility.yul\":230:236   */\n      dup3\n        /* \"#utility.yul\":225:228   */\n      dup3\n        /* \"#utility.yul\":218:237   */\n      mstore\n        /* \"#utility.yul\":270:274   */\n      0x20\n        /* \"#utility.yul\":265:268   */\n      dup3\n        /* \"#utility.yul\":261:275   */\n      add\n        /* \"#utility.yul\":246:275   */\n      swap1\n      pop\n        /* \"#utility.yul\":112:281   */\n      swap3\n      swap2\n      pop\n      pop\n      jump\t// out\n        /* \"#utility.yul\":287:533   */\n    tag_170:\n        /* \"#utility.yul\":368:369   */\n      0x00\n        /* \"#utility.yul\":378:491   */\n    tag_237:\n        /* \"#utility.yul\":392:398   */\n      dup4\n        /* \"#utility.yul\":389:390   */\n      dup2\n        /* \"#utility.yul\":386:399   */\n      lt\n        /* \"#utility.yul\":378:491   */\n      iszero\n      tag_239\n      jumpi\n        /* \"#utility.yul\":477:478   */\n      dup1\n        /* \"#utility.yul\":472:475   */\n      dup3\n        /* \"#utility.yul\":468:479   */\n      add\n        /* \"#utility.yul\":462:480   */\n      mload\n        /* \"#utility.yul\":458:459   */\n      dup2\n        /* \"#utility.yul\":453:456   */\n      dup5\n        /* \"#utility.yul\":449:460   */\n      add\n        /* \"#utility.yul\":442:481   */\n      mstore\n        /* \"#utility.yul\":414:416   */\n      0x20\n        /* \"#utility.yul\":411:412   */\n      dup2\n        /* \"#utility.yul\":407:417   */\n      add\n        /* \"#utility.yul\":402:417   */\n      swap1\n      pop\n        /* \"#utility.yul\":378:491   */\n      jump(tag_237)\n    tag_239:\n        /* \"#utility.yul\":525:526   */\n      0x00\n        /* \"#utility.yul\":516:522   */\n      dup5\n        /* \"#utility.yul\":511:514   */\n      dup5\n        /* \"#utility.yul\":507:523   */\n      add\n        /* \"#utility.yul\":500:527   */\n      mstore\n        /* \"#utility.yul\":349:533   */\n      pop\n        /* \"#utility.yul\":287:533   */\n      pop\n      pop\n      pop\n      jump\t// out\n        /* \"#utility.yul\":539:641   */\n    tag_171:\n        /* \"#utility.yul\":580:586   */\n      0x00\n        /* \"#utility.yul\":631:633   */\n      0x1f\n        /* \"#utility.yul\":627:634   */\n      not\n        /* \"#utility.yul\":622:624   */\n      0x1f\n        /* \"#utility.yul\":615:620   */\n      dup4\n        /* \"#utility.yul\":611:625   */\n      add\n        /* \"#utility.yul\":607:635   */\n      and\n        /* \"#utility.yul\":597:635   */\n      swap1\n      pop\n        /* \"#utility.yul\":539:641   */\n      swap2\n      swap1\n      pop\n      jump\t// out\n        /* \"#utility.yul\":647:1024   */\n    tag_172:\n        /* \"#utility.yul\":735:738   */\n      0x00\n        /* \"#utility.yul\":763:802   */\n      tag_242\n        /* \"#utility.yul\":796:801   */\n      dup3\n        /* \"#utility.yul\":763:802   */\n      tag_168\n      jump\t// in\n    tag_242:\n        /* \"#utility.yul\":818:889   */\n      tag_243\n        /* \"#utility.yul\":882:888   */\n      dup2\n        /* \"#utility.yul\":877:880   */\n      dup6\n        /* \"#utility.yul\":818:889   */\n      tag_169\n      jump\t// in\n    tag_243:\n        /* \"#utility.yul\":811:889   */\n      swap4\n      pop\n        /* \"#utility.yul\":898:963   */\n      tag_244\n        /* \"#utility.yul\":956:962   */\n      dup2\n        /* \"#utility.yul\":951:954   */\n      dup6\n        /* \"#utility.yul\":944:948   */\n      0x20\n        /* \"#utility.yul\":937:942   */\n      dup7\n        /* \"#utility.yul\":933:949   */\n      add\n        /* \"#utility.yul\":898:963   */\n      tag_170\n      jump\t// in\n    tag_244:\n        /* \"#utility.yul\":988:1017   */\n      tag_245\n        /* \"#utility.yul\":1010:1016   */\n      dup2\n        /* \"#utility.yul\":988:1017   */\n      tag_171\n      jump\t// in\n    tag_245:\n        /* \"#utility.yul\":983:986   */\n      dup5\n        /* \"#utility.yul\":979:1018   */\n      add\n        /* \"#utility.yul\":972:1018   */\n      swap2\n      pop\n        /* \"#utility.yul\":739:1024   */\n      pop\n        /* \"#utility.yul\":647:1024   */\n      swap3\n      swap2\n      pop\n      pop\n      jump\t// out\n        /* \"#utility.yul\":1030:1343   */\n    tag_29:\n        /* \"#utility.yul\":1143:1147   */\n      0x00\n        /* \"#utility.yul\":1181:1183   */\n      0x20\n        /* \"#utility.yul\":1170:1179   */\n      dup3\n        /* \"#utility.yul\":1166:1184   */\n      add\n        /* \"#utility.yul\":1158:1184   */\n      swap1\n      pop\n        /* \"#utility.yul\":1230:1239   */\n      dup2\n        /* \"#utility.yul\":1224:1228   */\n      dup2\n        /* \"#utility.yul\":1220:1240   */\n      sub\n        /* \"#utility.yul\":1216:1217   */\n      0x00\n        /* \"#utility.yul\":1205:1214   */\n      dup4\n        /* \"#utility.yul\":1201:1218   */\n      add\n        /* \"#utility.yul\":1194:1241   */\n      mstore\n        /* \"#utility.yul\":1258:1336   */\n      tag_247\n        /* \"#utility.yul\":1331:1335   */\n      dup2\n        /* \"#utility.yul\":1322:1328   */\n      dup5\n        /* \"#utility.yul\":1258:1336   */\n      tag_172\n      jump\t// in\n    tag_247:\n        /* \"#utility.yul\":1250:1336   */\n      swap1\n      pop\n        /* \"#utility.yul\":1030:1343   */\n      swap3\n      swap2\n      pop\n      pop\n      jump\t// out\n        /* \"#utility.yul\":1349:1439   */\n    tag_173:\n        /* \"#utility.yul\":1383:1390   */\n      0x00\n        /* \"#utility.yul\":1426:1431   */\n      dup2\n        /* \"#utility.yul\":1419:1432   */\n      iszero\n        /* \"#utility.yul\":1412:1433   */\n      iszero\n        /* \"#utility.yul\":1401:1433   */\n      swap1\n      pop\n        /* \"#utility.yul\":1349:1439   */\n      swap2\n      swap1\n      pop\n      jump\t// out\n        /* \"#utility.yul\":1445:1554   */\n    tag_174:\n        /* \"#utility.yul\":1526:1547   */\n      tag_250\n        /* \"#utility.yul\":1541:1546   */\n      dup2\n        /* \"#utility.yul\":1526:1547   */\n      tag_173\n      jump\t// in\n    tag_250:\n        /* \"#utility.yul\":1521:1524   */\n      dup3\n        /* \"#utility.yul\":1514:1548   */\n      mstore\n        /* \"#utility.yul\":1445:1554   */\n      pop\n      pop\n      jump\t// out\n        /* \"#utility.yul\":1560:1770   */\n    tag_36:\n        /* \"#utility.yul\":1647:1651   */\n      0x00\n        /* \"#utility.yul\":1685:1687   */\n      0x20\n        /* \"#utility.yul\":1674:1683   */\n      dup3\n        /* \"#utility.yul\":1670:1688   */\n      add\n        /* \"#utility.yul\":1662:1688   */\n      swap1\n      pop\n        /* \"#utility.yul\":1698:1763   */\n      tag_252\n        /* \"#utility.yul\":1760:1761   */\n      0x00\n        /* \"#utility.yul\":1749:1758   */\n      dup4\n        /* \"#utility.yul\":1745:1762   */\n      add\n        /* \"#utility.yul\":1736:1742   */\n      dup5\n        /* \"#utility.yul\":1698:1763   */\n      tag_174\n      jump\t// in\n    tag_252:\n        /* \"#utility.yul\":1560:1770   */\n      swap3\n      swap2\n      pop\n      pop\n      jump\t// out\n        /* \"#utility.yul\":1776:1851   */\n    tag_175:\n        /* \"#utility.yul\":1809:1815   */\n      0x00\n        /* \"#utility.yul\":1842:1844   */\n      0x40\n        /* \"#utility.yul\":1836:1845   */\n      mload\n        /* \"#utility.yul\":1826:1845   */\n      swap1\n      pop\n        /* \"#utility.yul\":1776:1851   */\n      swap1\n      jump\t// out\n        /* \"#utility.yul\":1857:1974   */\n    tag_176:\n        /* \"#utility.yul\":1966:1967   */\n      0x00\n        /* \"#utility.yul\":1963:1964   */\n      dup1\n        /* \"#utility.yul\":1956:1968   */\n      revert\n        /* \"#utility.yul\":1980:2097   */\n    tag_177:\n        /* \"#utility.yul\":2089:2090   */\n      0x00\n        /* \"#utility.yul\":2086:2087   */\n      dup1\n        /* \"#utility.yul\":2079:2091   */\n      revert\n        /* \"#utility.yul\":2103:2220   */\n    tag_178:\n        /* \"#utility.yul\":2212:2213   */\n      0x00\n        /* \"#utility.yul\":2209:2210   */\n      dup1\n        /* \"#utility.yul\":2202:2214   */\n      revert\n        /* \"#utility.yul\":2226:2343   */\n    tag_179:\n        /* \"#utility.yul\":2335:2336   */\n      0x00\n        /* \"#utility.yul\":2332:2333   */\n      dup1\n        /* \"#utility.yul\":2325:2337   */\n      revert\n        /* \"#utility.yul\":2349:2529   */\n    tag_180:\n        /* \"#utility.yul\":2397:2474   */\n      0x4e487b7100000000000000000000000000000000000000000000000000000000\n        /* \"#utility.yul\":2394:2395   */\n      0x00\n        /* \"#utility.yul\":2387:2475   */\n      mstore\n        /* \"#utility.yul\":2494:2498   */\n      0x41\n        /* \"#utility.yul\":2491:2492   */\n      0x04\n        /* \"#utility.yul\":2484:2499   */\n      mstore\n        /* \"#utility.yul\":2518:2522   */\n      0x24\n        /* \"#utility.yul\":2515:2516   */\n      0x00\n        /* \"#utility.yul\":2508:2523   */\n      revert\n        /* \"#utility.yul\":2535:2816   */\n    tag_181:\n        /* \"#utility.yul\":2618:2645   */\n      tag_260\n        /* \"#utility.yul\":2640:2644   */\n      dup3\n        /* \"#utility.yul\":2618:2645   */\n      tag_171\n      jump\t// in\n    tag_260:\n        /* \"#utility.yul\":2610:2616   */\n      dup2\n        /* \"#utility.yul\":2606:2646   */\n      add\n        /* \"#utility.yul\":2748:2754   */\n      dup2\n        /* \"#utility.yul\":2736:2746   */\n      dup2\n        /* \"#utility.yul\":2733:2755   */\n      lt\n        /* \"#utility.yul\":2712:2730   */\n      0xffffffffffffffff\n        /* \"#utility.yul\":2700:2710   */\n      dup3\n        /* \"#utility.yul\":2697:2731   */\n      gt\n        /* \"#utility.yul\":2694:2756   */\n      or\n        /* \"#utility.yul\":2691:2779   */\n      iszero\n      tag_261\n      jumpi\n        /* \"#utility.yul\":2759:2777   */\n      tag_262\n      tag_180\n      jump\t// in\n    tag_262:\n        /* \"#utility.yul\":2691:2779   */\n    tag_261:\n        /* \"#utility.yul\":2799:2809   */\n      dup1\n        /* \"#utility.yul\":2795:2797   */\n      0x40\n        /* \"#utility.yul\":2788:2810   */\n      mstore\n        /* \"#utility.yul\":2578:2816   */\n      pop\n        /* \"#utility.yul\":2535:2816   */\n      pop\n      pop\n      jump\t// out\n        /* \"#utility.yul\":2822:2951   */\n    tag_182:\n        /* \"#utility.yul\":2856:2862   */\n      0x00\n        /* \"#utility.yul\":2883:2903   */\n      tag_264\n      tag_175\n      jump\t// in\n    tag_264:\n        /* \"#utility.yul\":2873:2903   */\n      swap1\n      pop\n        /* \"#utility.yul\":2912:2945   */\n      tag_265\n        /* \"#utility.yul\":2940:2944   */\n      dup3\n        /* \"#utility.yul\":2932:2938   */\n      dup3\n        /* \"#utility.yul\":2912:2945   */\n      tag_181\n      jump\t// in\n    tag_265:\n        /* \"#utility.yul\":2822:2951   */\n      swap2\n      swap1\n      pop\n      jump\t// out\n        /* \"#utility.yul\":2957:3265   */\n    tag_183:\n        /* \"#utility.yul\":3019:3023   */\n      0x00\n        /* \"#utility.yul\":3109:3127   */\n      0xffffffffffffffff\n        /* \"#utility.yul\":3101:3107   */\n      dup3\n        /* \"#utility.yul\":3098:3128   */\n      gt\n        /* \"#utility.yul\":3095:3151   */\n      iszero\n      tag_267\n      jumpi\n        /* \"#utility.yul\":3131:3149   */\n      tag_268\n      tag_180\n      jump\t// in\n    tag_268:\n        /* \"#utility.yul\":3095:3151   */\n    tag_267:\n        /* \"#utility.yul\":3169:3198   */\n      tag_269\n        /* \"#utility.yul\":3191:3197   */\n      dup3\n        /* \"#utility.yul\":3169:3198   */\n      tag_171\n      jump\t// in\n    tag_269:\n        /* \"#utility.yul\":3161:3198   */\n      swap1\n      pop\n        /* \"#utility.yul\":3253:3257   */\n      0x20\n        /* \"#utility.yul\":3247:3251   */\n      dup2\n        /* \"#utility.yul\":3243:3258   */\n      add\n        /* \"#utility.yul\":3235:3258   */\n      swap1\n      pop\n        /* \"#utility.yul\":2957:3265   */\n      swap2\n      swap1\n      pop\n      jump\t// out\n        /* \"#utility.yul\":3271:3417   */\n    tag_184:\n        /* \"#utility.yul\":3368:3374   */\n      dup3\n        /* \"#utility.yul\":3363:3366   */\n      dup2\n        /* \"#utility.yul\":3358:3361   */\n      dup4\n        /* \"#utility.yul\":3345:3375   */\n      calldatacopy\n        /* \"#utility.yul\":3409:3410   */\n      0x00\n        /* \"#utility.yul\":3400:3406   */\n      dup4\n        /* \"#utility.yul\":3395:3398   */\n      dup4\n        /* \"#utility.yul\":3391:3407   */\n      add\n        /* \"#utility.yul\":3384:3411   */\n      mstore\n        /* \"#utility.yul\":3271:3417   */\n      pop\n      pop\n      pop\n      jump\t// out\n        /* \"#utility.yul\":3423:3848   */\n    tag_185:\n        /* \"#utility.yul\":3501:3506   */\n      0x00\n        /* \"#utility.yul\":3526:3592   */\n      tag_272\n        /* \"#utility.yul\":3542:3591   */\n      tag_273\n        /* \"#utility.yul\":3584:3590   */\n      dup5\n        /* \"#utility.yul\":3542:3591   */\n      tag_183\n      jump\t// in\n    tag_273:\n        /* \"#utility.yul\":3526:3592   */\n      tag_182\n      jump\t// in\n    tag_272:\n        /* \"#utility.yul\":3517:3592   */\n      swap1\n      pop\n        /* \"#utility.yul\":3615:3621   */\n      dup3\n        /* \"#utility.yul\":3608:3613   */\n      dup2\n        /* \"#utility.yul\":3601:3622   */\n      mstore\n        /* \"#utility.yul\":3653:3657   */\n      0x20\n        /* \"#utility.yul\":3646:3651   */\n      dup2\n        /* \"#utility.yul\":3642:3658   */\n      add\n        /* \"#utility.yul\":3691:3694   */\n      dup5\n        /* \"#utility.yul\":3682:3688   */\n      dup5\n        /* \"#utility.yul\":3677:3680   */\n      dup5\n        /* \"#utility.yul\":3673:3689   */\n      add\n        /* \"#utility.yul\":3670:3695   */\n      gt\n        /* \"#utility.yul\":3667:3779   */\n      iszero\n      tag_274\n      jumpi\n        /* \"#utility.yul\":3698:3777   */\n      tag_275\n      tag_179\n      jump\t// in\n    tag_275:\n        /* \"#utility.yul\":3667:3779   */\n    tag_274:\n        /* \"#utility.yul\":3788:3842   */\n      tag_276\n        /* \"#utility.yul\":3835:3841   */\n      dup5\n        /* \"#utility.yul\":3830:3833   */\n      dup3\n        /* \"#utility.yul\":3825:3828   */\n      dup6\n        /* \"#utility.yul\":3788:3842   */\n      tag_184\n      jump\t// in\n    tag_276:\n        /* \"#utility.yul\":3507:3848   */\n      pop\n        /* \"#utility.yul\":3423:3848   */\n      swap4\n      swap3\n      pop\n      pop\n      pop\n      jump\t// out\n        /* \"#utility.yul\":3868:4208   */\n    tag_186:\n        /* \"#utility.yul\":3924:3929   */\n      0x00\n        /* \"#utility.yul\":3973:3976   */\n      dup3\n        /* \"#utility.yul\":3966:3970   */\n      0x1f\n        /* \"#utility.yul\":3958:3964   */\n      dup4\n        /* \"#utility.yul\":3954:3971   */\n      add\n        /* \"#utility.yul\":3950:3977   */\n      slt\n        /* \"#utility.yul\":3940:4062   */\n      tag_278\n      jumpi\n        /* \"#utility.yul\":3981:4060   */\n      tag_279\n      tag_178\n      jump\t// in\n    tag_279:\n        /* \"#utility.yul\":3940:4062   */\n    tag_278:\n        /* \"#utility.yul\":4098:4104   */\n      dup2\n        /* \"#utility.yul\":4085:4105   */\n      calldataload\n        /* \"#utility.yul\":4123:4202   */\n      tag_280\n        /* \"#utility.yul\":4198:4201   */\n      dup5\n        /* \"#utility.yul\":4190:4196   */\n      dup3\n        /* \"#utility.yul\":4183:4187   */\n      0x20\n        /* \"#utility.yul\":4175:4181   */\n      dup7\n        /* \"#utility.yul\":4171:4188   */\n      add\n        /* \"#utility.yul\":4123:4202   */\n      tag_185\n      jump\t// in\n    tag_280:\n        /* \"#utility.yul\":4114:4202   */\n      swap2\n      pop\n        /* \"#utility.yul\":3930:4208   */\n      pop\n        /* \"#utility.yul\":3868:4208   */\n      swap3\n      swap2\n      pop\n      pop\n      jump\t// out\n        /* \"#utility.yul\":4214:5048   */\n    tag_40:\n        /* \"#utility.yul\":4302:4308   */\n      0x00\n        /* \"#utility.yul\":4310:4316   */\n      dup1\n        /* \"#utility.yul\":4359:4361   */\n      0x40\n        /* \"#utility.yul\":4347:4356   */\n      dup4\n        /* \"#utility.yul\":4338:4345   */\n      dup6\n        /* \"#utility.yul\":4334:4357   */\n      sub\n        /* \"#utility.yul\":4330:4362   */\n      slt\n        /* \"#utility.yul\":4327:4446   */\n      iszero\n      tag_282\n      jumpi\n        /* \"#utility.yul\":4365:4444   */\n      tag_283\n      tag_176\n      jump\t// in\n    tag_283:\n        /* \"#utility.yul\":4327:4446   */\n    tag_282:\n        /* \"#utility.yul\":4513:4514   */\n      0x00\n        /* \"#utility.yul\":4502:4511   */\n      dup4\n        /* \"#utility.yul\":4498:4515   */\n      add\n        /* \"#utility.yul\":4485:4516   */\n      calldataload\n        /* \"#utility.yul\":4543:4561   */\n      0xffffffffffffffff\n        /* \"#utility.yul\":4535:4541   */\n      dup2\n        /* \"#utility.yul\":4532:4562   */\n      gt\n        /* \"#utility.yul\":4529:4646   */\n      iszero\n      tag_284\n      jumpi\n        /* \"#utility.yul\":4565:4644   */\n      tag_285\n      tag_177\n      jump\t// in\n    tag_285:\n        /* \"#utility.yul\":4529:4646   */\n    tag_284:\n        /* \"#utility.yul\":4670:4733   */\n      tag_286\n        /* \"#utility.yul\":4725:4732   */\n      dup6\n        /* \"#utility.yul\":4716:4722   */\n      dup3\n        /* \"#utility.yul\":4705:4714   */\n      dup7\n        /* \"#utility.yul\":4701:4723   */\n      add\n        /* \"#utility.yul\":4670:4733   */\n      tag_186\n      jump\t// in\n    tag_286:\n        /* \"#utility.yul\":4660:4733   */\n      swap3\n      pop\n        /* \"#utility.yul\":4456:4743   */\n      pop\n        /* \"#utility.yul\":4810:4812   */\n      0x20\n        /* \"#utility.yul\":4799:4808   */\n      dup4\n        /* \"#utility.yul\":4795:4813   */\n      add\n        /* \"#utility.yul\":4782:4814   */\n      calldataload\n        /* \"#utility.yul\":4841:4859   */\n      0xffffffffffffffff\n        /* \"#utility.yul\":4833:4839   */\n      dup2\n        /* \"#utility.yul\":4830:4860   */\n      gt\n        /* \"#utility.yul\":4827:4944   */\n      iszero\n      tag_287\n      jumpi\n        /* \"#utility.yul\":4863:4942   */\n      tag_288\n      tag_177\n      jump\t// in\n    tag_288:\n        /* \"#utility.yul\":4827:4944   */\n    tag_287:\n        /* \"#utility.yul\":4968:5031   */\n      tag_289\n        /* \"#utility.yul\":5023:5030   */\n      dup6\n        /* \"#utility.yul\":5014:5020   */\n      dup3\n        /* \"#utility.yul\":5003:5012   */\n      dup7\n        /* \"#utility.yul\":4999:5021   */\n      add\n        /* \"#utility.yul\":4968:5031   */\n      tag_186\n      jump\t// in\n    tag_289:\n        /* \"#utility.yul\":4958:5031   */\n      swap2\n      pop\n        /* \"#utility.yul\":4753:5041   */\n      pop\n        /* \"#utility.yul\":4214:5048   */\n      swap3\n      pop\n      swap3\n      swap1\n      pop\n      jump\t// out\n        /* \"#utility.yul\":5054:5131   */\n    tag_187:\n        /* \"#utility.yul\":5091:5098   */\n      0x00\n        /* \"#utility.yul\":5120:5125   */\n      dup2\n        /* \"#utility.yul\":5109:5125   */\n      swap1\n      pop\n        /* \"#utility.yul\":5054:5131   */\n      swap2\n      swap1\n      pop\n      jump\t// out\n        /* \"#utility.yul\":5137:5255   */\n    tag_188:\n        /* \"#utility.yul\":5224:5248   */\n      tag_292\n        /* \"#utility.yul\":5242:5247   */\n      dup2\n        /* \"#utility.yul\":5224:5248   */\n      tag_187\n      jump\t// in\n    tag_292:\n        /* \"#utility.yul\":5219:5222   */\n      dup3\n        /* \"#utility.yul\":5212:5249   */\n      mstore\n        /* \"#utility.yul\":5137:5255   */\n      pop\n      pop\n      jump\t// out\n        /* \"#utility.yul\":5261:5483   */\n    tag_46:\n        /* \"#utility.yul\":5354:5358   */\n      0x00\n        /* \"#utility.yul\":5392:5394   */\n      0x20\n        /* \"#utility.yul\":5381:5390   */\n      dup3\n        /* \"#utility.yul\":5377:5395   */\n      add\n        /* \"#utility.yul\":5369:5395   */\n      swap1\n      pop\n        /* \"#utility.yul\":5405:5476   */\n      tag_294\n        /* \"#utility.yul\":5473:5474   */\n      0x00\n        /* \"#utility.yul\":5462:5471   */\n      dup4\n        /* \"#utility.yul\":5458:5475   */\n      add\n        /* \"#utility.yul\":5449:5455   */\n      dup5\n        /* \"#utility.yul\":5405:5476   */\n      tag_188\n      jump\t// in\n    tag_294:\n        /* \"#utility.yul\":5261:5483   */\n      swap3\n      swap2\n      pop\n      pop\n      jump\t// out\n        /* \"#utility.yul\":5489:5615   */\n    tag_189:\n        /* \"#utility.yul\":5526:5533   */\n      0x00\n        /* \"#utility.yul\":5566:5608   */\n      0xffffffffffffffffffffffffffffffffffffffff\n        /* \"#utility.yul\":5559:5564   */\n      dup3\n        /* \"#utility.yul\":5555:5609   */\n      and\n        /* \"#utility.yul\":5544:5609   */\n      swap1\n      pop\n        /* \"#utility.yul\":5489:5615   */\n      swap2\n      swap1\n      pop\n      jump\t// out\n        /* \"#utility.yul\":5621:5725   */\n    tag_190:\n        /* \"#utility.yul\":5666:5673   */\n      0x00\n        /* \"#utility.yul\":5695:5719   */\n      tag_297\n        /* \"#utility.yul\":5713:5718   */\n      dup3\n        /* \"#utility.yul\":5695:5719   */\n      tag_189\n      jump\t// in\n    tag_297:\n        /* \"#utility.yul\":5684:5719   */\n      swap1\n      pop\n        /* \"#utility.yul\":5621:5725   */\n      swap2\n      swap1\n      pop\n      jump\t// out\n        /* \"#utility.yul\":5731:5869   */\n    tag_191:\n        /* \"#utility.yul\":5812:5844   */\n      tag_299\n        /* \"#utility.yul\":5838:5843   */\n      dup2\n        /* \"#utility.yul\":5812:5844   */\n      tag_190\n      jump\t// in\n    tag_299:\n        /* \"#utility.yul\":5805:5810   */\n      dup2\n        /* \"#utility.yul\":5802:5845   */\n      eq\n        /* \"#utility.yul\":5792:5863   */\n      tag_300\n      jumpi\n        /* \"#utility.yul\":5859:5860   */\n      0x00\n        /* \"#utility.yul\":5856:5857   */\n      dup1\n        /* \"#utility.yul\":5849:5861   */\n      revert\n        /* \"#utility.yul\":5792:5863   */\n    tag_300:\n        /* \"#utility.yul\":5731:5869   */\n      pop\n      jump\t// out\n        /* \"#utility.yul\":5875:6030   */\n    tag_192:\n        /* \"#utility.yul\":5929:5934   */\n      0x00\n        /* \"#utility.yul\":5967:5973   */\n      dup2\n        /* \"#utility.yul\":5954:5974   */\n      calldataload\n        /* \"#utility.yul\":5945:5974   */\n      swap1\n      pop\n        /* \"#utility.yul\":5983:6024   */\n      tag_302\n        /* \"#utility.yul\":6018:6023   */\n      dup2\n        /* \"#utility.yul\":5983:6024   */\n      tag_191\n      jump\t// in\n    tag_302:\n        /* \"#utility.yul\":5875:6030   */\n      swap3\n      swap2\n      pop\n      pop\n      jump\t// out\n        /* \"#utility.yul\":6036:6381   */\n    tag_61:\n        /* \"#utility.yul\":6103:6109   */\n      0x00\n        /* \"#utility.yul\":6152:6154   */\n      0x20\n        /* \"#utility.yul\":6140:6149   */\n      dup3\n        /* \"#utility.yul\":6131:6138   */\n      dup5\n        /* \"#utility.yul\":6127:6150   */\n      sub\n        /* \"#utility.yul\":6123:6155   */\n      slt\n        /* \"#utility.yul\":6120:6239   */\n      iszero\n      tag_304\n      jumpi\n        /* \"#utility.yul\":6158:6237   */\n      tag_305\n      tag_176\n      jump\t// in\n    tag_305:\n        /* \"#utility.yul\":6120:6239   */\n    tag_304:\n        /* \"#utility.yul\":6278:6279   */\n      0x00\n        /* \"#utility.yul\":6303:6364   */\n      tag_306\n        /* \"#utility.yul\":6356:6363   */\n      dup5\n        /* \"#utility.yul\":6347:6353   */\n      dup3\n        /* \"#utility.yul\":6336:6345   */\n      dup6\n        /* \"#utility.yul\":6332:6354   */\n      add\n        /* \"#utility.yul\":6303:6364   */\n      tag_192\n      jump\t// in\n    tag_306:\n        /* \"#utility.yul\":6293:6364   */\n      swap2\n      pop\n        /* \"#utility.yul\":6249:6374   */\n      pop\n        /* \"#utility.yul\":6036:6381   */\n      swap3\n      swap2\n      pop\n      pop\n      jump\t// out\n        /* \"#utility.yul\":6387:6483   */\n    tag_193:\n        /* \"#utility.yul\":6424:6431   */\n      0x00\n        /* \"#utility.yul\":6453:6477   */\n      tag_308\n        /* \"#utility.yul\":6471:6476   */\n      dup3\n        /* \"#utility.yul\":6453:6477   */\n      tag_189\n      jump\t// in\n    tag_308:\n        /* \"#utility.yul\":6442:6477   */\n      swap1\n      pop\n        /* \"#utility.yul\":6387:6483   */\n      swap2\n      swap1\n      pop\n      jump\t// out\n        /* \"#utility.yul\":6489:6607   */\n    tag_194:\n        /* \"#utility.yul\":6576:6600   */\n      tag_310\n        /* \"#utility.yul\":6594:6599   */\n      dup2\n        /* \"#utility.yul\":6576:6600   */\n      tag_193\n      jump\t// in\n    tag_310:\n        /* \"#utility.yul\":6571:6574   */\n      dup3\n        /* \"#utility.yul\":6564:6601   */\n      mstore\n        /* \"#utility.yul\":6489:6607   */\n      pop\n      pop\n      jump\t// out\n        /* \"#utility.yul\":6613:6835   */\n    tag_66:\n        /* \"#utility.yul\":6706:6710   */\n      0x00\n        /* \"#utility.yul\":6744:6746   */\n      0x20\n        /* \"#utility.yul\":6733:6742   */\n      dup3\n        /* \"#utility.yul\":6729:6747   */\n      add\n        /* \"#utility.yul\":6721:6747   */\n      swap1\n      pop\n        /* \"#utility.yul\":6757:6828   */\n      tag_312\n        /* \"#utility.yul\":6825:6826   */\n      0x00\n        /* \"#utility.yul\":6814:6823   */\n      dup4\n        /* \"#utility.yul\":6810:6827   */\n      add\n        /* \"#utility.yul\":6801:6807   */\n      dup5\n        /* \"#utility.yul\":6757:6828   */\n      tag_194\n      jump\t// in\n    tag_312:\n        /* \"#utility.yul\":6613:6835   */\n      swap3\n      swap2\n      pop\n      pop\n      jump\t// out\n        /* \"#utility.yul\":6841:6963   */\n    tag_195:\n        /* \"#utility.yul\":6914:6938   */\n      tag_314\n        /* \"#utility.yul\":6932:6937   */\n      dup2\n        /* \"#utility.yul\":6914:6938   */\n      tag_187\n      jump\t// in\n    tag_314:\n        /* \"#utility.yul\":6907:6912   */\n      dup2\n        /* \"#utility.yul\":6904:6939   */\n      eq\n        /* \"#utility.yul\":6894:6957   */\n      tag_315\n      jumpi\n        /* \"#utility.yul\":6953:6954   */\n      0x00\n        /* \"#utility.yul\":6950:6951   */\n      dup1\n        /* \"#utility.yul\":6943:6955   */\n      revert\n        /* \"#utility.yul\":6894:6957   */\n    tag_315:\n        /* \"#utility.yul\":6841:6963   */\n      pop\n      jump\t// out\n        /* \"#utility.yul\":6969:7108   */\n    tag_196:\n        /* \"#utility.yul\":7015:7020   */\n      0x00\n        /* \"#utility.yul\":7053:7059   */\n      dup2\n        /* \"#utility.yul\":7040:7060   */\n      calldataload\n        /* \"#utility.yul\":7031:7060   */\n      swap1\n      pop\n        /* \"#utility.yul\":7069:7102   */\n      tag_317\n        /* \"#utility.yul\":7096:7101   */\n      dup2\n        /* \"#utility.yul\":7069:7102   */\n      tag_195\n      jump\t// in\n    tag_317:\n        /* \"#utility.yul\":6969:7108   */\n      swap3\n      swap2\n      pop\n      pop\n      jump\t// out\n        /* \"#utility.yul\":7114:7443   */\n    tag_70:\n        /* \"#utility.yul\":7173:7179   */\n      0x00\n        /* \"#utility.yul\":7222:7224   */\n      0x20\n        /* \"#utility.yul\":7210:7219   */\n      dup3\n        /* \"#utility.yul\":7201:7208   */\n      dup5\n        /* \"#utility.yul\":7197:7220   */\n      sub\n        /* \"#utility.yul\":7193:7225   */\n      slt\n        /* \"#utility.yul\":7190:7309   */\n      iszero\n      tag_319\n      jumpi\n        /* \"#utility.yul\":7228:7307   */\n      tag_320\n      tag_176\n      jump\t// in\n    tag_320:\n        /* \"#utility.yul\":7190:7309   */\n    tag_319:\n        /* \"#utility.yul\":7348:7349   */\n      0x00\n        /* \"#utility.yul\":7373:7426   */\n      tag_321\n        /* \"#utility.yul\":7418:7425   */\n      dup5\n        /* \"#utility.yul\":7409:7415   */\n      dup3\n        /* \"#utility.yul\":7398:7407   */\n      dup6\n        /* \"#utility.yul\":7394:7416   */\n      add\n        /* \"#utility.yul\":7373:7426   */\n      tag_196\n      jump\t// in\n    tag_321:\n        /* \"#utility.yul\":7363:7426   */\n      swap2\n      pop\n        /* \"#utility.yul\":7319:7436   */\n      pop\n        /* \"#utility.yul\":7114:7443   */\n      swap3\n      swap2\n      pop\n      pop\n      jump\t// out\n        /* \"#utility.yul\":7449:8073   */\n    tag_73:\n        /* \"#utility.yul\":7638:7642   */\n      0x00\n        /* \"#utility.yul\":7676:7678   */\n      0x60\n        /* \"#utility.yul\":7665:7674   */\n      dup3\n        /* \"#utility.yul\":7661:7679   */\n      add\n        /* \"#utility.yul\":7653:7679   */\n      swap1\n      pop\n        /* \"#utility.yul\":7689:7760   */\n      tag_323\n        /* \"#utility.yul\":7757:7758   */\n      0x00\n        /* \"#utility.yul\":7746:7755   */\n      dup4\n        /* \"#utility.yul\":7742:7759   */\n      add\n        /* \"#utility.yul\":7733:7739   */\n      dup7\n        /* \"#utility.yul\":7689:7760   */\n      tag_188\n      jump\t// in\n    tag_323:\n        /* \"#utility.yul\":7807:7816   */\n      dup2\n        /* \"#utility.yul\":7801:7805   */\n      dup2\n        /* \"#utility.yul\":7797:7817   */\n      sub\n        /* \"#utility.yul\":7792:7794   */\n      0x20\n        /* \"#utility.yul\":7781:7790   */\n      dup4\n        /* \"#utility.yul\":7777:7795   */\n      add\n        /* \"#utility.yul\":7770:7818   */\n      mstore\n        /* \"#utility.yul\":7835:7913   */\n      tag_324\n        /* \"#utility.yul\":7908:7912   */\n      dup2\n        /* \"#utility.yul\":7899:7905   */\n      dup6\n        /* \"#utility.yul\":7835:7913   */\n      tag_172\n      jump\t// in\n    tag_324:\n        /* \"#utility.yul\":7827:7913   */\n      swap1\n      pop\n        /* \"#utility.yul\":7960:7969   */\n      dup2\n        /* \"#utility.yul\":7954:7958   */\n      dup2\n        /* \"#utility.yul\":7950:7970   */\n      sub\n        /* \"#utility.yul\":7945:7947   */\n      0x40\n        /* \"#utility.yul\":7934:7943   */\n      dup4\n        /* \"#utility.yul\":7930:7948   */\n      add\n        /* \"#utility.yul\":7923:7971   */\n      mstore\n        /* \"#utility.yul\":7988:8066   */\n      tag_325\n        /* \"#utility.yul\":8061:8065   */\n      dup2\n        /* \"#utility.yul\":8052:8058   */\n      dup5\n        /* \"#utility.yul\":7988:8066   */\n      tag_172\n      jump\t// in\n    tag_325:\n        /* \"#utility.yul\":7980:8066   */\n      swap1\n      pop\n        /* \"#utility.yul\":7449:8073   */\n      swap5\n      swap4\n      pop\n      pop\n      pop\n      pop\n      jump\t// out\n        /* \"#utility.yul\":8079:8201   */\n    tag_197:\n        /* \"#utility.yul\":8152:8176   */\n      tag_327\n        /* \"#utility.yul\":8170:8175   */\n      dup2\n        /* \"#utility.yul\":8152:8176   */\n      tag_193\n      jump\t// in\n    tag_327:\n        /* \"#utility.yul\":8145:8150   */\n      dup2\n        /* \"#utility.yul\":8142:8177   */\n      eq\n        /* \"#utility.yul\":8132:8195   */\n      tag_328\n      jumpi\n        /* \"#utility.yul\":8191:8192   */\n      0x00\n        /* \"#utility.yul\":8188:8189   */\n      dup1\n        /* \"#utility.yul\":8181:8193   */\n      revert\n        /* \"#utility.yul\":8132:8195   */\n    tag_328:\n        /* \"#utility.yul\":8079:8201   */\n      pop\n      jump\t// out\n        /* \"#utility.yul\":8207:8346   */\n    tag_198:\n        /* \"#utility.yul\":8253:8258   */\n      0x00\n        /* \"#utility.yul\":8291:8297   */\n      dup2\n        /* \"#utility.yul\":8278:8298   */\n      calldataload\n        /* \"#utility.yul\":8269:8298   */\n      swap1\n      pop\n        /* \"#utility.yul\":8307:8340   */\n      tag_330\n        /* \"#utility.yul\":8334:8339   */\n      dup2\n        /* \"#utility.yul\":8307:8340   */\n      tag_197\n      jump\t// in\n    tag_330:\n        /* \"#utility.yul\":8207:8346   */\n      swap3\n      swap2\n      pop\n      pop\n      jump\t// out\n        /* \"#utility.yul\":8352:8681   */\n    tag_77:\n        /* \"#utility.yul\":8411:8417   */\n      0x00\n        /* \"#utility.yul\":8460:8462   */\n      0x20\n        /* \"#utility.yul\":8448:8457   */\n      dup3\n        /* \"#utility.yul\":8439:8446   */\n      dup5\n        /* \"#utility.yul\":8435:8458   */\n      sub\n        /* \"#utility.yul\":8431:8463   */\n      slt\n        /* \"#utility.yul\":8428:8547   */\n      iszero\n      tag_332\n      jumpi\n        /* \"#utility.yul\":8466:8545   */\n      tag_333\n      tag_176\n      jump\t// in\n    tag_333:\n        /* \"#utility.yul\":8428:8547   */\n    tag_332:\n        /* \"#utility.yul\":8586:8587   */\n      0x00\n        /* \"#utility.yul\":8611:8664   */\n      tag_334\n        /* \"#utility.yul\":8656:8663   */\n      dup5\n        /* \"#utility.yul\":8647:8653   */\n      dup3\n        /* \"#utility.yul\":8636:8645   */\n      dup6\n        /* \"#utility.yul\":8632:8654   */\n      add\n        /* \"#utility.yul\":8611:8664   */\n      tag_198\n      jump\t// in\n    tag_334:\n        /* \"#utility.yul\":8601:8664   */\n      swap2\n      pop\n        /* \"#utility.yul\":8557:8674   */\n      pop\n        /* \"#utility.yul\":8352:8681   */\n      swap3\n      swap2\n      pop\n      pop\n      jump\t// out\n        /* \"#utility.yul\":8687:8867   */\n    tag_109:\n        /* \"#utility.yul\":8735:8812   */\n      0x4e487b7100000000000000000000000000000000000000000000000000000000\n        /* \"#utility.yul\":8732:8733   */\n      0x00\n        /* \"#utility.yul\":8725:8813   */\n      mstore\n        /* \"#utility.yul\":8832:8836   */\n      0x21\n        /* \"#utility.yul\":8829:8830   */\n      0x04\n        /* \"#utility.yul\":8822:8837   */\n      mstore\n        /* \"#utility.yul\":8856:8860   */\n      0x24\n        /* \"#utility.yul\":8853:8854   */\n      0x00\n        /* \"#utility.yul\":8846:8861   */\n      revert\n        /* \"#utility.yul\":8873:8987   */\n    tag_199:\n        /* \"#utility.yul\":8955:8956   */\n      0x05\n        /* \"#utility.yul\":8948:8953   */\n      dup2\n        /* \"#utility.yul\":8945:8957   */\n      lt\n        /* \"#utility.yul\":8935:8981   */\n      tag_337\n      jumpi\n        /* \"#utility.yul\":8961:8979   */\n      tag_338\n      tag_109\n      jump\t// in\n    tag_338:\n        /* \"#utility.yul\":8935:8981   */\n    tag_337:\n        /* \"#utility.yul\":8873:8987   */\n      pop\n      jump\t// out\n        /* \"#utility.yul\":8993:9122   */\n    tag_200:\n        /* \"#utility.yul\":9039:9046   */\n      0x00\n        /* \"#utility.yul\":9068:9073   */\n      dup2\n        /* \"#utility.yul\":9057:9073   */\n      swap1\n      pop\n        /* \"#utility.yul\":9074:9116   */\n      tag_340\n        /* \"#utility.yul\":9110:9115   */\n      dup3\n        /* \"#utility.yul\":9074:9116   */\n      tag_199\n      jump\t// in\n    tag_340:\n        /* \"#utility.yul\":8993:9122   */\n      swap2\n      swap1\n      pop\n      jump\t// out\n        /* \"#utility.yul\":9128:9257   */\n    tag_201:\n        /* \"#utility.yul\":9185:9194   */\n      0x00\n        /* \"#utility.yul\":9218:9251   */\n      tag_342\n        /* \"#utility.yul\":9245:9250   */\n      dup3\n        /* \"#utility.yul\":9218:9251   */\n      tag_200\n      jump\t// in\n    tag_342:\n        /* \"#utility.yul\":9205:9251   */\n      swap1\n      pop\n        /* \"#utility.yul\":9128:9257   */\n      swap2\n      swap1\n      pop\n      jump\t// out\n        /* \"#utility.yul\":9263:9408   */\n    tag_202:\n        /* \"#utility.yul\":9357:9401   */\n      tag_344\n        /* \"#utility.yul\":9395:9400   */\n      dup2\n        /* \"#utility.yul\":9357:9401   */\n      tag_201\n      jump\t// in\n    tag_344:\n        /* \"#utility.yul\":9352:9355   */\n      dup3\n        /* \"#utility.yul\":9345:9402   */\n      mstore\n        /* \"#utility.yul\":9263:9408   */\n      pop\n      pop\n      jump\t// out\n        /* \"#utility.yul\":9414:9650   */\n    tag_89:\n        /* \"#utility.yul\":9514:9518   */\n      0x00\n        /* \"#utility.yul\":9552:9554   */\n      0x20\n        /* \"#utility.yul\":9541:9550   */\n      dup3\n        /* \"#utility.yul\":9537:9555   */\n      add\n        /* \"#utility.yul\":9529:9555   */\n      swap1\n      pop\n        /* \"#utility.yul\":9565:9643   */\n      tag_346\n        /* \"#utility.yul\":9640:9641   */\n      0x00\n        /* \"#utility.yul\":9629:9638   */\n      dup4\n        /* \"#utility.yul\":9625:9642   */\n      add\n        /* \"#utility.yul\":9616:9622   */\n      dup5\n        /* \"#utility.yul\":9565:9643   */\n      tag_202\n      jump\t// in\n    tag_346:\n        /* \"#utility.yul\":9414:9650   */\n      swap3\n      swap2\n      pop\n      pop\n      jump\t// out\n        /* \"#utility.yul\":9656:9881   */\n    tag_203:\n        /* \"#utility.yul\":9796:9830   */\n      0x596f75206d7573742073656e6420736f6d6520657468657220746f2062757920\n        /* \"#utility.yul\":9792:9793   */\n      0x00\n        /* \"#utility.yul\":9784:9790   */\n      dup3\n        /* \"#utility.yul\":9780:9794   */\n      add\n        /* \"#utility.yul\":9773:9831   */\n      mstore\n        /* \"#utility.yul\":9865:9873   */\n      0x746f6b656e730000000000000000000000000000000000000000000000000000\n        /* \"#utility.yul\":9860:9862   */\n      0x20\n        /* \"#utility.yul\":9852:9858   */\n      dup3\n        /* \"#utility.yul\":9848:9863   */\n      add\n        /* \"#utility.yul\":9841:9874   */\n      mstore\n        /* \"#utility.yul\":9656:9881   */\n      pop\n      jump\t// out\n        /* \"#utility.yul\":9887:10253   */\n    tag_204:\n        /* \"#utility.yul\":10029:10032   */\n      0x00\n        /* \"#utility.yul\":10050:10117   */\n      tag_349\n        /* \"#utility.yul\":10114:10116   */\n      0x26\n        /* \"#utility.yul\":10109:10112   */\n      dup4\n        /* \"#utility.yul\":10050:10117   */\n      tag_169\n      jump\t// in\n    tag_349:\n        /* \"#utility.yul\":10043:10117   */\n      swap2\n      pop\n        /* \"#utility.yul\":10126:10219   */\n      tag_350\n        /* \"#utility.yul\":10215:10218   */\n      dup3\n        /* \"#utility.yul\":10126:10219   */\n      tag_203\n      jump\t// in\n    tag_350:\n        /* \"#utility.yul\":10244:10246   */\n      0x40\n        /* \"#utility.yul\":10239:10242   */\n      dup3\n        /* \"#utility.yul\":10235:10247   */\n      add\n        /* \"#utility.yul\":10228:10247   */\n      swap1\n      pop\n        /* \"#utility.yul\":9887:10253   */\n      swap2\n      swap1\n      pop\n      jump\t// out\n        /* \"#utility.yul\":10259:10678   */\n    tag_95:\n        /* \"#utility.yul\":10425:10429   */\n      0x00\n        /* \"#utility.yul\":10463:10465   */\n      0x20\n        /* \"#utility.yul\":10452:10461   */\n      dup3\n        /* \"#utility.yul\":10448:10466   */\n      add\n        /* \"#utility.yul\":10440:10466   */\n      swap1\n      pop\n        /* \"#utility.yul\":10512:10521   */\n      dup2\n        /* \"#utility.yul\":10506:10510   */\n      dup2\n        /* \"#utility.yul\":10502:10522   */\n      sub\n        /* \"#utility.yul\":10498:10499   */\n      0x00\n        /* \"#utility.yul\":10487:10496   */\n      dup4\n        /* \"#utility.yul\":10483:10500   */\n      add\n        /* \"#utility.yul\":10476:10523   */\n      mstore\n        /* \"#utility.yul\":10540:10671   */\n      tag_352\n        /* \"#utility.yul\":10666:10670   */\n      dup2\n        /* \"#utility.yul\":10540:10671   */\n      tag_204\n      jump\t// in\n    tag_352:\n        /* \"#utility.yul\":10532:10671   */\n      swap1\n      pop\n        /* \"#utility.yul\":10259:10678   */\n      swap2\n      swap1\n      pop\n      jump\t// out\n        /* \"#utility.yul\":10684:10864   */\n    tag_205:\n        /* \"#utility.yul\":10732:10809   */\n      0x4e487b7100000000000000000000000000000000000000000000000000000000\n        /* \"#utility.yul\":10729:10730   */\n      0x00\n        /* \"#utility.yul\":10722:10810   */\n      mstore\n        /* \"#utility.yul\":10829:10833   */\n      0x11\n        /* \"#utility.yul\":10826:10827   */\n      0x04\n        /* \"#utility.yul\":10819:10834   */\n      mstore\n        /* \"#utility.yul\":10853:10857   */\n      0x24\n        /* \"#utility.yul\":10850:10851   */\n      0x00\n        /* \"#utility.yul\":10843:10858   */\n      revert\n        /* \"#utility.yul\":10870:11280   */\n    tag_97:\n        /* \"#utility.yul\":10910:10917   */\n      0x00\n        /* \"#utility.yul\":10933:10953   */\n      tag_355\n        /* \"#utility.yul\":10951:10952   */\n      dup3\n        /* \"#utility.yul\":10933:10953   */\n      tag_187\n      jump\t// in\n    tag_355:\n        /* \"#utility.yul\":10928:10953   */\n      swap2\n      pop\n        /* \"#utility.yul\":10967:10987   */\n      tag_356\n        /* \"#utility.yul\":10985:10986   */\n      dup4\n        /* \"#utility.yul\":10967:10987   */\n      tag_187\n      jump\t// in\n    tag_356:\n        /* \"#utility.yul\":10962:10987   */\n      swap3\n      pop\n        /* \"#utility.yul\":11022:11023   */\n      dup3\n        /* \"#utility.yul\":11019:11020   */\n      dup3\n        /* \"#utility.yul\":11015:11024   */\n      mul\n        /* \"#utility.yul\":11044:11074   */\n      tag_357\n        /* \"#utility.yul\":11062:11073   */\n      dup2\n        /* \"#utility.yul\":11044:11074   */\n      tag_187\n      jump\t// in\n    tag_357:\n        /* \"#utility.yul\":11033:11074   */\n      swap2\n      pop\n        /* \"#utility.yul\":11223:11224   */\n      dup3\n        /* \"#utility.yul\":11214:11221   */\n      dup3\n        /* \"#utility.yul\":11210:11225   */\n      div\n        /* \"#utility.yul\":11207:11208   */\n      dup5\n        /* \"#utility.yul\":11204:11226   */\n      eq\n        /* \"#utility.yul\":11184:11185   */\n      dup4\n        /* \"#utility.yul\":11177:11186   */\n      iszero\n        /* \"#utility.yul\":11157:11240   */\n      or\n        /* \"#utility.yul\":11134:11273   */\n      tag_358\n      jumpi\n        /* \"#utility.yul\":11253:11271   */\n      tag_359\n      tag_205\n      jump\t// in\n    tag_359:\n        /* \"#utility.yul\":11134:11273   */\n    tag_358:\n        /* \"#utility.yul\":10918:11280   */\n      pop\n        /* \"#utility.yul\":10870:11280   */\n      swap3\n      swap2\n      pop\n      pop\n      jump\t// out\n        /* \"#utility.yul\":11286:11371   */\n    tag_206:\n        /* \"#utility.yul\":11331:11338   */\n      0x00\n        /* \"#utility.yul\":11360:11365   */\n      dup2\n        /* \"#utility.yul\":11349:11365   */\n      swap1\n      pop\n        /* \"#utility.yul\":11286:11371   */\n      swap2\n      swap1\n      pop\n      jump\t// out\n        /* \"#utility.yul\":11377:11437   */\n    tag_207:\n        /* \"#utility.yul\":11405:11408   */\n      0x00\n        /* \"#utility.yul\":11426:11431   */\n      dup2\n        /* \"#utility.yul\":11419:11431   */\n      swap1\n      pop\n        /* \"#utility.yul\":11377:11437   */\n      swap2\n      swap1\n      pop\n      jump\t// out\n        /* \"#utility.yul\":11443:11601   */\n    tag_208:\n        /* \"#utility.yul\":11501:11510   */\n      0x00\n        /* \"#utility.yul\":11534:11595   */\n      tag_363\n        /* \"#utility.yul\":11552:11594   */\n      tag_364\n        /* \"#utility.yul\":11561:11593   */\n      tag_365\n        /* \"#utility.yul\":11587:11592   */\n      dup5\n        /* \"#utility.yul\":11561:11593   */\n      tag_206\n      jump\t// in\n    tag_365:\n        /* \"#utility.yul\":11552:11594   */\n      tag_207\n      jump\t// in\n    tag_364:\n        /* \"#utility.yul\":11534:11595   */\n      tag_187\n      jump\t// in\n    tag_363:\n        /* \"#utility.yul\":11521:11595   */\n      swap1\n      pop\n        /* \"#utility.yul\":11443:11601   */\n      swap2\n      swap1\n      pop\n      jump\t// out\n        /* \"#utility.yul\":11607:11754   */\n    tag_209:\n        /* \"#utility.yul\":11702:11747   */\n      tag_367\n        /* \"#utility.yul\":11741:11746   */\n      dup2\n        /* \"#utility.yul\":11702:11747   */\n      tag_208\n      jump\t// in\n    tag_367:\n        /* \"#utility.yul\":11697:11700   */\n      dup3\n        /* \"#utility.yul\":11690:11748   */\n      mstore\n        /* \"#utility.yul\":11607:11754   */\n      pop\n      pop\n      jump\t// out\n        /* \"#utility.yul\":11760:11998   */\n    tag_99:\n        /* \"#utility.yul\":11861:11865   */\n      0x00\n        /* \"#utility.yul\":11899:11901   */\n      0x20\n        /* \"#utility.yul\":11888:11897   */\n      dup3\n        /* \"#utility.yul\":11884:11902   */\n      add\n        /* \"#utility.yul\":11876:11902   */\n      swap1\n      pop\n        /* \"#utility.yul\":11912:11991   */\n      tag_369\n        /* \"#utility.yul\":11988:11989   */\n      0x00\n        /* \"#utility.yul\":11977:11986   */\n      dup4\n        /* \"#utility.yul\":11973:11990   */\n      add\n        /* \"#utility.yul\":11964:11970   */\n      dup5\n        /* \"#utility.yul\":11912:11991   */\n      tag_209\n      jump\t// in\n    tag_369:\n        /* \"#utility.yul\":11760:11998   */\n      swap3\n      swap2\n      pop\n      pop\n      jump\t// out\n        /* \"#utility.yul\":12004:12146   */\n    tag_210:\n        /* \"#utility.yul\":12054:12063   */\n      0x00\n        /* \"#utility.yul\":12087:12140   */\n      tag_371\n        /* \"#utility.yul\":12105:12139   */\n      tag_372\n        /* \"#utility.yul\":12114:12138   */\n      tag_373\n        /* \"#utility.yul\":12132:12137   */\n      dup5\n        /* \"#utility.yul\":12114:12138   */\n      tag_189\n      jump\t// in\n    tag_373:\n        /* \"#utility.yul\":12105:12139   */\n      tag_207\n      jump\t// in\n    tag_372:\n        /* \"#utility.yul\":12087:12140   */\n      tag_189\n      jump\t// in\n    tag_371:\n        /* \"#utility.yul\":12074:12140   */\n      swap1\n      pop\n        /* \"#utility.yul\":12004:12146   */\n      swap2\n      swap1\n      pop\n      jump\t// out\n        /* \"#utility.yul\":12152:12278   */\n    tag_211:\n        /* \"#utility.yul\":12202:12211   */\n      0x00\n        /* \"#utility.yul\":12235:12272   */\n      tag_375\n        /* \"#utility.yul\":12266:12271   */\n      dup3\n        /* \"#utility.yul\":12235:12272   */\n      tag_210\n      jump\t// in\n    tag_375:\n        /* \"#utility.yul\":12222:12272   */\n      swap1\n      pop\n        /* \"#utility.yul\":12152:12278   */\n      swap2\n      swap1\n      pop\n      jump\t// out\n        /* \"#utility.yul\":12284:12418   */\n    tag_212:\n        /* \"#utility.yul\":12342:12351   */\n      0x00\n        /* \"#utility.yul\":12375:12412   */\n      tag_377\n        /* \"#utility.yul\":12406:12411   */\n      dup3\n        /* \"#utility.yul\":12375:12412   */\n      tag_211\n      jump\t// in\n    tag_377:\n        /* \"#utility.yul\":12362:12412   */\n      swap1\n      pop\n        /* \"#utility.yul\":12284:12418   */\n      swap2\n      swap1\n      pop\n      jump\t// out\n        /* \"#utility.yul\":12424:12571   */\n    tag_213:\n        /* \"#utility.yul\":12519:12564   */\n      tag_379\n        /* \"#utility.yul\":12558:12563   */\n      dup2\n        /* \"#utility.yul\":12519:12564   */\n      tag_212\n      jump\t// in\n    tag_379:\n        /* \"#utility.yul\":12514:12517   */\n      dup3\n        /* \"#utility.yul\":12507:12565   */\n      mstore\n        /* \"#utility.yul\":12424:12571   */\n      pop\n      pop\n      jump\t// out\n        /* \"#utility.yul\":12577:12925   */\n    tag_101:\n        /* \"#utility.yul\":12706:12710   */\n      0x00\n        /* \"#utility.yul\":12744:12746   */\n      0x40\n        /* \"#utility.yul\":12733:12742   */\n      dup3\n        /* \"#utility.yul\":12729:12747   */\n      add\n        /* \"#utility.yul\":12721:12747   */\n      swap1\n      pop\n        /* \"#utility.yul\":12757:12836   */\n      tag_381\n        /* \"#utility.yul\":12833:12834   */\n      0x00\n        /* \"#utility.yul\":12822:12831   */\n      dup4\n        /* \"#utility.yul\":12818:12835   */\n      add\n        /* \"#utility.yul\":12809:12815   */\n      dup6\n        /* \"#utility.yul\":12757:12836   */\n      tag_213\n      jump\t// in\n    tag_381:\n        /* \"#utility.yul\":12846:12918   */\n      tag_382\n        /* \"#utility.yul\":12914:12916   */\n      0x20\n        /* \"#utility.yul\":12903:12912   */\n      dup4\n        /* \"#utility.yul\":12899:12917   */\n      add\n        /* \"#utility.yul\":12890:12896   */\n      dup5\n        /* \"#utility.yul\":12846:12918   */\n      tag_188\n      jump\t// in\n    tag_382:\n        /* \"#utility.yul\":12577:12925   */\n      swap4\n      swap3\n      pop\n      pop\n      pop\n      jump\t// out\n        /* \"#utility.yul\":12931:13155   */\n    tag_214:\n        /* \"#utility.yul\":13071:13105   */\n      0x4f6e6c7920746865206f776e65722063616e2063616c6c20746869732066756e\n        /* \"#utility.yul\":13067:13068   */\n      0x00\n        /* \"#utility.yul\":13059:13065   */\n      dup3\n        /* \"#utility.yul\":13055:13069   */\n      add\n        /* \"#utility.yul\":13048:13106   */\n      mstore\n        /* \"#utility.yul\":13140:13147   */\n      0x6374696f6e000000000000000000000000000000000000000000000000000000\n        /* \"#utility.yul\":13135:13137   */\n      0x20\n        /* \"#utility.yul\":13127:13133   */\n      dup3\n        /* \"#utility.yul\":13123:13138   */\n      add\n        /* \"#utility.yul\":13116:13148   */\n      mstore\n        /* \"#utility.yul\":12931:13155   */\n      pop\n      jump\t// out\n        /* \"#utility.yul\":13161:13527   */\n    tag_215:\n        /* \"#utility.yul\":13303:13306   */\n      0x00\n        /* \"#utility.yul\":13324:13391   */\n      tag_385\n        /* \"#utility.yul\":13388:13390   */\n      0x25\n        /* \"#utility.yul\":13383:13386   */\n      dup4\n        /* \"#utility.yul\":13324:13391   */\n      tag_169\n      jump\t// in\n    tag_385:\n        /* \"#utility.yul\":13317:13391   */\n      swap2\n      pop\n        /* \"#utility.yul\":13400:13493   */\n      tag_386\n        /* \"#utility.yul\":13489:13492   */\n      dup3\n        /* \"#utility.yul\":13400:13493   */\n      tag_214\n      jump\t// in\n    tag_386:\n        /* \"#utility.yul\":13518:13520   */\n      0x40\n        /* \"#utility.yul\":13513:13516   */\n      dup3\n        /* \"#utility.yul\":13509:13521   */\n      add\n        /* \"#utility.yul\":13502:13521   */\n      swap1\n      pop\n        /* \"#utility.yul\":13161:13527   */\n      swap2\n      swap1\n      pop\n      jump\t// out\n        /* \"#utility.yul\":13533:13952   */\n    tag_105:\n        /* \"#utility.yul\":13699:13703   */\n      0x00\n        /* \"#utility.yul\":13737:13739   */\n      0x20\n        /* \"#utility.yul\":13726:13735   */\n      dup3\n        /* \"#utility.yul\":13722:13740   */\n      add\n        /* \"#utility.yul\":13714:13740   */\n      swap1\n      pop\n        /* \"#utility.yul\":13786:13795   */\n      dup2\n        /* \"#utility.yul\":13780:13784   */\n      dup2\n        /* \"#utility.yul\":13776:13796   */\n      sub\n        /* \"#utility.yul\":13772:13773   */\n      0x00\n        /* \"#utility.yul\":13761:13770   */\n      dup4\n        /* \"#utility.yul\":13757:13774   */\n      add\n        /* \"#utility.yul\":13750:13797   */\n      mstore\n        /* \"#utility.yul\":13814:13945   */\n      tag_388\n        /* \"#utility.yul\":13940:13944   */\n      dup2\n        /* \"#utility.yul\":13814:13945   */\n      tag_215\n      jump\t// in\n    tag_388:\n        /* \"#utility.yul\":13806:13945   */\n      swap1\n      pop\n        /* \"#utility.yul\":13533:13952   */\n      swap2\n      swap1\n      pop\n      jump\t// out\n        /* \"#utility.yul\":13958:14136   */\n    tag_216:\n        /* \"#utility.yul\":14098:14128   */\n      0x54686520636f6e7472616374206973206e6f7420796574206f70656e00000000\n        /* \"#utility.yul\":14094:14095   */\n      0x00\n        /* \"#utility.yul\":14086:14092   */\n      dup3\n        /* \"#utility.yul\":14082:14096   */\n      add\n        /* \"#utility.yul\":14075:14129   */\n      mstore\n        /* \"#utility.yul\":13958:14136   */\n      pop\n      jump\t// out\n        /* \"#utility.yul\":14142:14508   */\n    tag_217:\n        /* \"#utility.yul\":14284:14287   */\n      0x00\n        /* \"#utility.yul\":14305:14372   */\n      tag_391\n        /* \"#utility.yul\":14369:14371   */\n      0x1c\n        /* \"#utility.yul\":14364:14367   */\n      dup4\n        /* \"#utility.yul\":14305:14372   */\n      tag_169\n      jump\t// in\n    tag_391:\n        /* \"#utility.yul\":14298:14372   */\n      swap2\n      pop\n        /* \"#utility.yul\":14381:14474   */\n      tag_392\n        /* \"#utility.yul\":14470:14473   */\n      dup3\n        /* \"#utility.yul\":14381:14474   */\n      tag_216\n      jump\t// in\n    tag_392:\n        /* \"#utility.yul\":14499:14501   */\n      0x20\n        /* \"#utility.yul\":14494:14497   */\n      dup3\n        /* \"#utility.yul\":14490:14502   */\n      add\n        /* \"#utility.yul\":14483:14502   */\n      swap1\n      pop\n        /* \"#utility.yul\":14142:14508   */\n      swap2\n      swap1\n      pop\n      jump\t// out\n        /* \"#utility.yul\":14514:14933   */\n    tag_124:\n        /* \"#utility.yul\":14680:14684   */\n      0x00\n        /* \"#utility.yul\":14718:14720   */\n      0x20\n        /* \"#utility.yul\":14707:14716   */\n      dup3\n        /* \"#utility.yul\":14703:14721   */\n      add\n        /* \"#utility.yul\":14695:14721   */\n      swap1\n      pop\n        /* \"#utility.yul\":14767:14776   */\n      dup2\n        /* \"#utility.yul\":14761:14765   */\n      dup2\n        /* \"#utility.yul\":14757:14777   */\n      sub\n        /* \"#utility.yul\":14753:14754   */\n      0x00\n        /* \"#utility.yul\":14742:14751   */\n      dup4\n        /* \"#utility.yul\":14738:14755   */\n      add\n        /* \"#utility.yul\":14731:14778   */\n      mstore\n        /* \"#utility.yul\":14795:14926   */\n      tag_394\n        /* \"#utility.yul\":14921:14925   */\n      dup2\n        /* \"#utility.yul\":14795:14926   */\n      tag_217\n      jump\t// in\n    tag_394:\n        /* \"#utility.yul\":14787:14926   */\n      swap1\n      pop\n        /* \"#utility.yul\":14514:14933   */\n      swap2\n      swap1\n      pop\n      jump\t// out\n        /* \"#utility.yul\":14939:15119   */\n    tag_218:\n        /* \"#utility.yul\":14987:15064   */\n      0x4e487b7100000000000000000000000000000000000000000000000000000000\n        /* \"#utility.yul\":14984:14985   */\n      0x00\n        /* \"#utility.yul\":14977:15065   */\n      mstore\n        /* \"#utility.yul\":15084:15088   */\n      0x22\n        /* \"#utility.yul\":15081:15082   */\n      0x04\n        /* \"#utility.yul\":15074:15089   */\n      mstore\n        /* \"#utility.yul\":15108:15112   */\n      0x24\n        /* \"#utility.yul\":15105:15106   */\n      0x00\n        /* \"#utility.yul\":15098:15113   */\n      revert\n        /* \"#utility.yul\":15125:15445   */\n    tag_135:\n        /* \"#utility.yul\":15169:15175   */\n      0x00\n        /* \"#utility.yul\":15206:15207   */\n      0x02\n        /* \"#utility.yul\":15200:15204   */\n      dup3\n        /* \"#utility.yul\":15196:15208   */\n      div\n        /* \"#utility.yul\":15186:15208   */\n      swap1\n      pop\n        /* \"#utility.yul\":15253:15254   */\n      0x01\n        /* \"#utility.yul\":15247:15251   */\n      dup3\n        /* \"#utility.yul\":15243:15255   */\n      and\n        /* \"#utility.yul\":15274:15292   */\n      dup1\n        /* \"#utility.yul\":15264:15345   */\n      tag_397\n      jumpi\n        /* \"#utility.yul\":15330:15334   */\n      0x7f\n        /* \"#utility.yul\":15322:15328   */\n      dup3\n        /* \"#utility.yul\":15318:15335   */\n      and\n        /* \"#utility.yul\":15308:15335   */\n      swap2\n      pop\n        /* \"#utility.yul\":15264:15345   */\n    tag_397:\n        /* \"#utility.yul\":15392:15394   */\n      0x20\n        /* \"#utility.yul\":15384:15390   */\n      dup3\n        /* \"#utility.yul\":15381:15395   */\n      lt\n        /* \"#utility.yul\":15361:15379   */\n      dup2\n        /* \"#utility.yul\":15358:15396   */\n      sub\n        /* \"#utility.yul\":15355:15439   */\n      tag_398\n      jumpi\n        /* \"#utility.yul\":15411:15429   */\n      tag_399\n      tag_218\n      jump\t// in\n    tag_399:\n        /* \"#utility.yul\":15355:15439   */\n    tag_398:\n        /* \"#utility.yul\":15176:15445   */\n      pop\n        /* \"#utility.yul\":15125:15445   */\n      swap2\n      swap1\n      pop\n      jump\t// out\n        /* \"#utility.yul\":15451:15592   */\n    tag_219:\n        /* \"#utility.yul\":15500:15504   */\n      0x00\n        /* \"#utility.yul\":15523:15526   */\n      dup2\n        /* \"#utility.yul\":15515:15526   */\n      swap1\n      pop\n        /* \"#utility.yul\":15546:15549   */\n      dup2\n        /* \"#utility.yul\":15543:15544   */\n      0x00\n        /* \"#utility.yul\":15536:15550   */\n      mstore\n        /* \"#utility.yul\":15580:15584   */\n      0x20\n        /* \"#utility.yul\":15577:15578   */\n      0x00\n        /* \"#utility.yul\":15567:15585   */\n      keccak256\n        /* \"#utility.yul\":15559:15585   */\n      swap1\n      pop\n        /* \"#utility.yul\":15451:15592   */\n      swap2\n      swap1\n      pop\n      jump\t// out\n        /* \"#utility.yul\":15598:15691   */\n    tag_220:\n        /* \"#utility.yul\":15635:15641   */\n      0x00\n        /* \"#utility.yul\":15682:15684   */\n      0x20\n        /* \"#utility.yul\":15677:15679   */\n      0x1f\n        /* \"#utility.yul\":15670:15675   */\n      dup4\n        /* \"#utility.yul\":15666:15680   */\n      add\n        /* \"#utility.yul\":15662:15685   */\n      div\n        /* \"#utility.yul\":15652:15685   */\n      swap1\n      pop\n        /* \"#utility.yul\":15598:15691   */\n      swap2\n      swap1\n      pop\n      jump\t// out\n        /* \"#utility.yul\":15697:15804   */\n    tag_221:\n        /* \"#utility.yul\":15741:15749   */\n      0x00\n        /* \"#utility.yul\":15791:15796   */\n      dup3\n        /* \"#utility.yul\":15785:15789   */\n      dup3\n        /* \"#utility.yul\":15781:15797   */\n      shl\n        /* \"#utility.yul\":15760:15797   */\n      swap1\n      pop\n        /* \"#utility.yul\":15697:15804   */\n      swap3\n      swap2\n      pop\n      pop\n      jump\t// out\n        /* \"#utility.yul\":15810:16203   */\n    tag_222:\n        /* \"#utility.yul\":15879:15885   */\n      0x00\n        /* \"#utility.yul\":15929:15930   */\n      0x08\n        /* \"#utility.yul\":15917:15927   */\n      dup4\n        /* \"#utility.yul\":15913:15931   */\n      mul\n        /* \"#utility.yul\":15952:16049   */\n      tag_404\n        /* \"#utility.yul\":15982:16048   */\n      0xffffffffffffffffffffffffffffffffffffffffffffffffffffffffffffffff\n        /* \"#utility.yul\":15971:15980   */\n      dup3\n        /* \"#utility.yul\":15952:16049   */\n      tag_221\n      jump\t// in\n    tag_404:\n        /* \"#utility.yul\":16070:16109   */\n      tag_405\n        /* \"#utility.yul\":16100:16108   */\n      dup7\n        /* \"#utility.yul\":16089:16098   */\n      dup4\n        /* \"#utility.yul\":16070:16109   */\n      tag_221\n      jump\t// in\n    tag_405:\n        /* \"#utility.yul\":16058:16109   */\n      swap6\n      pop\n        /* \"#utility.yul\":16142:16146   */\n      dup1\n        /* \"#utility.yul\":16138:16147   */\n      not\n        /* \"#utility.yul\":16131:16136   */\n      dup5\n        /* \"#utility.yul\":16127:16148   */\n      and\n        /* \"#utility.yul\":16118:16148   */\n      swap4\n      pop\n        /* \"#utility.yul\":16191:16195   */\n      dup1\n        /* \"#utility.yul\":16181:16189   */\n      dup7\n        /* \"#utility.yul\":16177:16196   */\n      and\n        /* \"#utility.yul\":16170:16175   */\n      dup5\n        /* \"#utility.yul\":16167:16197   */\n      or\n        /* \"#utility.yul\":16157:16197   */\n      swap3\n      pop\n        /* \"#utility.yul\":15886:16203   */\n      pop\n      pop\n        /* \"#utility.yul\":15810:16203   */\n      swap4\n      swap3\n      pop\n      pop\n      pop\n      jump\t// out\n        /* \"#utility.yul\":16209:16351   */\n    tag_223:\n        /* \"#utility.yul\":16259:16268   */\n      0x00\n        /* \"#utility.yul\":16292:16345   */\n      tag_407\n        /* \"#utility.yul\":16310:16344   */\n      tag_408\n        /* \"#utility.yul\":16319:16343   */\n      tag_409\n        /* \"#utility.yul\":16337:16342   */\n      dup5\n        /* \"#utility.yul\":16319:16343   */\n      tag_187\n      jump\t// in\n    tag_409:\n        /* \"#utility.yul\":16310:16344   */\n      tag_207\n      jump\t// in\n    tag_408:\n        /* \"#utility.yul\":16292:16345   */\n      tag_187\n      jump\t// in\n    tag_407:\n        /* \"#utility.yul\":16279:16345   */\n      swap1\n      pop\n        /* \"#utility.yul\":16209:16351   */\n      swap2\n      swap1\n      pop\n      jump\t// out\n        /* \"#utility.yul\":16357:16432   */\n    tag_224:\n        /* \"#utility.yul\":16400:16403   */\n      0x00\n        /* \"#utility.yul\":16421:16426   */\n      dup2\n        /* \"#utility.yul\":16414:16426   */\n      swap1\n      pop\n        /* \"#utility.yul\":16357:16432   */\n      swap2\n      swap1\n      pop\n      jump\t// out\n        /* \"#utility.yul\":16438:16707   */\n    tag_225:\n        /* \"#utility.yul\":16548:16587   */\n      tag_412\n        /* \"#utility.yul\":16579:16586   */\n      dup4\n        /* \"#utility.yul\":16548:16587   */\n      tag_223\n      jump\t// in\n    tag_412:\n        /* \"#utility.yul\":16609:16700   */\n      tag_413\n        /* \"#utility.yul\":16658:16699   */\n      tag_414\n        /* \"#utility.yul\":16682:16698   */\n      dup3\n        /* \"#utility.yul\":16658:16699   */\n      tag_224\n      jump\t// in\n    tag_414:\n        /* \"#utility.yul\":16650:16656   */\n      dup5\n        /* \"#utility.yul\":16643:16647   */\n      dup5\n        /* \"#utility.yul\":16637:16648   */\n      sload\n        /* \"#utility.yul\":16609:16700   */\n      tag_222\n      jump\t// in\n    tag_413:\n        /* \"#utility.yul\":16603:16607   */\n      dup3\n        /* \"#utility.yul\":16596:16701   */\n      sstore\n        /* \"#utility.yul\":16514:16707   */\n      pop\n        /* \"#utility.yul\":16438:16707   */\n      pop\n      pop\n      pop\n      jump\t// out\n        /* \"#utility.yul\":16713:16786   */\n    tag_226:\n        /* \"#utility.yul\":16758:16761   */\n      0x00\n        /* \"#utility.yul\":16713:16786   */\n      swap1\n      jump\t// out\n        /* \"#utility.yul\":16792:16981   */\n    tag_227:\n        /* \"#utility.yul\":16869:16901   */\n      tag_417\n      tag_226\n      jump\t// in\n    tag_417:\n        /* \"#utility.yul\":16910:16975   */\n      tag_418\n        /* \"#utility.yul\":16968:16974   */\n      dup2\n        /* \"#utility.yul\":16960:16966   */\n      dup5\n        /* \"#utility.yul\":16954:16958   */\n      dup5\n        /* \"#utility.yul\":16910:16975   */\n      tag_225\n      jump\t// in\n    tag_418:\n        /* \"#utility.yul\":16845:16981   */\n      pop\n        /* \"#utility.yul\":16792:16981   */\n      pop\n      pop\n      jump\t// out\n        /* \"#utility.yul\":16987:17173   */\n    tag_228:\n        /* \"#utility.yul\":17047:17167   */\n    tag_420:\n        /* \"#utility.yul\":17064:17067   */\n      dup2\n        /* \"#utility.yul\":17057:17062   */\n      dup2\n        /* \"#utility.yul\":17054:17068   */\n      lt\n        /* \"#utility.yul\":17047:17167   */\n      iszero\n      tag_422\n      jumpi\n        /* \"#utility.yul\":17118:17157   */\n      tag_423\n        /* \"#utility.yul\":17155:17156   */\n      0x00\n        /* \"#utility.yul\":17148:17153   */\n      dup3\n        /* \"#utility.yul\":17118:17157   */\n      tag_227\n      jump\t// in\n    tag_423:\n        /* \"#utility.yul\":17091:17092   */\n      0x01\n        /* \"#utility.yul\":17084:17089   */\n      dup2\n        /* \"#utility.yul\":17080:17093   */\n      add\n        /* \"#utility.yul\":17071:17093   */\n      swap1\n      pop\n        /* \"#utility.yul\":17047:17167   */\n      jump(tag_420)\n    tag_422:\n        /* \"#utility.yul\":16987:17173   */\n      pop\n      pop\n      jump\t// out\n        /* \"#utility.yul\":17179:17722   */\n    tag_229:\n        /* \"#utility.yul\":17280:17282   */\n      0x1f\n        /* \"#utility.yul\":17275:17278   */\n      dup3\n        /* \"#utility.yul\":17272:17283   */\n      gt\n        /* \"#utility.yul\":17269:17715   */\n      iszero\n      tag_425\n      jumpi\n        /* \"#utility.yul\":17314:17352   */\n      tag_426\n        /* \"#utility.yul\":17346:17351   */\n      dup2\n        /* \"#utility.yul\":17314:17352   */\n      tag_219\n      jump\t// in\n    tag_426:\n        /* \"#utility.yul\":17398:17427   */\n      tag_427\n        /* \"#utility.yul\":17416:17426   */\n      dup5\n        /* \"#utility.yul\":17398:17427   */\n      tag_220\n      jump\t// in\n    tag_427:\n        /* \"#utility.yul\":17388:17396   */\n      dup2\n        /* \"#utility.yul\":17384:17428   */\n      add\n        /* \"#utility.yul\":17581:17583   */\n      0x20\n        /* \"#utility.yul\":17569:17579   */\n      dup6\n        /* \"#utility.yul\":17566:17584   */\n      lt\n        /* \"#utility.yul\":17563:17612   */\n      iszero\n      tag_428\n      jumpi\n        /* \"#utility.yul\":17602:17610   */\n      dup2\n        /* \"#utility.yul\":17587:17610   */\n      swap1\n      pop\n        /* \"#utility.yul\":17563:17612   */\n    tag_428:\n        /* \"#utility.yul\":17625:17705   */\n      tag_429\n        /* \"#utility.yul\":17681:17703   */\n      tag_430\n        /* \"#utility.yul\":17699:17702   */\n      dup6\n        /* \"#utility.yul\":17681:17703   */\n      tag_220\n      jump\t// in\n    tag_430:\n        /* \"#utility.yul\":17671:17679   */\n      dup4\n        /* \"#utility.yul\":17667:17704   */\n      add\n        /* \"#utility.yul\":17654:17665   */\n      dup3\n        /* \"#utility.yul\":17625:17705   */\n      tag_228\n      jump\t// in\n    tag_429:\n        /* \"#utility.yul\":17284:17715   */\n      pop\n      pop\n        /* \"#utility.yul\":17269:17715   */\n    tag_425:\n        /* \"#utility.yul\":17179:17722   */\n      pop\n      pop\n      pop\n      jump\t// out\n        /* \"#utility.yul\":17728:17845   */\n    tag_230:\n        /* \"#utility.yul\":17782:17790   */\n      0x00\n        /* \"#utility.yul\":17832:17837   */\n      dup3\n        /* \"#utility.yul\":17826:17830   */\n      dup3\n        /* \"#utility.yul\":17822:17838   */\n      shr\n        /* \"#utility.yul\":17801:17838   */\n      swap1\n      pop\n        /* \"#utility.yul\":17728:17845   */\n      swap3\n      swap2\n      pop\n      pop\n      jump\t// out\n        /* \"#utility.yul\":17851:18020   */\n    tag_231:\n        /* \"#utility.yul\":17895:17901   */\n      0x00\n        /* \"#utility.yul\":17928:17979   */\n      tag_433\n        /* \"#utility.yul\":17976:17977   */\n      0x00\n        /* \"#utility.yul\":17972:17978   */\n      not\n        /* \"#utility.yul\":17964:17969   */\n      dup5\n        /* \"#utility.yul\":17961:17962   */\n      0x08\n        /* \"#utility.yul\":17957:17970   */\n      mul\n        /* \"#utility.yul\":17928:17979   */\n      tag_230\n      jump\t// in\n    tag_433:\n        /* \"#utility.yul\":17924:17980   */\n      not\n        /* \"#utility.yul\":18009:18013   */\n      dup1\n        /* \"#utility.yul\":18003:18007   */\n      dup4\n        /* \"#utility.yul\":17999:18014   */\n      and\n        /* \"#utility.yul\":17989:18014   */\n      swap2\n      pop\n        /* \"#utility.yul\":17902:18020   */\n      pop\n        /* \"#utility.yul\":17851:18020   */\n      swap3\n      swap2\n      pop\n      pop\n      jump\t// out\n        /* \"#utility.yul\":18025:18320   */\n    tag_232:\n        /* \"#utility.yul\":18101:18105   */\n      0x00\n        /* \"#utility.yul\":18247:18276   */\n      tag_435\n        /* \"#utility.yul\":18272:18275   */\n      dup4\n        /* \"#utility.yul\":18266:18270   */\n      dup4\n        /* \"#utility.yul\":18247:18276   */\n      tag_231\n      jump\t// in\n    tag_435:\n        /* \"#utility.yul\":18239:18276   */\n      swap2\n      pop\n        /* \"#utility.yul\":18309:18312   */\n      dup3\n        /* \"#utility.yul\":18306:18307   */\n      0x02\n        /* \"#utility.yul\":18302:18313   */\n      mul\n        /* \"#utility.yul\":18296:18300   */\n      dup3\n        /* \"#utility.yul\":18293:18314   */\n      or\n        /* \"#utility.yul\":18285:18314   */\n      swap1\n      pop\n        /* \"#utility.yul\":18025:18320   */\n      swap3\n      swap2\n      pop\n      pop\n      jump\t// out\n        /* \"#utility.yul\":18325:19720   */\n    tag_132:\n        /* \"#utility.yul\":18442:18479   */\n      tag_437\n        /* \"#utility.yul\":18475:18478   */\n      dup3\n        /* \"#utility.yul\":18442:18479   */\n      tag_168\n      jump\t// in\n    tag_437:\n        /* \"#utility.yul\":18544:18562   */\n      0xffffffffffffffff\n        /* \"#utility.yul\":18536:18542   */\n      dup2\n        /* \"#utility.yul\":18533:18563   */\n      gt\n        /* \"#utility.yul\":18530:18586   */\n      iszero\n      tag_438\n      jumpi\n        /* \"#utility.yul\":18566:18584   */\n      tag_439\n      tag_180\n      jump\t// in\n    tag_439:\n        /* \"#utility.yul\":18530:18586   */\n    tag_438:\n        /* \"#utility.yul\":18610:18648   */\n      tag_440\n        /* \"#utility.yul\":18642:18646   */\n      dup3\n        /* \"#utility.yul\":18636:18647   */\n      sload\n        /* \"#utility.yul\":18610:18648   */\n      tag_135\n      jump\t// in\n    tag_440:\n        /* \"#utility.yul\":18695:18762   */\n      tag_441\n        /* \"#utility.yul\":18755:18761   */\n      dup3\n        /* \"#utility.yul\":18747:18753   */\n      dup3\n        /* \"#utility.yul\":18741:18745   */\n      dup6\n        /* \"#utility.yul\":18695:18762   */\n      tag_229\n      jump\t// in\n    tag_441:\n        /* \"#utility.yul\":18789:18790   */\n      0x00\n        /* \"#utility.yul\":18813:18817   */\n      0x20\n        /* \"#utility.yul\":18800:18817   */\n      swap1\n      pop\n        /* \"#utility.yul\":18845:18847   */\n      0x1f\n        /* \"#utility.yul\":18837:18843   */\n      dup4\n        /* \"#utility.yul\":18834:18848   */\n      gt\n        /* \"#utility.yul\":18862:18863   */\n      0x01\n        /* \"#utility.yul\":18857:19475   */\n      dup2\n      eq\n      tag_443\n      jumpi\n        /* \"#utility.yul\":19519:19520   */\n      0x00\n        /* \"#utility.yul\":19536:19542   */\n      dup5\n        /* \"#utility.yul\":19533:19610   */\n      iszero\n      tag_444\n      jumpi\n        /* \"#utility.yul\":19585:19594   */\n      dup3\n        /* \"#utility.yul\":19580:19583   */\n      dup8\n        /* \"#utility.yul\":19576:19595   */\n      add\n        /* \"#utility.yul\":19570:19596   */\n      mload\n        /* \"#utility.yul\":19561:19596   */\n      swap1\n      pop\n        /* \"#utility.yul\":19533:19610   */\n    tag_444:\n        /* \"#utility.yul\":19636:19703   */\n      tag_445\n        /* \"#utility.yul\":19696:19702   */\n      dup6\n        /* \"#utility.yul\":19689:19694   */\n      dup3\n        /* \"#utility.yul\":19636:19703   */\n      tag_232\n      jump\t// in\n    tag_445:\n        /* \"#utility.yul\":19630:19634   */\n      dup7\n        /* \"#utility.yul\":19623:19704   */\n      sstore\n        /* \"#utility.yul\":19492:19714   */\n      pop\n        /* \"#utility.yul\":18827:19714   */\n      jump(tag_442)\n        /* \"#utility.yul\":18857:19475   */\n    tag_443:\n        /* \"#utility.yul\":18909:18913   */\n      0x1f\n        /* \"#utility.yul\":18905:18914   */\n      not\n        /* \"#utility.yul\":18897:18903   */\n      dup5\n        /* \"#utility.yul\":18893:18915   */\n      and\n        /* \"#utility.yul\":18943:18980   */\n      tag_446\n        /* \"#utility.yul\":18975:18979   */\n      dup7\n        /* \"#utility.yul\":18943:18980   */\n      tag_219\n      jump\t// in\n    tag_446:\n        /* \"#utility.yul\":19002:19003   */\n      0x00\n        /* \"#utility.yul\":19016:19224   */\n    tag_447:\n        /* \"#utility.yul\":19030:19037   */\n      dup3\n        /* \"#utility.yul\":19027:19028   */\n      dup2\n        /* \"#utility.yul\":19024:19038   */\n      lt\n        /* \"#utility.yul\":19016:19224   */\n      iszero\n      tag_449\n      jumpi\n        /* \"#utility.yul\":19109:19118   */\n      dup5\n        /* \"#utility.yul\":19104:19107   */\n      dup10\n        /* \"#utility.yul\":19100:19119   */\n      add\n        /* \"#utility.yul\":19094:19120   */\n      mload\n        /* \"#utility.yul\":19086:19092   */\n      dup3\n        /* \"#utility.yul\":19079:19121   */\n      sstore\n        /* \"#utility.yul\":19160:19161   */\n      0x01\n        /* \"#utility.yul\":19152:19158   */\n      dup3\n        /* \"#utility.yul\":19148:19162   */\n      add\n        /* \"#utility.yul\":19138:19162   */\n      swap2\n      pop\n        /* \"#utility.yul\":19207:19209   */\n      0x20\n        /* \"#utility.yul\":19196:19205   */\n      dup6\n        /* \"#utility.yul\":19192:19210   */\n      add\n        /* \"#utility.yul\":19179:19210   */\n      swap5\n      pop\n        /* \"#utility.yul\":19053:19057   */\n      0x20\n        /* \"#utility.yul\":19050:19051   */\n      dup2\n        /* \"#utility.yul\":19046:19058   */\n      add\n        /* \"#utility.yul\":19041:19058   */\n      swap1\n      pop\n        /* \"#utility.yul\":19016:19224   */\n      jump(tag_447)\n    tag_449:\n        /* \"#utility.yul\":19252:19258   */\n      dup7\n        /* \"#utility.yul\":19243:19250   */\n      dup4\n        /* \"#utility.yul\":19240:19259   */\n      lt\n        /* \"#utility.yul\":19237:19416   */\n      iszero\n      tag_450\n      jumpi\n        /* \"#utility.yul\":19310:19319   */\n      dup5\n        /* \"#utility.yul\":19305:19308   */\n      dup10\n        /* \"#utility.yul\":19301:19320   */\n      add\n        /* \"#utility.yul\":19295:19321   */\n      mload\n        /* \"#utility.yul\":19353:19401   */\n      tag_451\n        /* \"#utility.yul\":19395:19399   */\n      0x1f\n        /* \"#utility.yul\":19387:19393   */\n      dup10\n        /* \"#utility.yul\":19383:19400   */\n      and\n        /* \"#utility.yul\":19372:19381   */\n      dup3\n        /* \"#utility.yul\":19353:19401   */\n      tag_231\n      jump\t// in\n    tag_451:\n        /* \"#utility.yul\":19345:19351   */\n      dup4\n        /* \"#utility.yul\":19338:19402   */\n      sstore\n        /* \"#utility.yul\":19260:19416   */\n      pop\n        /* \"#utility.yul\":19237:19416   */\n    tag_450:\n        /* \"#utility.yul\":19462:19463   */\n      0x01\n        /* \"#utility.yul\":19458:19459   */\n      0x02\n        /* \"#utility.yul\":19450:19456   */\n      dup9\n        /* \"#utility.yul\":19446:19460   */\n      mul\n        /* \"#utility.yul\":19442:19464   */\n      add\n        /* \"#utility.yul\":19436:19440   */\n      dup9\n        /* \"#utility.yul\":19429:19465   */\n      sstore\n        /* \"#utility.yul\":18864:19475   */\n      pop\n      pop\n      pop\n        /* \"#utility.yul\":18827:19714   */\n    tag_442:\n      pop\n        /* \"#utility.yul\":18417:19720   */\n      pop\n      pop\n      pop\n        /* \"#utility.yul\":18325:19720   */\n      pop\n      pop\n      jump\t// out\n        /* \"#utility.yul\":19726:19917   */\n    tag_167:\n        /* \"#utility.yul\":19766:19769   */\n      0x00\n        /* \"#utility.yul\":19785:19805   */\n      tag_453\n        /* \"#utility.yul\":19803:19804   */\n      dup3\n        /* \"#utility.yul\":19785:19805   */\n      tag_187\n      jump\t// in\n    tag_453:\n        /* \"#utility.yul\":19780:19805   */\n      swap2\n      pop\n        /* \"#utility.yul\":19819:19839   */\n      tag_454\n        /* \"#utility.yul\":19837:19838   */\n      dup4\n        /* \"#utility.yul\":19819:19839   */\n      tag_187\n      jump\t// in\n    tag_454:\n        /* \"#utility.yul\":19814:19839   */\n      swap3\n      pop\n        /* \"#utility.yul\":19862:19863   */\n      dup3\n        /* \"#utility.yul\":19859:19860   */\n      dup3\n        /* \"#utility.yul\":19855:19864   */\n      add\n        /* \"#utility.yul\":19848:19864   */\n      swap1\n      pop\n        /* \"#utility.yul\":19883:19886   */\n      dup1\n        /* \"#utility.yul\":19880:19881   */\n      dup3\n        /* \"#utility.yul\":19877:19887   */\n      gt\n        /* \"#utility.yul\":19874:19910   */\n      iszero\n      tag_455\n      jumpi\n        /* \"#utility.yul\":19890:19908   */\n      tag_456\n      tag_205\n      jump\t// in\n    tag_456:\n        /* \"#utility.yul\":19874:19910   */\n    tag_455:\n        /* \"#utility.yul\":19726:19917   */\n      swap3\n      swap2\n      pop\n      pop\n      jump\t// out\n\n    auxdata: 0xa2646970667358221220c9edacb224f4f7c219ca79a0857a99bcf3eb8ddd05f3bca6187fc397b2cf174264736f6c63430008120033\n}\n",
				"bytecode": {
					"linkReferences": {},
					"object": "60806040526040518060400160405280601081526020017f6d792064656661756c742076616c756500000000000000000000000000000000815250600390816200004a9190620004af565b506040518060400160405280601081526020017f6d792064656661756c742076616c75650000000000000000000000000000000081525060049081620000919190620004af565b506001600560006101000a81548160ff0219169083151502179055507fffffffffffffffffffffffffffffffffffffffffffffffffffffffffffffffe86006557f49b1ff823aa8f30618a504e7b15134ea38dd7e7a254635555555555555555554600755636435e7066009556000600b553480156200010f57600080fd5b5060405162001e9e38038062001e9e833981810160405281019062000135919062000645565b6000600860006101000a81548160ff021916908360048111156200015e576200015d6200068c565b5b021790555033600a60006101000a81548173ffffffffffffffffffffffffffffffffffffffff021916908373ffffffffffffffffffffffffffffffffffffffff160217905550816000806101000a81548173ffffffffffffffffffffffffffffffffffffffff021916908373ffffffffffffffffffffffffffffffffffffffff16021790555080600160006101000a81548173ffffffffffffffffffffffffffffffffffffffff021916908373ffffffffffffffffffffffffffffffffffffffff16021790555060016002819055505050620006bb565b600081519050919050565b7f4e487b7100000000000000000000000000000000000000000000000000000000600052604160045260246000fd5b7f4e487b7100000000000000000000000000000000000000000000000000000000600052602260045260246000fd5b60006002820490506001821680620002b757607f821691505b602082108103620002cd57620002cc6200026f565b5b50919050565b60008190508160005260206000209050919050565b60006020601f8301049050919050565b600082821b905092915050565b600060088302620003377fffffffffffffffffffffffffffffffffffffffffffffffffffffffffffffffff82620002f8565b620003438683620002f8565b95508019841693508086168417925050509392505050565b6000819050919050565b6000819050919050565b6000620003906200038a62000384846200035b565b62000365565b6200035b565b9050919050565b6000819050919050565b620003ac836200036f565b620003c4620003bb8262000397565b84845462000305565b825550505050565b600090565b620003db620003cc565b620003e8818484620003a1565b505050565b5b81811015620004105762000404600082620003d1565b600181019050620003ee565b5050565b601f8211156200045f576200042981620002d3565b6200043484620002e8565b8101602085101562000444578190505b6200045c6200045385620002e8565b830182620003ed565b50505b505050565b600082821c905092915050565b6000620004846000198460080262000464565b1980831691505092915050565b60006200049f838362000471565b9150826002028217905092915050565b620004ba8262000235565b67ffffffffffffffff811115620004d657620004d562000240565b5b620004e282546200029e565b620004ef82828562000414565b600060209050601f83116001811462000527576000841562000512578287015190505b6200051e858262000491565b8655506200058e565b601f1984166200053786620002d3565b60005b8281101562000561578489015182556001820191506020850194506020810190506200053a565b868310156200058157848901516200057d601f89168262000471565b8355505b6001600288020188555050505b505050505050565b600080fd5b600073ffffffffffffffffffffffffffffffffffffffff82169050919050565b6000620005c8826200059b565b9050919050565b620005da81620005bb565b8114620005e657600080fd5b50565b600081519050620005fa81620005cf565b92915050565b60006200060d826200059b565b9050919050565b6200061f8162000600565b81146200062b57600080fd5b50565b6000815190506200063f8162000614565b92915050565b600080604083850312156200065f576200065e62000596565b5b60006200066f85828601620005e9565b925050602062000682858286016200062e565b9150509250929050565b7f4e487b7100000000000000000000000000000000000000000000000000000000600052602160045260246000fd5b6117d380620006cb6000396000f3fe6080604052600436106100ec5760003560e01c80637dc939291161008a578063a6f9dae111610059578063a6f9dae1146102dc578063b7a8807c14610305578063b96c9d6d14610330578063c19d93fb1461033a5761011c565b80637dc939291461022b5780637e72fb52146102565780638da5cb5b146102725780639e7a13ad1461029d5761011c565b806322f5b58d116100c657806322f5b58d14610181578063267c68e0146101aa5780633fa4f245146101d55780636deecdbe146102005761011c565b80630f15f4c0146101215780630fbfb1921461014c57806322f3e2d4146101565761011c565b3661011c5761011a60008054906101000a900473ffffffffffffffffffffffffffffffffffffffff16610365565b005b600080fd5b34801561012d57600080fd5b5061013661048d565b6040516101439190610d19565b60405180910390f35b610154610585565b005b34801561016257600080fd5b5061016b610676565b6040516101789190610d56565b60405180910390f35b34801561018d57600080fd5b506101a860048036038101906101a39190610eba565b6106b4565b005b3480156101b657600080fd5b506101bf610800565b6040516101cc9190610f4b565b60405180910390f35b3480156101e157600080fd5b506101ea610806565b6040516101f79190610d19565b60405180910390f35b34801561020c57600080fd5b50610215610894565b6040516102229190610d56565b60405180910390f35b34801561023757600080fd5b506102406108a7565b60405161024d9190610d19565b60405180910390f35b610270600480360381019061026b9190610fc4565b610365565b005b34801561027e57600080fd5b50610287610935565b6040516102949190611012565b60405180910390f35b3480156102a957600080fd5b506102c460048036038101906102bf9190611059565b61095b565b6040516102d393929190611086565b60405180910390f35b3480156102e857600080fd5b5061030360048036038101906102fe91906110f7565b610a95565b005b34801561031157600080fd5b5061031a610b69565b6040516103279190610f4b565b60405180910390f35b610338610b6f565b005b34801561034657600080fd5b5061034f610c5a565b60405161035c919061119b565b60405180910390f35b8073ffffffffffffffffffffffffffffffffffffffff166108fc349081150290604051600060405180830381858888f193505050501580156103ab573d6000803e3d6000fd5b50600034116103ef576040517f08c379a00000000000000000000000000000000000000000000000000000000081526004016103e690611228565b60405180910390fd5b6000600254346103ff9190611277565b90503373ffffffffffffffffffffffffffffffffffffffff167f2499a5330ab0979cc612135e7883ebc3cd5c9f7a8508f042540c34723348f632600160405161044891906112fe565b60405180910390a27f745f661b8143944fb883f50694ebed3a871e43c451d9d4bf4648a9d551d7e47a828260405161048192919061136e565b60405180910390a15050565b6060600a60009054906101000a900473ffffffffffffffffffffffffffffffffffffffff1673ffffffffffffffffffffffffffffffffffffffff163373ffffffffffffffffffffffffffffffffffffffff161461051f576040517f08c379a000000000000000000000000000000000000000000000000000000000815260040161051690611409565b60405180910390fd5b6002600860006101000a81548160ff0219169083600481111561054557610544611124565b5b02179055506040518060400160405280601681526020017f41637469766174696f6e207375636365737366756c2100000000000000000000815250905090565b6000600160009054906101000a900473ffffffffffffffffffffffffffffffffffffffff1690508073ffffffffffffffffffffffffffffffffffffffff16631249c58b6040518163ffffffff1660e01b8152600401600060405180830381600087803b1580156105f457600080fd5b505af1158015610608573d6000803e3d6000fd5b5050505060008054906101000a900473ffffffffffffffffffffffffffffffffffffffff1673ffffffffffffffffffffffffffffffffffffffff166108fc349081150290604051600060405180830381858888f19350505050158015610672573d6000803e3d6000fd5b5050565b60006002600481111561068c5761068b611124565b5b600860009054906101000a900460ff1660048111156106ae576106ad611124565b5b14905090565b6009544210156106f9576040517f08c379a00000000000000000000000000000000000000000000000000000000081526004016106f090611475565b60405180910390fd5b600a60009054906101000a900473ffffffffffffffffffffffffffffffffffffffff1673ffffffffffffffffffffffffffffffffffffffff163373ffffffffffffffffffffffffffffffffffffffff1614610789576040517f08c379a000000000000000000000000000000000000000000000000000000000815260040161078090611409565b60405180910390fd5b610791610c6d565b6040518060600160405280600b54815260200183815260200182815250600c6000600b5481526020019081526020016000206000820151816000015560208201518160010190816107e29190611697565b5060408201518160020190816107f89190611697565b509050505050565b600b5481565b60038054610813906114c4565b80601f016020809104026020016040519081016040528092919081815260200182805461083f906114c4565b801561088c5780601f106108615761010080835404028352916020019161088c565b820191906000526020600020905b81548152906001019060200180831161086f57829003601f168201915b505050505081565b600560009054906101000a900460ff1681565b600480546108b4906114c4565b80601f01602080910402602001604051908101604052809291908181526020018280546108e0906114c4565b801561092d5780601f106109025761010080835404028352916020019161092d565b820191906000526020600020905b81548152906001019060200180831161091057829003601f168201915b505050505081565b600a60009054906101000a900473ffffffffffffffffffffffffffffffffffffffff1681565b600c602052806000526040600020600091509050806000015490806001018054610984906114c4565b80601f01602080910402602001604051908101604052809291908181526020018280546109b0906114c4565b80156109fd5780601f106109d2576101008083540402835291602001916109fd565b820191906000526020600020905b8154815290600101906020018083116109e057829003601f168201915b505050505090806002018054610a12906114c4565b80601f0160208091040260200160405190810160405280929190818152602001828054610a3e906114c4565b8015610a8b5780601f10610a6057610100808354040283529160200191610a8b565b820191906000526020600020905b815481529060010190602001808311610a6e57829003601f168201915b5050505050905083565b600a60009054906101000a900473ffffffffffffffffffffffffffffffffffffffff1673ffffffffffffffffffffffffffffffffffffffff163373ffffffffffffffffffffffffffffffffffffffff1614610b25576040517f08c379a0000000000000000000000000000000000000000000000000000000008152600401610b1c90611409565b60405180910390fd5b80600a60006101000a81548173ffffffffffffffffffffffffffffffffffffffff021916908373ffffffffffffffffffffffffffffffffffffffff16021790555050565b60095481565b600160009054906101000a900473ffffffffffffffffffffffffffffffffffffffff1673ffffffffffffffffffffffffffffffffffffffff16631249c58b6040518163ffffffff1660e01b8152600401600060405180830381600087803b158015610bd957600080fd5b505af1158015610bed573d6000803e3d6000fd5b5050505060008054906101000a900473ffffffffffffffffffffffffffffffffffffffff1673ffffffffffffffffffffffffffffffffffffffff166108fc349081150290604051600060405180830381858888f19350505050158015610c57573d6000803e3d6000fd5b50565b600860009054906101000a900460ff1681565b6001600b6000828254610c809190611769565b92505081905550565b600081519050919050565b600082825260208201905092915050565b60005b83811015610cc3578082015181840152602081019050610ca8565b60008484015250505050565b6000601f19601f8301169050919050565b6000610ceb82610c89565b610cf58185610c94565b9350610d05818560208601610ca5565b610d0e81610ccf565b840191505092915050565b60006020820190508181036000830152610d338184610ce0565b905092915050565b60008115159050919050565b610d5081610d3b565b82525050565b6000602082019050610d6b6000830184610d47565b92915050565b6000604051905090565b600080fd5b600080fd5b600080fd5b600080fd5b7f4e487b7100000000000000000000000000000000000000000000000000000000600052604160045260246000fd5b610dc782610ccf565b810181811067ffffffffffffffff82111715610de657610de5610d8f565b5b80604052505050565b6000610df9610d71565b9050610e058282610dbe565b919050565b600067ffffffffffffffff821115610e2557610e24610d8f565b5b610e2e82610ccf565b9050602081019050919050565b82818337600083830152505050565b6000610e5d610e5884610e0a565b610def565b905082815260208101848484011115610e7957610e78610d8a565b5b610e84848285610e3b565b509392505050565b600082601f830112610ea157610ea0610d85565b5b8135610eb1848260208601610e4a565b91505092915050565b60008060408385031215610ed157610ed0610d7b565b5b600083013567ffffffffffffffff811115610eef57610eee610d80565b5b610efb85828601610e8c565b925050602083013567ffffffffffffffff811115610f1c57610f1b610d80565b5b610f2885828601610e8c565b9150509250929050565b6000819050919050565b610f4581610f32565b82525050565b6000602082019050610f606000830184610f3c565b92915050565b600073ffffffffffffffffffffffffffffffffffffffff82169050919050565b6000610f9182610f66565b9050919050565b610fa181610f86565b8114610fac57600080fd5b50565b600081359050610fbe81610f98565b92915050565b600060208284031215610fda57610fd9610d7b565b5b6000610fe884828501610faf565b91505092915050565b6000610ffc82610f66565b9050919050565b61100c81610ff1565b82525050565b60006020820190506110276000830184611003565b92915050565b61103681610f32565b811461104157600080fd5b50565b6000813590506110538161102d565b92915050565b60006020828403121561106f5761106e610d7b565b5b600061107d84828501611044565b91505092915050565b600060608201905061109b6000830186610f3c565b81810360208301526110ad8185610ce0565b905081810360408301526110c18184610ce0565b9050949350505050565b6110d481610ff1565b81146110df57600080fd5b50565b6000813590506110f1816110cb565b92915050565b60006020828403121561110d5761110c610d7b565b5b600061111b848285016110e2565b91505092915050565b7f4e487b7100000000000000000000000000000000000000000000000000000000600052602160045260246000fd5b6005811061116457611163611124565b5b50565b600081905061117582611153565b919050565b600061118582611167565b9050919050565b6111958161117a565b82525050565b60006020820190506111b0600083018461118c565b92915050565b7f596f75206d7573742073656e6420736f6d6520657468657220746f206275792060008201527f746f6b656e730000000000000000000000000000000000000000000000000000602082015250565b6000611212602683610c94565b915061121d826111b6565b604082019050919050565b6000602082019050818103600083015261124181611205565b9050919050565b7f4e487b7100000000000000000000000000000000000000000000000000000000600052601160045260246000fd5b600061128282610f32565b915061128d83610f32565b925082820261129b81610f32565b915082820484148315176112b2576112b1611248565b5b5092915050565b6000819050919050565b6000819050919050565b60006112e86112e36112de846112b9565b6112c3565b610f32565b9050919050565b6112f8816112cd565b82525050565b600060208201905061131360008301846112ef565b92915050565b600061133461132f61132a84610f66565b6112c3565b610f66565b9050919050565b600061134682611319565b9050919050565b60006113588261133b565b9050919050565b6113688161134d565b82525050565b6000604082019050611383600083018561135f565b6113906020830184610f3c565b9392505050565b7f4f6e6c7920746865206f776e65722063616e2063616c6c20746869732066756e60008201527f6374696f6e000000000000000000000000000000000000000000000000000000602082015250565b60006113f3602583610c94565b91506113fe82611397565b604082019050919050565b60006020820190508181036000830152611422816113e6565b9050919050565b7f54686520636f6e7472616374206973206e6f7420796574206f70656e00000000600082015250565b600061145f601c83610c94565b915061146a82611429565b602082019050919050565b6000602082019050818103600083015261148e81611452565b9050919050565b7f4e487b7100000000000000000000000000000000000000000000000000000000600052602260045260246000fd5b600060028204905060018216806114dc57607f821691505b6020821081036114ef576114ee611495565b5b50919050565b60008190508160005260206000209050919050565b60006020601f8301049050919050565b600082821b905092915050565b6000600883026115577fffffffffffffffffffffffffffffffffffffffffffffffffffffffffffffffff8261151a565b611561868361151a565b95508019841693508086168417925050509392505050565b600061159461158f61158a84610f32565b6112c3565b610f32565b9050919050565b6000819050919050565b6115ae83611579565b6115c26115ba8261159b565b848454611527565b825550505050565b600090565b6115d76115ca565b6115e28184846115a5565b505050565b5b81811015611606576115fb6000826115cf565b6001810190506115e8565b5050565b601f82111561164b5761161c816114f5565b6116258461150a565b81016020851015611634578190505b6116486116408561150a565b8301826115e7565b50505b505050565b600082821c905092915050565b600061166e60001984600802611650565b1980831691505092915050565b6000611687838361165d565b9150826002028217905092915050565b6116a082610c89565b67ffffffffffffffff8111156116b9576116b8610d8f565b5b6116c382546114c4565b6116ce82828561160a565b600060209050601f83116001811461170157600084156116ef578287015190505b6116f9858261167b565b865550611761565b601f19841661170f866114f5565b60005b8281101561173757848901518255600182019150602085019450602081019050611712565b868310156117545784890151611750601f89168261165d565b8355505b6001600288020188555050505b505050505050565b600061177482610f32565b915061177f83610f32565b925082820190508082111561179757611796611248565b5b9291505056fea2646970667358221220c9edacb224f4f7c219ca79a0857a99bcf3eb8ddd05f3bca6187fc397b2cf174264736f6c63430008120033",
					"opcodes": "PUSH1 0x80 PUSH1 0x40 MSTORE PUSH1 0x40 MLOAD DUP1 PUSH1 0x40 ADD PUSH1 0x40 MSTORE DUP1 PUSH1 0x10 DUP2 MSTORE PUSH1 0x20 ADD PUSH32 0x6D792064656661756C742076616C756500000000000000000000000000000000 DUP2 MSTORE POP PUSH1 0x3 SWAP1 DUP2 PUSH3 0x4A SWAP2 SWAP1 PUSH3 0x4AF JUMP JUMPDEST POP PUSH1 0x40 MLOAD DUP1 PUSH1 0x40 ADD PUSH1 0x40 MSTORE DUP1 PUSH1 0x10 DUP2 MSTORE PUSH1 0x20 ADD PUSH32 0x6D792064656661756C742076616C756500000000000000000000000000000000 DUP2 MSTORE POP PUSH1 0x4 SWAP1 DUP2 PUSH3 0x91 SWAP2 SWAP1 PUSH3 0x4AF JUMP JUMPDEST POP PUSH1 0x1 PUSH1 0x5 PUSH1 0x0 PUSH2 0x100 EXP DUP2 SLOAD DUP2 PUSH1 0xFF MUL NOT AND SWAP1 DUP4 ISZERO ISZERO MUL OR SWAP1 SSTORE POP PUSH32 0xFFFFFFFFFFFFFFFFFFFFFFFFFFFFFFFFFFFFFFFFFFFFFFFFFFFFFFFFFFFFFFE8 PUSH1 0x6 SSTORE PUSH32 0x49B1FF823AA8F30618A504E7B15134EA38DD7E7A254635555555555555555554 PUSH1 0x7 SSTORE PUSH4 0x6435E706 PUSH1 0x9 SSTORE PUSH1 0x0 PUSH1 0xB SSTORE CALLVALUE DUP1 ISZERO PUSH3 0x10F JUMPI PUSH1 0x0 DUP1 REVERT JUMPDEST POP PUSH1 0x40 MLOAD PUSH3 0x1E9E CODESIZE SUB DUP1 PUSH3 0x1E9E DUP4 CODECOPY DUP2 DUP2 ADD PUSH1 0x40 MSTORE DUP2 ADD SWAP1 PUSH3 0x135 SWAP2 SWAP1 PUSH3 0x645 JUMP JUMPDEST PUSH1 0x0 PUSH1 0x8 PUSH1 0x0 PUSH2 0x100 EXP DUP2 SLOAD DUP2 PUSH1 0xFF MUL NOT AND SWAP1 DUP4 PUSH1 0x4 DUP2 GT ISZERO PUSH3 0x15E JUMPI PUSH3 0x15D PUSH3 0x68C JUMP JUMPDEST JUMPDEST MUL OR SWAP1 SSTORE POP CALLER PUSH1 0xA PUSH1 0x0 PUSH2 0x100 EXP DUP2 SLOAD DUP2 PUSH20 0xFFFFFFFFFFFFFFFFFFFFFFFFFFFFFFFFFFFFFFFF MUL NOT AND SWAP1 DUP4 PUSH20 0xFFFFFFFFFFFFFFFFFFFFFFFFFFFFFFFFFFFFFFFF AND MUL OR SWAP1 SSTORE POP DUP2 PUSH1 0x0 DUP1 PUSH2 0x100 EXP DUP2 SLOAD DUP2 PUSH20 0xFFFFFFFFFFFFFFFFFFFFFFFFFFFFFFFFFFFFFFFF MUL NOT AND SWAP1 DUP4 PUSH20 0xFFFFFFFFFFFFFFFFFFFFFFFFFFFFFFFFFFFFFFFF AND MUL OR SWAP1 SSTORE POP DUP1 PUSH1 0x1 PUSH1 0x0 PUSH2 0x100 EXP DUP2 SLOAD DUP2 PUSH20 0xFFFFFFFFFFFFFFFFFFFFFFFFFFFFFFFFFFFFFFFF MUL NOT AND SWAP1 DUP4 PUSH20 0xFFFFFFFFFFFFFFFFFFFFFFFFFFFFFFFFFFFFFFFF AND MUL OR SWAP1 SSTORE POP PUSH1 0x1 PUSH1 0x2 DUP2 SWAP1 SSTORE POP POP POP PUSH3 0x6BB JUMP JUMPDEST PUSH1 0x0 DUP2 MLOAD SWAP1 POP SWAP2 SWAP1 POP JUMP JUMPDEST PUSH32 0x4E487B7100000000000000000000000000000000000000000000000000000000 PUSH1 0x0 MSTORE PUSH1 0x41 PUSH1 0x4 MSTORE PUSH1 0x24 PUSH1 0x0 REVERT JUMPDEST PUSH32 0x4E487B7100000000000000000000000000000000000000000000000000000000 PUSH1 0x0 MSTORE PUSH1 0x22 PUSH1 0x4 MSTORE PUSH1 0x24 PUSH1 0x0 REVERT JUMPDEST PUSH1 0x0 PUSH1 0x2 DUP3 DIV SWAP1 POP PUSH1 0x1 DUP3 AND DUP1 PUSH3 0x2B7 JUMPI PUSH1 0x7F DUP3 AND SWAP2 POP JUMPDEST PUSH1 0x20 DUP3 LT DUP2 SUB PUSH3 0x2CD JUMPI PUSH3 0x2CC PUSH3 0x26F JUMP JUMPDEST JUMPDEST POP SWAP2 SWAP1 POP JUMP JUMPDEST PUSH1 0x0 DUP2 SWAP1 POP DUP2 PUSH1 0x0 MSTORE PUSH1 0x20 PUSH1 0x0 KECCAK256 SWAP1 POP SWAP2 SWAP1 POP JUMP JUMPDEST PUSH1 0x0 PUSH1 0x20 PUSH1 0x1F DUP4 ADD DIV SWAP1 POP SWAP2 SWAP1 POP JUMP JUMPDEST PUSH1 0x0 DUP3 DUP3 SHL SWAP1 POP SWAP3 SWAP2 POP POP JUMP JUMPDEST PUSH1 0x0 PUSH1 0x8 DUP4 MUL PUSH3 0x337 PUSH32 0xFFFFFFFFFFFFFFFFFFFFFFFFFFFFFFFFFFFFFFFFFFFFFFFFFFFFFFFFFFFFFFFF DUP3 PUSH3 0x2F8 JUMP JUMPDEST PUSH3 0x343 DUP7 DUP4 PUSH3 0x2F8 JUMP JUMPDEST SWAP6 POP DUP1 NOT DUP5 AND SWAP4 POP DUP1 DUP7 AND DUP5 OR SWAP3 POP POP POP SWAP4 SWAP3 POP POP POP JUMP JUMPDEST PUSH1 0x0 DUP2 SWAP1 POP SWAP2 SWAP1 POP JUMP JUMPDEST PUSH1 0x0 DUP2 SWAP1 POP SWAP2 SWAP1 POP JUMP JUMPDEST PUSH1 0x0 PUSH3 0x390 PUSH3 0x38A PUSH3 0x384 DUP5 PUSH3 0x35B JUMP JUMPDEST PUSH3 0x365 JUMP JUMPDEST PUSH3 0x35B JUMP JUMPDEST SWAP1 POP SWAP2 SWAP1 POP JUMP JUMPDEST PUSH1 0x0 DUP2 SWAP1 POP SWAP2 SWAP1 POP JUMP JUMPDEST PUSH3 0x3AC DUP4 PUSH3 0x36F JUMP JUMPDEST PUSH3 0x3C4 PUSH3 0x3BB DUP3 PUSH3 0x397 JUMP JUMPDEST DUP5 DUP5 SLOAD PUSH3 0x305 JUMP JUMPDEST DUP3 SSTORE POP POP POP POP JUMP JUMPDEST PUSH1 0x0 SWAP1 JUMP JUMPDEST PUSH3 0x3DB PUSH3 0x3CC JUMP JUMPDEST PUSH3 0x3E8 DUP2 DUP5 DUP5 PUSH3 0x3A1 JUMP JUMPDEST POP POP POP JUMP JUMPDEST JUMPDEST DUP2 DUP2 LT ISZERO PUSH3 0x410 JUMPI PUSH3 0x404 PUSH1 0x0 DUP3 PUSH3 0x3D1 JUMP JUMPDEST PUSH1 0x1 DUP2 ADD SWAP1 POP PUSH3 0x3EE JUMP JUMPDEST POP POP JUMP JUMPDEST PUSH1 0x1F DUP3 GT ISZERO PUSH3 0x45F JUMPI PUSH3 0x429 DUP2 PUSH3 0x2D3 JUMP JUMPDEST PUSH3 0x434 DUP5 PUSH3 0x2E8 JUMP JUMPDEST DUP2 ADD PUSH1 0x20 DUP6 LT ISZERO PUSH3 0x444 JUMPI DUP2 SWAP1 POP JUMPDEST PUSH3 0x45C PUSH3 0x453 DUP6 PUSH3 0x2E8 JUMP JUMPDEST DUP4 ADD DUP3 PUSH3 0x3ED JUMP JUMPDEST POP POP JUMPDEST POP POP POP JUMP JUMPDEST PUSH1 0x0 DUP3 DUP3 SHR SWAP1 POP SWAP3 SWAP2 POP POP JUMP JUMPDEST PUSH1 0x0 PUSH3 0x484 PUSH1 0x0 NOT DUP5 PUSH1 0x8 MUL PUSH3 0x464 JUMP JUMPDEST NOT DUP1 DUP4 AND SWAP2 POP POP SWAP3 SWAP2 POP POP JUMP JUMPDEST PUSH1 0x0 PUSH3 0x49F DUP4 DUP4 PUSH3 0x471 JUMP JUMPDEST SWAP2 POP DUP3 PUSH1 0x2 MUL DUP3 OR SWAP1 POP SWAP3 SWAP2 POP POP JUMP JUMPDEST PUSH3 0x4BA DUP3 PUSH3 0x235 JUMP JUMPDEST PUSH8 0xFFFFFFFFFFFFFFFF DUP2 GT ISZERO PUSH3 0x4D6 JUMPI PUSH3 0x4D5 PUSH3 0x240 JUMP JUMPDEST JUMPDEST PUSH3 0x4E2 DUP3 SLOAD PUSH3 0x29E JUMP JUMPDEST PUSH3 0x4EF DUP3 DUP3 DUP6 PUSH3 0x414 JUMP JUMPDEST PUSH1 0x0 PUSH1 0x20 SWAP1 POP PUSH1 0x1F DUP4 GT PUSH1 0x1 DUP2 EQ PUSH3 0x527 JUMPI PUSH1 0x0 DUP5 ISZERO PUSH3 0x512 JUMPI DUP3 DUP8 ADD MLOAD SWAP1 POP JUMPDEST PUSH3 0x51E DUP6 DUP3 PUSH3 0x491 JUMP JUMPDEST DUP7 SSTORE POP PUSH3 0x58E JUMP JUMPDEST PUSH1 0x1F NOT DUP5 AND PUSH3 0x537 DUP7 PUSH3 0x2D3 JUMP JUMPDEST PUSH1 0x0 JUMPDEST DUP3 DUP2 LT ISZERO PUSH3 0x561 JUMPI DUP5 DUP10 ADD MLOAD DUP3 SSTORE PUSH1 0x1 DUP3 ADD SWAP2 POP PUSH1 0x20 DUP6 ADD SWAP5 POP PUSH1 0x20 DUP2 ADD SWAP1 POP PUSH3 0x53A JUMP JUMPDEST DUP7 DUP4 LT ISZERO PUSH3 0x581 JUMPI DUP5 DUP10 ADD MLOAD PUSH3 0x57D PUSH1 0x1F DUP10 AND DUP3 PUSH3 0x471 JUMP JUMPDEST DUP4 SSTORE POP JUMPDEST PUSH1 0x1 PUSH1 0x2 DUP9 MUL ADD DUP9 SSTORE POP POP POP JUMPDEST POP POP POP POP POP POP JUMP JUMPDEST PUSH1 0x0 DUP1 REVERT JUMPDEST PUSH1 0x0 PUSH20 0xFFFFFFFFFFFFFFFFFFFFFFFFFFFFFFFFFFFFFFFF DUP3 AND SWAP1 POP SWAP2 SWAP1 POP JUMP JUMPDEST PUSH1 0x0 PUSH3 0x5C8 DUP3 PUSH3 0x59B JUMP JUMPDEST SWAP1 POP SWAP2 SWAP1 POP JUMP JUMPDEST PUSH3 0x5DA DUP2 PUSH3 0x5BB JUMP JUMPDEST DUP2 EQ PUSH3 0x5E6 JUMPI PUSH1 0x0 DUP1 REVERT JUMPDEST POP JUMP JUMPDEST PUSH1 0x0 DUP2 MLOAD SWAP1 POP PUSH3 0x5FA DUP2 PUSH3 0x5CF JUMP JUMPDEST SWAP3 SWAP2 POP POP JUMP JUMPDEST PUSH1 0x0 PUSH3 0x60D DUP3 PUSH3 0x59B JUMP JUMPDEST SWAP1 POP SWAP2 SWAP1 POP JUMP JUMPDEST PUSH3 0x61F DUP2 PUSH3 0x600 JUMP JUMPDEST DUP2 EQ PUSH3 0x62B JUMPI PUSH1 0x0 DUP1 REVERT JUMPDEST POP JUMP JUMPDEST PUSH1 0x0 DUP2 MLOAD SWAP1 POP PUSH3 0x63F DUP2 PUSH3 0x614 JUMP JUMPDEST SWAP3 SWAP2 POP POP JUMP JUMPDEST PUSH1 0x0 DUP1 PUSH1 0x40 DUP4 DUP6 SUB SLT ISZERO PUSH3 0x65F JUMPI PUSH3 0x65E PUSH3 0x596 JUMP JUMPDEST JUMPDEST PUSH1 0x0 PUSH3 0x66F DUP6 DUP3 DUP7 ADD PUSH3 0x5E9 JUMP JUMPDEST SWAP3 POP POP PUSH1 0x20 PUSH3 0x682 DUP6 DUP3 DUP7 ADD PUSH3 0x62E JUMP JUMPDEST SWAP2 POP POP SWAP3 POP SWAP3 SWAP1 POP JUMP JUMPDEST PUSH32 0x4E487B7100000000000000000000000000000000000000000000000000000000 PUSH1 0x0 MSTORE PUSH1 0x21 PUSH1 0x4 MSTORE PUSH1 0x24 PUSH1 0x0 REVERT JUMPDEST PUSH2 0x17D3 DUP1 PUSH3 0x6CB PUSH1 0x0 CODECOPY PUSH1 0x0 RETURN INVALID PUSH1 0x80 PUSH1 0x40 MSTORE PUSH1 0x4 CALLDATASIZE LT PUSH2 0xEC JUMPI PUSH1 0x0 CALLDATALOAD PUSH1 0xE0 SHR DUP1 PUSH4 0x7DC93929 GT PUSH2 0x8A JUMPI DUP1 PUSH4 0xA6F9DAE1 GT PUSH2 0x59 JUMPI DUP1 PUSH4 0xA6F9DAE1 EQ PUSH2 0x2DC JUMPI DUP1 PUSH4 0xB7A8807C EQ PUSH2 0x305 JUMPI DUP1 PUSH4 0xB96C9D6D EQ PUSH2 0x330 JUMPI DUP1 PUSH4 0xC19D93FB EQ PUSH2 0x33A JUMPI PUSH2 0x11C JUMP JUMPDEST DUP1 PUSH4 0x7DC93929 EQ PUSH2 0x22B JUMPI DUP1 PUSH4 0x7E72FB52 EQ PUSH2 0x256 JUMPI DUP1 PUSH4 0x8DA5CB5B EQ PUSH2 0x272 JUMPI DUP1 PUSH4 0x9E7A13AD EQ PUSH2 0x29D JUMPI PUSH2 0x11C JUMP JUMPDEST DUP1 PUSH4 0x22F5B58D GT PUSH2 0xC6 JUMPI DUP1 PUSH4 0x22F5B58D EQ PUSH2 0x181 JUMPI DUP1 PUSH4 0x267C68E0 EQ PUSH2 0x1AA JUMPI DUP1 PUSH4 0x3FA4F245 EQ PUSH2 0x1D5 JUMPI DUP1 PUSH4 0x6DEECDBE EQ PUSH2 0x200 JUMPI PUSH2 0x11C JUMP JUMPDEST DUP1 PUSH4 0xF15F4C0 EQ PUSH2 0x121 JUMPI DUP1 PUSH4 0xFBFB192 EQ PUSH2 0x14C JUMPI DUP1 PUSH4 0x22F3E2D4 EQ PUSH2 0x156 JUMPI PUSH2 0x11C JUMP JUMPDEST CALLDATASIZE PUSH2 0x11C JUMPI PUSH2 0x11A PUSH1 0x0 DUP1 SLOAD SWAP1 PUSH2 0x100 EXP SWAP1 DIV PUSH20 0xFFFFFFFFFFFFFFFFFFFFFFFFFFFFFFFFFFFFFFFF AND PUSH2 0x365 JUMP JUMPDEST STOP JUMPDEST PUSH1 0x0 DUP1 REVERT JUMPDEST CALLVALUE DUP1 ISZERO PUSH2 0x12D JUMPI PUSH1 0x0 DUP1 REVERT JUMPDEST POP PUSH2 0x136 PUSH2 0x48D JUMP JUMPDEST PUSH1 0x40 MLOAD PUSH2 0x143 SWAP2 SWAP1 PUSH2 0xD19 JUMP JUMPDEST PUSH1 0x40 MLOAD DUP1 SWAP2 SUB SWAP1 RETURN JUMPDEST PUSH2 0x154 PUSH2 0x585 JUMP JUMPDEST STOP JUMPDEST CALLVALUE DUP1 ISZERO PUSH2 0x162 JUMPI PUSH1 0x0 DUP1 REVERT JUMPDEST POP PUSH2 0x16B PUSH2 0x676 JUMP JUMPDEST PUSH1 0x40 MLOAD PUSH2 0x178 SWAP2 SWAP1 PUSH2 0xD56 JUMP JUMPDEST PUSH1 0x40 MLOAD DUP1 SWAP2 SUB SWAP1 RETURN JUMPDEST CALLVALUE DUP1 ISZERO PUSH2 0x18D JUMPI PUSH1 0x0 DUP1 REVERT JUMPDEST POP PUSH2 0x1A8 PUSH1 0x4 DUP1 CALLDATASIZE SUB DUP2 ADD SWAP1 PUSH2 0x1A3 SWAP2 SWAP1 PUSH2 0xEBA JUMP JUMPDEST PUSH2 0x6B4 JUMP JUMPDEST STOP JUMPDEST CALLVALUE DUP1 ISZERO PUSH2 0x1B6 JUMPI PUSH1 0x0 DUP1 REVERT JUMPDEST POP PUSH2 0x1BF PUSH2 0x800 JUMP JUMPDEST PUSH1 0x40 MLOAD PUSH2 0x1CC SWAP2 SWAP1 PUSH2 0xF4B JUMP JUMPDEST PUSH1 0x40 MLOAD DUP1 SWAP2 SUB SWAP1 RETURN JUMPDEST CALLVALUE DUP1 ISZERO PUSH2 0x1E1 JUMPI PUSH1 0x0 DUP1 REVERT JUMPDEST POP PUSH2 0x1EA PUSH2 0x806 JUMP JUMPDEST PUSH1 0x40 MLOAD PUSH2 0x1F7 SWAP2 SWAP1 PUSH2 0xD19 JUMP JUMPDEST PUSH1 0x40 MLOAD DUP1 SWAP2 SUB SWAP1 RETURN JUMPDEST CALLVALUE DUP1 ISZERO PUSH2 0x20C JUMPI PUSH1 0x0 DUP1 REVERT JUMPDEST POP PUSH2 0x215 PUSH2 0x894 JUMP JUMPDEST PUSH1 0x40 MLOAD PUSH2 0x222 SWAP2 SWAP1 PUSH2 0xD56 JUMP JUMPDEST PUSH1 0x40 MLOAD DUP1 SWAP2 SUB SWAP1 RETURN JUMPDEST CALLVALUE DUP1 ISZERO PUSH2 0x237 JUMPI PUSH1 0x0 DUP1 REVERT JUMPDEST POP PUSH2 0x240 PUSH2 0x8A7 JUMP JUMPDEST PUSH1 0x40 MLOAD PUSH2 0x24D SWAP2 SWAP1 PUSH2 0xD19 JUMP JUMPDEST PUSH1 0x40 MLOAD DUP1 SWAP2 SUB SWAP1 RETURN JUMPDEST PUSH2 0x270 PUSH1 0x4 DUP1 CALLDATASIZE SUB DUP2 ADD SWAP1 PUSH2 0x26B SWAP2 SWAP1 PUSH2 0xFC4 JUMP JUMPDEST PUSH2 0x365 JUMP JUMPDEST STOP JUMPDEST CALLVALUE DUP1 ISZERO PUSH2 0x27E JUMPI PUSH1 0x0 DUP1 REVERT JUMPDEST POP PUSH2 0x287 PUSH2 0x935 JUMP JUMPDEST PUSH1 0x40 MLOAD PUSH2 0x294 SWAP2 SWAP1 PUSH2 0x1012 JUMP JUMPDEST PUSH1 0x40 MLOAD DUP1 SWAP2 SUB SWAP1 RETURN JUMPDEST CALLVALUE DUP1 ISZERO PUSH2 0x2A9 JUMPI PUSH1 0x0 DUP1 REVERT JUMPDEST POP PUSH2 0x2C4 PUSH1 0x4 DUP1 CALLDATASIZE SUB DUP2 ADD SWAP1 PUSH2 0x2BF SWAP2 SWAP1 PUSH2 0x1059 JUMP JUMPDEST PUSH2 0x95B JUMP JUMPDEST PUSH1 0x40 MLOAD PUSH2 0x2D3 SWAP4 SWAP3 SWAP2 SWAP1 PUSH2 0x1086 JUMP JUMPDEST PUSH1 0x40 MLOAD DUP1 SWAP2 SUB SWAP1 RETURN JUMPDEST CALLVALUE DUP1 ISZERO PUSH2 0x2E8 JUMPI PUSH1 0x0 DUP1 REVERT JUMPDEST POP PUSH2 0x303 PUSH1 0x4 DUP1 CALLDATASIZE SUB DUP2 ADD SWAP1 PUSH2 0x2FE SWAP2 SWAP1 PUSH2 0x10F7 JUMP JUMPDEST PUSH2 0xA95 JUMP JUMPDEST STOP JUMPDEST CALLVALUE DUP1 ISZERO PUSH2 0x311 JUMPI PUSH1 0x0 DUP1 REVERT JUMPDEST POP PUSH2 0x31A PUSH2 0xB69 JUMP JUMPDEST PUSH1 0x40 MLOAD PUSH2 0x327 SWAP2 SWAP1 PUSH2 0xF4B JUMP JUMPDEST PUSH1 0x40 MLOAD DUP1 SWAP2 SUB SWAP1 RETURN JUMPDEST PUSH2 0x338 PUSH2 0xB6F JUMP JUMPDEST STOP JUMPDEST CALLVALUE DUP1 ISZERO PUSH2 0x346 JUMPI PUSH1 0x0 DUP1 REVERT JUMPDEST POP PUSH2 0x34F PUSH2 0xC5A JUMP JUMPDEST PUSH1 0x40 MLOAD PUSH2 0x35C SWAP2 SWAP1 PUSH2 0x119B JUMP JUMPDEST PUSH1 0x40 MLOAD DUP1 SWAP2 SUB SWAP1 RETURN JUMPDEST DUP1 PUSH20 0xFFFFFFFFFFFFFFFFFFFFFFFFFFFFFFFFFFFFFFFF AND PUSH2 0x8FC CALLVALUE SWAP1 DUP2 ISZERO MUL SWAP1 PUSH1 0x40 MLOAD PUSH1 0x0 PUSH1 0x40 MLOAD DUP1 DUP4 SUB DUP2 DUP6 DUP9 DUP9 CALL SWAP4 POP POP POP POP ISZERO DUP1 ISZERO PUSH2 0x3AB JUMPI RETURNDATASIZE PUSH1 0x0 DUP1 RETURNDATACOPY RETURNDATASIZE PUSH1 0x0 REVERT JUMPDEST POP PUSH1 0x0 CALLVALUE GT PUSH2 0x3EF JUMPI PUSH1 0x40 MLOAD PUSH32 0x8C379A000000000000000000000000000000000000000000000000000000000 DUP2 MSTORE PUSH1 0x4 ADD PUSH2 0x3E6 SWAP1 PUSH2 0x1228 JUMP JUMPDEST PUSH1 0x40 MLOAD DUP1 SWAP2 SUB SWAP1 REVERT JUMPDEST PUSH1 0x0 PUSH1 0x2 SLOAD CALLVALUE PUSH2 0x3FF SWAP2 SWAP1 PUSH2 0x1277 JUMP JUMPDEST SWAP1 POP CALLER PUSH20 0xFFFFFFFFFFFFFFFFFFFFFFFFFFFFFFFFFFFFFFFF AND PUSH32 0x2499A5330AB0979CC612135E7883EBC3CD5C9F7A8508F042540C34723348F632 PUSH1 0x1 PUSH1 0x40 MLOAD PUSH2 0x448 SWAP2 SWAP1 PUSH2 0x12FE JUMP JUMPDEST PUSH1 0x40 MLOAD DUP1 SWAP2 SUB SWAP1 LOG2 PUSH32 0x745F661B8143944FB883F50694EBED3A871E43C451D9D4BF4648A9D551D7E47A DUP3 DUP3 PUSH1 0x40 MLOAD PUSH2 0x481 SWAP3 SWAP2 SWAP1 PUSH2 0x136E JUMP JUMPDEST PUSH1 0x40 MLOAD DUP1 SWAP2 SUB SWAP1 LOG1 POP POP JUMP JUMPDEST PUSH1 0x60 PUSH1 0xA PUSH1 0x0 SWAP1 SLOAD SWAP1 PUSH2 0x100 EXP SWAP1 DIV PUSH20 0xFFFFFFFFFFFFFFFFFFFFFFFFFFFFFFFFFFFFFFFF AND PUSH20 0xFFFFFFFFFFFFFFFFFFFFFFFFFFFFFFFFFFFFFFFF AND CALLER PUSH20 0xFFFFFFFFFFFFFFFFFFFFFFFFFFFFFFFFFFFFFFFF AND EQ PUSH2 0x51F JUMPI PUSH1 0x40 MLOAD PUSH32 0x8C379A000000000000000000000000000000000000000000000000000000000 DUP2 MSTORE PUSH1 0x4 ADD PUSH2 0x516 SWAP1 PUSH2 0x1409 JUMP JUMPDEST PUSH1 0x40 MLOAD DUP1 SWAP2 SUB SWAP1 REVERT JUMPDEST PUSH1 0x2 PUSH1 0x8 PUSH1 0x0 PUSH2 0x100 EXP DUP2 SLOAD DUP2 PUSH1 0xFF MUL NOT AND SWAP1 DUP4 PUSH1 0x4 DUP2 GT ISZERO PUSH2 0x545 JUMPI PUSH2 0x544 PUSH2 0x1124 JUMP JUMPDEST JUMPDEST MUL OR SWAP1 SSTORE POP PUSH1 0x40 MLOAD DUP1 PUSH1 0x40 ADD PUSH1 0x40 MSTORE DUP1 PUSH1 0x16 DUP2 MSTORE PUSH1 0x20 ADD PUSH32 0x41637469766174696F6E207375636365737366756C2100000000000000000000 DUP2 MSTORE POP SWAP1 POP SWAP1 JUMP JUMPDEST PUSH1 0x0 PUSH1 0x1 PUSH1 0x0 SWAP1 SLOAD SWAP1 PUSH2 0x100 EXP SWAP1 DIV PUSH20 0xFFFFFFFFFFFFFFFFFFFFFFFFFFFFFFFFFFFFFFFF AND SWAP1 POP DUP1 PUSH20 0xFFFFFFFFFFFFFFFFFFFFFFFFFFFFFFFFFFFFFFFF AND PUSH4 0x1249C58B PUSH1 0x40 MLOAD DUP2 PUSH4 0xFFFFFFFF AND PUSH1 0xE0 SHL DUP2 MSTORE PUSH1 0x4 ADD PUSH1 0x0 PUSH1 0x40 MLOAD DUP1 DUP4 SUB DUP2 PUSH1 0x0 DUP8 DUP1 EXTCODESIZE ISZERO DUP1 ISZERO PUSH2 0x5F4 JUMPI PUSH1 0x0 DUP1 REVERT JUMPDEST POP GAS CALL ISZERO DUP1 ISZERO PUSH2 0x608 JUMPI RETURNDATASIZE PUSH1 0x0 DUP1 RETURNDATACOPY RETURNDATASIZE PUSH1 0x0 REVERT JUMPDEST POP POP POP POP PUSH1 0x0 DUP1 SLOAD SWAP1 PUSH2 0x100 EXP SWAP1 DIV PUSH20 0xFFFFFFFFFFFFFFFFFFFFFFFFFFFFFFFFFFFFFFFF AND PUSH20 0xFFFFFFFFFFFFFFFFFFFFFFFFFFFFFFFFFFFFFFFF AND PUSH2 0x8FC CALLVALUE SWAP1 DUP2 ISZERO MUL SWAP1 PUSH1 0x40 MLOAD PUSH1 0x0 PUSH1 0x40 MLOAD DUP1 DUP4 SUB DUP2 DUP6 DUP9 DUP9 CALL SWAP4 POP POP POP POP ISZERO DUP1 ISZERO PUSH2 0x672 JUMPI RETURNDATASIZE PUSH1 0x0 DUP1 RETURNDATACOPY RETURNDATASIZE PUSH1 0x0 REVERT JUMPDEST POP POP JUMP JUMPDEST PUSH1 0x0 PUSH1 0x2 PUSH1 0x4 DUP2 GT ISZERO PUSH2 0x68C JUMPI PUSH2 0x68B PUSH2 0x1124 JUMP JUMPDEST JUMPDEST PUSH1 0x8 PUSH1 0x0 SWAP1 SLOAD SWAP1 PUSH2 0x100 EXP SWAP1 DIV PUSH1 0xFF AND PUSH1 0x4 DUP2 GT ISZERO PUSH2 0x6AE JUMPI PUSH2 0x6AD PUSH2 0x1124 JUMP JUMPDEST JUMPDEST EQ SWAP1 POP SWAP1 JUMP JUMPDEST PUSH1 0x9 SLOAD TIMESTAMP LT ISZERO PUSH2 0x6F9 JUMPI PUSH1 0x40 MLOAD PUSH32 0x8C379A000000000000000000000000000000000000000000000000000000000 DUP2 MSTORE PUSH1 0x4 ADD PUSH2 0x6F0 SWAP1 PUSH2 0x1475 JUMP JUMPDEST PUSH1 0x40 MLOAD DUP1 SWAP2 SUB SWAP1 REVERT JUMPDEST PUSH1 0xA PUSH1 0x0 SWAP1 SLOAD SWAP1 PUSH2 0x100 EXP SWAP1 DIV PUSH20 0xFFFFFFFFFFFFFFFFFFFFFFFFFFFFFFFFFFFFFFFF AND PUSH20 0xFFFFFFFFFFFFFFFFFFFFFFFFFFFFFFFFFFFFFFFF AND CALLER PUSH20 0xFFFFFFFFFFFFFFFFFFFFFFFFFFFFFFFFFFFFFFFF AND EQ PUSH2 0x789 JUMPI PUSH1 0x40 MLOAD PUSH32 0x8C379A000000000000000000000000000000000000000000000000000000000 DUP2 MSTORE PUSH1 0x4 ADD PUSH2 0x780 SWAP1 PUSH2 0x1409 JUMP JUMPDEST PUSH1 0x40 MLOAD DUP1 SWAP2 SUB SWAP1 REVERT JUMPDEST PUSH2 0x791 PUSH2 0xC6D JUMP JUMPDEST PUSH1 0x40 MLOAD DUP1 PUSH1 0x60 ADD PUSH1 0x40 MSTORE DUP1 PUSH1 0xB SLOAD DUP2 MSTORE PUSH1 0x20 ADD DUP4 DUP2 MSTORE PUSH1 0x20 ADD DUP3 DUP2 MSTORE POP PUSH1 0xC PUSH1 0x0 PUSH1 0xB SLOAD DUP2 MSTORE PUSH1 0x20 ADD SWAP1 DUP2 MSTORE PUSH1 0x20 ADD PUSH1 0x0 KECCAK256 PUSH1 0x0 DUP3 ADD MLOAD DUP2 PUSH1 0x0 ADD SSTORE PUSH1 0x20 DUP3 ADD MLOAD DUP2 PUSH1 0x1 ADD SWAP1 DUP2 PUSH2 0x7E2 SWAP2 SWAP1 PUSH2 0x1697 JUMP JUMPDEST POP PUSH1 0x40 DUP3 ADD MLOAD DUP2 PUSH1 0x2 ADD SWAP1 DUP2 PUSH2 0x7F8 SWAP2 SWAP1 PUSH2 0x1697 JUMP JUMPDEST POP SWAP1 POP POP POP POP JUMP JUMPDEST PUSH1 0xB SLOAD DUP2 JUMP JUMPDEST PUSH1 0x3 DUP1 SLOAD PUSH2 0x813 SWAP1 PUSH2 0x14C4 JUMP JUMPDEST DUP1 PUSH1 0x1F ADD PUSH1 0x20 DUP1 SWAP2 DIV MUL PUSH1 0x20 ADD PUSH1 0x40 MLOAD SWAP1 DUP2 ADD PUSH1 0x40 MSTORE DUP1 SWAP3 SWAP2 SWAP1 DUP2 DUP2 MSTORE PUSH1 0x20 ADD DUP3 DUP1 SLOAD PUSH2 0x83F SWAP1 PUSH2 0x14C4 JUMP JUMPDEST DUP1 ISZERO PUSH2 0x88C JUMPI DUP1 PUSH1 0x1F LT PUSH2 0x861 JUMPI PUSH2 0x100 DUP1 DUP4 SLOAD DIV MUL DUP4 MSTORE SWAP2 PUSH1 0x20 ADD SWAP2 PUSH2 0x88C JUMP JUMPDEST DUP3 ADD SWAP2 SWAP1 PUSH1 0x0 MSTORE PUSH1 0x20 PUSH1 0x0 KECCAK256 SWAP1 JUMPDEST DUP2 SLOAD DUP2 MSTORE SWAP1 PUSH1 0x1 ADD SWAP1 PUSH1 0x20 ADD DUP1 DUP4 GT PUSH2 0x86F JUMPI DUP3 SWAP1 SUB PUSH1 0x1F AND DUP3 ADD SWAP2 JUMPDEST POP POP POP POP POP DUP2 JUMP JUMPDEST PUSH1 0x5 PUSH1 0x0 SWAP1 SLOAD SWAP1 PUSH2 0x100 EXP SWAP1 DIV PUSH1 0xFF AND DUP2 JUMP JUMPDEST PUSH1 0x4 DUP1 SLOAD PUSH2 0x8B4 SWAP1 PUSH2 0x14C4 JUMP JUMPDEST DUP1 PUSH1 0x1F ADD PUSH1 0x20 DUP1 SWAP2 DIV MUL PUSH1 0x20 ADD PUSH1 0x40 MLOAD SWAP1 DUP2 ADD PUSH1 0x40 MSTORE DUP1 SWAP3 SWAP2 SWAP1 DUP2 DUP2 MSTORE PUSH1 0x20 ADD DUP3 DUP1 SLOAD PUSH2 0x8E0 SWAP1 PUSH2 0x14C4 JUMP JUMPDEST DUP1 ISZERO PUSH2 0x92D JUMPI DUP1 PUSH1 0x1F LT PUSH2 0x902 JUMPI PUSH2 0x100 DUP1 DUP4 SLOAD DIV MUL DUP4 MSTORE SWAP2 PUSH1 0x20 ADD SWAP2 PUSH2 0x92D JUMP JUMPDEST DUP3 ADD SWAP2 SWAP1 PUSH1 0x0 MSTORE PUSH1 0x20 PUSH1 0x0 KECCAK256 SWAP1 JUMPDEST DUP2 SLOAD DUP2 MSTORE SWAP1 PUSH1 0x1 ADD SWAP1 PUSH1 0x20 ADD DUP1 DUP4 GT PUSH2 0x910 JUMPI DUP3 SWAP1 SUB PUSH1 0x1F AND DUP3 ADD SWAP2 JUMPDEST POP POP POP POP POP DUP2 JUMP JUMPDEST PUSH1 0xA PUSH1 0x0 SWAP1 SLOAD SWAP1 PUSH2 0x100 EXP SWAP1 DIV PUSH20 0xFFFFFFFFFFFFFFFFFFFFFFFFFFFFFFFFFFFFFFFF AND DUP2 JUMP JUMPDEST PUSH1 0xC PUSH1 0x20 MSTORE DUP1 PUSH1 0x0 MSTORE PUSH1 0x40 PUSH1 0x0 KECCAK256 PUSH1 0x0 SWAP2 POP SWAP1 POP DUP1 PUSH1 0x0 ADD SLOAD SWAP1 DUP1 PUSH1 0x1 ADD DUP1 SLOAD PUSH2 0x984 SWAP1 PUSH2 0x14C4 JUMP JUMPDEST DUP1 PUSH1 0x1F ADD PUSH1 0x20 DUP1 SWAP2 DIV MUL PUSH1 0x20 ADD PUSH1 0x40 MLOAD SWAP1 DUP2 ADD PUSH1 0x40 MSTORE DUP1 SWAP3 SWAP2 SWAP1 DUP2 DUP2 MSTORE PUSH1 0x20 ADD DUP3 DUP1 SLOAD PUSH2 0x9B0 SWAP1 PUSH2 0x14C4 JUMP JUMPDEST DUP1 ISZERO PUSH2 0x9FD JUMPI DUP1 PUSH1 0x1F LT PUSH2 0x9D2 JUMPI PUSH2 0x100 DUP1 DUP4 SLOAD DIV MUL DUP4 MSTORE SWAP2 PUSH1 0x20 ADD SWAP2 PUSH2 0x9FD JUMP JUMPDEST DUP3 ADD SWAP2 SWAP1 PUSH1 0x0 MSTORE PUSH1 0x20 PUSH1 0x0 KECCAK256 SWAP1 JUMPDEST DUP2 SLOAD DUP2 MSTORE SWAP1 PUSH1 0x1 ADD SWAP1 PUSH1 0x20 ADD DUP1 DUP4 GT PUSH2 0x9E0 JUMPI DUP3 SWAP1 SUB PUSH1 0x1F AND DUP3 ADD SWAP2 JUMPDEST POP POP POP POP POP SWAP1 DUP1 PUSH1 0x2 ADD DUP1 SLOAD PUSH2 0xA12 SWAP1 PUSH2 0x14C4 JUMP JUMPDEST DUP1 PUSH1 0x1F ADD PUSH1 0x20 DUP1 SWAP2 DIV MUL PUSH1 0x20 ADD PUSH1 0x40 MLOAD SWAP1 DUP2 ADD PUSH1 0x40 MSTORE DUP1 SWAP3 SWAP2 SWAP1 DUP2 DUP2 MSTORE PUSH1 0x20 ADD DUP3 DUP1 SLOAD PUSH2 0xA3E SWAP1 PUSH2 0x14C4 JUMP JUMPDEST DUP1 ISZERO PUSH2 0xA8B JUMPI DUP1 PUSH1 0x1F LT PUSH2 0xA60 JUMPI PUSH2 0x100 DUP1 DUP4 SLOAD DIV MUL DUP4 MSTORE SWAP2 PUSH1 0x20 ADD SWAP2 PUSH2 0xA8B JUMP JUMPDEST DUP3 ADD SWAP2 SWAP1 PUSH1 0x0 MSTORE PUSH1 0x20 PUSH1 0x0 KECCAK256 SWAP1 JUMPDEST DUP2 SLOAD DUP2 MSTORE SWAP1 PUSH1 0x1 ADD SWAP1 PUSH1 0x20 ADD DUP1 DUP4 GT PUSH2 0xA6E JUMPI DUP3 SWAP1 SUB PUSH1 0x1F AND DUP3 ADD SWAP2 JUMPDEST POP POP POP POP POP SWAP1 POP DUP4 JUMP JUMPDEST PUSH1 0xA PUSH1 0x0 SWAP1 SLOAD SWAP1 PUSH2 0x100 EXP SWAP1 DIV PUSH20 0xFFFFFFFFFFFFFFFFFFFFFFFFFFFFFFFFFFFFFFFF AND PUSH20 0xFFFFFFFFFFFFFFFFFFFFFFFFFFFFFFFFFFFFFFFF AND CALLER PUSH20 0xFFFFFFFFFFFFFFFFFFFFFFFFFFFFFFFFFFFFFFFF AND EQ PUSH2 0xB25 JUMPI PUSH1 0x40 MLOAD PUSH32 0x8C379A000000000000000000000000000000000000000000000000000000000 DUP2 MSTORE PUSH1 0x4 ADD PUSH2 0xB1C SWAP1 PUSH2 0x1409 JUMP JUMPDEST PUSH1 0x40 MLOAD DUP1 SWAP2 SUB SWAP1 REVERT JUMPDEST DUP1 PUSH1 0xA PUSH1 0x0 PUSH2 0x100 EXP DUP2 SLOAD DUP2 PUSH20 0xFFFFFFFFFFFFFFFFFFFFFFFFFFFFFFFFFFFFFFFF MUL NOT AND SWAP1 DUP4 PUSH20 0xFFFFFFFFFFFFFFFFFFFFFFFFFFFFFFFFFFFFFFFF AND MUL OR SWAP1 SSTORE POP POP JUMP JUMPDEST PUSH1 0x9 SLOAD DUP2 JUMP JUMPDEST PUSH1 0x1 PUSH1 0x0 SWAP1 SLOAD SWAP1 PUSH2 0x100 EXP SWAP1 DIV PUSH20 0xFFFFFFFFFFFFFFFFFFFFFFFFFFFFFFFFFFFFFFFF AND PUSH20 0xFFFFFFFFFFFFFFFFFFFFFFFFFFFFFFFFFFFFFFFF AND PUSH4 0x1249C58B PUSH1 0x40 MLOAD DUP2 PUSH4 0xFFFFFFFF AND PUSH1 0xE0 SHL DUP2 MSTORE PUSH1 0x4 ADD PUSH1 0x0 PUSH1 0x40 MLOAD DUP1 DUP4 SUB DUP2 PUSH1 0x0 DUP8 DUP1 EXTCODESIZE ISZERO DUP1 ISZERO PUSH2 0xBD9 JUMPI PUSH1 0x0 DUP1 REVERT JUMPDEST POP GAS CALL ISZERO DUP1 ISZERO PUSH2 0xBED JUMPI RETURNDATASIZE PUSH1 0x0 DUP1 RETURNDATACOPY RETURNDATASIZE PUSH1 0x0 REVERT JUMPDEST POP POP POP POP PUSH1 0x0 DUP1 SLOAD SWAP1 PUSH2 0x100 EXP SWAP1 DIV PUSH20 0xFFFFFFFFFFFFFFFFFFFFFFFFFFFFFFFFFFFFFFFF AND PUSH20 0xFFFFFFFFFFFFFFFFFFFFFFFFFFFFFFFFFFFFFFFF AND PUSH2 0x8FC CALLVALUE SWAP1 DUP2 ISZERO MUL SWAP1 PUSH1 0x40 MLOAD PUSH1 0x0 PUSH1 0x40 MLOAD DUP1 DUP4 SUB DUP2 DUP6 DUP9 DUP9 CALL SWAP4 POP POP POP POP ISZERO DUP1 ISZERO PUSH2 0xC57 JUMPI RETURNDATASIZE PUSH1 0x0 DUP1 RETURNDATACOPY RETURNDATASIZE PUSH1 0x0 REVERT JUMPDEST POP JUMP JUMPDEST PUSH1 0x8 PUSH1 0x0 SWAP1 SLOAD SWAP1 PUSH2 0x100 EXP SWAP1 DIV PUSH1 0xFF AND DUP2 JUMP JUMPDEST PUSH1 0x1 PUSH1 0xB PUSH1 0x0 DUP3 DUP3 SLOAD PUSH2 0xC80 SWAP2 SWAP1 PUSH2 0x1769 JUMP JUMPDEST SWAP3 POP POP DUP2 SWAP1 SSTORE POP JUMP JUMPDEST PUSH1 0x0 DUP2 MLOAD SWAP1 POP SWAP2 SWAP1 POP JUMP JUMPDEST PUSH1 0x0 DUP3 DUP3 MSTORE PUSH1 0x20 DUP3 ADD SWAP1 POP SWAP3 SWAP2 POP POP JUMP JUMPDEST PUSH1 0x0 JUMPDEST DUP4 DUP2 LT ISZERO PUSH2 0xCC3 JUMPI DUP1 DUP3 ADD MLOAD DUP2 DUP5 ADD MSTORE PUSH1 0x20 DUP2 ADD SWAP1 POP PUSH2 0xCA8 JUMP JUMPDEST PUSH1 0x0 DUP5 DUP5 ADD MSTORE POP POP POP POP JUMP JUMPDEST PUSH1 0x0 PUSH1 0x1F NOT PUSH1 0x1F DUP4 ADD AND SWAP1 POP SWAP2 SWAP1 POP JUMP JUMPDEST PUSH1 0x0 PUSH2 0xCEB DUP3 PUSH2 0xC89 JUMP JUMPDEST PUSH2 0xCF5 DUP2 DUP6 PUSH2 0xC94 JUMP JUMPDEST SWAP4 POP PUSH2 0xD05 DUP2 DUP6 PUSH1 0x20 DUP7 ADD PUSH2 0xCA5 JUMP JUMPDEST PUSH2 0xD0E DUP2 PUSH2 0xCCF JUMP JUMPDEST DUP5 ADD SWAP2 POP POP SWAP3 SWAP2 POP POP JUMP JUMPDEST PUSH1 0x0 PUSH1 0x20 DUP3 ADD SWAP1 POP DUP2 DUP2 SUB PUSH1 0x0 DUP4 ADD MSTORE PUSH2 0xD33 DUP2 DUP5 PUSH2 0xCE0 JUMP JUMPDEST SWAP1 POP SWAP3 SWAP2 POP POP JUMP JUMPDEST PUSH1 0x0 DUP2 ISZERO ISZERO SWAP1 POP SWAP2 SWAP1 POP JUMP JUMPDEST PUSH2 0xD50 DUP2 PUSH2 0xD3B JUMP JUMPDEST DUP3 MSTORE POP POP JUMP JUMPDEST PUSH1 0x0 PUSH1 0x20 DUP3 ADD SWAP1 POP PUSH2 0xD6B PUSH1 0x0 DUP4 ADD DUP5 PUSH2 0xD47 JUMP JUMPDEST SWAP3 SWAP2 POP POP JUMP JUMPDEST PUSH1 0x0 PUSH1 0x40 MLOAD SWAP1 POP SWAP1 JUMP JUMPDEST PUSH1 0x0 DUP1 REVERT JUMPDEST PUSH1 0x0 DUP1 REVERT JUMPDEST PUSH1 0x0 DUP1 REVERT JUMPDEST PUSH1 0x0 DUP1 REVERT JUMPDEST PUSH32 0x4E487B7100000000000000000000000000000000000000000000000000000000 PUSH1 0x0 MSTORE PUSH1 0x41 PUSH1 0x4 MSTORE PUSH1 0x24 PUSH1 0x0 REVERT JUMPDEST PUSH2 0xDC7 DUP3 PUSH2 0xCCF JUMP JUMPDEST DUP2 ADD DUP2 DUP2 LT PUSH8 0xFFFFFFFFFFFFFFFF DUP3 GT OR ISZERO PUSH2 0xDE6 JUMPI PUSH2 0xDE5 PUSH2 0xD8F JUMP JUMPDEST JUMPDEST DUP1 PUSH1 0x40 MSTORE POP POP POP JUMP JUMPDEST PUSH1 0x0 PUSH2 0xDF9 PUSH2 0xD71 JUMP JUMPDEST SWAP1 POP PUSH2 0xE05 DUP3 DUP3 PUSH2 0xDBE JUMP JUMPDEST SWAP2 SWAP1 POP JUMP JUMPDEST PUSH1 0x0 PUSH8 0xFFFFFFFFFFFFFFFF DUP3 GT ISZERO PUSH2 0xE25 JUMPI PUSH2 0xE24 PUSH2 0xD8F JUMP JUMPDEST JUMPDEST PUSH2 0xE2E DUP3 PUSH2 0xCCF JUMP JUMPDEST SWAP1 POP PUSH1 0x20 DUP2 ADD SWAP1 POP SWAP2 SWAP1 POP JUMP JUMPDEST DUP3 DUP2 DUP4 CALLDATACOPY PUSH1 0x0 DUP4 DUP4 ADD MSTORE POP POP POP JUMP JUMPDEST PUSH1 0x0 PUSH2 0xE5D PUSH2 0xE58 DUP5 PUSH2 0xE0A JUMP JUMPDEST PUSH2 0xDEF JUMP JUMPDEST SWAP1 POP DUP3 DUP2 MSTORE PUSH1 0x20 DUP2 ADD DUP5 DUP5 DUP5 ADD GT ISZERO PUSH2 0xE79 JUMPI PUSH2 0xE78 PUSH2 0xD8A JUMP JUMPDEST JUMPDEST PUSH2 0xE84 DUP5 DUP3 DUP6 PUSH2 0xE3B JUMP JUMPDEST POP SWAP4 SWAP3 POP POP POP JUMP JUMPDEST PUSH1 0x0 DUP3 PUSH1 0x1F DUP4 ADD SLT PUSH2 0xEA1 JUMPI PUSH2 0xEA0 PUSH2 0xD85 JUMP JUMPDEST JUMPDEST DUP2 CALLDATALOAD PUSH2 0xEB1 DUP5 DUP3 PUSH1 0x20 DUP7 ADD PUSH2 0xE4A JUMP JUMPDEST SWAP2 POP POP SWAP3 SWAP2 POP POP JUMP JUMPDEST PUSH1 0x0 DUP1 PUSH1 0x40 DUP4 DUP6 SUB SLT ISZERO PUSH2 0xED1 JUMPI PUSH2 0xED0 PUSH2 0xD7B JUMP JUMPDEST JUMPDEST PUSH1 0x0 DUP4 ADD CALLDATALOAD PUSH8 0xFFFFFFFFFFFFFFFF DUP2 GT ISZERO PUSH2 0xEEF JUMPI PUSH2 0xEEE PUSH2 0xD80 JUMP JUMPDEST JUMPDEST PUSH2 0xEFB DUP6 DUP3 DUP7 ADD PUSH2 0xE8C JUMP JUMPDEST SWAP3 POP POP PUSH1 0x20 DUP4 ADD CALLDATALOAD PUSH8 0xFFFFFFFFFFFFFFFF DUP2 GT ISZERO PUSH2 0xF1C JUMPI PUSH2 0xF1B PUSH2 0xD80 JUMP JUMPDEST JUMPDEST PUSH2 0xF28 DUP6 DUP3 DUP7 ADD PUSH2 0xE8C JUMP JUMPDEST SWAP2 POP POP SWAP3 POP SWAP3 SWAP1 POP JUMP JUMPDEST PUSH1 0x0 DUP2 SWAP1 POP SWAP2 SWAP1 POP JUMP JUMPDEST PUSH2 0xF45 DUP2 PUSH2 0xF32 JUMP JUMPDEST DUP3 MSTORE POP POP JUMP JUMPDEST PUSH1 0x0 PUSH1 0x20 DUP3 ADD SWAP1 POP PUSH2 0xF60 PUSH1 0x0 DUP4 ADD DUP5 PUSH2 0xF3C JUMP JUMPDEST SWAP3 SWAP2 POP POP JUMP JUMPDEST PUSH1 0x0 PUSH20 0xFFFFFFFFFFFFFFFFFFFFFFFFFFFFFFFFFFFFFFFF DUP3 AND SWAP1 POP SWAP2 SWAP1 POP JUMP JUMPDEST PUSH1 0x0 PUSH2 0xF91 DUP3 PUSH2 0xF66 JUMP JUMPDEST SWAP1 POP SWAP2 SWAP1 POP JUMP JUMPDEST PUSH2 0xFA1 DUP2 PUSH2 0xF86 JUMP JUMPDEST DUP2 EQ PUSH2 0xFAC JUMPI PUSH1 0x0 DUP1 REVERT JUMPDEST POP JUMP JUMPDEST PUSH1 0x0 DUP2 CALLDATALOAD SWAP1 POP PUSH2 0xFBE DUP2 PUSH2 0xF98 JUMP JUMPDEST SWAP3 SWAP2 POP POP JUMP JUMPDEST PUSH1 0x0 PUSH1 0x20 DUP3 DUP5 SUB SLT ISZERO PUSH2 0xFDA JUMPI PUSH2 0xFD9 PUSH2 0xD7B JUMP JUMPDEST JUMPDEST PUSH1 0x0 PUSH2 0xFE8 DUP5 DUP3 DUP6 ADD PUSH2 0xFAF JUMP JUMPDEST SWAP2 POP POP SWAP3 SWAP2 POP POP JUMP JUMPDEST PUSH1 0x0 PUSH2 0xFFC DUP3 PUSH2 0xF66 JUMP JUMPDEST SWAP1 POP SWAP2 SWAP1 POP JUMP JUMPDEST PUSH2 0x100C DUP2 PUSH2 0xFF1 JUMP JUMPDEST DUP3 MSTORE POP POP JUMP JUMPDEST PUSH1 0x0 PUSH1 0x20 DUP3 ADD SWAP1 POP PUSH2 0x1027 PUSH1 0x0 DUP4 ADD DUP5 PUSH2 0x1003 JUMP JUMPDEST SWAP3 SWAP2 POP POP JUMP JUMPDEST PUSH2 0x1036 DUP2 PUSH2 0xF32 JUMP JUMPDEST DUP2 EQ PUSH2 0x1041 JUMPI PUSH1 0x0 DUP1 REVERT JUMPDEST POP JUMP JUMPDEST PUSH1 0x0 DUP2 CALLDATALOAD SWAP1 POP PUSH2 0x1053 DUP2 PUSH2 0x102D JUMP JUMPDEST SWAP3 SWAP2 POP POP JUMP JUMPDEST PUSH1 0x0 PUSH1 0x20 DUP3 DUP5 SUB SLT ISZERO PUSH2 0x106F JUMPI PUSH2 0x106E PUSH2 0xD7B JUMP JUMPDEST JUMPDEST PUSH1 0x0 PUSH2 0x107D DUP5 DUP3 DUP6 ADD PUSH2 0x1044 JUMP JUMPDEST SWAP2 POP POP SWAP3 SWAP2 POP POP JUMP JUMPDEST PUSH1 0x0 PUSH1 0x60 DUP3 ADD SWAP1 POP PUSH2 0x109B PUSH1 0x0 DUP4 ADD DUP7 PUSH2 0xF3C JUMP JUMPDEST DUP2 DUP2 SUB PUSH1 0x20 DUP4 ADD MSTORE PUSH2 0x10AD DUP2 DUP6 PUSH2 0xCE0 JUMP JUMPDEST SWAP1 POP DUP2 DUP2 SUB PUSH1 0x40 DUP4 ADD MSTORE PUSH2 0x10C1 DUP2 DUP5 PUSH2 0xCE0 JUMP JUMPDEST SWAP1 POP SWAP5 SWAP4 POP POP POP POP JUMP JUMPDEST PUSH2 0x10D4 DUP2 PUSH2 0xFF1 JUMP JUMPDEST DUP2 EQ PUSH2 0x10DF JUMPI PUSH1 0x0 DUP1 REVERT JUMPDEST POP JUMP JUMPDEST PUSH1 0x0 DUP2 CALLDATALOAD SWAP1 POP PUSH2 0x10F1 DUP2 PUSH2 0x10CB JUMP JUMPDEST SWAP3 SWAP2 POP POP JUMP JUMPDEST PUSH1 0x0 PUSH1 0x20 DUP3 DUP5 SUB SLT ISZERO PUSH2 0x110D JUMPI PUSH2 0x110C PUSH2 0xD7B JUMP JUMPDEST JUMPDEST PUSH1 0x0 PUSH2 0x111B DUP5 DUP3 DUP6 ADD PUSH2 0x10E2 JUMP JUMPDEST SWAP2 POP POP SWAP3 SWAP2 POP POP JUMP JUMPDEST PUSH32 0x4E487B7100000000000000000000000000000000000000000000000000000000 PUSH1 0x0 MSTORE PUSH1 0x21 PUSH1 0x4 MSTORE PUSH1 0x24 PUSH1 0x0 REVERT JUMPDEST PUSH1 0x5 DUP2 LT PUSH2 0x1164 JUMPI PUSH2 0x1163 PUSH2 0x1124 JUMP JUMPDEST JUMPDEST POP JUMP JUMPDEST PUSH1 0x0 DUP2 SWAP1 POP PUSH2 0x1175 DUP3 PUSH2 0x1153 JUMP JUMPDEST SWAP2 SWAP1 POP JUMP JUMPDEST PUSH1 0x0 PUSH2 0x1185 DUP3 PUSH2 0x1167 JUMP JUMPDEST SWAP1 POP SWAP2 SWAP1 POP JUMP JUMPDEST PUSH2 0x1195 DUP2 PUSH2 0x117A JUMP JUMPDEST DUP3 MSTORE POP POP JUMP JUMPDEST PUSH1 0x0 PUSH1 0x20 DUP3 ADD SWAP1 POP PUSH2 0x11B0 PUSH1 0x0 DUP4 ADD DUP5 PUSH2 0x118C JUMP JUMPDEST SWAP3 SWAP2 POP POP JUMP JUMPDEST PUSH32 0x596F75206D7573742073656E6420736F6D6520657468657220746F2062757920 PUSH1 0x0 DUP3 ADD MSTORE PUSH32 0x746F6B656E730000000000000000000000000000000000000000000000000000 PUSH1 0x20 DUP3 ADD MSTORE POP JUMP JUMPDEST PUSH1 0x0 PUSH2 0x1212 PUSH1 0x26 DUP4 PUSH2 0xC94 JUMP JUMPDEST SWAP2 POP PUSH2 0x121D DUP3 PUSH2 0x11B6 JUMP JUMPDEST PUSH1 0x40 DUP3 ADD SWAP1 POP SWAP2 SWAP1 POP JUMP JUMPDEST PUSH1 0x0 PUSH1 0x20 DUP3 ADD SWAP1 POP DUP2 DUP2 SUB PUSH1 0x0 DUP4 ADD MSTORE PUSH2 0x1241 DUP2 PUSH2 0x1205 JUMP JUMPDEST SWAP1 POP SWAP2 SWAP1 POP JUMP JUMPDEST PUSH32 0x4E487B7100000000000000000000000000000000000000000000000000000000 PUSH1 0x0 MSTORE PUSH1 0x11 PUSH1 0x4 MSTORE PUSH1 0x24 PUSH1 0x0 REVERT JUMPDEST PUSH1 0x0 PUSH2 0x1282 DUP3 PUSH2 0xF32 JUMP JUMPDEST SWAP2 POP PUSH2 0x128D DUP4 PUSH2 0xF32 JUMP JUMPDEST SWAP3 POP DUP3 DUP3 MUL PUSH2 0x129B DUP2 PUSH2 0xF32 JUMP JUMPDEST SWAP2 POP DUP3 DUP3 DIV DUP5 EQ DUP4 ISZERO OR PUSH2 0x12B2 JUMPI PUSH2 0x12B1 PUSH2 0x1248 JUMP JUMPDEST JUMPDEST POP SWAP3 SWAP2 POP POP JUMP JUMPDEST PUSH1 0x0 DUP2 SWAP1 POP SWAP2 SWAP1 POP JUMP JUMPDEST PUSH1 0x0 DUP2 SWAP1 POP SWAP2 SWAP1 POP JUMP JUMPDEST PUSH1 0x0 PUSH2 0x12E8 PUSH2 0x12E3 PUSH2 0x12DE DUP5 PUSH2 0x12B9 JUMP JUMPDEST PUSH2 0x12C3 JUMP JUMPDEST PUSH2 0xF32 JUMP JUMPDEST SWAP1 POP SWAP2 SWAP1 POP JUMP JUMPDEST PUSH2 0x12F8 DUP2 PUSH2 0x12CD JUMP JUMPDEST DUP3 MSTORE POP POP JUMP JUMPDEST PUSH1 0x0 PUSH1 0x20 DUP3 ADD SWAP1 POP PUSH2 0x1313 PUSH1 0x0 DUP4 ADD DUP5 PUSH2 0x12EF JUMP JUMPDEST SWAP3 SWAP2 POP POP JUMP JUMPDEST PUSH1 0x0 PUSH2 0x1334 PUSH2 0x132F PUSH2 0x132A DUP5 PUSH2 0xF66 JUMP JUMPDEST PUSH2 0x12C3 JUMP JUMPDEST PUSH2 0xF66 JUMP JUMPDEST SWAP1 POP SWAP2 SWAP1 POP JUMP JUMPDEST PUSH1 0x0 PUSH2 0x1346 DUP3 PUSH2 0x1319 JUMP JUMPDEST SWAP1 POP SWAP2 SWAP1 POP JUMP JUMPDEST PUSH1 0x0 PUSH2 0x1358 DUP3 PUSH2 0x133B JUMP JUMPDEST SWAP1 POP SWAP2 SWAP1 POP JUMP JUMPDEST PUSH2 0x1368 DUP2 PUSH2 0x134D JUMP JUMPDEST DUP3 MSTORE POP POP JUMP JUMPDEST PUSH1 0x0 PUSH1 0x40 DUP3 ADD SWAP1 POP PUSH2 0x1383 PUSH1 0x0 DUP4 ADD DUP6 PUSH2 0x135F JUMP JUMPDEST PUSH2 0x1390 PUSH1 0x20 DUP4 ADD DUP5 PUSH2 0xF3C JUMP JUMPDEST SWAP4 SWAP3 POP POP POP JUMP JUMPDEST PUSH32 0x4F6E6C7920746865206F776E65722063616E2063616C6C20746869732066756E PUSH1 0x0 DUP3 ADD MSTORE PUSH32 0x6374696F6E000000000000000000000000000000000000000000000000000000 PUSH1 0x20 DUP3 ADD MSTORE POP JUMP JUMPDEST PUSH1 0x0 PUSH2 0x13F3 PUSH1 0x25 DUP4 PUSH2 0xC94 JUMP JUMPDEST SWAP2 POP PUSH2 0x13FE DUP3 PUSH2 0x1397 JUMP JUMPDEST PUSH1 0x40 DUP3 ADD SWAP1 POP SWAP2 SWAP1 POP JUMP JUMPDEST PUSH1 0x0 PUSH1 0x20 DUP3 ADD SWAP1 POP DUP2 DUP2 SUB PUSH1 0x0 DUP4 ADD MSTORE PUSH2 0x1422 DUP2 PUSH2 0x13E6 JUMP JUMPDEST SWAP1 POP SWAP2 SWAP1 POP JUMP JUMPDEST PUSH32 0x54686520636F6E7472616374206973206E6F7420796574206F70656E00000000 PUSH1 0x0 DUP3 ADD MSTORE POP JUMP JUMPDEST PUSH1 0x0 PUSH2 0x145F PUSH1 0x1C DUP4 PUSH2 0xC94 JUMP JUMPDEST SWAP2 POP PUSH2 0x146A DUP3 PUSH2 0x1429 JUMP JUMPDEST PUSH1 0x20 DUP3 ADD SWAP1 POP SWAP2 SWAP1 POP JUMP JUMPDEST PUSH1 0x0 PUSH1 0x20 DUP3 ADD SWAP1 POP DUP2 DUP2 SUB PUSH1 0x0 DUP4 ADD MSTORE PUSH2 0x148E DUP2 PUSH2 0x1452 JUMP JUMPDEST SWAP1 POP SWAP2 SWAP1 POP JUMP JUMPDEST PUSH32 0x4E487B7100000000000000000000000000000000000000000000000000000000 PUSH1 0x0 MSTORE PUSH1 0x22 PUSH1 0x4 MSTORE PUSH1 0x24 PUSH1 0x0 REVERT JUMPDEST PUSH1 0x0 PUSH1 0x2 DUP3 DIV SWAP1 POP PUSH1 0x1 DUP3 AND DUP1 PUSH2 0x14DC JUMPI PUSH1 0x7F DUP3 AND SWAP2 POP JUMPDEST PUSH1 0x20 DUP3 LT DUP2 SUB PUSH2 0x14EF JUMPI PUSH2 0x14EE PUSH2 0x1495 JUMP JUMPDEST JUMPDEST POP SWAP2 SWAP1 POP JUMP JUMPDEST PUSH1 0x0 DUP2 SWAP1 POP DUP2 PUSH1 0x0 MSTORE PUSH1 0x20 PUSH1 0x0 KECCAK256 SWAP1 POP SWAP2 SWAP1 POP JUMP JUMPDEST PUSH1 0x0 PUSH1 0x20 PUSH1 0x1F DUP4 ADD DIV SWAP1 POP SWAP2 SWAP1 POP JUMP JUMPDEST PUSH1 0x0 DUP3 DUP3 SHL SWAP1 POP SWAP3 SWAP2 POP POP JUMP JUMPDEST PUSH1 0x0 PUSH1 0x8 DUP4 MUL PUSH2 0x1557 PUSH32 0xFFFFFFFFFFFFFFFFFFFFFFFFFFFFFFFFFFFFFFFFFFFFFFFFFFFFFFFFFFFFFFFF DUP3 PUSH2 0x151A JUMP JUMPDEST PUSH2 0x1561 DUP7 DUP4 PUSH2 0x151A JUMP JUMPDEST SWAP6 POP DUP1 NOT DUP5 AND SWAP4 POP DUP1 DUP7 AND DUP5 OR SWAP3 POP POP POP SWAP4 SWAP3 POP POP POP JUMP JUMPDEST PUSH1 0x0 PUSH2 0x1594 PUSH2 0x158F PUSH2 0x158A DUP5 PUSH2 0xF32 JUMP JUMPDEST PUSH2 0x12C3 JUMP JUMPDEST PUSH2 0xF32 JUMP JUMPDEST SWAP1 POP SWAP2 SWAP1 POP JUMP JUMPDEST PUSH1 0x0 DUP2 SWAP1 POP SWAP2 SWAP1 POP JUMP JUMPDEST PUSH2 0x15AE DUP4 PUSH2 0x1579 JUMP JUMPDEST PUSH2 0x15C2 PUSH2 0x15BA DUP3 PUSH2 0x159B JUMP JUMPDEST DUP5 DUP5 SLOAD PUSH2 0x1527 JUMP JUMPDEST DUP3 SSTORE POP POP POP POP JUMP JUMPDEST PUSH1 0x0 SWAP1 JUMP JUMPDEST PUSH2 0x15D7 PUSH2 0x15CA JUMP JUMPDEST PUSH2 0x15E2 DUP2 DUP5 DUP5 PUSH2 0x15A5 JUMP JUMPDEST POP POP POP JUMP JUMPDEST JUMPDEST DUP2 DUP2 LT ISZERO PUSH2 0x1606 JUMPI PUSH2 0x15FB PUSH1 0x0 DUP3 PUSH2 0x15CF JUMP JUMPDEST PUSH1 0x1 DUP2 ADD SWAP1 POP PUSH2 0x15E8 JUMP JUMPDEST POP POP JUMP JUMPDEST PUSH1 0x1F DUP3 GT ISZERO PUSH2 0x164B JUMPI PUSH2 0x161C DUP2 PUSH2 0x14F5 JUMP JUMPDEST PUSH2 0x1625 DUP5 PUSH2 0x150A JUMP JUMPDEST DUP2 ADD PUSH1 0x20 DUP6 LT ISZERO PUSH2 0x1634 JUMPI DUP2 SWAP1 POP JUMPDEST PUSH2 0x1648 PUSH2 0x1640 DUP6 PUSH2 0x150A JUMP JUMPDEST DUP4 ADD DUP3 PUSH2 0x15E7 JUMP JUMPDEST POP POP JUMPDEST POP POP POP JUMP JUMPDEST PUSH1 0x0 DUP3 DUP3 SHR SWAP1 POP SWAP3 SWAP2 POP POP JUMP JUMPDEST PUSH1 0x0 PUSH2 0x166E PUSH1 0x0 NOT DUP5 PUSH1 0x8 MUL PUSH2 0x1650 JUMP JUMPDEST NOT DUP1 DUP4 AND SWAP2 POP POP SWAP3 SWAP2 POP POP JUMP JUMPDEST PUSH1 0x0 PUSH2 0x1687 DUP4 DUP4 PUSH2 0x165D JUMP JUMPDEST SWAP2 POP DUP3 PUSH1 0x2 MUL DUP3 OR SWAP1 POP SWAP3 SWAP2 POP POP JUMP JUMPDEST PUSH2 0x16A0 DUP3 PUSH2 0xC89 JUMP JUMPDEST PUSH8 0xFFFFFFFFFFFFFFFF DUP2 GT ISZERO PUSH2 0x16B9 JUMPI PUSH2 0x16B8 PUSH2 0xD8F JUMP JUMPDEST JUMPDEST PUSH2 0x16C3 DUP3 SLOAD PUSH2 0x14C4 JUMP JUMPDEST PUSH2 0x16CE DUP3 DUP3 DUP6 PUSH2 0x160A JUMP JUMPDEST PUSH1 0x0 PUSH1 0x20 SWAP1 POP PUSH1 0x1F DUP4 GT PUSH1 0x1 DUP2 EQ PUSH2 0x1701 JUMPI PUSH1 0x0 DUP5 ISZERO PUSH2 0x16EF JUMPI DUP3 DUP8 ADD MLOAD SWAP1 POP JUMPDEST PUSH2 0x16F9 DUP6 DUP3 PUSH2 0x167B JUMP JUMPDEST DUP7 SSTORE POP PUSH2 0x1761 JUMP JUMPDEST PUSH1 0x1F NOT DUP5 AND PUSH2 0x170F DUP7 PUSH2 0x14F5 JUMP JUMPDEST PUSH1 0x0 JUMPDEST DUP3 DUP2 LT ISZERO PUSH2 0x1737 JUMPI DUP5 DUP10 ADD MLOAD DUP3 SSTORE PUSH1 0x1 DUP3 ADD SWAP2 POP PUSH1 0x20 DUP6 ADD SWAP5 POP PUSH1 0x20 DUP2 ADD SWAP1 POP PUSH2 0x1712 JUMP JUMPDEST DUP7 DUP4 LT ISZERO PUSH2 0x1754 JUMPI DUP5 DUP10 ADD MLOAD PUSH2 0x1750 PUSH1 0x1F DUP10 AND DUP3 PUSH2 0x165D JUMP JUMPDEST DUP4 SSTORE POP JUMPDEST PUSH1 0x1 PUSH1 0x2 DUP9 MUL ADD DUP9 SSTORE POP POP POP JUMPDEST POP POP POP POP POP POP JUMP JUMPDEST PUSH1 0x0 PUSH2 0x1774 DUP3 PUSH2 0xF32 JUMP JUMPDEST SWAP2 POP PUSH2 0x177F DUP4 PUSH2 0xF32 JUMP JUMPDEST SWAP3 POP DUP3 DUP3 ADD SWAP1 POP DUP1 DUP3 GT ISZERO PUSH2 0x1797 JUMPI PUSH2 0x1796 PUSH2 0x1248 JUMP JUMPDEST JUMPDEST SWAP3 SWAP2 POP POP JUMP INVALID LOG2 PUSH5 0x6970667358 0x22 SLT KECCAK256 0xC9 0xED 0xAC 0xB2 0x24 DELEGATECALL 0xF7 0xC2 NOT 0xCA PUSH26 0xA0857A99BCF3EB8DDD05F3BCA6187FC397B2CF174264736F6C63 NUMBER STOP ADDMOD SLT STOP CALLER "
				},
				"gasEstimates": {
					"creation": {
						"codeDepositCost": "1219800",
						"executionCost": "infinite",
						"totalCost": "infinite"
					},
					"external": {
						"activate()": "infinite",
						"addPerson(string,string)": "infinite",
						"buyToken(address)": "infinite",
						"buyTokenNew()": "infinite",
						"buyTokenOld()": "infinite",
						"changeOwner(address)": "26914",
						"isActive()": "2605",
						"myBool()": "2560",
						"openingTime()": "2473",
						"owner()": "2581",
						"people(uint256)": "infinite",
						"peopleCount()": "2474",
						"state()": "2648",
						"stringValue()": "infinite",
						"value()": "infinite"
					},
					"internal": {
						"incrementCount()": "infinite"
					}
				},
				"methodIdentifiers": {
					"activate()": "0f15f4c0",
					"addPerson(string,string)": "22f5b58d",
					"buyToken(address)": "7e72fb52",
					"buyTokenNew()": "b96c9d6d",
					"buyTokenOld()": "0fbfb192",
					"changeOwner(address)": "a6f9dae1",
					"isActive()": "22f3e2d4",
					"myBool()": "6deecdbe",
					"openingTime()": "b7a8807c",
					"owner()": "8da5cb5b",
					"people(uint256)": "9e7a13ad",
					"peopleCount()": "267c68e0",
					"state()": "c19d93fb",
					"stringValue()": "7dc93929",
					"value()": "3fa4f245"
				}
			},
			"storageLayout": {
				"storage": [
					{
						"astId": 22,
						"contract": "MyContract.sol:MyContract",
						"label": "wallet",
						"offset": 0,
						"slot": "0",
						"type": "t_address_payable"
					},
					{
						"astId": 24,
						"contract": "MyContract.sol:MyContract",
						"label": "token",
						"offset": 0,
						"slot": "1",
						"type": "t_address"
					},
					{
						"astId": 26,
						"contract": "MyContract.sol:MyContract",
						"label": "TOKEN_PRICE",
						"offset": 0,
						"slot": "2",
						"type": "t_uint256"
					},
					{
						"astId": 29,
						"contract": "MyContract.sol:MyContract",
						"label": "value",
						"offset": 0,
						"slot": "3",
						"type": "t_string_storage"
					},
					{
						"astId": 32,
						"contract": "MyContract.sol:MyContract",
						"label": "stringValue",
						"offset": 0,
						"slot": "4",
						"type": "t_string_storage"
					},
					{
						"astId": 35,
						"contract": "MyContract.sol:MyContract",
						"label": "myBool",
						"offset": 0,
						"slot": "5",
						"type": "t_bool"
					},
					{
						"astId": 39,
						"contract": "MyContract.sol:MyContract",
						"label": "age",
						"offset": 0,
						"slot": "6",
						"type": "t_int256"
					},
					{
						"astId": 42,
						"contract": "MyContract.sol:MyContract",
						"label": "temp",
						"offset": 0,
						"slot": "7",
						"type": "t_int256"
					},
					{
						"astId": 180,
						"contract": "MyContract.sol:MyContract",
						"label": "state",
						"offset": 0,
						"slot": "8",
						"type": "t_enum(State)177"
					},
					{
						"astId": 183,
						"contract": "MyContract.sol:MyContract",
						"label": "openingTime",
						"offset": 0,
						"slot": "9",
						"type": "t_uint256"
					},
					{
						"astId": 197,
						"contract": "MyContract.sol:MyContract",
						"label": "owner",
						"offset": 0,
						"slot": "10",
						"type": "t_address"
					},
					{
						"astId": 257,
						"contract": "MyContract.sol:MyContract",
						"label": "peopleCount",
						"offset": 0,
						"slot": "11",
						"type": "t_uint256"
					},
					{
						"astId": 262,
						"contract": "MyContract.sol:MyContract",
						"label": "people",
						"offset": 0,
						"slot": "12",
						"type": "t_mapping(t_uint256,t_struct(Person)254_storage)"
					}
				],
				"types": {
					"t_address": {
						"encoding": "inplace",
						"label": "address",
						"numberOfBytes": "20"
					},
					"t_address_payable": {
						"encoding": "inplace",
						"label": "address payable",
						"numberOfBytes": "20"
					},
					"t_bool": {
						"encoding": "inplace",
						"label": "bool",
						"numberOfBytes": "1"
					},
					"t_enum(State)177": {
						"encoding": "inplace",
						"label": "enum MyContract.State",
						"numberOfBytes": "1"
					},
					"t_int256": {
						"encoding": "inplace",
						"label": "int256",
						"numberOfBytes": "32"
					},
					"t_mapping(t_uint256,t_struct(Person)254_storage)": {
						"encoding": "mapping",
						"key": "t_uint256",
						"label": "mapping(uint256 => struct MyContract.Person)",
						"numberOfBytes": "32",
						"value": "t_struct(Person)254_storage"
					},
					"t_string_storage": {
						"encoding": "bytes",
						"label": "string",
						"numberOfBytes": "32"
					},
					"t_struct(Person)254_storage": {
						"encoding": "inplace",
						"label": "struct MyContract.Person",
						"members": [
							{
								"astId": 249,
								"contract": "MyContract.sol:MyContract",
								"label": "_id",
								"offset": 0,
								"slot": "0",
								"type": "t_uint256"
							},
							{
								"astId": 251,
								"contract": "MyContract.sol:MyContract",
								"label": "_firstName",
								"offset": 0,
								"slot": "1",
								"type": "t_string_storage"
							},
							{
								"astId": 253,
								"contract": "MyContract.sol:MyContract",
								"label": "_lastName",
								"offset": 0,
								"slot": "2",
								"type": "t_string_storage"
							}
						],
						"numberOfBytes": "96"
					},
					"t_uint256": {
						"encoding": "inplace",
						"label": "uint256",
						"numberOfBytes": "32"
					}
				}
			},
			"userdoc": {
				"kind": "user",
				"methods": {},
				"version": 1
			}
		}
	}
}