{
	"MyContract.sol": {
		"MyContract": {
			"abi": [
				{
					"inputs": [],
					"stateMutability": "nonpayable",
					"type": "constructor"
				},
				{
					"inputs": [],
					"name": "activate",
					"outputs": [
						{
							"internalType": "string",
							"name": "",
							"type": "string"
						}
					],
					"stateMutability": "nonpayable",
					"type": "function"
				},
				{
					"inputs": [
						{
							"internalType": "string",
							"name": "_firstName",
							"type": "string"
						},
						{
							"internalType": "string",
							"name": "_lastName",
							"type": "string"
						}
					],
					"name": "addPerson",
					"outputs": [],
					"stateMutability": "nonpayable",
					"type": "function"
				},
				{
					"inputs": [
						{
							"internalType": "address",
							"name": "_newOwner",
							"type": "address"
						}
					],
					"name": "changeOwner",
					"outputs": [],
					"stateMutability": "nonpayable",
					"type": "function"
				},
				{
					"inputs": [],
					"name": "isActive",
					"outputs": [
						{
							"internalType": "bool",
							"name": "",
							"type": "bool"
						}
					],
					"stateMutability": "view",
					"type": "function"
				},
				{
					"inputs": [],
					"name": "myBool",
					"outputs": [
						{
							"internalType": "bool",
							"name": "",
							"type": "bool"
						}
					],
					"stateMutability": "view",
					"type": "function"
				},
				{
					"inputs": [],
					"name": "owner",
					"outputs": [
						{
							"internalType": "address",
							"name": "",
							"type": "address"
						}
					],
					"stateMutability": "view",
					"type": "function"
				},
				{
					"inputs": [
						{
							"internalType": "uint256",
							"name": "",
							"type": "uint256"
						}
					],
					"name": "people",
					"outputs": [
						{
							"internalType": "uint256",
							"name": "_id",
							"type": "uint256"
						},
						{
							"internalType": "string",
							"name": "_firstName",
							"type": "string"
						},
						{
							"internalType": "string",
							"name": "_lastName",
							"type": "string"
						}
					],
					"stateMutability": "view",
					"type": "function"
				},
				{
					"inputs": [],
					"name": "peopleCount",
					"outputs": [
						{
							"internalType": "uint256",
							"name": "",
							"type": "uint256"
						}
					],
					"stateMutability": "view",
					"type": "function"
				},
				{
					"inputs": [],
					"name": "state",
					"outputs": [
						{
							"internalType": "enum MyContract.State",
							"name": "",
							"type": "uint8"
						}
					],
					"stateMutability": "view",
					"type": "function"
				},
				{
					"inputs": [],
					"name": "stringValue",
					"outputs": [
						{
							"internalType": "string",
							"name": "",
							"type": "string"
						}
					],
					"stateMutability": "view",
					"type": "function"
				},
				{
					"inputs": [],
					"name": "value",
					"outputs": [
						{
							"internalType": "string",
							"name": "",
							"type": "string"
						}
					],
					"stateMutability": "view",
					"type": "function"
				}
			],
			"devdoc": {
				"custom:dev-run-script": "file_path",
				"details": "This is a Solidity smart contract written in the Ethereum blockchain programming language. It is named \"MyContract\" and contains two functions, \"set\" and \"get\", which allow a user to set and retrieve a string value, respectively. The contract is licensed under the MIT License and includes a custom development script that can be run with the command \"dev-run-script file_path\". When the contract is deployed, the initial value of the string is set to \"default value\".",
				"kind": "dev",
				"methods": {},
				"stateVariables": {
					"owner": {
						"details": "The owner of the contract"
					}
				},
				"title": "MyContract",
				"version": 1
			},
			"evm": {
				"assembly": "    /* \"MyContract.sol\":599:3025  contract MyContract {... */\n  mstore(0x40, 0x80)\n    /* \"MyContract.sol\":740:780  string public value = \"my default value\" */\n  mload(0x40)\n  dup1\n  0x40\n  add\n  0x40\n  mstore\n  dup1\n  0x10\n  dup2\n  mstore\n  0x20\n  add\n  0x6d792064656661756c742076616c756500000000000000000000000000000000\n  dup2\n  mstore\n  pop\n  0x00\n  swap1\n  dup2\n  tag_1\n  swap2\n  swap1\n  tag_2\n  jump\t// in\ntag_1:\n  pop\n    /* \"MyContract.sol\":796:842  string public stringValue = \"my default value\" */\n  mload(0x40)\n  dup1\n  0x40\n  add\n  0x40\n  mstore\n  dup1\n  0x10\n  dup2\n  mstore\n  0x20\n  add\n  0x6d792064656661756c742076616c756500000000000000000000000000000000\n  dup2\n  mstore\n  pop\n  0x01\n  swap1\n  dup2\n  tag_3\n  swap2\n  swap1\n  tag_2\n  jump\t// in\ntag_3:\n  pop\n    /* \"MyContract.sol\":879:883  true */\n  0x01\n    /* \"MyContract.sol\":858:883  bool public myBool = true */\n  0x02\n  exp(0x0100, 0x00)\n  dup2\n  sload\n  dup2\n  0xff\n  mul\n  not\n  and\n  swap1\n  dup4\n  iszero\n  iszero\n  mul\n  or\n  swap1\n  sstore\n  pop\n    /* \"MyContract.sol\":902:905  -24 */\n  0xffffffffffffffffffffffffffffffffffffffffffffffffffffffffffffffe8\n    /* \"MyContract.sol\":889:905  int256 age = -24 */\n  0x03\n  sstore\n    /* \"MyContract.sol\":933:1010  33333333333333333333333333333333333333333333333333333333333333333333333333332 */\n  0x49b1ff823aa8f30618a504e7b15134ea38dd7e7a254635555555555555555554\n    /* \"MyContract.sol\":911:1010  int256 temp =... */\n  0x04\n  sstore\n    /* \"MyContract.sol\":1518:1528  1681254150 */\n  0x6435e706\n    /* \"MyContract.sol\":1495:1528  uint256 openingTime =  1681254150 */\n  0x06\n  sstore\n    /* \"MyContract.sol\":2482:2483  0 */\n  0x00\n    /* \"MyContract.sol\":2453:2483  uint256 public peopleCount = 0 */\n  0x08\n  sstore\n    /* \"MyContract.sol\":625:706  constructor()  {... */\n  callvalue\n  dup1\n  iszero\n  tag_4\n  jumpi\n  0x00\n  dup1\n  revert\ntag_4:\n  pop\n    /* \"MyContract.sol\":658:671  State.Waiting */\n  0x00\n    /* \"MyContract.sol\":650:655  state */\n  0x05\n  0x00\n    /* \"MyContract.sol\":650:671  state = State.Waiting */\n  0x0100\n  exp\n  dup2\n  sload\n  dup2\n  0xff\n  mul\n  not\n  and\n  swap1\n  dup4\n  0x04\n  dup2\n  gt\n  iszero\n  tag_7\n  jumpi\n  tag_8\n  tag_9\n  jump\t// in\ntag_8:\ntag_7:\n  mul\n  or\n  swap1\n  sstore\n  pop\n    /* \"MyContract.sol\":689:699  msg.sender */\n  caller\n    /* \"MyContract.sol\":681:686  owner */\n  0x07\n  0x00\n    /* \"MyContract.sol\":681:699  owner = msg.sender */\n  0x0100\n  exp\n  dup2\n  sload\n  dup2\n  0xffffffffffffffffffffffffffffffffffffffff\n  mul\n  not\n  and\n  swap1\n  dup4\n  0xffffffffffffffffffffffffffffffffffffffff\n  and\n  mul\n  or\n  swap1\n  sstore\n  pop\n    /* \"MyContract.sol\":599:3025  contract MyContract {... */\n  jump(tag_10)\n    /* \"#utility.yul\":7:106   */\ntag_11:\n    /* \"#utility.yul\":59:65   */\n  0x00\n    /* \"#utility.yul\":93:98   */\n  dup2\n    /* \"#utility.yul\":87:99   */\n  mload\n    /* \"#utility.yul\":77:99   */\n  swap1\n  pop\n    /* \"#utility.yul\":7:106   */\n  swap2\n  swap1\n  pop\n  jump\t// out\n    /* \"#utility.yul\":112:292   */\ntag_12:\n    /* \"#utility.yul\":160:237   */\n  0x4e487b7100000000000000000000000000000000000000000000000000000000\n    /* \"#utility.yul\":157:158   */\n  0x00\n    /* \"#utility.yul\":150:238   */\n  mstore\n    /* \"#utility.yul\":257:261   */\n  0x41\n    /* \"#utility.yul\":254:255   */\n  0x04\n    /* \"#utility.yul\":247:262   */\n  mstore\n    /* \"#utility.yul\":281:285   */\n  0x24\n    /* \"#utility.yul\":278:279   */\n  0x00\n    /* \"#utility.yul\":271:286   */\n  revert\n    /* \"#utility.yul\":298:478   */\ntag_13:\n    /* \"#utility.yul\":346:423   */\n  0x4e487b7100000000000000000000000000000000000000000000000000000000\n    /* \"#utility.yul\":343:344   */\n  0x00\n    /* \"#utility.yul\":336:424   */\n  mstore\n    /* \"#utility.yul\":443:447   */\n  0x22\n    /* \"#utility.yul\":440:441   */\n  0x04\n    /* \"#utility.yul\":433:448   */\n  mstore\n    /* \"#utility.yul\":467:471   */\n  0x24\n    /* \"#utility.yul\":464:465   */\n  0x00\n    /* \"#utility.yul\":457:472   */\n  revert\n    /* \"#utility.yul\":484:804   */\ntag_14:\n    /* \"#utility.yul\":528:534   */\n  0x00\n    /* \"#utility.yul\":565:566   */\n  0x02\n    /* \"#utility.yul\":559:563   */\n  dup3\n    /* \"#utility.yul\":555:567   */\n  div\n    /* \"#utility.yul\":545:567   */\n  swap1\n  pop\n    /* \"#utility.yul\":612:613   */\n  0x01\n    /* \"#utility.yul\":606:610   */\n  dup3\n    /* \"#utility.yul\":602:614   */\n  and\n    /* \"#utility.yul\":633:651   */\n  dup1\n    /* \"#utility.yul\":623:704   */\n  tag_36\n  jumpi\n    /* \"#utility.yul\":689:693   */\n  0x7f\n    /* \"#utility.yul\":681:687   */\n  dup3\n    /* \"#utility.yul\":677:694   */\n  and\n    /* \"#utility.yul\":667:694   */\n  swap2\n  pop\n    /* \"#utility.yul\":623:704   */\ntag_36:\n    /* \"#utility.yul\":751:753   */\n  0x20\n    /* \"#utility.yul\":743:749   */\n  dup3\n    /* \"#utility.yul\":740:754   */\n  lt\n    /* \"#utility.yul\":720:738   */\n  dup2\n    /* \"#utility.yul\":717:755   */\n  sub\n    /* \"#utility.yul\":714:798   */\n  tag_37\n  jumpi\n    /* \"#utility.yul\":770:788   */\n  tag_38\n  tag_13\n  jump\t// in\ntag_38:\n    /* \"#utility.yul\":714:798   */\ntag_37:\n    /* \"#utility.yul\":535:804   */\n  pop\n    /* \"#utility.yul\":484:804   */\n  swap2\n  swap1\n  pop\n  jump\t// out\n    /* \"#utility.yul\":810:951   */\ntag_15:\n    /* \"#utility.yul\":859:863   */\n  0x00\n    /* \"#utility.yul\":882:885   */\n  dup2\n    /* \"#utility.yul\":874:885   */\n  swap1\n  pop\n    /* \"#utility.yul\":905:908   */\n  dup2\n    /* \"#utility.yul\":902:903   */\n  0x00\n    /* \"#utility.yul\":895:909   */\n  mstore\n    /* \"#utility.yul\":939:943   */\n  0x20\n    /* \"#utility.yul\":936:937   */\n  0x00\n    /* \"#utility.yul\":926:944   */\n  keccak256\n    /* \"#utility.yul\":918:944   */\n  swap1\n  pop\n    /* \"#utility.yul\":810:951   */\n  swap2\n  swap1\n  pop\n  jump\t// out\n    /* \"#utility.yul\":957:1050   */\ntag_16:\n    /* \"#utility.yul\":994:1000   */\n  0x00\n    /* \"#utility.yul\":1041:1043   */\n  0x20\n    /* \"#utility.yul\":1036:1038   */\n  0x1f\n    /* \"#utility.yul\":1029:1034   */\n  dup4\n    /* \"#utility.yul\":1025:1039   */\n  add\n    /* \"#utility.yul\":1021:1044   */\n  div\n    /* \"#utility.yul\":1011:1044   */\n  swap1\n  pop\n    /* \"#utility.yul\":957:1050   */\n  swap2\n  swap1\n  pop\n  jump\t// out\n    /* \"#utility.yul\":1056:1163   */\ntag_17:\n    /* \"#utility.yul\":1100:1108   */\n  0x00\n    /* \"#utility.yul\":1150:1155   */\n  dup3\n    /* \"#utility.yul\":1144:1148   */\n  dup3\n    /* \"#utility.yul\":1140:1156   */\n  shl\n    /* \"#utility.yul\":1119:1156   */\n  swap1\n  pop\n    /* \"#utility.yul\":1056:1163   */\n  swap3\n  swap2\n  pop\n  pop\n  jump\t// out\n    /* \"#utility.yul\":1169:1562   */\ntag_18:\n    /* \"#utility.yul\":1238:1244   */\n  0x00\n    /* \"#utility.yul\":1288:1289   */\n  0x08\n    /* \"#utility.yul\":1276:1286   */\n  dup4\n    /* \"#utility.yul\":1272:1290   */\n  mul\n    /* \"#utility.yul\":1311:1408   */\n  tag_43\n    /* \"#utility.yul\":1341:1407   */\n  0xffffffffffffffffffffffffffffffffffffffffffffffffffffffffffffffff\n    /* \"#utility.yul\":1330:1339   */\n  dup3\n    /* \"#utility.yul\":1311:1408   */\n  tag_17\n  jump\t// in\ntag_43:\n    /* \"#utility.yul\":1429:1468   */\n  tag_44\n    /* \"#utility.yul\":1459:1467   */\n  dup7\n    /* \"#utility.yul\":1448:1457   */\n  dup4\n    /* \"#utility.yul\":1429:1468   */\n  tag_17\n  jump\t// in\ntag_44:\n    /* \"#utility.yul\":1417:1468   */\n  swap6\n  pop\n    /* \"#utility.yul\":1501:1505   */\n  dup1\n    /* \"#utility.yul\":1497:1506   */\n  not\n    /* \"#utility.yul\":1490:1495   */\n  dup5\n    /* \"#utility.yul\":1486:1507   */\n  and\n    /* \"#utility.yul\":1477:1507   */\n  swap4\n  pop\n    /* \"#utility.yul\":1550:1554   */\n  dup1\n    /* \"#utility.yul\":1540:1548   */\n  dup7\n    /* \"#utility.yul\":1536:1555   */\n  and\n    /* \"#utility.yul\":1529:1534   */\n  dup5\n    /* \"#utility.yul\":1526:1556   */\n  or\n    /* \"#utility.yul\":1516:1556   */\n  swap3\n  pop\n    /* \"#utility.yul\":1245:1562   */\n  pop\n  pop\n    /* \"#utility.yul\":1169:1562   */\n  swap4\n  swap3\n  pop\n  pop\n  pop\n  jump\t// out\n    /* \"#utility.yul\":1568:1645   */\ntag_19:\n    /* \"#utility.yul\":1605:1612   */\n  0x00\n    /* \"#utility.yul\":1634:1639   */\n  dup2\n    /* \"#utility.yul\":1623:1639   */\n  swap1\n  pop\n    /* \"#utility.yul\":1568:1645   */\n  swap2\n  swap1\n  pop\n  jump\t// out\n    /* \"#utility.yul\":1651:1711   */\ntag_20:\n    /* \"#utility.yul\":1679:1682   */\n  0x00\n    /* \"#utility.yul\":1700:1705   */\n  dup2\n    /* \"#utility.yul\":1693:1705   */\n  swap1\n  pop\n    /* \"#utility.yul\":1651:1711   */\n  swap2\n  swap1\n  pop\n  jump\t// out\n    /* \"#utility.yul\":1717:1859   */\ntag_21:\n    /* \"#utility.yul\":1767:1776   */\n  0x00\n    /* \"#utility.yul\":1800:1853   */\n  tag_48\n    /* \"#utility.yul\":1818:1852   */\n  tag_49\n    /* \"#utility.yul\":1827:1851   */\n  tag_50\n    /* \"#utility.yul\":1845:1850   */\n  dup5\n    /* \"#utility.yul\":1827:1851   */\n  tag_19\n  jump\t// in\ntag_50:\n    /* \"#utility.yul\":1818:1852   */\n  tag_20\n  jump\t// in\ntag_49:\n    /* \"#utility.yul\":1800:1853   */\n  tag_19\n  jump\t// in\ntag_48:\n    /* \"#utility.yul\":1787:1853   */\n  swap1\n  pop\n    /* \"#utility.yul\":1717:1859   */\n  swap2\n  swap1\n  pop\n  jump\t// out\n    /* \"#utility.yul\":1865:1940   */\ntag_22:\n    /* \"#utility.yul\":1908:1911   */\n  0x00\n    /* \"#utility.yul\":1929:1934   */\n  dup2\n    /* \"#utility.yul\":1922:1934   */\n  swap1\n  pop\n    /* \"#utility.yul\":1865:1940   */\n  swap2\n  swap1\n  pop\n  jump\t// out\n    /* \"#utility.yul\":1946:2215   */\ntag_23:\n    /* \"#utility.yul\":2056:2095   */\n  tag_53\n    /* \"#utility.yul\":2087:2094   */\n  dup4\n    /* \"#utility.yul\":2056:2095   */\n  tag_21\n  jump\t// in\ntag_53:\n    /* \"#utility.yul\":2117:2208   */\n  tag_54\n    /* \"#utility.yul\":2166:2207   */\n  tag_55\n    /* \"#utility.yul\":2190:2206   */\n  dup3\n    /* \"#utility.yul\":2166:2207   */\n  tag_22\n  jump\t// in\ntag_55:\n    /* \"#utility.yul\":2158:2164   */\n  dup5\n    /* \"#utility.yul\":2151:2155   */\n  dup5\n    /* \"#utility.yul\":2145:2156   */\n  sload\n    /* \"#utility.yul\":2117:2208   */\n  tag_18\n  jump\t// in\ntag_54:\n    /* \"#utility.yul\":2111:2115   */\n  dup3\n    /* \"#utility.yul\":2104:2209   */\n  sstore\n    /* \"#utility.yul\":2022:2215   */\n  pop\n    /* \"#utility.yul\":1946:2215   */\n  pop\n  pop\n  pop\n  jump\t// out\n    /* \"#utility.yul\":2221:2294   */\ntag_24:\n    /* \"#utility.yul\":2266:2269   */\n  0x00\n    /* \"#utility.yul\":2221:2294   */\n  swap1\n  jump\t// out\n    /* \"#utility.yul\":2300:2489   */\ntag_25:\n    /* \"#utility.yul\":2377:2409   */\n  tag_58\n  tag_24\n  jump\t// in\ntag_58:\n    /* \"#utility.yul\":2418:2483   */\n  tag_59\n    /* \"#utility.yul\":2476:2482   */\n  dup2\n    /* \"#utility.yul\":2468:2474   */\n  dup5\n    /* \"#utility.yul\":2462:2466   */\n  dup5\n    /* \"#utility.yul\":2418:2483   */\n  tag_23\n  jump\t// in\ntag_59:\n    /* \"#utility.yul\":2353:2489   */\n  pop\n    /* \"#utility.yul\":2300:2489   */\n  pop\n  pop\n  jump\t// out\n    /* \"#utility.yul\":2495:2681   */\ntag_26:\n    /* \"#utility.yul\":2555:2675   */\ntag_61:\n    /* \"#utility.yul\":2572:2575   */\n  dup2\n    /* \"#utility.yul\":2565:2570   */\n  dup2\n    /* \"#utility.yul\":2562:2576   */\n  lt\n    /* \"#utility.yul\":2555:2675   */\n  iszero\n  tag_63\n  jumpi\n    /* \"#utility.yul\":2626:2665   */\n  tag_64\n    /* \"#utility.yul\":2663:2664   */\n  0x00\n    /* \"#utility.yul\":2656:2661   */\n  dup3\n    /* \"#utility.yul\":2626:2665   */\n  tag_25\n  jump\t// in\ntag_64:\n    /* \"#utility.yul\":2599:2600   */\n  0x01\n    /* \"#utility.yul\":2592:2597   */\n  dup2\n    /* \"#utility.yul\":2588:2601   */\n  add\n    /* \"#utility.yul\":2579:2601   */\n  swap1\n  pop\n    /* \"#utility.yul\":2555:2675   */\n  jump(tag_61)\ntag_63:\n    /* \"#utility.yul\":2495:2681   */\n  pop\n  pop\n  jump\t// out\n    /* \"#utility.yul\":2687:3230   */\ntag_27:\n    /* \"#utility.yul\":2788:2790   */\n  0x1f\n    /* \"#utility.yul\":2783:2786   */\n  dup3\n    /* \"#utility.yul\":2780:2791   */\n  gt\n    /* \"#utility.yul\":2777:3223   */\n  iszero\n  tag_66\n  jumpi\n    /* \"#utility.yul\":2822:2860   */\n  tag_67\n    /* \"#utility.yul\":2854:2859   */\n  dup2\n    /* \"#utility.yul\":2822:2860   */\n  tag_15\n  jump\t// in\ntag_67:\n    /* \"#utility.yul\":2906:2935   */\n  tag_68\n    /* \"#utility.yul\":2924:2934   */\n  dup5\n    /* \"#utility.yul\":2906:2935   */\n  tag_16\n  jump\t// in\ntag_68:\n    /* \"#utility.yul\":2896:2904   */\n  dup2\n    /* \"#utility.yul\":2892:2936   */\n  add\n    /* \"#utility.yul\":3089:3091   */\n  0x20\n    /* \"#utility.yul\":3077:3087   */\n  dup6\n    /* \"#utility.yul\":3074:3092   */\n  lt\n    /* \"#utility.yul\":3071:3120   */\n  iszero\n  tag_69\n  jumpi\n    /* \"#utility.yul\":3110:3118   */\n  dup2\n    /* \"#utility.yul\":3095:3118   */\n  swap1\n  pop\n    /* \"#utility.yul\":3071:3120   */\ntag_69:\n    /* \"#utility.yul\":3133:3213   */\n  tag_70\n    /* \"#utility.yul\":3189:3211   */\n  tag_71\n    /* \"#utility.yul\":3207:3210   */\n  dup6\n    /* \"#utility.yul\":3189:3211   */\n  tag_16\n  jump\t// in\ntag_71:\n    /* \"#utility.yul\":3179:3187   */\n  dup4\n    /* \"#utility.yul\":3175:3212   */\n  add\n    /* \"#utility.yul\":3162:3173   */\n  dup3\n    /* \"#utility.yul\":3133:3213   */\n  tag_26\n  jump\t// in\ntag_70:\n    /* \"#utility.yul\":2792:3223   */\n  pop\n  pop\n    /* \"#utility.yul\":2777:3223   */\ntag_66:\n    /* \"#utility.yul\":2687:3230   */\n  pop\n  pop\n  pop\n  jump\t// out\n    /* \"#utility.yul\":3236:3353   */\ntag_28:\n    /* \"#utility.yul\":3290:3298   */\n  0x00\n    /* \"#utility.yul\":3340:3345   */\n  dup3\n    /* \"#utility.yul\":3334:3338   */\n  dup3\n    /* \"#utility.yul\":3330:3346   */\n  shr\n    /* \"#utility.yul\":3309:3346   */\n  swap1\n  pop\n    /* \"#utility.yul\":3236:3353   */\n  swap3\n  swap2\n  pop\n  pop\n  jump\t// out\n    /* \"#utility.yul\":3359:3528   */\ntag_29:\n    /* \"#utility.yul\":3403:3409   */\n  0x00\n    /* \"#utility.yul\":3436:3487   */\n  tag_74\n    /* \"#utility.yul\":3484:3485   */\n  0x00\n    /* \"#utility.yul\":3480:3486   */\n  not\n    /* \"#utility.yul\":3472:3477   */\n  dup5\n    /* \"#utility.yul\":3469:3470   */\n  0x08\n    /* \"#utility.yul\":3465:3478   */\n  mul\n    /* \"#utility.yul\":3436:3487   */\n  tag_28\n  jump\t// in\ntag_74:\n    /* \"#utility.yul\":3432:3488   */\n  not\n    /* \"#utility.yul\":3517:3521   */\n  dup1\n    /* \"#utility.yul\":3511:3515   */\n  dup4\n    /* \"#utility.yul\":3507:3522   */\n  and\n    /* \"#utility.yul\":3497:3522   */\n  swap2\n  pop\n    /* \"#utility.yul\":3410:3528   */\n  pop\n    /* \"#utility.yul\":3359:3528   */\n  swap3\n  swap2\n  pop\n  pop\n  jump\t// out\n    /* \"#utility.yul\":3533:3828   */\ntag_30:\n    /* \"#utility.yul\":3609:3613   */\n  0x00\n    /* \"#utility.yul\":3755:3784   */\n  tag_76\n    /* \"#utility.yul\":3780:3783   */\n  dup4\n    /* \"#utility.yul\":3774:3778   */\n  dup4\n    /* \"#utility.yul\":3755:3784   */\n  tag_29\n  jump\t// in\ntag_76:\n    /* \"#utility.yul\":3747:3784   */\n  swap2\n  pop\n    /* \"#utility.yul\":3817:3820   */\n  dup3\n    /* \"#utility.yul\":3814:3815   */\n  0x02\n    /* \"#utility.yul\":3810:3821   */\n  mul\n    /* \"#utility.yul\":3804:3808   */\n  dup3\n    /* \"#utility.yul\":3801:3822   */\n  or\n    /* \"#utility.yul\":3793:3822   */\n  swap1\n  pop\n    /* \"#utility.yul\":3533:3828   */\n  swap3\n  swap2\n  pop\n  pop\n  jump\t// out\n    /* \"#utility.yul\":3833:5228   */\ntag_2:\n    /* \"#utility.yul\":3950:3987   */\n  tag_78\n    /* \"#utility.yul\":3983:3986   */\n  dup3\n    /* \"#utility.yul\":3950:3987   */\n  tag_11\n  jump\t// in\ntag_78:\n    /* \"#utility.yul\":4052:4070   */\n  0xffffffffffffffff\n    /* \"#utility.yul\":4044:4050   */\n  dup2\n    /* \"#utility.yul\":4041:4071   */\n  gt\n    /* \"#utility.yul\":4038:4094   */\n  iszero\n  tag_79\n  jumpi\n    /* \"#utility.yul\":4074:4092   */\n  tag_80\n  tag_12\n  jump\t// in\ntag_80:\n    /* \"#utility.yul\":4038:4094   */\ntag_79:\n    /* \"#utility.yul\":4118:4156   */\n  tag_81\n    /* \"#utility.yul\":4150:4154   */\n  dup3\n    /* \"#utility.yul\":4144:4155   */\n  sload\n    /* \"#utility.yul\":4118:4156   */\n  tag_14\n  jump\t// in\ntag_81:\n    /* \"#utility.yul\":4203:4270   */\n  tag_82\n    /* \"#utility.yul\":4263:4269   */\n  dup3\n    /* \"#utility.yul\":4255:4261   */\n  dup3\n    /* \"#utility.yul\":4249:4253   */\n  dup6\n    /* \"#utility.yul\":4203:4270   */\n  tag_27\n  jump\t// in\ntag_82:\n    /* \"#utility.yul\":4297:4298   */\n  0x00\n    /* \"#utility.yul\":4321:4325   */\n  0x20\n    /* \"#utility.yul\":4308:4325   */\n  swap1\n  pop\n    /* \"#utility.yul\":4353:4355   */\n  0x1f\n    /* \"#utility.yul\":4345:4351   */\n  dup4\n    /* \"#utility.yul\":4342:4356   */\n  gt\n    /* \"#utility.yul\":4370:4371   */\n  0x01\n    /* \"#utility.yul\":4365:4983   */\n  dup2\n  eq\n  tag_84\n  jumpi\n    /* \"#utility.yul\":5027:5028   */\n  0x00\n    /* \"#utility.yul\":5044:5050   */\n  dup5\n    /* \"#utility.yul\":5041:5118   */\n  iszero\n  tag_85\n  jumpi\n    /* \"#utility.yul\":5093:5102   */\n  dup3\n    /* \"#utility.yul\":5088:5091   */\n  dup8\n    /* \"#utility.yul\":5084:5103   */\n  add\n    /* \"#utility.yul\":5078:5104   */\n  mload\n    /* \"#utility.yul\":5069:5104   */\n  swap1\n  pop\n    /* \"#utility.yul\":5041:5118   */\ntag_85:\n    /* \"#utility.yul\":5144:5211   */\n  tag_86\n    /* \"#utility.yul\":5204:5210   */\n  dup6\n    /* \"#utility.yul\":5197:5202   */\n  dup3\n    /* \"#utility.yul\":5144:5211   */\n  tag_30\n  jump\t// in\ntag_86:\n    /* \"#utility.yul\":5138:5142   */\n  dup7\n    /* \"#utility.yul\":5131:5212   */\n  sstore\n    /* \"#utility.yul\":5000:5222   */\n  pop\n    /* \"#utility.yul\":4335:5222   */\n  jump(tag_83)\n    /* \"#utility.yul\":4365:4983   */\ntag_84:\n    /* \"#utility.yul\":4417:4421   */\n  0x1f\n    /* \"#utility.yul\":4413:4422   */\n  not\n    /* \"#utility.yul\":4405:4411   */\n  dup5\n    /* \"#utility.yul\":4401:4423   */\n  and\n    /* \"#utility.yul\":4451:4488   */\n  tag_87\n    /* \"#utility.yul\":4483:4487   */\n  dup7\n    /* \"#utility.yul\":4451:4488   */\n  tag_15\n  jump\t// in\ntag_87:\n    /* \"#utility.yul\":4510:4511   */\n  0x00\n    /* \"#utility.yul\":4524:4732   */\ntag_88:\n    /* \"#utility.yul\":4538:4545   */\n  dup3\n    /* \"#utility.yul\":4535:4536   */\n  dup2\n    /* \"#utility.yul\":4532:4546   */\n  lt\n    /* \"#utility.yul\":4524:4732   */\n  iszero\n  tag_90\n  jumpi\n    /* \"#utility.yul\":4617:4626   */\n  dup5\n    /* \"#utility.yul\":4612:4615   */\n  dup10\n    /* \"#utility.yul\":4608:4627   */\n  add\n    /* \"#utility.yul\":4602:4628   */\n  mload\n    /* \"#utility.yul\":4594:4600   */\n  dup3\n    /* \"#utility.yul\":4587:4629   */\n  sstore\n    /* \"#utility.yul\":4668:4669   */\n  0x01\n    /* \"#utility.yul\":4660:4666   */\n  dup3\n    /* \"#utility.yul\":4656:4670   */\n  add\n    /* \"#utility.yul\":4646:4670   */\n  swap2\n  pop\n    /* \"#utility.yul\":4715:4717   */\n  0x20\n    /* \"#utility.yul\":4704:4713   */\n  dup6\n    /* \"#utility.yul\":4700:4718   */\n  add\n    /* \"#utility.yul\":4687:4718   */\n  swap5\n  pop\n    /* \"#utility.yul\":4561:4565   */\n  0x20\n    /* \"#utility.yul\":4558:4559   */\n  dup2\n    /* \"#utility.yul\":4554:4566   */\n  add\n    /* \"#utility.yul\":4549:4566   */\n  swap1\n  pop\n    /* \"#utility.yul\":4524:4732   */\n  jump(tag_88)\ntag_90:\n    /* \"#utility.yul\":4760:4766   */\n  dup7\n    /* \"#utility.yul\":4751:4758   */\n  dup4\n    /* \"#utility.yul\":4748:4767   */\n  lt\n    /* \"#utility.yul\":4745:4924   */\n  iszero\n  tag_91\n  jumpi\n    /* \"#utility.yul\":4818:4827   */\n  dup5\n    /* \"#utility.yul\":4813:4816   */\n  dup10\n    /* \"#utility.yul\":4809:4828   */\n  add\n    /* \"#utility.yul\":4803:4829   */\n  mload\n    /* \"#utility.yul\":4861:4909   */\n  tag_92\n    /* \"#utility.yul\":4903:4907   */\n  0x1f\n    /* \"#utility.yul\":4895:4901   */\n  dup10\n    /* \"#utility.yul\":4891:4908   */\n  and\n    /* \"#utility.yul\":4880:4889   */\n  dup3\n    /* \"#utility.yul\":4861:4909   */\n  tag_29\n  jump\t// in\ntag_92:\n    /* \"#utility.yul\":4853:4859   */\n  dup4\n    /* \"#utility.yul\":4846:4910   */\n  sstore\n    /* \"#utility.yul\":4768:4924   */\n  pop\n    /* \"#utility.yul\":4745:4924   */\ntag_91:\n    /* \"#utility.yul\":4970:4971   */\n  0x01\n    /* \"#utility.yul\":4966:4967   */\n  0x02\n    /* \"#utility.yul\":4958:4964   */\n  dup9\n    /* \"#utility.yul\":4954:4968   */\n  mul\n    /* \"#utility.yul\":4950:4972   */\n  add\n    /* \"#utility.yul\":4944:4948   */\n  dup9\n    /* \"#utility.yul\":4937:4973   */\n  sstore\n    /* \"#utility.yul\":4372:4983   */\n  pop\n  pop\n  pop\n    /* \"#utility.yul\":4335:5222   */\ntag_83:\n  pop\n    /* \"#utility.yul\":3925:5228   */\n  pop\n  pop\n  pop\n    /* \"#utility.yul\":3833:5228   */\n  pop\n  pop\n  jump\t// out\n    /* \"#utility.yul\":5234:5414   */\ntag_9:\n    /* \"#utility.yul\":5282:5359   */\n  0x4e487b7100000000000000000000000000000000000000000000000000000000\n    /* \"#utility.yul\":5279:5280   */\n  0x00\n    /* \"#utility.yul\":5272:5360   */\n  mstore\n    /* \"#utility.yul\":5379:5383   */\n  0x21\n    /* \"#utility.yul\":5376:5377   */\n  0x04\n    /* \"#utility.yul\":5369:5384   */\n  mstore\n    /* \"#utility.yul\":5403:5407   */\n  0x24\n    /* \"#utility.yul\":5400:5401   */\n  0x00\n    /* \"#utility.yul\":5393:5408   */\n  revert\n    /* \"MyContract.sol\":599:3025  contract MyContract {... */\ntag_10:\n  dataSize(sub_0)\n  dup1\n  dataOffset(sub_0)\n  0x00\n  codecopy\n  0x00\n  return\nstop\n\nsub_0: assembly {\n        /* \"MyContract.sol\":599:3025  contract MyContract {... */\n      mstore(0x40, 0x80)\n      callvalue\n      dup1\n      iszero\n      tag_1\n      jumpi\n      0x00\n      dup1\n      revert\n    tag_1:\n      pop\n      jumpi(tag_2, lt(calldatasize, 0x04))\n      shr(0xe0, calldataload(0x00))\n      dup1\n      0x6deecdbe\n      gt\n      tag_14\n      jumpi\n      dup1\n      0x6deecdbe\n      eq\n      tag_8\n      jumpi\n      dup1\n      0x7dc93929\n      eq\n      tag_9\n      jumpi\n      dup1\n      0x8da5cb5b\n      eq\n      tag_10\n      jumpi\n      dup1\n      0x9e7a13ad\n      eq\n      tag_11\n      jumpi\n      dup1\n      0xa6f9dae1\n      eq\n      tag_12\n      jumpi\n      dup1\n      0xc19d93fb\n      eq\n      tag_13\n      jumpi\n      jump(tag_2)\n    tag_14:\n      dup1\n      0x0f15f4c0\n      eq\n      tag_3\n      jumpi\n      dup1\n      0x22f3e2d4\n      eq\n      tag_4\n      jumpi\n      dup1\n      0x22f5b58d\n      eq\n      tag_5\n      jumpi\n      dup1\n      0x267c68e0\n      eq\n      tag_6\n      jumpi\n      dup1\n      0x3fa4f245\n      eq\n      tag_7\n      jumpi\n    tag_2:\n      0x00\n      dup1\n      revert\n        /* \"MyContract.sol\":2088:2217  function activate() public returns (string memory) {... */\n    tag_3:\n      tag_15\n      tag_16\n      jump\t// in\n    tag_15:\n      mload(0x40)\n      tag_17\n      swap2\n      swap1\n      tag_18\n      jump\t// in\n    tag_17:\n      mload(0x40)\n      dup1\n      swap2\n      sub\n      swap1\n      return\n        /* \"MyContract.sol\":2223:2315  function isActive() public view returns (bool) {... */\n    tag_4:\n      tag_19\n      tag_20\n      jump\t// in\n    tag_19:\n      mload(0x40)\n      tag_21\n      swap2\n      swap1\n      tag_22\n      jump\t// in\n    tag_21:\n      mload(0x40)\n      dup1\n      swap2\n      sub\n      swap1\n      return\n        /* \"MyContract.sol\":2563:2913  function addPerson(string memory _firstName, string memory _lastName)... */\n    tag_5:\n      tag_23\n      0x04\n      dup1\n      calldatasize\n      sub\n      dup2\n      add\n      swap1\n      tag_24\n      swap2\n      swap1\n      tag_25\n      jump\t// in\n    tag_24:\n      tag_26\n      jump\t// in\n    tag_23:\n      stop\n        /* \"MyContract.sol\":2453:2483  uint256 public peopleCount = 0 */\n    tag_6:\n      tag_27\n      tag_28\n      jump\t// in\n    tag_27:\n      mload(0x40)\n      tag_29\n      swap2\n      swap1\n      tag_30\n      jump\t// in\n    tag_29:\n      mload(0x40)\n      dup1\n      swap2\n      sub\n      swap1\n      return\n        /* \"MyContract.sol\":740:780  string public value = \"my default value\" */\n    tag_7:\n      tag_31\n      tag_32\n      jump\t// in\n    tag_31:\n      mload(0x40)\n      tag_33\n      swap2\n      swap1\n      tag_18\n      jump\t// in\n    tag_33:\n      mload(0x40)\n      dup1\n      swap2\n      sub\n      swap1\n      return\n        /* \"MyContract.sol\":858:883  bool public myBool = true */\n    tag_8:\n      tag_34\n      tag_35\n      jump\t// in\n    tag_34:\n      mload(0x40)\n      tag_36\n      swap2\n      swap1\n      tag_22\n      jump\t// in\n    tag_36:\n      mload(0x40)\n      dup1\n      swap2\n      sub\n      swap1\n      return\n        /* \"MyContract.sol\":796:842  string public stringValue = \"my default value\" */\n    tag_9:\n      tag_37\n      tag_38\n      jump\t// in\n    tag_37:\n      mload(0x40)\n      tag_39\n      swap2\n      swap1\n      tag_18\n      jump\t// in\n    tag_39:\n      mload(0x40)\n      dup1\n      swap2\n      sub\n      swap1\n      return\n        /* \"MyContract.sol\":1740:1760  address public owner */\n    tag_10:\n      tag_40\n      tag_41\n      jump\t// in\n    tag_40:\n      mload(0x40)\n      tag_42\n      swap2\n      swap1\n      tag_43\n      jump\t// in\n    tag_42:\n      mload(0x40)\n      dup1\n      swap2\n      sub\n      swap1\n      return\n        /* \"MyContract.sol\":2516:2556  mapping(uint256 => Person) public people */\n    tag_11:\n      tag_44\n      0x04\n      dup1\n      calldatasize\n      sub\n      dup2\n      add\n      swap1\n      tag_45\n      swap2\n      swap1\n      tag_46\n      jump\t// in\n    tag_45:\n      tag_47\n      jump\t// in\n    tag_44:\n      mload(0x40)\n      tag_48\n      swap4\n      swap3\n      swap2\n      swap1\n      tag_49\n      jump\t// in\n    tag_48:\n      mload(0x40)\n      dup1\n      swap2\n      sub\n      swap1\n      return\n        /* \"MyContract.sol\":1924:2082  function changeOwner(address _newOwner) public {... */\n    tag_12:\n      tag_50\n      0x04\n      dup1\n      calldatasize\n      sub\n      dup2\n      add\n      swap1\n      tag_51\n      swap2\n      swap1\n      tag_52\n      jump\t// in\n    tag_51:\n      tag_53\n      jump\t// in\n    tag_50:\n      stop\n        /* \"MyContract.sol\":1470:1488  State public state */\n    tag_13:\n      tag_54\n      tag_55\n      jump\t// in\n    tag_54:\n      mload(0x40)\n      tag_56\n      swap2\n      swap1\n      tag_57\n      jump\t// in\n    tag_56:\n      mload(0x40)\n      dup1\n      swap2\n      sub\n      swap1\n      return\n        /* \"MyContract.sol\":2088:2217  function activate() public returns (string memory) {... */\n    tag_16:\n        /* \"MyContract.sol\":2124:2137  string memory */\n      0x60\n        /* \"MyContract.sol\":2157:2169  State.Active */\n      0x02\n        /* \"MyContract.sol\":2149:2154  state */\n      0x05\n      0x00\n        /* \"MyContract.sol\":2149:2169  state = State.Active */\n      0x0100\n      exp\n      dup2\n      sload\n      dup2\n      0xff\n      mul\n      not\n      and\n      swap1\n      dup4\n      0x04\n      dup2\n      gt\n      iszero\n      tag_59\n      jumpi\n      tag_60\n      tag_61\n      jump\t// in\n    tag_60:\n    tag_59:\n      mul\n      or\n      swap1\n      sstore\n      pop\n        /* \"MyContract.sol\":2179:2210  return \"Activation successful!\" */\n      mload(0x40)\n      dup1\n      0x40\n      add\n      0x40\n      mstore\n      dup1\n      0x16\n      dup2\n      mstore\n      0x20\n      add\n      0x41637469766174696f6e207375636365737366756c2100000000000000000000\n      dup2\n      mstore\n      pop\n      swap1\n      pop\n        /* \"MyContract.sol\":2088:2217  function activate() public returns (string memory) {... */\n      swap1\n      jump\t// out\n        /* \"MyContract.sol\":2223:2315  function isActive() public view returns (bool) {... */\n    tag_20:\n        /* \"MyContract.sol\":2264:2268  bool */\n      0x00\n        /* \"MyContract.sol\":2296:2308  State.Active */\n      0x02\n        /* \"MyContract.sol\":2287:2308  state == State.Active */\n      0x04\n      dup2\n      gt\n      iszero\n      tag_63\n      jumpi\n      tag_64\n      tag_61\n      jump\t// in\n    tag_64:\n    tag_63:\n        /* \"MyContract.sol\":2287:2292  state */\n      0x05\n      0x00\n      swap1\n      sload\n      swap1\n      0x0100\n      exp\n      swap1\n      div\n      0xff\n      and\n        /* \"MyContract.sol\":2287:2308  state == State.Active */\n      0x04\n      dup2\n      gt\n      iszero\n      tag_65\n      jumpi\n      tag_66\n      tag_61\n      jump\t// in\n    tag_66:\n    tag_65:\n      eq\n        /* \"MyContract.sol\":2280:2308  return state == State.Active */\n      swap1\n      pop\n        /* \"MyContract.sol\":2223:2315  function isActive() public view returns (bool) {... */\n      swap1\n      jump\t// out\n        /* \"MyContract.sol\":2563:2913  function addPerson(string memory _firstName, string memory _lastName)... */\n    tag_26:\n        /* \"MyContract.sol\":1598:1609  openingTime */\n      sload(0x06)\n        /* \"MyContract.sol\":1579:1594  block.timestamp */\n      timestamp\n        /* \"MyContract.sol\":1579:1609  block.timestamp >= openingTime */\n      lt\n      iszero\n        /* \"MyContract.sol\":1571:1635  require(block.timestamp >= openingTime, \"TIME NEVER REACH BOSS\") */\n      tag_68\n      jumpi\n      mload(0x40)\n      0x08c379a000000000000000000000000000000000000000000000000000000000\n      dup2\n      mstore\n      0x04\n      add\n      tag_69\n      swap1\n      tag_70\n      jump\t// in\n    tag_69:\n      mload(0x40)\n      dup1\n      swap2\n      sub\n      swap1\n      revert\n    tag_68:\n        /* \"MyContract.sol\":1861:1866  owner */\n      0x07\n      0x00\n      swap1\n      sload\n      swap1\n      0x0100\n      exp\n      swap1\n      div\n      0xffffffffffffffffffffffffffffffffffffffff\n      and\n        /* \"MyContract.sol\":1847:1866  msg.sender == owner */\n      0xffffffffffffffffffffffffffffffffffffffff\n      and\n        /* \"MyContract.sol\":1847:1857  msg.sender */\n      caller\n        /* \"MyContract.sol\":1847:1866  msg.sender == owner */\n      0xffffffffffffffffffffffffffffffffffffffff\n      and\n      eq\n        /* \"MyContract.sol\":1839:1900  require(msg.sender == owner, \"Only the owner can add people\") */\n      tag_72\n      jumpi\n      mload(0x40)\n      0x08c379a000000000000000000000000000000000000000000000000000000000\n      dup2\n      mstore\n      0x04\n      add\n      tag_73\n      swap1\n      tag_74\n      jump\t// in\n    tag_73:\n      mload(0x40)\n      dup1\n      swap2\n      sub\n      swap1\n      revert\n    tag_72:\n        /* \"MyContract.sol\":2757:2773  incrementCount() */\n      tag_76\n        /* \"MyContract.sol\":2757:2771  incrementCount */\n      tag_77\n        /* \"MyContract.sol\":2757:2773  incrementCount() */\n      jump\t// in\n    tag_76:\n        /* \"MyContract.sol\":2805:2847  Person(peopleCount, _firstName, _lastName) */\n      mload(0x40)\n      dup1\n      0x60\n      add\n      0x40\n      mstore\n      dup1\n        /* \"MyContract.sol\":2812:2823  peopleCount */\n      sload(0x08)\n        /* \"MyContract.sol\":2805:2847  Person(peopleCount, _firstName, _lastName) */\n      dup2\n      mstore\n      0x20\n      add\n        /* \"MyContract.sol\":2825:2835  _firstName */\n      dup4\n        /* \"MyContract.sol\":2805:2847  Person(peopleCount, _firstName, _lastName) */\n      dup2\n      mstore\n      0x20\n      add\n        /* \"MyContract.sol\":2837:2846  _lastName */\n      dup3\n        /* \"MyContract.sol\":2805:2847  Person(peopleCount, _firstName, _lastName) */\n      dup2\n      mstore\n      pop\n        /* \"MyContract.sol\":2783:2789  people */\n      0x09\n        /* \"MyContract.sol\":2783:2802  people[peopleCount] */\n      0x00\n        /* \"MyContract.sol\":2790:2801  peopleCount */\n      sload(0x08)\n        /* \"MyContract.sol\":2783:2802  people[peopleCount] */\n      dup2\n      mstore\n      0x20\n      add\n      swap1\n      dup2\n      mstore\n      0x20\n      add\n      0x00\n      keccak256\n        /* \"MyContract.sol\":2783:2847  people[peopleCount] = Person(peopleCount, _firstName, _lastName) */\n      0x00\n      dup3\n      add\n      mload\n      dup2\n      0x00\n      add\n      sstore\n      0x20\n      dup3\n      add\n      mload\n      dup2\n      0x01\n      add\n      swap1\n      dup2\n      tag_78\n      swap2\n      swap1\n      tag_79\n      jump\t// in\n    tag_78:\n      pop\n      0x40\n      dup3\n      add\n      mload\n      dup2\n      0x02\n      add\n      swap1\n      dup2\n      tag_80\n      swap2\n      swap1\n      tag_79\n      jump\t// in\n    tag_80:\n      pop\n      swap1\n      pop\n      pop\n        /* \"MyContract.sol\":2563:2913  function addPerson(string memory _firstName, string memory _lastName)... */\n      pop\n      pop\n      jump\t// out\n        /* \"MyContract.sol\":2453:2483  uint256 public peopleCount = 0 */\n    tag_28:\n      sload(0x08)\n      dup2\n      jump\t// out\n        /* \"MyContract.sol\":740:780  string public value = \"my default value\" */\n    tag_32:\n      0x00\n      dup1\n      sload\n      tag_81\n      swap1\n      tag_82\n      jump\t// in\n    tag_81:\n      dup1\n      0x1f\n      add\n      0x20\n      dup1\n      swap2\n      div\n      mul\n      0x20\n      add\n      mload(0x40)\n      swap1\n      dup2\n      add\n      0x40\n      mstore\n      dup1\n      swap3\n      swap2\n      swap1\n      dup2\n      dup2\n      mstore\n      0x20\n      add\n      dup3\n      dup1\n      sload\n      tag_83\n      swap1\n      tag_82\n      jump\t// in\n    tag_83:\n      dup1\n      iszero\n      tag_84\n      jumpi\n      dup1\n      0x1f\n      lt\n      tag_85\n      jumpi\n      0x0100\n      dup1\n      dup4\n      sload\n      div\n      mul\n      dup4\n      mstore\n      swap2\n      0x20\n      add\n      swap2\n      jump(tag_84)\n    tag_85:\n      dup3\n      add\n      swap2\n      swap1\n      0x00\n      mstore\n      keccak256(0x00, 0x20)\n      swap1\n    tag_86:\n      dup2\n      sload\n      dup2\n      mstore\n      swap1\n      0x01\n      add\n      swap1\n      0x20\n      add\n      dup1\n      dup4\n      gt\n      tag_86\n      jumpi\n      dup3\n      swap1\n      sub\n      0x1f\n      and\n      dup3\n      add\n      swap2\n    tag_84:\n      pop\n      pop\n      pop\n      pop\n      pop\n      dup2\n      jump\t// out\n        /* \"MyContract.sol\":858:883  bool public myBool = true */\n    tag_35:\n      0x02\n      0x00\n      swap1\n      sload\n      swap1\n      0x0100\n      exp\n      swap1\n      div\n      0xff\n      and\n      dup2\n      jump\t// out\n        /* \"MyContract.sol\":796:842  string public stringValue = \"my default value\" */\n    tag_38:\n      0x01\n      dup1\n      sload\n      tag_87\n      swap1\n      tag_82\n      jump\t// in\n    tag_87:\n      dup1\n      0x1f\n      add\n      0x20\n      dup1\n      swap2\n      div\n      mul\n      0x20\n      add\n      mload(0x40)\n      swap1\n      dup2\n      add\n      0x40\n      mstore\n      dup1\n      swap3\n      swap2\n      swap1\n      dup2\n      dup2\n      mstore\n      0x20\n      add\n      dup3\n      dup1\n      sload\n      tag_88\n      swap1\n      tag_82\n      jump\t// in\n    tag_88:\n      dup1\n      iszero\n      tag_89\n      jumpi\n      dup1\n      0x1f\n      lt\n      tag_90\n      jumpi\n      0x0100\n      dup1\n      dup4\n      sload\n      div\n      mul\n      dup4\n      mstore\n      swap2\n      0x20\n      add\n      swap2\n      jump(tag_89)\n    tag_90:\n      dup3\n      add\n      swap2\n      swap1\n      0x00\n      mstore\n      keccak256(0x00, 0x20)\n      swap1\n    tag_91:\n      dup2\n      sload\n      dup2\n      mstore\n      swap1\n      0x01\n      add\n      swap1\n      0x20\n      add\n      dup1\n      dup4\n      gt\n      tag_91\n      jumpi\n      dup3\n      swap1\n      sub\n      0x1f\n      and\n      dup3\n      add\n      swap2\n    tag_89:\n      pop\n      pop\n      pop\n      pop\n      pop\n      dup2\n      jump\t// out\n        /* \"MyContract.sol\":1740:1760  address public owner */\n    tag_41:\n      0x07\n      0x00\n      swap1\n      sload\n      swap1\n      0x0100\n      exp\n      swap1\n      div\n      0xffffffffffffffffffffffffffffffffffffffff\n      and\n      dup2\n      jump\t// out\n        /* \"MyContract.sol\":2516:2556  mapping(uint256 => Person) public people */\n    tag_47:\n      mstore(0x20, 0x09)\n      dup1\n      0x00\n      mstore\n      keccak256(0x00, 0x40)\n      0x00\n      swap2\n      pop\n      swap1\n      pop\n      dup1\n      0x00\n      add\n      sload\n      swap1\n      dup1\n      0x01\n      add\n      dup1\n      sload\n      tag_92\n      swap1\n      tag_82\n      jump\t// in\n    tag_92:\n      dup1\n      0x1f\n      add\n      0x20\n      dup1\n      swap2\n      div\n      mul\n      0x20\n      add\n      mload(0x40)\n      swap1\n      dup2\n      add\n      0x40\n      mstore\n      dup1\n      swap3\n      swap2\n      swap1\n      dup2\n      dup2\n      mstore\n      0x20\n      add\n      dup3\n      dup1\n      sload\n      tag_93\n      swap1\n      tag_82\n      jump\t// in\n    tag_93:\n      dup1\n      iszero\n      tag_94\n      jumpi\n      dup1\n      0x1f\n      lt\n      tag_95\n      jumpi\n      0x0100\n      dup1\n      dup4\n      sload\n      div\n      mul\n      dup4\n      mstore\n      swap2\n      0x20\n      add\n      swap2\n      jump(tag_94)\n    tag_95:\n      dup3\n      add\n      swap2\n      swap1\n      0x00\n      mstore\n      keccak256(0x00, 0x20)\n      swap1\n    tag_96:\n      dup2\n      sload\n      dup2\n      mstore\n      swap1\n      0x01\n      add\n      swap1\n      0x20\n      add\n      dup1\n      dup4\n      gt\n      tag_96\n      jumpi\n      dup3\n      swap1\n      sub\n      0x1f\n      and\n      dup3\n      add\n      swap2\n    tag_94:\n      pop\n      pop\n      pop\n      pop\n      pop\n      swap1\n      dup1\n      0x02\n      add\n      dup1\n      sload\n      tag_97\n      swap1\n      tag_82\n      jump\t// in\n    tag_97:\n      dup1\n      0x1f\n      add\n      0x20\n      dup1\n      swap2\n      div\n      mul\n      0x20\n      add\n      mload(0x40)\n      swap1\n      dup2\n      add\n      0x40\n      mstore\n      dup1\n      swap3\n      swap2\n      swap1\n      dup2\n      dup2\n      mstore\n      0x20\n      add\n      dup3\n      dup1\n      sload\n      tag_98\n      swap1\n      tag_82\n      jump\t// in\n    tag_98:\n      dup1\n      iszero\n      tag_99\n      jumpi\n      dup1\n      0x1f\n      lt\n      tag_100\n      jumpi\n      0x0100\n      dup1\n      dup4\n      sload\n      div\n      mul\n      dup4\n      mstore\n      swap2\n      0x20\n      add\n      swap2\n      jump(tag_99)\n    tag_100:\n      dup3\n      add\n      swap2\n      swap1\n      0x00\n      mstore\n      keccak256(0x00, 0x20)\n      swap1\n    tag_101:\n      dup2\n      sload\n      dup2\n      mstore\n      swap1\n      0x01\n      add\n      swap1\n      0x20\n      add\n      dup1\n      dup4\n      gt\n      tag_101\n      jumpi\n      dup3\n      swap1\n      sub\n      0x1f\n      and\n      dup3\n      add\n      swap2\n    tag_99:\n      pop\n      pop\n      pop\n      pop\n      pop\n      swap1\n      pop\n      dup4\n      jump\t// out\n        /* \"MyContract.sol\":1924:2082  function changeOwner(address _newOwner) public {... */\n    tag_53:\n        /* \"MyContract.sol\":2003:2008  owner */\n      0x07\n      0x00\n      swap1\n      sload\n      swap1\n      0x0100\n      exp\n      swap1\n      div\n      0xffffffffffffffffffffffffffffffffffffffff\n      and\n        /* \"MyContract.sol\":1989:2008  msg.sender == owner */\n      0xffffffffffffffffffffffffffffffffffffffff\n      and\n        /* \"MyContract.sol\":1989:1999  msg.sender */\n      caller\n        /* \"MyContract.sol\":1989:2008  msg.sender == owner */\n      0xffffffffffffffffffffffffffffffffffffffff\n      and\n      eq\n        /* \"MyContract.sol\":1981:2048  require(msg.sender == owner, \"Only the owner can change the owner\") */\n      tag_103\n      jumpi\n      mload(0x40)\n      0x08c379a000000000000000000000000000000000000000000000000000000000\n      dup2\n      mstore\n      0x04\n      add\n      tag_104\n      swap1\n      tag_105\n      jump\t// in\n    tag_104:\n      mload(0x40)\n      dup1\n      swap2\n      sub\n      swap1\n      revert\n    tag_103:\n        /* \"MyContract.sol\":2066:2075  _newOwner */\n      dup1\n        /* \"MyContract.sol\":2058:2063  owner */\n      0x07\n      0x00\n        /* \"MyContract.sol\":2058:2075  owner = _newOwner */\n      0x0100\n      exp\n      dup2\n      sload\n      dup2\n      0xffffffffffffffffffffffffffffffffffffffff\n      mul\n      not\n      and\n      swap1\n      dup4\n      0xffffffffffffffffffffffffffffffffffffffff\n      and\n      mul\n      or\n      swap1\n      sstore\n      pop\n        /* \"MyContract.sol\":1924:2082  function changeOwner(address _newOwner) public {... */\n      pop\n      jump\t// out\n        /* \"MyContract.sol\":1470:1488  State public state */\n    tag_55:\n      0x05\n      0x00\n      swap1\n      sload\n      swap1\n      0x0100\n      exp\n      swap1\n      div\n      0xff\n      and\n      dup2\n      jump\t// out\n        /* \"MyContract.sol\":2919:2987  function incrementCount() internal {... */\n    tag_77:\n        /* \"MyContract.sol\":2979:2980  1 */\n      0x01\n        /* \"MyContract.sol\":2964:2975  peopleCount */\n      0x08\n      0x00\n        /* \"MyContract.sol\":2964:2980  peopleCount += 1 */\n      dup3\n      dup3\n      sload\n      tag_107\n      swap2\n      swap1\n      tag_108\n      jump\t// in\n    tag_107:\n      swap3\n      pop\n      pop\n      dup2\n      swap1\n      sstore\n      pop\n        /* \"MyContract.sol\":2919:2987  function incrementCount() internal {... */\n      jump\t// out\n        /* \"#utility.yul\":7:106   */\n    tag_109:\n        /* \"#utility.yul\":59:65   */\n      0x00\n        /* \"#utility.yul\":93:98   */\n      dup2\n        /* \"#utility.yul\":87:99   */\n      mload\n        /* \"#utility.yul\":77:99   */\n      swap1\n      pop\n        /* \"#utility.yul\":7:106   */\n      swap2\n      swap1\n      pop\n      jump\t// out\n        /* \"#utility.yul\":112:281   */\n    tag_110:\n        /* \"#utility.yul\":196:207   */\n      0x00\n        /* \"#utility.yul\":230:236   */\n      dup3\n        /* \"#utility.yul\":225:228   */\n      dup3\n        /* \"#utility.yul\":218:237   */\n      mstore\n        /* \"#utility.yul\":270:274   */\n      0x20\n        /* \"#utility.yul\":265:268   */\n      dup3\n        /* \"#utility.yul\":261:275   */\n      add\n        /* \"#utility.yul\":246:275   */\n      swap1\n      pop\n        /* \"#utility.yul\":112:281   */\n      swap3\n      swap2\n      pop\n      pop\n      jump\t// out\n        /* \"#utility.yul\":287:533   */\n    tag_111:\n        /* \"#utility.yul\":368:369   */\n      0x00\n        /* \"#utility.yul\":378:491   */\n    tag_168:\n        /* \"#utility.yul\":392:398   */\n      dup4\n        /* \"#utility.yul\":389:390   */\n      dup2\n        /* \"#utility.yul\":386:399   */\n      lt\n        /* \"#utility.yul\":378:491   */\n      iszero\n      tag_170\n      jumpi\n        /* \"#utility.yul\":477:478   */\n      dup1\n        /* \"#utility.yul\":472:475   */\n      dup3\n        /* \"#utility.yul\":468:479   */\n      add\n        /* \"#utility.yul\":462:480   */\n      mload\n        /* \"#utility.yul\":458:459   */\n      dup2\n        /* \"#utility.yul\":453:456   */\n      dup5\n        /* \"#utility.yul\":449:460   */\n      add\n        /* \"#utility.yul\":442:481   */\n      mstore\n        /* \"#utility.yul\":414:416   */\n      0x20\n        /* \"#utility.yul\":411:412   */\n      dup2\n        /* \"#utility.yul\":407:417   */\n      add\n        /* \"#utility.yul\":402:417   */\n      swap1\n      pop\n        /* \"#utility.yul\":378:491   */\n      jump(tag_168)\n    tag_170:\n        /* \"#utility.yul\":525:526   */\n      0x00\n        /* \"#utility.yul\":516:522   */\n      dup5\n        /* \"#utility.yul\":511:514   */\n      dup5\n        /* \"#utility.yul\":507:523   */\n      add\n        /* \"#utility.yul\":500:527   */\n      mstore\n        /* \"#utility.yul\":349:533   */\n      pop\n        /* \"#utility.yul\":287:533   */\n      pop\n      pop\n      pop\n      jump\t// out\n        /* \"#utility.yul\":539:641   */\n    tag_112:\n        /* \"#utility.yul\":580:586   */\n      0x00\n        /* \"#utility.yul\":631:633   */\n      0x1f\n        /* \"#utility.yul\":627:634   */\n      not\n        /* \"#utility.yul\":622:624   */\n      0x1f\n        /* \"#utility.yul\":615:620   */\n      dup4\n        /* \"#utility.yul\":611:625   */\n      add\n        /* \"#utility.yul\":607:635   */\n      and\n        /* \"#utility.yul\":597:635   */\n      swap1\n      pop\n        /* \"#utility.yul\":539:641   */\n      swap2\n      swap1\n      pop\n      jump\t// out\n        /* \"#utility.yul\":647:1024   */\n    tag_113:\n        /* \"#utility.yul\":735:738   */\n      0x00\n        /* \"#utility.yul\":763:802   */\n      tag_173\n        /* \"#utility.yul\":796:801   */\n      dup3\n        /* \"#utility.yul\":763:802   */\n      tag_109\n      jump\t// in\n    tag_173:\n        /* \"#utility.yul\":818:889   */\n      tag_174\n        /* \"#utility.yul\":882:888   */\n      dup2\n        /* \"#utility.yul\":877:880   */\n      dup6\n        /* \"#utility.yul\":818:889   */\n      tag_110\n      jump\t// in\n    tag_174:\n        /* \"#utility.yul\":811:889   */\n      swap4\n      pop\n        /* \"#utility.yul\":898:963   */\n      tag_175\n        /* \"#utility.yul\":956:962   */\n      dup2\n        /* \"#utility.yul\":951:954   */\n      dup6\n        /* \"#utility.yul\":944:948   */\n      0x20\n        /* \"#utility.yul\":937:942   */\n      dup7\n        /* \"#utility.yul\":933:949   */\n      add\n        /* \"#utility.yul\":898:963   */\n      tag_111\n      jump\t// in\n    tag_175:\n        /* \"#utility.yul\":988:1017   */\n      tag_176\n        /* \"#utility.yul\":1010:1016   */\n      dup2\n        /* \"#utility.yul\":988:1017   */\n      tag_112\n      jump\t// in\n    tag_176:\n        /* \"#utility.yul\":983:986   */\n      dup5\n        /* \"#utility.yul\":979:1018   */\n      add\n        /* \"#utility.yul\":972:1018   */\n      swap2\n      pop\n        /* \"#utility.yul\":739:1024   */\n      pop\n        /* \"#utility.yul\":647:1024   */\n      swap3\n      swap2\n      pop\n      pop\n      jump\t// out\n        /* \"#utility.yul\":1030:1343   */\n    tag_18:\n        /* \"#utility.yul\":1143:1147   */\n      0x00\n        /* \"#utility.yul\":1181:1183   */\n      0x20\n        /* \"#utility.yul\":1170:1179   */\n      dup3\n        /* \"#utility.yul\":1166:1184   */\n      add\n        /* \"#utility.yul\":1158:1184   */\n      swap1\n      pop\n        /* \"#utility.yul\":1230:1239   */\n      dup2\n        /* \"#utility.yul\":1224:1228   */\n      dup2\n        /* \"#utility.yul\":1220:1240   */\n      sub\n        /* \"#utility.yul\":1216:1217   */\n      0x00\n        /* \"#utility.yul\":1205:1214   */\n      dup4\n        /* \"#utility.yul\":1201:1218   */\n      add\n        /* \"#utility.yul\":1194:1241   */\n      mstore\n        /* \"#utility.yul\":1258:1336   */\n      tag_178\n        /* \"#utility.yul\":1331:1335   */\n      dup2\n        /* \"#utility.yul\":1322:1328   */\n      dup5\n        /* \"#utility.yul\":1258:1336   */\n      tag_113\n      jump\t// in\n    tag_178:\n        /* \"#utility.yul\":1250:1336   */\n      swap1\n      pop\n        /* \"#utility.yul\":1030:1343   */\n      swap3\n      swap2\n      pop\n      pop\n      jump\t// out\n        /* \"#utility.yul\":1349:1439   */\n    tag_114:\n        /* \"#utility.yul\":1383:1390   */\n      0x00\n        /* \"#utility.yul\":1426:1431   */\n      dup2\n        /* \"#utility.yul\":1419:1432   */\n      iszero\n        /* \"#utility.yul\":1412:1433   */\n      iszero\n        /* \"#utility.yul\":1401:1433   */\n      swap1\n      pop\n        /* \"#utility.yul\":1349:1439   */\n      swap2\n      swap1\n      pop\n      jump\t// out\n        /* \"#utility.yul\":1445:1554   */\n    tag_115:\n        /* \"#utility.yul\":1526:1547   */\n      tag_181\n        /* \"#utility.yul\":1541:1546   */\n      dup2\n        /* \"#utility.yul\":1526:1547   */\n      tag_114\n      jump\t// in\n    tag_181:\n        /* \"#utility.yul\":1521:1524   */\n      dup3\n        /* \"#utility.yul\":1514:1548   */\n      mstore\n        /* \"#utility.yul\":1445:1554   */\n      pop\n      pop\n      jump\t// out\n        /* \"#utility.yul\":1560:1770   */\n    tag_22:\n        /* \"#utility.yul\":1647:1651   */\n      0x00\n        /* \"#utility.yul\":1685:1687   */\n      0x20\n        /* \"#utility.yul\":1674:1683   */\n      dup3\n        /* \"#utility.yul\":1670:1688   */\n      add\n        /* \"#utility.yul\":1662:1688   */\n      swap1\n      pop\n        /* \"#utility.yul\":1698:1763   */\n      tag_183\n        /* \"#utility.yul\":1760:1761   */\n      0x00\n        /* \"#utility.yul\":1749:1758   */\n      dup4\n        /* \"#utility.yul\":1745:1762   */\n      add\n        /* \"#utility.yul\":1736:1742   */\n      dup5\n        /* \"#utility.yul\":1698:1763   */\n      tag_115\n      jump\t// in\n    tag_183:\n        /* \"#utility.yul\":1560:1770   */\n      swap3\n      swap2\n      pop\n      pop\n      jump\t// out\n        /* \"#utility.yul\":1776:1851   */\n    tag_116:\n        /* \"#utility.yul\":1809:1815   */\n      0x00\n        /* \"#utility.yul\":1842:1844   */\n      0x40\n        /* \"#utility.yul\":1836:1845   */\n      mload\n        /* \"#utility.yul\":1826:1845   */\n      swap1\n      pop\n        /* \"#utility.yul\":1776:1851   */\n      swap1\n      jump\t// out\n        /* \"#utility.yul\":1857:1974   */\n    tag_117:\n        /* \"#utility.yul\":1966:1967   */\n      0x00\n        /* \"#utility.yul\":1963:1964   */\n      dup1\n        /* \"#utility.yul\":1956:1968   */\n      revert\n        /* \"#utility.yul\":1980:2097   */\n    tag_118:\n        /* \"#utility.yul\":2089:2090   */\n      0x00\n        /* \"#utility.yul\":2086:2087   */\n      dup1\n        /* \"#utility.yul\":2079:2091   */\n      revert\n        /* \"#utility.yul\":2103:2220   */\n    tag_119:\n        /* \"#utility.yul\":2212:2213   */\n      0x00\n        /* \"#utility.yul\":2209:2210   */\n      dup1\n        /* \"#utility.yul\":2202:2214   */\n      revert\n        /* \"#utility.yul\":2226:2343   */\n    tag_120:\n        /* \"#utility.yul\":2335:2336   */\n      0x00\n        /* \"#utility.yul\":2332:2333   */\n      dup1\n        /* \"#utility.yul\":2325:2337   */\n      revert\n        /* \"#utility.yul\":2349:2529   */\n    tag_121:\n        /* \"#utility.yul\":2397:2474   */\n      0x4e487b7100000000000000000000000000000000000000000000000000000000\n        /* \"#utility.yul\":2394:2395   */\n      0x00\n        /* \"#utility.yul\":2387:2475   */\n      mstore\n        /* \"#utility.yul\":2494:2498   */\n      0x41\n        /* \"#utility.yul\":2491:2492   */\n      0x04\n        /* \"#utility.yul\":2484:2499   */\n      mstore\n        /* \"#utility.yul\":2518:2522   */\n      0x24\n        /* \"#utility.yul\":2515:2516   */\n      0x00\n        /* \"#utility.yul\":2508:2523   */\n      revert\n        /* \"#utility.yul\":2535:2816   */\n    tag_122:\n        /* \"#utility.yul\":2618:2645   */\n      tag_191\n        /* \"#utility.yul\":2640:2644   */\n      dup3\n        /* \"#utility.yul\":2618:2645   */\n      tag_112\n      jump\t// in\n    tag_191:\n        /* \"#utility.yul\":2610:2616   */\n      dup2\n        /* \"#utility.yul\":2606:2646   */\n      add\n        /* \"#utility.yul\":2748:2754   */\n      dup2\n        /* \"#utility.yul\":2736:2746   */\n      dup2\n        /* \"#utility.yul\":2733:2755   */\n      lt\n        /* \"#utility.yul\":2712:2730   */\n      0xffffffffffffffff\n        /* \"#utility.yul\":2700:2710   */\n      dup3\n        /* \"#utility.yul\":2697:2731   */\n      gt\n        /* \"#utility.yul\":2694:2756   */\n      or\n        /* \"#utility.yul\":2691:2779   */\n      iszero\n      tag_192\n      jumpi\n        /* \"#utility.yul\":2759:2777   */\n      tag_193\n      tag_121\n      jump\t// in\n    tag_193:\n        /* \"#utility.yul\":2691:2779   */\n    tag_192:\n        /* \"#utility.yul\":2799:2809   */\n      dup1\n        /* \"#utility.yul\":2795:2797   */\n      0x40\n        /* \"#utility.yul\":2788:2810   */\n      mstore\n        /* \"#utility.yul\":2578:2816   */\n      pop\n        /* \"#utility.yul\":2535:2816   */\n      pop\n      pop\n      jump\t// out\n        /* \"#utility.yul\":2822:2951   */\n    tag_123:\n        /* \"#utility.yul\":2856:2862   */\n      0x00\n        /* \"#utility.yul\":2883:2903   */\n      tag_195\n      tag_116\n      jump\t// in\n    tag_195:\n        /* \"#utility.yul\":2873:2903   */\n      swap1\n      pop\n        /* \"#utility.yul\":2912:2945   */\n      tag_196\n        /* \"#utility.yul\":2940:2944   */\n      dup3\n        /* \"#utility.yul\":2932:2938   */\n      dup3\n        /* \"#utility.yul\":2912:2945   */\n      tag_122\n      jump\t// in\n    tag_196:\n        /* \"#utility.yul\":2822:2951   */\n      swap2\n      swap1\n      pop\n      jump\t// out\n        /* \"#utility.yul\":2957:3265   */\n    tag_124:\n        /* \"#utility.yul\":3019:3023   */\n      0x00\n        /* \"#utility.yul\":3109:3127   */\n      0xffffffffffffffff\n        /* \"#utility.yul\":3101:3107   */\n      dup3\n        /* \"#utility.yul\":3098:3128   */\n      gt\n        /* \"#utility.yul\":3095:3151   */\n      iszero\n      tag_198\n      jumpi\n        /* \"#utility.yul\":3131:3149   */\n      tag_199\n      tag_121\n      jump\t// in\n    tag_199:\n        /* \"#utility.yul\":3095:3151   */\n    tag_198:\n        /* \"#utility.yul\":3169:3198   */\n      tag_200\n        /* \"#utility.yul\":3191:3197   */\n      dup3\n        /* \"#utility.yul\":3169:3198   */\n      tag_112\n      jump\t// in\n    tag_200:\n        /* \"#utility.yul\":3161:3198   */\n      swap1\n      pop\n        /* \"#utility.yul\":3253:3257   */\n      0x20\n        /* \"#utility.yul\":3247:3251   */\n      dup2\n        /* \"#utility.yul\":3243:3258   */\n      add\n        /* \"#utility.yul\":3235:3258   */\n      swap1\n      pop\n        /* \"#utility.yul\":2957:3265   */\n      swap2\n      swap1\n      pop\n      jump\t// out\n        /* \"#utility.yul\":3271:3417   */\n    tag_125:\n        /* \"#utility.yul\":3368:3374   */\n      dup3\n        /* \"#utility.yul\":3363:3366   */\n      dup2\n        /* \"#utility.yul\":3358:3361   */\n      dup4\n        /* \"#utility.yul\":3345:3375   */\n      calldatacopy\n        /* \"#utility.yul\":3409:3410   */\n      0x00\n        /* \"#utility.yul\":3400:3406   */\n      dup4\n        /* \"#utility.yul\":3395:3398   */\n      dup4\n        /* \"#utility.yul\":3391:3407   */\n      add\n        /* \"#utility.yul\":3384:3411   */\n      mstore\n        /* \"#utility.yul\":3271:3417   */\n      pop\n      pop\n      pop\n      jump\t// out\n        /* \"#utility.yul\":3423:3848   */\n    tag_126:\n        /* \"#utility.yul\":3501:3506   */\n      0x00\n        /* \"#utility.yul\":3526:3592   */\n      tag_203\n        /* \"#utility.yul\":3542:3591   */\n      tag_204\n        /* \"#utility.yul\":3584:3590   */\n      dup5\n        /* \"#utility.yul\":3542:3591   */\n      tag_124\n      jump\t// in\n    tag_204:\n        /* \"#utility.yul\":3526:3592   */\n      tag_123\n      jump\t// in\n    tag_203:\n        /* \"#utility.yul\":3517:3592   */\n      swap1\n      pop\n        /* \"#utility.yul\":3615:3621   */\n      dup3\n        /* \"#utility.yul\":3608:3613   */\n      dup2\n        /* \"#utility.yul\":3601:3622   */\n      mstore\n        /* \"#utility.yul\":3653:3657   */\n      0x20\n        /* \"#utility.yul\":3646:3651   */\n      dup2\n        /* \"#utility.yul\":3642:3658   */\n      add\n        /* \"#utility.yul\":3691:3694   */\n      dup5\n        /* \"#utility.yul\":3682:3688   */\n      dup5\n        /* \"#utility.yul\":3677:3680   */\n      dup5\n        /* \"#utility.yul\":3673:3689   */\n      add\n        /* \"#utility.yul\":3670:3695   */\n      gt\n        /* \"#utility.yul\":3667:3779   */\n      iszero\n      tag_205\n      jumpi\n        /* \"#utility.yul\":3698:3777   */\n      tag_206\n      tag_120\n      jump\t// in\n    tag_206:\n        /* \"#utility.yul\":3667:3779   */\n    tag_205:\n        /* \"#utility.yul\":3788:3842   */\n      tag_207\n        /* \"#utility.yul\":3835:3841   */\n      dup5\n        /* \"#utility.yul\":3830:3833   */\n      dup3\n        /* \"#utility.yul\":3825:3828   */\n      dup6\n        /* \"#utility.yul\":3788:3842   */\n      tag_125\n      jump\t// in\n    tag_207:\n        /* \"#utility.yul\":3507:3848   */\n      pop\n        /* \"#utility.yul\":3423:3848   */\n      swap4\n      swap3\n      pop\n      pop\n      pop\n      jump\t// out\n        /* \"#utility.yul\":3868:4208   */\n    tag_127:\n        /* \"#utility.yul\":3924:3929   */\n      0x00\n        /* \"#utility.yul\":3973:3976   */\n      dup3\n        /* \"#utility.yul\":3966:3970   */\n      0x1f\n        /* \"#utility.yul\":3958:3964   */\n      dup4\n        /* \"#utility.yul\":3954:3971   */\n      add\n        /* \"#utility.yul\":3950:3977   */\n      slt\n        /* \"#utility.yul\":3940:4062   */\n      tag_209\n      jumpi\n        /* \"#utility.yul\":3981:4060   */\n      tag_210\n      tag_119\n      jump\t// in\n    tag_210:\n        /* \"#utility.yul\":3940:4062   */\n    tag_209:\n        /* \"#utility.yul\":4098:4104   */\n      dup2\n        /* \"#utility.yul\":4085:4105   */\n      calldataload\n        /* \"#utility.yul\":4123:4202   */\n      tag_211\n        /* \"#utility.yul\":4198:4201   */\n      dup5\n        /* \"#utility.yul\":4190:4196   */\n      dup3\n        /* \"#utility.yul\":4183:4187   */\n      0x20\n        /* \"#utility.yul\":4175:4181   */\n      dup7\n        /* \"#utility.yul\":4171:4188   */\n      add\n        /* \"#utility.yul\":4123:4202   */\n      tag_126\n      jump\t// in\n    tag_211:\n        /* \"#utility.yul\":4114:4202   */\n      swap2\n      pop\n        /* \"#utility.yul\":3930:4208   */\n      pop\n        /* \"#utility.yul\":3868:4208   */\n      swap3\n      swap2\n      pop\n      pop\n      jump\t// out\n        /* \"#utility.yul\":4214:5048   */\n    tag_25:\n        /* \"#utility.yul\":4302:4308   */\n      0x00\n        /* \"#utility.yul\":4310:4316   */\n      dup1\n        /* \"#utility.yul\":4359:4361   */\n      0x40\n        /* \"#utility.yul\":4347:4356   */\n      dup4\n        /* \"#utility.yul\":4338:4345   */\n      dup6\n        /* \"#utility.yul\":4334:4357   */\n      sub\n        /* \"#utility.yul\":4330:4362   */\n      slt\n        /* \"#utility.yul\":4327:4446   */\n      iszero\n      tag_213\n      jumpi\n        /* \"#utility.yul\":4365:4444   */\n      tag_214\n      tag_117\n      jump\t// in\n    tag_214:\n        /* \"#utility.yul\":4327:4446   */\n    tag_213:\n        /* \"#utility.yul\":4513:4514   */\n      0x00\n        /* \"#utility.yul\":4502:4511   */\n      dup4\n        /* \"#utility.yul\":4498:4515   */\n      add\n        /* \"#utility.yul\":4485:4516   */\n      calldataload\n        /* \"#utility.yul\":4543:4561   */\n      0xffffffffffffffff\n        /* \"#utility.yul\":4535:4541   */\n      dup2\n        /* \"#utility.yul\":4532:4562   */\n      gt\n        /* \"#utility.yul\":4529:4646   */\n      iszero\n      tag_215\n      jumpi\n        /* \"#utility.yul\":4565:4644   */\n      tag_216\n      tag_118\n      jump\t// in\n    tag_216:\n        /* \"#utility.yul\":4529:4646   */\n    tag_215:\n        /* \"#utility.yul\":4670:4733   */\n      tag_217\n        /* \"#utility.yul\":4725:4732   */\n      dup6\n        /* \"#utility.yul\":4716:4722   */\n      dup3\n        /* \"#utility.yul\":4705:4714   */\n      dup7\n        /* \"#utility.yul\":4701:4723   */\n      add\n        /* \"#utility.yul\":4670:4733   */\n      tag_127\n      jump\t// in\n    tag_217:\n        /* \"#utility.yul\":4660:4733   */\n      swap3\n      pop\n        /* \"#utility.yul\":4456:4743   */\n      pop\n        /* \"#utility.yul\":4810:4812   */\n      0x20\n        /* \"#utility.yul\":4799:4808   */\n      dup4\n        /* \"#utility.yul\":4795:4813   */\n      add\n        /* \"#utility.yul\":4782:4814   */\n      calldataload\n        /* \"#utility.yul\":4841:4859   */\n      0xffffffffffffffff\n        /* \"#utility.yul\":4833:4839   */\n      dup2\n        /* \"#utility.yul\":4830:4860   */\n      gt\n        /* \"#utility.yul\":4827:4944   */\n      iszero\n      tag_218\n      jumpi\n        /* \"#utility.yul\":4863:4942   */\n      tag_219\n      tag_118\n      jump\t// in\n    tag_219:\n        /* \"#utility.yul\":4827:4944   */\n    tag_218:\n        /* \"#utility.yul\":4968:5031   */\n      tag_220\n        /* \"#utility.yul\":5023:5030   */\n      dup6\n        /* \"#utility.yul\":5014:5020   */\n      dup3\n        /* \"#utility.yul\":5003:5012   */\n      dup7\n        /* \"#utility.yul\":4999:5021   */\n      add\n        /* \"#utility.yul\":4968:5031   */\n      tag_127\n      jump\t// in\n    tag_220:\n        /* \"#utility.yul\":4958:5031   */\n      swap2\n      pop\n        /* \"#utility.yul\":4753:5041   */\n      pop\n        /* \"#utility.yul\":4214:5048   */\n      swap3\n      pop\n      swap3\n      swap1\n      pop\n      jump\t// out\n        /* \"#utility.yul\":5054:5131   */\n    tag_128:\n        /* \"#utility.yul\":5091:5098   */\n      0x00\n        /* \"#utility.yul\":5120:5125   */\n      dup2\n        /* \"#utility.yul\":5109:5125   */\n      swap1\n      pop\n        /* \"#utility.yul\":5054:5131   */\n      swap2\n      swap1\n      pop\n      jump\t// out\n        /* \"#utility.yul\":5137:5255   */\n    tag_129:\n        /* \"#utility.yul\":5224:5248   */\n      tag_223\n        /* \"#utility.yul\":5242:5247   */\n      dup2\n        /* \"#utility.yul\":5224:5248   */\n      tag_128\n      jump\t// in\n    tag_223:\n        /* \"#utility.yul\":5219:5222   */\n      dup3\n        /* \"#utility.yul\":5212:5249   */\n      mstore\n        /* \"#utility.yul\":5137:5255   */\n      pop\n      pop\n      jump\t// out\n        /* \"#utility.yul\":5261:5483   */\n    tag_30:\n        /* \"#utility.yul\":5354:5358   */\n      0x00\n        /* \"#utility.yul\":5392:5394   */\n      0x20\n        /* \"#utility.yul\":5381:5390   */\n      dup3\n        /* \"#utility.yul\":5377:5395   */\n      add\n        /* \"#utility.yul\":5369:5395   */\n      swap1\n      pop\n        /* \"#utility.yul\":5405:5476   */\n      tag_225\n        /* \"#utility.yul\":5473:5474   */\n      0x00\n        /* \"#utility.yul\":5462:5471   */\n      dup4\n        /* \"#utility.yul\":5458:5475   */\n      add\n        /* \"#utility.yul\":5449:5455   */\n      dup5\n        /* \"#utility.yul\":5405:5476   */\n      tag_129\n      jump\t// in\n    tag_225:\n        /* \"#utility.yul\":5261:5483   */\n      swap3\n      swap2\n      pop\n      pop\n      jump\t// out\n        /* \"#utility.yul\":5489:5615   */\n    tag_130:\n        /* \"#utility.yul\":5526:5533   */\n      0x00\n        /* \"#utility.yul\":5566:5608   */\n      0xffffffffffffffffffffffffffffffffffffffff\n        /* \"#utility.yul\":5559:5564   */\n      dup3\n        /* \"#utility.yul\":5555:5609   */\n      and\n        /* \"#utility.yul\":5544:5609   */\n      swap1\n      pop\n        /* \"#utility.yul\":5489:5615   */\n      swap2\n      swap1\n      pop\n      jump\t// out\n        /* \"#utility.yul\":5621:5717   */\n    tag_131:\n        /* \"#utility.yul\":5658:5665   */\n      0x00\n        /* \"#utility.yul\":5687:5711   */\n      tag_228\n        /* \"#utility.yul\":5705:5710   */\n      dup3\n        /* \"#utility.yul\":5687:5711   */\n      tag_130\n      jump\t// in\n    tag_228:\n        /* \"#utility.yul\":5676:5711   */\n      swap1\n      pop\n        /* \"#utility.yul\":5621:5717   */\n      swap2\n      swap1\n      pop\n      jump\t// out\n        /* \"#utility.yul\":5723:5841   */\n    tag_132:\n        /* \"#utility.yul\":5810:5834   */\n      tag_230\n        /* \"#utility.yul\":5828:5833   */\n      dup2\n        /* \"#utility.yul\":5810:5834   */\n      tag_131\n      jump\t// in\n    tag_230:\n        /* \"#utility.yul\":5805:5808   */\n      dup3\n        /* \"#utility.yul\":5798:5835   */\n      mstore\n        /* \"#utility.yul\":5723:5841   */\n      pop\n      pop\n      jump\t// out\n        /* \"#utility.yul\":5847:6069   */\n    tag_43:\n        /* \"#utility.yul\":5940:5944   */\n      0x00\n        /* \"#utility.yul\":5978:5980   */\n      0x20\n        /* \"#utility.yul\":5967:5976   */\n      dup3\n        /* \"#utility.yul\":5963:5981   */\n      add\n        /* \"#utility.yul\":5955:5981   */\n      swap1\n      pop\n        /* \"#utility.yul\":5991:6062   */\n      tag_232\n        /* \"#utility.yul\":6059:6060   */\n      0x00\n        /* \"#utility.yul\":6048:6057   */\n      dup4\n        /* \"#utility.yul\":6044:6061   */\n      add\n        /* \"#utility.yul\":6035:6041   */\n      dup5\n        /* \"#utility.yul\":5991:6062   */\n      tag_132\n      jump\t// in\n    tag_232:\n        /* \"#utility.yul\":5847:6069   */\n      swap3\n      swap2\n      pop\n      pop\n      jump\t// out\n        /* \"#utility.yul\":6075:6197   */\n    tag_133:\n        /* \"#utility.yul\":6148:6172   */\n      tag_234\n        /* \"#utility.yul\":6166:6171   */\n      dup2\n        /* \"#utility.yul\":6148:6172   */\n      tag_128\n      jump\t// in\n    tag_234:\n        /* \"#utility.yul\":6141:6146   */\n      dup2\n        /* \"#utility.yul\":6138:6173   */\n      eq\n        /* \"#utility.yul\":6128:6191   */\n      tag_235\n      jumpi\n        /* \"#utility.yul\":6187:6188   */\n      0x00\n        /* \"#utility.yul\":6184:6185   */\n      dup1\n        /* \"#utility.yul\":6177:6189   */\n      revert\n        /* \"#utility.yul\":6128:6191   */\n    tag_235:\n        /* \"#utility.yul\":6075:6197   */\n      pop\n      jump\t// out\n        /* \"#utility.yul\":6203:6342   */\n    tag_134:\n        /* \"#utility.yul\":6249:6254   */\n      0x00\n        /* \"#utility.yul\":6287:6293   */\n      dup2\n        /* \"#utility.yul\":6274:6294   */\n      calldataload\n        /* \"#utility.yul\":6265:6294   */\n      swap1\n      pop\n        /* \"#utility.yul\":6303:6336   */\n      tag_237\n        /* \"#utility.yul\":6330:6335   */\n      dup2\n        /* \"#utility.yul\":6303:6336   */\n      tag_133\n      jump\t// in\n    tag_237:\n        /* \"#utility.yul\":6203:6342   */\n      swap3\n      swap2\n      pop\n      pop\n      jump\t// out\n        /* \"#utility.yul\":6348:6677   */\n    tag_46:\n        /* \"#utility.yul\":6407:6413   */\n      0x00\n        /* \"#utility.yul\":6456:6458   */\n      0x20\n        /* \"#utility.yul\":6444:6453   */\n      dup3\n        /* \"#utility.yul\":6435:6442   */\n      dup5\n        /* \"#utility.yul\":6431:6454   */\n      sub\n        /* \"#utility.yul\":6427:6459   */\n      slt\n        /* \"#utility.yul\":6424:6543   */\n      iszero\n      tag_239\n      jumpi\n        /* \"#utility.yul\":6462:6541   */\n      tag_240\n      tag_117\n      jump\t// in\n    tag_240:\n        /* \"#utility.yul\":6424:6543   */\n    tag_239:\n        /* \"#utility.yul\":6582:6583   */\n      0x00\n        /* \"#utility.yul\":6607:6660   */\n      tag_241\n        /* \"#utility.yul\":6652:6659   */\n      dup5\n        /* \"#utility.yul\":6643:6649   */\n      dup3\n        /* \"#utility.yul\":6632:6641   */\n      dup6\n        /* \"#utility.yul\":6628:6650   */\n      add\n        /* \"#utility.yul\":6607:6660   */\n      tag_134\n      jump\t// in\n    tag_241:\n        /* \"#utility.yul\":6597:6660   */\n      swap2\n      pop\n        /* \"#utility.yul\":6553:6670   */\n      pop\n        /* \"#utility.yul\":6348:6677   */\n      swap3\n      swap2\n      pop\n      pop\n      jump\t// out\n        /* \"#utility.yul\":6683:7307   */\n    tag_49:\n        /* \"#utility.yul\":6872:6876   */\n      0x00\n        /* \"#utility.yul\":6910:6912   */\n      0x60\n        /* \"#utility.yul\":6899:6908   */\n      dup3\n        /* \"#utility.yul\":6895:6913   */\n      add\n        /* \"#utility.yul\":6887:6913   */\n      swap1\n      pop\n        /* \"#utility.yul\":6923:6994   */\n      tag_243\n        /* \"#utility.yul\":6991:6992   */\n      0x00\n        /* \"#utility.yul\":6980:6989   */\n      dup4\n        /* \"#utility.yul\":6976:6993   */\n      add\n        /* \"#utility.yul\":6967:6973   */\n      dup7\n        /* \"#utility.yul\":6923:6994   */\n      tag_129\n      jump\t// in\n    tag_243:\n        /* \"#utility.yul\":7041:7050   */\n      dup2\n        /* \"#utility.yul\":7035:7039   */\n      dup2\n        /* \"#utility.yul\":7031:7051   */\n      sub\n        /* \"#utility.yul\":7026:7028   */\n      0x20\n        /* \"#utility.yul\":7015:7024   */\n      dup4\n        /* \"#utility.yul\":7011:7029   */\n      add\n        /* \"#utility.yul\":7004:7052   */\n      mstore\n        /* \"#utility.yul\":7069:7147   */\n      tag_244\n        /* \"#utility.yul\":7142:7146   */\n      dup2\n        /* \"#utility.yul\":7133:7139   */\n      dup6\n        /* \"#utility.yul\":7069:7147   */\n      tag_113\n      jump\t// in\n    tag_244:\n        /* \"#utility.yul\":7061:7147   */\n      swap1\n      pop\n        /* \"#utility.yul\":7194:7203   */\n      dup2\n        /* \"#utility.yul\":7188:7192   */\n      dup2\n        /* \"#utility.yul\":7184:7204   */\n      sub\n        /* \"#utility.yul\":7179:7181   */\n      0x40\n        /* \"#utility.yul\":7168:7177   */\n      dup4\n        /* \"#utility.yul\":7164:7182   */\n      add\n        /* \"#utility.yul\":7157:7205   */\n      mstore\n        /* \"#utility.yul\":7222:7300   */\n      tag_245\n        /* \"#utility.yul\":7295:7299   */\n      dup2\n        /* \"#utility.yul\":7286:7292   */\n      dup5\n        /* \"#utility.yul\":7222:7300   */\n      tag_113\n      jump\t// in\n    tag_245:\n        /* \"#utility.yul\":7214:7300   */\n      swap1\n      pop\n        /* \"#utility.yul\":6683:7307   */\n      swap5\n      swap4\n      pop\n      pop\n      pop\n      pop\n      jump\t// out\n        /* \"#utility.yul\":7313:7435   */\n    tag_135:\n        /* \"#utility.yul\":7386:7410   */\n      tag_247\n        /* \"#utility.yul\":7404:7409   */\n      dup2\n        /* \"#utility.yul\":7386:7410   */\n      tag_131\n      jump\t// in\n    tag_247:\n        /* \"#utility.yul\":7379:7384   */\n      dup2\n        /* \"#utility.yul\":7376:7411   */\n      eq\n        /* \"#utility.yul\":7366:7429   */\n      tag_248\n      jumpi\n        /* \"#utility.yul\":7425:7426   */\n      0x00\n        /* \"#utility.yul\":7422:7423   */\n      dup1\n        /* \"#utility.yul\":7415:7427   */\n      revert\n        /* \"#utility.yul\":7366:7429   */\n    tag_248:\n        /* \"#utility.yul\":7313:7435   */\n      pop\n      jump\t// out\n        /* \"#utility.yul\":7441:7580   */\n    tag_136:\n        /* \"#utility.yul\":7487:7492   */\n      0x00\n        /* \"#utility.yul\":7525:7531   */\n      dup2\n        /* \"#utility.yul\":7512:7532   */\n      calldataload\n        /* \"#utility.yul\":7503:7532   */\n      swap1\n      pop\n        /* \"#utility.yul\":7541:7574   */\n      tag_250\n        /* \"#utility.yul\":7568:7573   */\n      dup2\n        /* \"#utility.yul\":7541:7574   */\n      tag_135\n      jump\t// in\n    tag_250:\n        /* \"#utility.yul\":7441:7580   */\n      swap3\n      swap2\n      pop\n      pop\n      jump\t// out\n        /* \"#utility.yul\":7586:7915   */\n    tag_52:\n        /* \"#utility.yul\":7645:7651   */\n      0x00\n        /* \"#utility.yul\":7694:7696   */\n      0x20\n        /* \"#utility.yul\":7682:7691   */\n      dup3\n        /* \"#utility.yul\":7673:7680   */\n      dup5\n        /* \"#utility.yul\":7669:7692   */\n      sub\n        /* \"#utility.yul\":7665:7697   */\n      slt\n        /* \"#utility.yul\":7662:7781   */\n      iszero\n      tag_252\n      jumpi\n        /* \"#utility.yul\":7700:7779   */\n      tag_253\n      tag_117\n      jump\t// in\n    tag_253:\n        /* \"#utility.yul\":7662:7781   */\n    tag_252:\n        /* \"#utility.yul\":7820:7821   */\n      0x00\n        /* \"#utility.yul\":7845:7898   */\n      tag_254\n        /* \"#utility.yul\":7890:7897   */\n      dup5\n        /* \"#utility.yul\":7881:7887   */\n      dup3\n        /* \"#utility.yul\":7870:7879   */\n      dup6\n        /* \"#utility.yul\":7866:7888   */\n      add\n        /* \"#utility.yul\":7845:7898   */\n      tag_136\n      jump\t// in\n    tag_254:\n        /* \"#utility.yul\":7835:7898   */\n      swap2\n      pop\n        /* \"#utility.yul\":7791:7908   */\n      pop\n        /* \"#utility.yul\":7586:7915   */\n      swap3\n      swap2\n      pop\n      pop\n      jump\t// out\n        /* \"#utility.yul\":7921:8101   */\n    tag_61:\n        /* \"#utility.yul\":7969:8046   */\n      0x4e487b7100000000000000000000000000000000000000000000000000000000\n        /* \"#utility.yul\":7966:7967   */\n      0x00\n        /* \"#utility.yul\":7959:8047   */\n      mstore\n        /* \"#utility.yul\":8066:8070   */\n      0x21\n        /* \"#utility.yul\":8063:8064   */\n      0x04\n        /* \"#utility.yul\":8056:8071   */\n      mstore\n        /* \"#utility.yul\":8090:8094   */\n      0x24\n        /* \"#utility.yul\":8087:8088   */\n      0x00\n        /* \"#utility.yul\":8080:8095   */\n      revert\n        /* \"#utility.yul\":8107:8220   */\n    tag_137:\n        /* \"#utility.yul\":8188:8189   */\n      0x05\n        /* \"#utility.yul\":8181:8186   */\n      dup2\n        /* \"#utility.yul\":8178:8190   */\n      lt\n        /* \"#utility.yul\":8168:8214   */\n      tag_257\n      jumpi\n        /* \"#utility.yul\":8194:8212   */\n      tag_258\n      tag_61\n      jump\t// in\n    tag_258:\n        /* \"#utility.yul\":8168:8214   */\n    tag_257:\n        /* \"#utility.yul\":8107:8220   */\n      pop\n      jump\t// out\n        /* \"#utility.yul\":8226:8353   */\n    tag_138:\n        /* \"#utility.yul\":8271:8278   */\n      0x00\n        /* \"#utility.yul\":8300:8305   */\n      dup2\n        /* \"#utility.yul\":8289:8305   */\n      swap1\n      pop\n        /* \"#utility.yul\":8306:8347   */\n      tag_260\n        /* \"#utility.yul\":8341:8346   */\n      dup3\n        /* \"#utility.yul\":8306:8347   */\n      tag_137\n      jump\t// in\n    tag_260:\n        /* \"#utility.yul\":8226:8353   */\n      swap2\n      swap1\n      pop\n      jump\t// out\n        /* \"#utility.yul\":8359:8486   */\n    tag_139:\n        /* \"#utility.yul\":8415:8424   */\n      0x00\n        /* \"#utility.yul\":8448:8480   */\n      tag_262\n        /* \"#utility.yul\":8474:8479   */\n      dup3\n        /* \"#utility.yul\":8448:8480   */\n      tag_138\n      jump\t// in\n    tag_262:\n        /* \"#utility.yul\":8435:8480   */\n      swap1\n      pop\n        /* \"#utility.yul\":8359:8486   */\n      swap2\n      swap1\n      pop\n      jump\t// out\n        /* \"#utility.yul\":8492:8635   */\n    tag_140:\n        /* \"#utility.yul\":8585:8628   */\n      tag_264\n        /* \"#utility.yul\":8622:8627   */\n      dup2\n        /* \"#utility.yul\":8585:8628   */\n      tag_139\n      jump\t// in\n    tag_264:\n        /* \"#utility.yul\":8580:8583   */\n      dup3\n        /* \"#utility.yul\":8573:8629   */\n      mstore\n        /* \"#utility.yul\":8492:8635   */\n      pop\n      pop\n      jump\t// out\n        /* \"#utility.yul\":8641:8875   */\n    tag_57:\n        /* \"#utility.yul\":8740:8744   */\n      0x00\n        /* \"#utility.yul\":8778:8780   */\n      0x20\n        /* \"#utility.yul\":8767:8776   */\n      dup3\n        /* \"#utility.yul\":8763:8781   */\n      add\n        /* \"#utility.yul\":8755:8781   */\n      swap1\n      pop\n        /* \"#utility.yul\":8791:8868   */\n      tag_266\n        /* \"#utility.yul\":8865:8866   */\n      0x00\n        /* \"#utility.yul\":8854:8863   */\n      dup4\n        /* \"#utility.yul\":8850:8867   */\n      add\n        /* \"#utility.yul\":8841:8847   */\n      dup5\n        /* \"#utility.yul\":8791:8868   */\n      tag_140\n      jump\t// in\n    tag_266:\n        /* \"#utility.yul\":8641:8875   */\n      swap3\n      swap2\n      pop\n      pop\n      jump\t// out\n        /* \"#utility.yul\":8881:9052   */\n    tag_141:\n        /* \"#utility.yul\":9021:9044   */\n      0x54494d45204e4556455220524541434820424f53530000000000000000000000\n        /* \"#utility.yul\":9017:9018   */\n      0x00\n        /* \"#utility.yul\":9009:9015   */\n      dup3\n        /* \"#utility.yul\":9005:9019   */\n      add\n        /* \"#utility.yul\":8998:9045   */\n      mstore\n        /* \"#utility.yul\":8881:9052   */\n      pop\n      jump\t// out\n        /* \"#utility.yul\":9058:9424   */\n    tag_142:\n        /* \"#utility.yul\":9200:9203   */\n      0x00\n        /* \"#utility.yul\":9221:9288   */\n      tag_269\n        /* \"#utility.yul\":9285:9287   */\n      0x15\n        /* \"#utility.yul\":9280:9283   */\n      dup4\n        /* \"#utility.yul\":9221:9288   */\n      tag_110\n      jump\t// in\n    tag_269:\n        /* \"#utility.yul\":9214:9288   */\n      swap2\n      pop\n        /* \"#utility.yul\":9297:9390   */\n      tag_270\n        /* \"#utility.yul\":9386:9389   */\n      dup3\n        /* \"#utility.yul\":9297:9390   */\n      tag_141\n      jump\t// in\n    tag_270:\n        /* \"#utility.yul\":9415:9417   */\n      0x20\n        /* \"#utility.yul\":9410:9413   */\n      dup3\n        /* \"#utility.yul\":9406:9418   */\n      add\n        /* \"#utility.yul\":9399:9418   */\n      swap1\n      pop\n        /* \"#utility.yul\":9058:9424   */\n      swap2\n      swap1\n      pop\n      jump\t// out\n        /* \"#utility.yul\":9430:9849   */\n    tag_70:\n        /* \"#utility.yul\":9596:9600   */\n      0x00\n        /* \"#utility.yul\":9634:9636   */\n      0x20\n        /* \"#utility.yul\":9623:9632   */\n      dup3\n        /* \"#utility.yul\":9619:9637   */\n      add\n        /* \"#utility.yul\":9611:9637   */\n      swap1\n      pop\n        /* \"#utility.yul\":9683:9692   */\n      dup2\n        /* \"#utility.yul\":9677:9681   */\n      dup2\n        /* \"#utility.yul\":9673:9693   */\n      sub\n        /* \"#utility.yul\":9669:9670   */\n      0x00\n        /* \"#utility.yul\":9658:9667   */\n      dup4\n        /* \"#utility.yul\":9654:9671   */\n      add\n        /* \"#utility.yul\":9647:9694   */\n      mstore\n        /* \"#utility.yul\":9711:9842   */\n      tag_272\n        /* \"#utility.yul\":9837:9841   */\n      dup2\n        /* \"#utility.yul\":9711:9842   */\n      tag_142\n      jump\t// in\n    tag_272:\n        /* \"#utility.yul\":9703:9842   */\n      swap1\n      pop\n        /* \"#utility.yul\":9430:9849   */\n      swap2\n      swap1\n      pop\n      jump\t// out\n        /* \"#utility.yul\":9855:10034   */\n    tag_143:\n        /* \"#utility.yul\":9995:10026   */\n      0x4f6e6c7920746865206f776e65722063616e206164642070656f706c65000000\n        /* \"#utility.yul\":9991:9992   */\n      0x00\n        /* \"#utility.yul\":9983:9989   */\n      dup3\n        /* \"#utility.yul\":9979:9993   */\n      add\n        /* \"#utility.yul\":9972:10027   */\n      mstore\n        /* \"#utility.yul\":9855:10034   */\n      pop\n      jump\t// out\n        /* \"#utility.yul\":10040:10406   */\n    tag_144:\n        /* \"#utility.yul\":10182:10185   */\n      0x00\n        /* \"#utility.yul\":10203:10270   */\n      tag_275\n        /* \"#utility.yul\":10267:10269   */\n      0x1d\n        /* \"#utility.yul\":10262:10265   */\n      dup4\n        /* \"#utility.yul\":10203:10270   */\n      tag_110\n      jump\t// in\n    tag_275:\n        /* \"#utility.yul\":10196:10270   */\n      swap2\n      pop\n        /* \"#utility.yul\":10279:10372   */\n      tag_276\n        /* \"#utility.yul\":10368:10371   */\n      dup3\n        /* \"#utility.yul\":10279:10372   */\n      tag_143\n      jump\t// in\n    tag_276:\n        /* \"#utility.yul\":10397:10399   */\n      0x20\n        /* \"#utility.yul\":10392:10395   */\n      dup3\n        /* \"#utility.yul\":10388:10400   */\n      add\n        /* \"#utility.yul\":10381:10400   */\n      swap1\n      pop\n        /* \"#utility.yul\":10040:10406   */\n      swap2\n      swap1\n      pop\n      jump\t// out\n        /* \"#utility.yul\":10412:10831   */\n    tag_74:\n        /* \"#utility.yul\":10578:10582   */\n      0x00\n        /* \"#utility.yul\":10616:10618   */\n      0x20\n        /* \"#utility.yul\":10605:10614   */\n      dup3\n        /* \"#utility.yul\":10601:10619   */\n      add\n        /* \"#utility.yul\":10593:10619   */\n      swap1\n      pop\n        /* \"#utility.yul\":10665:10674   */\n      dup2\n        /* \"#utility.yul\":10659:10663   */\n      dup2\n        /* \"#utility.yul\":10655:10675   */\n      sub\n        /* \"#utility.yul\":10651:10652   */\n      0x00\n        /* \"#utility.yul\":10640:10649   */\n      dup4\n        /* \"#utility.yul\":10636:10653   */\n      add\n        /* \"#utility.yul\":10629:10676   */\n      mstore\n        /* \"#utility.yul\":10693:10824   */\n      tag_278\n        /* \"#utility.yul\":10819:10823   */\n      dup2\n        /* \"#utility.yul\":10693:10824   */\n      tag_144\n      jump\t// in\n    tag_278:\n        /* \"#utility.yul\":10685:10824   */\n      swap1\n      pop\n        /* \"#utility.yul\":10412:10831   */\n      swap2\n      swap1\n      pop\n      jump\t// out\n        /* \"#utility.yul\":10837:11017   */\n    tag_145:\n        /* \"#utility.yul\":10885:10962   */\n      0x4e487b7100000000000000000000000000000000000000000000000000000000\n        /* \"#utility.yul\":10882:10883   */\n      0x00\n        /* \"#utility.yul\":10875:10963   */\n      mstore\n        /* \"#utility.yul\":10982:10986   */\n      0x22\n        /* \"#utility.yul\":10979:10980   */\n      0x04\n        /* \"#utility.yul\":10972:10987   */\n      mstore\n        /* \"#utility.yul\":11006:11010   */\n      0x24\n        /* \"#utility.yul\":11003:11004   */\n      0x00\n        /* \"#utility.yul\":10996:11011   */\n      revert\n        /* \"#utility.yul\":11023:11343   */\n    tag_82:\n        /* \"#utility.yul\":11067:11073   */\n      0x00\n        /* \"#utility.yul\":11104:11105   */\n      0x02\n        /* \"#utility.yul\":11098:11102   */\n      dup3\n        /* \"#utility.yul\":11094:11106   */\n      div\n        /* \"#utility.yul\":11084:11106   */\n      swap1\n      pop\n        /* \"#utility.yul\":11151:11152   */\n      0x01\n        /* \"#utility.yul\":11145:11149   */\n      dup3\n        /* \"#utility.yul\":11141:11153   */\n      and\n        /* \"#utility.yul\":11172:11190   */\n      dup1\n        /* \"#utility.yul\":11162:11243   */\n      tag_281\n      jumpi\n        /* \"#utility.yul\":11228:11232   */\n      0x7f\n        /* \"#utility.yul\":11220:11226   */\n      dup3\n        /* \"#utility.yul\":11216:11233   */\n      and\n        /* \"#utility.yul\":11206:11233   */\n      swap2\n      pop\n        /* \"#utility.yul\":11162:11243   */\n    tag_281:\n        /* \"#utility.yul\":11290:11292   */\n      0x20\n        /* \"#utility.yul\":11282:11288   */\n      dup3\n        /* \"#utility.yul\":11279:11293   */\n      lt\n        /* \"#utility.yul\":11259:11277   */\n      dup2\n        /* \"#utility.yul\":11256:11294   */\n      sub\n        /* \"#utility.yul\":11253:11337   */\n      tag_282\n      jumpi\n        /* \"#utility.yul\":11309:11327   */\n      tag_283\n      tag_145\n      jump\t// in\n    tag_283:\n        /* \"#utility.yul\":11253:11337   */\n    tag_282:\n        /* \"#utility.yul\":11074:11343   */\n      pop\n        /* \"#utility.yul\":11023:11343   */\n      swap2\n      swap1\n      pop\n      jump\t// out\n        /* \"#utility.yul\":11349:11490   */\n    tag_146:\n        /* \"#utility.yul\":11398:11402   */\n      0x00\n        /* \"#utility.yul\":11421:11424   */\n      dup2\n        /* \"#utility.yul\":11413:11424   */\n      swap1\n      pop\n        /* \"#utility.yul\":11444:11447   */\n      dup2\n        /* \"#utility.yul\":11441:11442   */\n      0x00\n        /* \"#utility.yul\":11434:11448   */\n      mstore\n        /* \"#utility.yul\":11478:11482   */\n      0x20\n        /* \"#utility.yul\":11475:11476   */\n      0x00\n        /* \"#utility.yul\":11465:11483   */\n      keccak256\n        /* \"#utility.yul\":11457:11483   */\n      swap1\n      pop\n        /* \"#utility.yul\":11349:11490   */\n      swap2\n      swap1\n      pop\n      jump\t// out\n        /* \"#utility.yul\":11496:11589   */\n    tag_147:\n        /* \"#utility.yul\":11533:11539   */\n      0x00\n        /* \"#utility.yul\":11580:11582   */\n      0x20\n        /* \"#utility.yul\":11575:11577   */\n      0x1f\n        /* \"#utility.yul\":11568:11573   */\n      dup4\n        /* \"#utility.yul\":11564:11578   */\n      add\n        /* \"#utility.yul\":11560:11583   */\n      div\n        /* \"#utility.yul\":11550:11583   */\n      swap1\n      pop\n        /* \"#utility.yul\":11496:11589   */\n      swap2\n      swap1\n      pop\n      jump\t// out\n        /* \"#utility.yul\":11595:11702   */\n    tag_148:\n        /* \"#utility.yul\":11639:11647   */\n      0x00\n        /* \"#utility.yul\":11689:11694   */\n      dup3\n        /* \"#utility.yul\":11683:11687   */\n      dup3\n        /* \"#utility.yul\":11679:11695   */\n      shl\n        /* \"#utility.yul\":11658:11695   */\n      swap1\n      pop\n        /* \"#utility.yul\":11595:11702   */\n      swap3\n      swap2\n      pop\n      pop\n      jump\t// out\n        /* \"#utility.yul\":11708:12101   */\n    tag_149:\n        /* \"#utility.yul\":11777:11783   */\n      0x00\n        /* \"#utility.yul\":11827:11828   */\n      0x08\n        /* \"#utility.yul\":11815:11825   */\n      dup4\n        /* \"#utility.yul\":11811:11829   */\n      mul\n        /* \"#utility.yul\":11850:11947   */\n      tag_288\n        /* \"#utility.yul\":11880:11946   */\n      0xffffffffffffffffffffffffffffffffffffffffffffffffffffffffffffffff\n        /* \"#utility.yul\":11869:11878   */\n      dup3\n        /* \"#utility.yul\":11850:11947   */\n      tag_148\n      jump\t// in\n    tag_288:\n        /* \"#utility.yul\":11968:12007   */\n      tag_289\n        /* \"#utility.yul\":11998:12006   */\n      dup7\n        /* \"#utility.yul\":11987:11996   */\n      dup4\n        /* \"#utility.yul\":11968:12007   */\n      tag_148\n      jump\t// in\n    tag_289:\n        /* \"#utility.yul\":11956:12007   */\n      swap6\n      pop\n        /* \"#utility.yul\":12040:12044   */\n      dup1\n        /* \"#utility.yul\":12036:12045   */\n      not\n        /* \"#utility.yul\":12029:12034   */\n      dup5\n        /* \"#utility.yul\":12025:12046   */\n      and\n        /* \"#utility.yul\":12016:12046   */\n      swap4\n      pop\n        /* \"#utility.yul\":12089:12093   */\n      dup1\n        /* \"#utility.yul\":12079:12087   */\n      dup7\n        /* \"#utility.yul\":12075:12094   */\n      and\n        /* \"#utility.yul\":12068:12073   */\n      dup5\n        /* \"#utility.yul\":12065:12095   */\n      or\n        /* \"#utility.yul\":12055:12095   */\n      swap3\n      pop\n        /* \"#utility.yul\":11784:12101   */\n      pop\n      pop\n        /* \"#utility.yul\":11708:12101   */\n      swap4\n      swap3\n      pop\n      pop\n      pop\n      jump\t// out\n        /* \"#utility.yul\":12107:12167   */\n    tag_150:\n        /* \"#utility.yul\":12135:12138   */\n      0x00\n        /* \"#utility.yul\":12156:12161   */\n      dup2\n        /* \"#utility.yul\":12149:12161   */\n      swap1\n      pop\n        /* \"#utility.yul\":12107:12167   */\n      swap2\n      swap1\n      pop\n      jump\t// out\n        /* \"#utility.yul\":12173:12315   */\n    tag_151:\n        /* \"#utility.yul\":12223:12232   */\n      0x00\n        /* \"#utility.yul\":12256:12309   */\n      tag_292\n        /* \"#utility.yul\":12274:12308   */\n      tag_293\n        /* \"#utility.yul\":12283:12307   */\n      tag_294\n        /* \"#utility.yul\":12301:12306   */\n      dup5\n        /* \"#utility.yul\":12283:12307   */\n      tag_128\n      jump\t// in\n    tag_294:\n        /* \"#utility.yul\":12274:12308   */\n      tag_150\n      jump\t// in\n    tag_293:\n        /* \"#utility.yul\":12256:12309   */\n      tag_128\n      jump\t// in\n    tag_292:\n        /* \"#utility.yul\":12243:12309   */\n      swap1\n      pop\n        /* \"#utility.yul\":12173:12315   */\n      swap2\n      swap1\n      pop\n      jump\t// out\n        /* \"#utility.yul\":12321:12396   */\n    tag_152:\n        /* \"#utility.yul\":12364:12367   */\n      0x00\n        /* \"#utility.yul\":12385:12390   */\n      dup2\n        /* \"#utility.yul\":12378:12390   */\n      swap1\n      pop\n        /* \"#utility.yul\":12321:12396   */\n      swap2\n      swap1\n      pop\n      jump\t// out\n        /* \"#utility.yul\":12402:12671   */\n    tag_153:\n        /* \"#utility.yul\":12512:12551   */\n      tag_297\n        /* \"#utility.yul\":12543:12550   */\n      dup4\n        /* \"#utility.yul\":12512:12551   */\n      tag_151\n      jump\t// in\n    tag_297:\n        /* \"#utility.yul\":12573:12664   */\n      tag_298\n        /* \"#utility.yul\":12622:12663   */\n      tag_299\n        /* \"#utility.yul\":12646:12662   */\n      dup3\n        /* \"#utility.yul\":12622:12663   */\n      tag_152\n      jump\t// in\n    tag_299:\n        /* \"#utility.yul\":12614:12620   */\n      dup5\n        /* \"#utility.yul\":12607:12611   */\n      dup5\n        /* \"#utility.yul\":12601:12612   */\n      sload\n        /* \"#utility.yul\":12573:12664   */\n      tag_149\n      jump\t// in\n    tag_298:\n        /* \"#utility.yul\":12567:12571   */\n      dup3\n        /* \"#utility.yul\":12560:12665   */\n      sstore\n        /* \"#utility.yul\":12478:12671   */\n      pop\n        /* \"#utility.yul\":12402:12671   */\n      pop\n      pop\n      pop\n      jump\t// out\n        /* \"#utility.yul\":12677:12750   */\n    tag_154:\n        /* \"#utility.yul\":12722:12725   */\n      0x00\n        /* \"#utility.yul\":12677:12750   */\n      swap1\n      jump\t// out\n        /* \"#utility.yul\":12756:12945   */\n    tag_155:\n        /* \"#utility.yul\":12833:12865   */\n      tag_302\n      tag_154\n      jump\t// in\n    tag_302:\n        /* \"#utility.yul\":12874:12939   */\n      tag_303\n        /* \"#utility.yul\":12932:12938   */\n      dup2\n        /* \"#utility.yul\":12924:12930   */\n      dup5\n        /* \"#utility.yul\":12918:12922   */\n      dup5\n        /* \"#utility.yul\":12874:12939   */\n      tag_153\n      jump\t// in\n    tag_303:\n        /* \"#utility.yul\":12809:12945   */\n      pop\n        /* \"#utility.yul\":12756:12945   */\n      pop\n      pop\n      jump\t// out\n        /* \"#utility.yul\":12951:13137   */\n    tag_156:\n        /* \"#utility.yul\":13011:13131   */\n    tag_305:\n        /* \"#utility.yul\":13028:13031   */\n      dup2\n        /* \"#utility.yul\":13021:13026   */\n      dup2\n        /* \"#utility.yul\":13018:13032   */\n      lt\n        /* \"#utility.yul\":13011:13131   */\n      iszero\n      tag_307\n      jumpi\n        /* \"#utility.yul\":13082:13121   */\n      tag_308\n        /* \"#utility.yul\":13119:13120   */\n      0x00\n        /* \"#utility.yul\":13112:13117   */\n      dup3\n        /* \"#utility.yul\":13082:13121   */\n      tag_155\n      jump\t// in\n    tag_308:\n        /* \"#utility.yul\":13055:13056   */\n      0x01\n        /* \"#utility.yul\":13048:13053   */\n      dup2\n        /* \"#utility.yul\":13044:13057   */\n      add\n        /* \"#utility.yul\":13035:13057   */\n      swap1\n      pop\n        /* \"#utility.yul\":13011:13131   */\n      jump(tag_305)\n    tag_307:\n        /* \"#utility.yul\":12951:13137   */\n      pop\n      pop\n      jump\t// out\n        /* \"#utility.yul\":13143:13686   */\n    tag_157:\n        /* \"#utility.yul\":13244:13246   */\n      0x1f\n        /* \"#utility.yul\":13239:13242   */\n      dup3\n        /* \"#utility.yul\":13236:13247   */\n      gt\n        /* \"#utility.yul\":13233:13679   */\n      iszero\n      tag_310\n      jumpi\n        /* \"#utility.yul\":13278:13316   */\n      tag_311\n        /* \"#utility.yul\":13310:13315   */\n      dup2\n        /* \"#utility.yul\":13278:13316   */\n      tag_146\n      jump\t// in\n    tag_311:\n        /* \"#utility.yul\":13362:13391   */\n      tag_312\n        /* \"#utility.yul\":13380:13390   */\n      dup5\n        /* \"#utility.yul\":13362:13391   */\n      tag_147\n      jump\t// in\n    tag_312:\n        /* \"#utility.yul\":13352:13360   */\n      dup2\n        /* \"#utility.yul\":13348:13392   */\n      add\n        /* \"#utility.yul\":13545:13547   */\n      0x20\n        /* \"#utility.yul\":13533:13543   */\n      dup6\n        /* \"#utility.yul\":13530:13548   */\n      lt\n        /* \"#utility.yul\":13527:13576   */\n      iszero\n      tag_313\n      jumpi\n        /* \"#utility.yul\":13566:13574   */\n      dup2\n        /* \"#utility.yul\":13551:13574   */\n      swap1\n      pop\n        /* \"#utility.yul\":13527:13576   */\n    tag_313:\n        /* \"#utility.yul\":13589:13669   */\n      tag_314\n        /* \"#utility.yul\":13645:13667   */\n      tag_315\n        /* \"#utility.yul\":13663:13666   */\n      dup6\n        /* \"#utility.yul\":13645:13667   */\n      tag_147\n      jump\t// in\n    tag_315:\n        /* \"#utility.yul\":13635:13643   */\n      dup4\n        /* \"#utility.yul\":13631:13668   */\n      add\n        /* \"#utility.yul\":13618:13629   */\n      dup3\n        /* \"#utility.yul\":13589:13669   */\n      tag_156\n      jump\t// in\n    tag_314:\n        /* \"#utility.yul\":13248:13679   */\n      pop\n      pop\n        /* \"#utility.yul\":13233:13679   */\n    tag_310:\n        /* \"#utility.yul\":13143:13686   */\n      pop\n      pop\n      pop\n      jump\t// out\n        /* \"#utility.yul\":13692:13809   */\n    tag_158:\n        /* \"#utility.yul\":13746:13754   */\n      0x00\n        /* \"#utility.yul\":13796:13801   */\n      dup3\n        /* \"#utility.yul\":13790:13794   */\n      dup3\n        /* \"#utility.yul\":13786:13802   */\n      shr\n        /* \"#utility.yul\":13765:13802   */\n      swap1\n      pop\n        /* \"#utility.yul\":13692:13809   */\n      swap3\n      swap2\n      pop\n      pop\n      jump\t// out\n        /* \"#utility.yul\":13815:13984   */\n    tag_159:\n        /* \"#utility.yul\":13859:13865   */\n      0x00\n        /* \"#utility.yul\":13892:13943   */\n      tag_318\n        /* \"#utility.yul\":13940:13941   */\n      0x00\n        /* \"#utility.yul\":13936:13942   */\n      not\n        /* \"#utility.yul\":13928:13933   */\n      dup5\n        /* \"#utility.yul\":13925:13926   */\n      0x08\n        /* \"#utility.yul\":13921:13934   */\n      mul\n        /* \"#utility.yul\":13892:13943   */\n      tag_158\n      jump\t// in\n    tag_318:\n        /* \"#utility.yul\":13888:13944   */\n      not\n        /* \"#utility.yul\":13973:13977   */\n      dup1\n        /* \"#utility.yul\":13967:13971   */\n      dup4\n        /* \"#utility.yul\":13963:13978   */\n      and\n        /* \"#utility.yul\":13953:13978   */\n      swap2\n      pop\n        /* \"#utility.yul\":13866:13984   */\n      pop\n        /* \"#utility.yul\":13815:13984   */\n      swap3\n      swap2\n      pop\n      pop\n      jump\t// out\n        /* \"#utility.yul\":13989:14284   */\n    tag_160:\n        /* \"#utility.yul\":14065:14069   */\n      0x00\n        /* \"#utility.yul\":14211:14240   */\n      tag_320\n        /* \"#utility.yul\":14236:14239   */\n      dup4\n        /* \"#utility.yul\":14230:14234   */\n      dup4\n        /* \"#utility.yul\":14211:14240   */\n      tag_159\n      jump\t// in\n    tag_320:\n        /* \"#utility.yul\":14203:14240   */\n      swap2\n      pop\n        /* \"#utility.yul\":14273:14276   */\n      dup3\n        /* \"#utility.yul\":14270:14271   */\n      0x02\n        /* \"#utility.yul\":14266:14277   */\n      mul\n        /* \"#utility.yul\":14260:14264   */\n      dup3\n        /* \"#utility.yul\":14257:14278   */\n      or\n        /* \"#utility.yul\":14249:14278   */\n      swap1\n      pop\n        /* \"#utility.yul\":13989:14284   */\n      swap3\n      swap2\n      pop\n      pop\n      jump\t// out\n        /* \"#utility.yul\":14289:15684   */\n    tag_79:\n        /* \"#utility.yul\":14406:14443   */\n      tag_322\n        /* \"#utility.yul\":14439:14442   */\n      dup3\n        /* \"#utility.yul\":14406:14443   */\n      tag_109\n      jump\t// in\n    tag_322:\n        /* \"#utility.yul\":14508:14526   */\n      0xffffffffffffffff\n        /* \"#utility.yul\":14500:14506   */\n      dup2\n        /* \"#utility.yul\":14497:14527   */\n      gt\n        /* \"#utility.yul\":14494:14550   */\n      iszero\n      tag_323\n      jumpi\n        /* \"#utility.yul\":14530:14548   */\n      tag_324\n      tag_121\n      jump\t// in\n    tag_324:\n        /* \"#utility.yul\":14494:14550   */\n    tag_323:\n        /* \"#utility.yul\":14574:14612   */\n      tag_325\n        /* \"#utility.yul\":14606:14610   */\n      dup3\n        /* \"#utility.yul\":14600:14611   */\n      sload\n        /* \"#utility.yul\":14574:14612   */\n      tag_82\n      jump\t// in\n    tag_325:\n        /* \"#utility.yul\":14659:14726   */\n      tag_326\n        /* \"#utility.yul\":14719:14725   */\n      dup3\n        /* \"#utility.yul\":14711:14717   */\n      dup3\n        /* \"#utility.yul\":14705:14709   */\n      dup6\n        /* \"#utility.yul\":14659:14726   */\n      tag_157\n      jump\t// in\n    tag_326:\n        /* \"#utility.yul\":14753:14754   */\n      0x00\n        /* \"#utility.yul\":14777:14781   */\n      0x20\n        /* \"#utility.yul\":14764:14781   */\n      swap1\n      pop\n        /* \"#utility.yul\":14809:14811   */\n      0x1f\n        /* \"#utility.yul\":14801:14807   */\n      dup4\n        /* \"#utility.yul\":14798:14812   */\n      gt\n        /* \"#utility.yul\":14826:14827   */\n      0x01\n        /* \"#utility.yul\":14821:15439   */\n      dup2\n      eq\n      tag_328\n      jumpi\n        /* \"#utility.yul\":15483:15484   */\n      0x00\n        /* \"#utility.yul\":15500:15506   */\n      dup5\n        /* \"#utility.yul\":15497:15574   */\n      iszero\n      tag_329\n      jumpi\n        /* \"#utility.yul\":15549:15558   */\n      dup3\n        /* \"#utility.yul\":15544:15547   */\n      dup8\n        /* \"#utility.yul\":15540:15559   */\n      add\n        /* \"#utility.yul\":15534:15560   */\n      mload\n        /* \"#utility.yul\":15525:15560   */\n      swap1\n      pop\n        /* \"#utility.yul\":15497:15574   */\n    tag_329:\n        /* \"#utility.yul\":15600:15667   */\n      tag_330\n        /* \"#utility.yul\":15660:15666   */\n      dup6\n        /* \"#utility.yul\":15653:15658   */\n      dup3\n        /* \"#utility.yul\":15600:15667   */\n      tag_160\n      jump\t// in\n    tag_330:\n        /* \"#utility.yul\":15594:15598   */\n      dup7\n        /* \"#utility.yul\":15587:15668   */\n      sstore\n        /* \"#utility.yul\":15456:15678   */\n      pop\n        /* \"#utility.yul\":14791:15678   */\n      jump(tag_327)\n        /* \"#utility.yul\":14821:15439   */\n    tag_328:\n        /* \"#utility.yul\":14873:14877   */\n      0x1f\n        /* \"#utility.yul\":14869:14878   */\n      not\n        /* \"#utility.yul\":14861:14867   */\n      dup5\n        /* \"#utility.yul\":14857:14879   */\n      and\n        /* \"#utility.yul\":14907:14944   */\n      tag_331\n        /* \"#utility.yul\":14939:14943   */\n      dup7\n        /* \"#utility.yul\":14907:14944   */\n      tag_146\n      jump\t// in\n    tag_331:\n        /* \"#utility.yul\":14966:14967   */\n      0x00\n        /* \"#utility.yul\":14980:15188   */\n    tag_332:\n        /* \"#utility.yul\":14994:15001   */\n      dup3\n        /* \"#utility.yul\":14991:14992   */\n      dup2\n        /* \"#utility.yul\":14988:15002   */\n      lt\n        /* \"#utility.yul\":14980:15188   */\n      iszero\n      tag_334\n      jumpi\n        /* \"#utility.yul\":15073:15082   */\n      dup5\n        /* \"#utility.yul\":15068:15071   */\n      dup10\n        /* \"#utility.yul\":15064:15083   */\n      add\n        /* \"#utility.yul\":15058:15084   */\n      mload\n        /* \"#utility.yul\":15050:15056   */\n      dup3\n        /* \"#utility.yul\":15043:15085   */\n      sstore\n        /* \"#utility.yul\":15124:15125   */\n      0x01\n        /* \"#utility.yul\":15116:15122   */\n      dup3\n        /* \"#utility.yul\":15112:15126   */\n      add\n        /* \"#utility.yul\":15102:15126   */\n      swap2\n      pop\n        /* \"#utility.yul\":15171:15173   */\n      0x20\n        /* \"#utility.yul\":15160:15169   */\n      dup6\n        /* \"#utility.yul\":15156:15174   */\n      add\n        /* \"#utility.yul\":15143:15174   */\n      swap5\n      pop\n        /* \"#utility.yul\":15017:15021   */\n      0x20\n        /* \"#utility.yul\":15014:15015   */\n      dup2\n        /* \"#utility.yul\":15010:15022   */\n      add\n        /* \"#utility.yul\":15005:15022   */\n      swap1\n      pop\n        /* \"#utility.yul\":14980:15188   */\n      jump(tag_332)\n    tag_334:\n        /* \"#utility.yul\":15216:15222   */\n      dup7\n        /* \"#utility.yul\":15207:15214   */\n      dup4\n        /* \"#utility.yul\":15204:15223   */\n      lt\n        /* \"#utility.yul\":15201:15380   */\n      iszero\n      tag_335\n      jumpi\n        /* \"#utility.yul\":15274:15283   */\n      dup5\n        /* \"#utility.yul\":15269:15272   */\n      dup10\n        /* \"#utility.yul\":15265:15284   */\n      add\n        /* \"#utility.yul\":15259:15285   */\n      mload\n        /* \"#utility.yul\":15317:15365   */\n      tag_336\n        /* \"#utility.yul\":15359:15363   */\n      0x1f\n        /* \"#utility.yul\":15351:15357   */\n      dup10\n        /* \"#utility.yul\":15347:15364   */\n      and\n        /* \"#utility.yul\":15336:15345   */\n      dup3\n        /* \"#utility.yul\":15317:15365   */\n      tag_159\n      jump\t// in\n    tag_336:\n        /* \"#utility.yul\":15309:15315   */\n      dup4\n        /* \"#utility.yul\":15302:15366   */\n      sstore\n        /* \"#utility.yul\":15224:15380   */\n      pop\n        /* \"#utility.yul\":15201:15380   */\n    tag_335:\n        /* \"#utility.yul\":15426:15427   */\n      0x01\n        /* \"#utility.yul\":15422:15423   */\n      0x02\n        /* \"#utility.yul\":15414:15420   */\n      dup9\n        /* \"#utility.yul\":15410:15424   */\n      mul\n        /* \"#utility.yul\":15406:15428   */\n      add\n        /* \"#utility.yul\":15400:15404   */\n      dup9\n        /* \"#utility.yul\":15393:15429   */\n      sstore\n        /* \"#utility.yul\":14828:15439   */\n      pop\n      pop\n      pop\n        /* \"#utility.yul\":14791:15678   */\n    tag_327:\n      pop\n        /* \"#utility.yul\":14381:15684   */\n      pop\n      pop\n      pop\n        /* \"#utility.yul\":14289:15684   */\n      pop\n      pop\n      jump\t// out\n        /* \"#utility.yul\":15690:15912   */\n    tag_161:\n        /* \"#utility.yul\":15830:15864   */\n      0x4f6e6c7920746865206f776e65722063616e206368616e676520746865206f77\n        /* \"#utility.yul\":15826:15827   */\n      0x00\n        /* \"#utility.yul\":15818:15824   */\n      dup3\n        /* \"#utility.yul\":15814:15828   */\n      add\n        /* \"#utility.yul\":15807:15865   */\n      mstore\n        /* \"#utility.yul\":15899:15904   */\n      0x6e65720000000000000000000000000000000000000000000000000000000000\n        /* \"#utility.yul\":15894:15896   */\n      0x20\n        /* \"#utility.yul\":15886:15892   */\n      dup3\n        /* \"#utility.yul\":15882:15897   */\n      add\n        /* \"#utility.yul\":15875:15905   */\n      mstore\n        /* \"#utility.yul\":15690:15912   */\n      pop\n      jump\t// out\n        /* \"#utility.yul\":15918:16284   */\n    tag_162:\n        /* \"#utility.yul\":16060:16063   */\n      0x00\n        /* \"#utility.yul\":16081:16148   */\n      tag_339\n        /* \"#utility.yul\":16145:16147   */\n      0x23\n        /* \"#utility.yul\":16140:16143   */\n      dup4\n        /* \"#utility.yul\":16081:16148   */\n      tag_110\n      jump\t// in\n    tag_339:\n        /* \"#utility.yul\":16074:16148   */\n      swap2\n      pop\n        /* \"#utility.yul\":16157:16250   */\n      tag_340\n        /* \"#utility.yul\":16246:16249   */\n      dup3\n        /* \"#utility.yul\":16157:16250   */\n      tag_161\n      jump\t// in\n    tag_340:\n        /* \"#utility.yul\":16275:16277   */\n      0x40\n        /* \"#utility.yul\":16270:16273   */\n      dup3\n        /* \"#utility.yul\":16266:16278   */\n      add\n        /* \"#utility.yul\":16259:16278   */\n      swap1\n      pop\n        /* \"#utility.yul\":15918:16284   */\n      swap2\n      swap1\n      pop\n      jump\t// out\n        /* \"#utility.yul\":16290:16709   */\n    tag_105:\n        /* \"#utility.yul\":16456:16460   */\n      0x00\n        /* \"#utility.yul\":16494:16496   */\n      0x20\n        /* \"#utility.yul\":16483:16492   */\n      dup3\n        /* \"#utility.yul\":16479:16497   */\n      add\n        /* \"#utility.yul\":16471:16497   */\n      swap1\n      pop\n        /* \"#utility.yul\":16543:16552   */\n      dup2\n        /* \"#utility.yul\":16537:16541   */\n      dup2\n        /* \"#utility.yul\":16533:16553   */\n      sub\n        /* \"#utility.yul\":16529:16530   */\n      0x00\n        /* \"#utility.yul\":16518:16527   */\n      dup4\n        /* \"#utility.yul\":16514:16531   */\n      add\n        /* \"#utility.yul\":16507:16554   */\n      mstore\n        /* \"#utility.yul\":16571:16702   */\n      tag_342\n        /* \"#utility.yul\":16697:16701   */\n      dup2\n        /* \"#utility.yul\":16571:16702   */\n      tag_162\n      jump\t// in\n    tag_342:\n        /* \"#utility.yul\":16563:16702   */\n      swap1\n      pop\n        /* \"#utility.yul\":16290:16709   */\n      swap2\n      swap1\n      pop\n      jump\t// out\n        /* \"#utility.yul\":16715:16895   */\n    tag_163:\n        /* \"#utility.yul\":16763:16840   */\n      0x4e487b7100000000000000000000000000000000000000000000000000000000\n        /* \"#utility.yul\":16760:16761   */\n      0x00\n        /* \"#utility.yul\":16753:16841   */\n      mstore\n        /* \"#utility.yul\":16860:16864   */\n      0x11\n        /* \"#utility.yul\":16857:16858   */\n      0x04\n        /* \"#utility.yul\":16850:16865   */\n      mstore\n        /* \"#utility.yul\":16884:16888   */\n      0x24\n        /* \"#utility.yul\":16881:16882   */\n      0x00\n        /* \"#utility.yul\":16874:16889   */\n      revert\n        /* \"#utility.yul\":16901:17092   */\n    tag_108:\n        /* \"#utility.yul\":16941:16944   */\n      0x00\n        /* \"#utility.yul\":16960:16980   */\n      tag_345\n        /* \"#utility.yul\":16978:16979   */\n      dup3\n        /* \"#utility.yul\":16960:16980   */\n      tag_128\n      jump\t// in\n    tag_345:\n        /* \"#utility.yul\":16955:16980   */\n      swap2\n      pop\n        /* \"#utility.yul\":16994:17014   */\n      tag_346\n        /* \"#utility.yul\":17012:17013   */\n      dup4\n        /* \"#utility.yul\":16994:17014   */\n      tag_128\n      jump\t// in\n    tag_346:\n        /* \"#utility.yul\":16989:17014   */\n      swap3\n      pop\n        /* \"#utility.yul\":17037:17038   */\n      dup3\n        /* \"#utility.yul\":17034:17035   */\n      dup3\n        /* \"#utility.yul\":17030:17039   */\n      add\n        /* \"#utility.yul\":17023:17039   */\n      swap1\n      pop\n        /* \"#utility.yul\":17058:17061   */\n      dup1\n        /* \"#utility.yul\":17055:17056   */\n      dup3\n        /* \"#utility.yul\":17052:17062   */\n      gt\n        /* \"#utility.yul\":17049:17085   */\n      iszero\n      tag_347\n      jumpi\n        /* \"#utility.yul\":17065:17083   */\n      tag_348\n      tag_163\n      jump\t// in\n    tag_348:\n        /* \"#utility.yul\":17049:17085   */\n    tag_347:\n        /* \"#utility.yul\":16901:17092   */\n      swap3\n      swap2\n      pop\n      pop\n      jump\t// out\n\n    auxdata: 0xa2646970667358221220904674f63cc0ff0435633e0d9e3801a5923cf96fc81e9fc135c5fe05e3faa2fc64736f6c63430008130033\n}\n",
				"bytecode": {
					"linkReferences": {},
					"object": "60806040526040518060400160405280601081526020017f6d792064656661756c742076616c756500000000000000000000000000000000815250600090816200004a9190620003ff565b506040518060400160405280601081526020017f6d792064656661756c742076616c75650000000000000000000000000000000081525060019081620000919190620003ff565b506001600260006101000a81548160ff0219169083151502179055507fffffffffffffffffffffffffffffffffffffffffffffffffffffffffffffffe86003557f49b1ff823aa8f30618a504e7b15134ea38dd7e7a254635555555555555555554600455636435e70660065560006008553480156200010f57600080fd5b506000600560006101000a81548160ff02191690836004811115620001395762000138620004e6565b5b021790555033600760006101000a81548173ffffffffffffffffffffffffffffffffffffffff021916908373ffffffffffffffffffffffffffffffffffffffff16021790555062000515565b600081519050919050565b7f4e487b7100000000000000000000000000000000000000000000000000000000600052604160045260246000fd5b7f4e487b7100000000000000000000000000000000000000000000000000000000600052602260045260246000fd5b600060028204905060018216806200020757607f821691505b6020821081036200021d576200021c620001bf565b5b50919050565b60008190508160005260206000209050919050565b60006020601f8301049050919050565b600082821b905092915050565b600060088302620002877fffffffffffffffffffffffffffffffffffffffffffffffffffffffffffffffff8262000248565b62000293868362000248565b95508019841693508086168417925050509392505050565b6000819050919050565b6000819050919050565b6000620002e0620002da620002d484620002ab565b620002b5565b620002ab565b9050919050565b6000819050919050565b620002fc83620002bf565b620003146200030b82620002e7565b84845462000255565b825550505050565b600090565b6200032b6200031c565b62000338818484620002f1565b505050565b5b8181101562000360576200035460008262000321565b6001810190506200033e565b5050565b601f821115620003af57620003798162000223565b620003848462000238565b8101602085101562000394578190505b620003ac620003a38562000238565b8301826200033d565b50505b505050565b600082821c905092915050565b6000620003d460001984600802620003b4565b1980831691505092915050565b6000620003ef8383620003c1565b9150826002028217905092915050565b6200040a8262000185565b67ffffffffffffffff81111562000426576200042562000190565b5b620004328254620001ee565b6200043f82828562000364565b600060209050601f83116001811462000477576000841562000462578287015190505b6200046e8582620003e1565b865550620004de565b601f198416620004878662000223565b60005b82811015620004b1578489015182556001820191506020850194506020810190506200048a565b86831015620004d15784890151620004cd601f891682620003c1565b8355505b6001600288020188555050505b505050505050565b7f4e487b7100000000000000000000000000000000000000000000000000000000600052602160045260246000fd5b61113580620005256000396000f3fe608060405234801561001057600080fd5b50600436106100a95760003560e01c80636deecdbe116100715780636deecdbe146101425780637dc93929146101605780638da5cb5b1461017e5780639e7a13ad1461019c578063a6f9dae1146101ce578063c19d93fb146101ea576100a9565b80630f15f4c0146100ae57806322f3e2d4146100cc57806322f5b58d146100ea578063267c68e0146101065780633fa4f24514610124575b600080fd5b6100b6610208565b6040516100c39190610822565b60405180910390f35b6100d4610270565b6040516100e1919061085f565b60405180910390f35b61010460048036038101906100ff91906109c3565b6102ae565b005b61010e6103fa565b60405161011b9190610a54565b60405180910390f35b61012c610400565b6040516101399190610822565b60405180910390f35b61014a61048e565b604051610157919061085f565b60405180910390f35b6101686104a1565b6040516101759190610822565b60405180910390f35b61018661052f565b6040516101939190610ab0565b60405180910390f35b6101b660048036038101906101b19190610af7565b610555565b6040516101c593929190610b24565b60405180910390f35b6101e860048036038101906101e39190610b95565b61068f565b005b6101f2610763565b6040516101ff9190610c39565b60405180910390f35b60606002600560006101000a81548160ff021916908360048111156102305761022f610bc2565b5b02179055506040518060400160405280601681526020017f41637469766174696f6e207375636365737366756c2100000000000000000000815250905090565b60006002600481111561028657610285610bc2565b5b600560009054906101000a900460ff1660048111156102a8576102a7610bc2565b5b14905090565b6006544210156102f3576040517f08c379a00000000000000000000000000000000000000000000000000000000081526004016102ea90610ca0565b60405180910390fd5b600760009054906101000a900473ffffffffffffffffffffffffffffffffffffffff1673ffffffffffffffffffffffffffffffffffffffff163373ffffffffffffffffffffffffffffffffffffffff1614610383576040517f08c379a000000000000000000000000000000000000000000000000000000000815260040161037a90610d0c565b60405180910390fd5b61038b610776565b60405180606001604052806008548152602001838152602001828152506009600060085481526020019081526020016000206000820151816000015560208201518160010190816103dc9190610f38565b5060408201518160020190816103f29190610f38565b509050505050565b60085481565b6000805461040d90610d5b565b80601f016020809104026020016040519081016040528092919081815260200182805461043990610d5b565b80156104865780601f1061045b57610100808354040283529160200191610486565b820191906000526020600020905b81548152906001019060200180831161046957829003601f168201915b505050505081565b600260009054906101000a900460ff1681565b600180546104ae90610d5b565b80601f01602080910402602001604051908101604052809291908181526020018280546104da90610d5b565b80156105275780601f106104fc57610100808354040283529160200191610527565b820191906000526020600020905b81548152906001019060200180831161050a57829003601f168201915b505050505081565b600760009054906101000a900473ffffffffffffffffffffffffffffffffffffffff1681565b600960205280600052604060002060009150905080600001549080600101805461057e90610d5b565b80601f01602080910402602001604051908101604052809291908181526020018280546105aa90610d5b565b80156105f75780601f106105cc576101008083540402835291602001916105f7565b820191906000526020600020905b8154815290600101906020018083116105da57829003601f168201915b50505050509080600201805461060c90610d5b565b80601f016020809104026020016040519081016040528092919081815260200182805461063890610d5b565b80156106855780601f1061065a57610100808354040283529160200191610685565b820191906000526020600020905b81548152906001019060200180831161066857829003601f168201915b5050505050905083565b600760009054906101000a900473ffffffffffffffffffffffffffffffffffffffff1673ffffffffffffffffffffffffffffffffffffffff163373ffffffffffffffffffffffffffffffffffffffff161461071f576040517f08c379a00000000000000000000000000000000000000000000000000000000081526004016107169061107c565b60405180910390fd5b80600760006101000a81548173ffffffffffffffffffffffffffffffffffffffff021916908373ffffffffffffffffffffffffffffffffffffffff16021790555050565b600560009054906101000a900460ff1681565b60016008600082825461078991906110cb565b92505081905550565b600081519050919050565b600082825260208201905092915050565b60005b838110156107cc5780820151818401526020810190506107b1565b60008484015250505050565b6000601f19601f8301169050919050565b60006107f482610792565b6107fe818561079d565b935061080e8185602086016107ae565b610817816107d8565b840191505092915050565b6000602082019050818103600083015261083c81846107e9565b905092915050565b60008115159050919050565b61085981610844565b82525050565b60006020820190506108746000830184610850565b92915050565b6000604051905090565b600080fd5b600080fd5b600080fd5b600080fd5b7f4e487b7100000000000000000000000000000000000000000000000000000000600052604160045260246000fd5b6108d0826107d8565b810181811067ffffffffffffffff821117156108ef576108ee610898565b5b80604052505050565b600061090261087a565b905061090e82826108c7565b919050565b600067ffffffffffffffff82111561092e5761092d610898565b5b610937826107d8565b9050602081019050919050565b82818337600083830152505050565b600061096661096184610913565b6108f8565b90508281526020810184848401111561098257610981610893565b5b61098d848285610944565b509392505050565b600082601f8301126109aa576109a961088e565b5b81356109ba848260208601610953565b91505092915050565b600080604083850312156109da576109d9610884565b5b600083013567ffffffffffffffff8111156109f8576109f7610889565b5b610a0485828601610995565b925050602083013567ffffffffffffffff811115610a2557610a24610889565b5b610a3185828601610995565b9150509250929050565b6000819050919050565b610a4e81610a3b565b82525050565b6000602082019050610a696000830184610a45565b92915050565b600073ffffffffffffffffffffffffffffffffffffffff82169050919050565b6000610a9a82610a6f565b9050919050565b610aaa81610a8f565b82525050565b6000602082019050610ac56000830184610aa1565b92915050565b610ad481610a3b565b8114610adf57600080fd5b50565b600081359050610af181610acb565b92915050565b600060208284031215610b0d57610b0c610884565b5b6000610b1b84828501610ae2565b91505092915050565b6000606082019050610b396000830186610a45565b8181036020830152610b4b81856107e9565b90508181036040830152610b5f81846107e9565b9050949350505050565b610b7281610a8f565b8114610b7d57600080fd5b50565b600081359050610b8f81610b69565b92915050565b600060208284031215610bab57610baa610884565b5b6000610bb984828501610b80565b91505092915050565b7f4e487b7100000000000000000000000000000000000000000000000000000000600052602160045260246000fd5b60058110610c0257610c01610bc2565b5b50565b6000819050610c1382610bf1565b919050565b6000610c2382610c05565b9050919050565b610c3381610c18565b82525050565b6000602082019050610c4e6000830184610c2a565b92915050565b7f54494d45204e4556455220524541434820424f53530000000000000000000000600082015250565b6000610c8a60158361079d565b9150610c9582610c54565b602082019050919050565b60006020820190508181036000830152610cb981610c7d565b9050919050565b7f4f6e6c7920746865206f776e65722063616e206164642070656f706c65000000600082015250565b6000610cf6601d8361079d565b9150610d0182610cc0565b602082019050919050565b60006020820190508181036000830152610d2581610ce9565b9050919050565b7f4e487b7100000000000000000000000000000000000000000000000000000000600052602260045260246000fd5b60006002820490506001821680610d7357607f821691505b602082108103610d8657610d85610d2c565b5b50919050565b60008190508160005260206000209050919050565b60006020601f8301049050919050565b600082821b905092915050565b600060088302610dee7fffffffffffffffffffffffffffffffffffffffffffffffffffffffffffffffff82610db1565b610df88683610db1565b95508019841693508086168417925050509392505050565b6000819050919050565b6000610e35610e30610e2b84610a3b565b610e10565b610a3b565b9050919050565b6000819050919050565b610e4f83610e1a565b610e63610e5b82610e3c565b848454610dbe565b825550505050565b600090565b610e78610e6b565b610e83818484610e46565b505050565b5b81811015610ea757610e9c600082610e70565b600181019050610e89565b5050565b601f821115610eec57610ebd81610d8c565b610ec684610da1565b81016020851015610ed5578190505b610ee9610ee185610da1565b830182610e88565b50505b505050565b600082821c905092915050565b6000610f0f60001984600802610ef1565b1980831691505092915050565b6000610f288383610efe565b9150826002028217905092915050565b610f4182610792565b67ffffffffffffffff811115610f5a57610f59610898565b5b610f648254610d5b565b610f6f828285610eab565b600060209050601f831160018114610fa25760008415610f90578287015190505b610f9a8582610f1c565b865550611002565b601f198416610fb086610d8c565b60005b82811015610fd857848901518255600182019150602085019450602081019050610fb3565b86831015610ff55784890151610ff1601f891682610efe565b8355505b6001600288020188555050505b505050505050565b7f4f6e6c7920746865206f776e65722063616e206368616e676520746865206f7760008201527f6e65720000000000000000000000000000000000000000000000000000000000602082015250565b600061106660238361079d565b91506110718261100a565b604082019050919050565b6000602082019050818103600083015261109581611059565b9050919050565b7f4e487b7100000000000000000000000000000000000000000000000000000000600052601160045260246000fd5b60006110d682610a3b565b91506110e183610a3b565b92508282019050808211156110f9576110f861109c565b5b9291505056fea2646970667358221220904674f63cc0ff0435633e0d9e3801a5923cf96fc81e9fc135c5fe05e3faa2fc64736f6c63430008130033",
					"opcodes": "PUSH1 0x80 PUSH1 0x40 MSTORE PUSH1 0x40 MLOAD DUP1 PUSH1 0x40 ADD PUSH1 0x40 MSTORE DUP1 PUSH1 0x10 DUP2 MSTORE PUSH1 0x20 ADD PUSH32 0x6D792064656661756C742076616C756500000000000000000000000000000000 DUP2 MSTORE POP PUSH1 0x0 SWAP1 DUP2 PUSH3 0x4A SWAP2 SWAP1 PUSH3 0x3FF JUMP JUMPDEST POP PUSH1 0x40 MLOAD DUP1 PUSH1 0x40 ADD PUSH1 0x40 MSTORE DUP1 PUSH1 0x10 DUP2 MSTORE PUSH1 0x20 ADD PUSH32 0x6D792064656661756C742076616C756500000000000000000000000000000000 DUP2 MSTORE POP PUSH1 0x1 SWAP1 DUP2 PUSH3 0x91 SWAP2 SWAP1 PUSH3 0x3FF JUMP JUMPDEST POP PUSH1 0x1 PUSH1 0x2 PUSH1 0x0 PUSH2 0x100 EXP DUP2 SLOAD DUP2 PUSH1 0xFF MUL NOT AND SWAP1 DUP4 ISZERO ISZERO MUL OR SWAP1 SSTORE POP PUSH32 0xFFFFFFFFFFFFFFFFFFFFFFFFFFFFFFFFFFFFFFFFFFFFFFFFFFFFFFFFFFFFFFE8 PUSH1 0x3 SSTORE PUSH32 0x49B1FF823AA8F30618A504E7B15134EA38DD7E7A254635555555555555555554 PUSH1 0x4 SSTORE PUSH4 0x6435E706 PUSH1 0x6 SSTORE PUSH1 0x0 PUSH1 0x8 SSTORE CALLVALUE DUP1 ISZERO PUSH3 0x10F JUMPI PUSH1 0x0 DUP1 REVERT JUMPDEST POP PUSH1 0x0 PUSH1 0x5 PUSH1 0x0 PUSH2 0x100 EXP DUP2 SLOAD DUP2 PUSH1 0xFF MUL NOT AND SWAP1 DUP4 PUSH1 0x4 DUP2 GT ISZERO PUSH3 0x139 JUMPI PUSH3 0x138 PUSH3 0x4E6 JUMP JUMPDEST JUMPDEST MUL OR SWAP1 SSTORE POP CALLER PUSH1 0x7 PUSH1 0x0 PUSH2 0x100 EXP DUP2 SLOAD DUP2 PUSH20 0xFFFFFFFFFFFFFFFFFFFFFFFFFFFFFFFFFFFFFFFF MUL NOT AND SWAP1 DUP4 PUSH20 0xFFFFFFFFFFFFFFFFFFFFFFFFFFFFFFFFFFFFFFFF AND MUL OR SWAP1 SSTORE POP PUSH3 0x515 JUMP JUMPDEST PUSH1 0x0 DUP2 MLOAD SWAP1 POP SWAP2 SWAP1 POP JUMP JUMPDEST PUSH32 0x4E487B7100000000000000000000000000000000000000000000000000000000 PUSH1 0x0 MSTORE PUSH1 0x41 PUSH1 0x4 MSTORE PUSH1 0x24 PUSH1 0x0 REVERT JUMPDEST PUSH32 0x4E487B7100000000000000000000000000000000000000000000000000000000 PUSH1 0x0 MSTORE PUSH1 0x22 PUSH1 0x4 MSTORE PUSH1 0x24 PUSH1 0x0 REVERT JUMPDEST PUSH1 0x0 PUSH1 0x2 DUP3 DIV SWAP1 POP PUSH1 0x1 DUP3 AND DUP1 PUSH3 0x207 JUMPI PUSH1 0x7F DUP3 AND SWAP2 POP JUMPDEST PUSH1 0x20 DUP3 LT DUP2 SUB PUSH3 0x21D JUMPI PUSH3 0x21C PUSH3 0x1BF JUMP JUMPDEST JUMPDEST POP SWAP2 SWAP1 POP JUMP JUMPDEST PUSH1 0x0 DUP2 SWAP1 POP DUP2 PUSH1 0x0 MSTORE PUSH1 0x20 PUSH1 0x0 KECCAK256 SWAP1 POP SWAP2 SWAP1 POP JUMP JUMPDEST PUSH1 0x0 PUSH1 0x20 PUSH1 0x1F DUP4 ADD DIV SWAP1 POP SWAP2 SWAP1 POP JUMP JUMPDEST PUSH1 0x0 DUP3 DUP3 SHL SWAP1 POP SWAP3 SWAP2 POP POP JUMP JUMPDEST PUSH1 0x0 PUSH1 0x8 DUP4 MUL PUSH3 0x287 PUSH32 0xFFFFFFFFFFFFFFFFFFFFFFFFFFFFFFFFFFFFFFFFFFFFFFFFFFFFFFFFFFFFFFFF DUP3 PUSH3 0x248 JUMP JUMPDEST PUSH3 0x293 DUP7 DUP4 PUSH3 0x248 JUMP JUMPDEST SWAP6 POP DUP1 NOT DUP5 AND SWAP4 POP DUP1 DUP7 AND DUP5 OR SWAP3 POP POP POP SWAP4 SWAP3 POP POP POP JUMP JUMPDEST PUSH1 0x0 DUP2 SWAP1 POP SWAP2 SWAP1 POP JUMP JUMPDEST PUSH1 0x0 DUP2 SWAP1 POP SWAP2 SWAP1 POP JUMP JUMPDEST PUSH1 0x0 PUSH3 0x2E0 PUSH3 0x2DA PUSH3 0x2D4 DUP5 PUSH3 0x2AB JUMP JUMPDEST PUSH3 0x2B5 JUMP JUMPDEST PUSH3 0x2AB JUMP JUMPDEST SWAP1 POP SWAP2 SWAP1 POP JUMP JUMPDEST PUSH1 0x0 DUP2 SWAP1 POP SWAP2 SWAP1 POP JUMP JUMPDEST PUSH3 0x2FC DUP4 PUSH3 0x2BF JUMP JUMPDEST PUSH3 0x314 PUSH3 0x30B DUP3 PUSH3 0x2E7 JUMP JUMPDEST DUP5 DUP5 SLOAD PUSH3 0x255 JUMP JUMPDEST DUP3 SSTORE POP POP POP POP JUMP JUMPDEST PUSH1 0x0 SWAP1 JUMP JUMPDEST PUSH3 0x32B PUSH3 0x31C JUMP JUMPDEST PUSH3 0x338 DUP2 DUP5 DUP5 PUSH3 0x2F1 JUMP JUMPDEST POP POP POP JUMP JUMPDEST JUMPDEST DUP2 DUP2 LT ISZERO PUSH3 0x360 JUMPI PUSH3 0x354 PUSH1 0x0 DUP3 PUSH3 0x321 JUMP JUMPDEST PUSH1 0x1 DUP2 ADD SWAP1 POP PUSH3 0x33E JUMP JUMPDEST POP POP JUMP JUMPDEST PUSH1 0x1F DUP3 GT ISZERO PUSH3 0x3AF JUMPI PUSH3 0x379 DUP2 PUSH3 0x223 JUMP JUMPDEST PUSH3 0x384 DUP5 PUSH3 0x238 JUMP JUMPDEST DUP2 ADD PUSH1 0x20 DUP6 LT ISZERO PUSH3 0x394 JUMPI DUP2 SWAP1 POP JUMPDEST PUSH3 0x3AC PUSH3 0x3A3 DUP6 PUSH3 0x238 JUMP JUMPDEST DUP4 ADD DUP3 PUSH3 0x33D JUMP JUMPDEST POP POP JUMPDEST POP POP POP JUMP JUMPDEST PUSH1 0x0 DUP3 DUP3 SHR SWAP1 POP SWAP3 SWAP2 POP POP JUMP JUMPDEST PUSH1 0x0 PUSH3 0x3D4 PUSH1 0x0 NOT DUP5 PUSH1 0x8 MUL PUSH3 0x3B4 JUMP JUMPDEST NOT DUP1 DUP4 AND SWAP2 POP POP SWAP3 SWAP2 POP POP JUMP JUMPDEST PUSH1 0x0 PUSH3 0x3EF DUP4 DUP4 PUSH3 0x3C1 JUMP JUMPDEST SWAP2 POP DUP3 PUSH1 0x2 MUL DUP3 OR SWAP1 POP SWAP3 SWAP2 POP POP JUMP JUMPDEST PUSH3 0x40A DUP3 PUSH3 0x185 JUMP JUMPDEST PUSH8 0xFFFFFFFFFFFFFFFF DUP2 GT ISZERO PUSH3 0x426 JUMPI PUSH3 0x425 PUSH3 0x190 JUMP JUMPDEST JUMPDEST PUSH3 0x432 DUP3 SLOAD PUSH3 0x1EE JUMP JUMPDEST PUSH3 0x43F DUP3 DUP3 DUP6 PUSH3 0x364 JUMP JUMPDEST PUSH1 0x0 PUSH1 0x20 SWAP1 POP PUSH1 0x1F DUP4 GT PUSH1 0x1 DUP2 EQ PUSH3 0x477 JUMPI PUSH1 0x0 DUP5 ISZERO PUSH3 0x462 JUMPI DUP3 DUP8 ADD MLOAD SWAP1 POP JUMPDEST PUSH3 0x46E DUP6 DUP3 PUSH3 0x3E1 JUMP JUMPDEST DUP7 SSTORE POP PUSH3 0x4DE JUMP JUMPDEST PUSH1 0x1F NOT DUP5 AND PUSH3 0x487 DUP7 PUSH3 0x223 JUMP JUMPDEST PUSH1 0x0 JUMPDEST DUP3 DUP2 LT ISZERO PUSH3 0x4B1 JUMPI DUP5 DUP10 ADD MLOAD DUP3 SSTORE PUSH1 0x1 DUP3 ADD SWAP2 POP PUSH1 0x20 DUP6 ADD SWAP5 POP PUSH1 0x20 DUP2 ADD SWAP1 POP PUSH3 0x48A JUMP JUMPDEST DUP7 DUP4 LT ISZERO PUSH3 0x4D1 JUMPI DUP5 DUP10 ADD MLOAD PUSH3 0x4CD PUSH1 0x1F DUP10 AND DUP3 PUSH3 0x3C1 JUMP JUMPDEST DUP4 SSTORE POP JUMPDEST PUSH1 0x1 PUSH1 0x2 DUP9 MUL ADD DUP9 SSTORE POP POP POP JUMPDEST POP POP POP POP POP POP JUMP JUMPDEST PUSH32 0x4E487B7100000000000000000000000000000000000000000000000000000000 PUSH1 0x0 MSTORE PUSH1 0x21 PUSH1 0x4 MSTORE PUSH1 0x24 PUSH1 0x0 REVERT JUMPDEST PUSH2 0x1135 DUP1 PUSH3 0x525 PUSH1 0x0 CODECOPY PUSH1 0x0 RETURN INVALID PUSH1 0x80 PUSH1 0x40 MSTORE CALLVALUE DUP1 ISZERO PUSH2 0x10 JUMPI PUSH1 0x0 DUP1 REVERT JUMPDEST POP PUSH1 0x4 CALLDATASIZE LT PUSH2 0xA9 JUMPI PUSH1 0x0 CALLDATALOAD PUSH1 0xE0 SHR DUP1 PUSH4 0x6DEECDBE GT PUSH2 0x71 JUMPI DUP1 PUSH4 0x6DEECDBE EQ PUSH2 0x142 JUMPI DUP1 PUSH4 0x7DC93929 EQ PUSH2 0x160 JUMPI DUP1 PUSH4 0x8DA5CB5B EQ PUSH2 0x17E JUMPI DUP1 PUSH4 0x9E7A13AD EQ PUSH2 0x19C JUMPI DUP1 PUSH4 0xA6F9DAE1 EQ PUSH2 0x1CE JUMPI DUP1 PUSH4 0xC19D93FB EQ PUSH2 0x1EA JUMPI PUSH2 0xA9 JUMP JUMPDEST DUP1 PUSH4 0xF15F4C0 EQ PUSH2 0xAE JUMPI DUP1 PUSH4 0x22F3E2D4 EQ PUSH2 0xCC JUMPI DUP1 PUSH4 0x22F5B58D EQ PUSH2 0xEA JUMPI DUP1 PUSH4 0x267C68E0 EQ PUSH2 0x106 JUMPI DUP1 PUSH4 0x3FA4F245 EQ PUSH2 0x124 JUMPI JUMPDEST PUSH1 0x0 DUP1 REVERT JUMPDEST PUSH2 0xB6 PUSH2 0x208 JUMP JUMPDEST PUSH1 0x40 MLOAD PUSH2 0xC3 SWAP2 SWAP1 PUSH2 0x822 JUMP JUMPDEST PUSH1 0x40 MLOAD DUP1 SWAP2 SUB SWAP1 RETURN JUMPDEST PUSH2 0xD4 PUSH2 0x270 JUMP JUMPDEST PUSH1 0x40 MLOAD PUSH2 0xE1 SWAP2 SWAP1 PUSH2 0x85F JUMP JUMPDEST PUSH1 0x40 MLOAD DUP1 SWAP2 SUB SWAP1 RETURN JUMPDEST PUSH2 0x104 PUSH1 0x4 DUP1 CALLDATASIZE SUB DUP2 ADD SWAP1 PUSH2 0xFF SWAP2 SWAP1 PUSH2 0x9C3 JUMP JUMPDEST PUSH2 0x2AE JUMP JUMPDEST STOP JUMPDEST PUSH2 0x10E PUSH2 0x3FA JUMP JUMPDEST PUSH1 0x40 MLOAD PUSH2 0x11B SWAP2 SWAP1 PUSH2 0xA54 JUMP JUMPDEST PUSH1 0x40 MLOAD DUP1 SWAP2 SUB SWAP1 RETURN JUMPDEST PUSH2 0x12C PUSH2 0x400 JUMP JUMPDEST PUSH1 0x40 MLOAD PUSH2 0x139 SWAP2 SWAP1 PUSH2 0x822 JUMP JUMPDEST PUSH1 0x40 MLOAD DUP1 SWAP2 SUB SWAP1 RETURN JUMPDEST PUSH2 0x14A PUSH2 0x48E JUMP JUMPDEST PUSH1 0x40 MLOAD PUSH2 0x157 SWAP2 SWAP1 PUSH2 0x85F JUMP JUMPDEST PUSH1 0x40 MLOAD DUP1 SWAP2 SUB SWAP1 RETURN JUMPDEST PUSH2 0x168 PUSH2 0x4A1 JUMP JUMPDEST PUSH1 0x40 MLOAD PUSH2 0x175 SWAP2 SWAP1 PUSH2 0x822 JUMP JUMPDEST PUSH1 0x40 MLOAD DUP1 SWAP2 SUB SWAP1 RETURN JUMPDEST PUSH2 0x186 PUSH2 0x52F JUMP JUMPDEST PUSH1 0x40 MLOAD PUSH2 0x193 SWAP2 SWAP1 PUSH2 0xAB0 JUMP JUMPDEST PUSH1 0x40 MLOAD DUP1 SWAP2 SUB SWAP1 RETURN JUMPDEST PUSH2 0x1B6 PUSH1 0x4 DUP1 CALLDATASIZE SUB DUP2 ADD SWAP1 PUSH2 0x1B1 SWAP2 SWAP1 PUSH2 0xAF7 JUMP JUMPDEST PUSH2 0x555 JUMP JUMPDEST PUSH1 0x40 MLOAD PUSH2 0x1C5 SWAP4 SWAP3 SWAP2 SWAP1 PUSH2 0xB24 JUMP JUMPDEST PUSH1 0x40 MLOAD DUP1 SWAP2 SUB SWAP1 RETURN JUMPDEST PUSH2 0x1E8 PUSH1 0x4 DUP1 CALLDATASIZE SUB DUP2 ADD SWAP1 PUSH2 0x1E3 SWAP2 SWAP1 PUSH2 0xB95 JUMP JUMPDEST PUSH2 0x68F JUMP JUMPDEST STOP JUMPDEST PUSH2 0x1F2 PUSH2 0x763 JUMP JUMPDEST PUSH1 0x40 MLOAD PUSH2 0x1FF SWAP2 SWAP1 PUSH2 0xC39 JUMP JUMPDEST PUSH1 0x40 MLOAD DUP1 SWAP2 SUB SWAP1 RETURN JUMPDEST PUSH1 0x60 PUSH1 0x2 PUSH1 0x5 PUSH1 0x0 PUSH2 0x100 EXP DUP2 SLOAD DUP2 PUSH1 0xFF MUL NOT AND SWAP1 DUP4 PUSH1 0x4 DUP2 GT ISZERO PUSH2 0x230 JUMPI PUSH2 0x22F PUSH2 0xBC2 JUMP JUMPDEST JUMPDEST MUL OR SWAP1 SSTORE POP PUSH1 0x40 MLOAD DUP1 PUSH1 0x40 ADD PUSH1 0x40 MSTORE DUP1 PUSH1 0x16 DUP2 MSTORE PUSH1 0x20 ADD PUSH32 0x41637469766174696F6E207375636365737366756C2100000000000000000000 DUP2 MSTORE POP SWAP1 POP SWAP1 JUMP JUMPDEST PUSH1 0x0 PUSH1 0x2 PUSH1 0x4 DUP2 GT ISZERO PUSH2 0x286 JUMPI PUSH2 0x285 PUSH2 0xBC2 JUMP JUMPDEST JUMPDEST PUSH1 0x5 PUSH1 0x0 SWAP1 SLOAD SWAP1 PUSH2 0x100 EXP SWAP1 DIV PUSH1 0xFF AND PUSH1 0x4 DUP2 GT ISZERO PUSH2 0x2A8 JUMPI PUSH2 0x2A7 PUSH2 0xBC2 JUMP JUMPDEST JUMPDEST EQ SWAP1 POP SWAP1 JUMP JUMPDEST PUSH1 0x6 SLOAD TIMESTAMP LT ISZERO PUSH2 0x2F3 JUMPI PUSH1 0x40 MLOAD PUSH32 0x8C379A000000000000000000000000000000000000000000000000000000000 DUP2 MSTORE PUSH1 0x4 ADD PUSH2 0x2EA SWAP1 PUSH2 0xCA0 JUMP JUMPDEST PUSH1 0x40 MLOAD DUP1 SWAP2 SUB SWAP1 REVERT JUMPDEST PUSH1 0x7 PUSH1 0x0 SWAP1 SLOAD SWAP1 PUSH2 0x100 EXP SWAP1 DIV PUSH20 0xFFFFFFFFFFFFFFFFFFFFFFFFFFFFFFFFFFFFFFFF AND PUSH20 0xFFFFFFFFFFFFFFFFFFFFFFFFFFFFFFFFFFFFFFFF AND CALLER PUSH20 0xFFFFFFFFFFFFFFFFFFFFFFFFFFFFFFFFFFFFFFFF AND EQ PUSH2 0x383 JUMPI PUSH1 0x40 MLOAD PUSH32 0x8C379A000000000000000000000000000000000000000000000000000000000 DUP2 MSTORE PUSH1 0x4 ADD PUSH2 0x37A SWAP1 PUSH2 0xD0C JUMP JUMPDEST PUSH1 0x40 MLOAD DUP1 SWAP2 SUB SWAP1 REVERT JUMPDEST PUSH2 0x38B PUSH2 0x776 JUMP JUMPDEST PUSH1 0x40 MLOAD DUP1 PUSH1 0x60 ADD PUSH1 0x40 MSTORE DUP1 PUSH1 0x8 SLOAD DUP2 MSTORE PUSH1 0x20 ADD DUP4 DUP2 MSTORE PUSH1 0x20 ADD DUP3 DUP2 MSTORE POP PUSH1 0x9 PUSH1 0x0 PUSH1 0x8 SLOAD DUP2 MSTORE PUSH1 0x20 ADD SWAP1 DUP2 MSTORE PUSH1 0x20 ADD PUSH1 0x0 KECCAK256 PUSH1 0x0 DUP3 ADD MLOAD DUP2 PUSH1 0x0 ADD SSTORE PUSH1 0x20 DUP3 ADD MLOAD DUP2 PUSH1 0x1 ADD SWAP1 DUP2 PUSH2 0x3DC SWAP2 SWAP1 PUSH2 0xF38 JUMP JUMPDEST POP PUSH1 0x40 DUP3 ADD MLOAD DUP2 PUSH1 0x2 ADD SWAP1 DUP2 PUSH2 0x3F2 SWAP2 SWAP1 PUSH2 0xF38 JUMP JUMPDEST POP SWAP1 POP POP POP POP JUMP JUMPDEST PUSH1 0x8 SLOAD DUP2 JUMP JUMPDEST PUSH1 0x0 DUP1 SLOAD PUSH2 0x40D SWAP1 PUSH2 0xD5B JUMP JUMPDEST DUP1 PUSH1 0x1F ADD PUSH1 0x20 DUP1 SWAP2 DIV MUL PUSH1 0x20 ADD PUSH1 0x40 MLOAD SWAP1 DUP2 ADD PUSH1 0x40 MSTORE DUP1 SWAP3 SWAP2 SWAP1 DUP2 DUP2 MSTORE PUSH1 0x20 ADD DUP3 DUP1 SLOAD PUSH2 0x439 SWAP1 PUSH2 0xD5B JUMP JUMPDEST DUP1 ISZERO PUSH2 0x486 JUMPI DUP1 PUSH1 0x1F LT PUSH2 0x45B JUMPI PUSH2 0x100 DUP1 DUP4 SLOAD DIV MUL DUP4 MSTORE SWAP2 PUSH1 0x20 ADD SWAP2 PUSH2 0x486 JUMP JUMPDEST DUP3 ADD SWAP2 SWAP1 PUSH1 0x0 MSTORE PUSH1 0x20 PUSH1 0x0 KECCAK256 SWAP1 JUMPDEST DUP2 SLOAD DUP2 MSTORE SWAP1 PUSH1 0x1 ADD SWAP1 PUSH1 0x20 ADD DUP1 DUP4 GT PUSH2 0x469 JUMPI DUP3 SWAP1 SUB PUSH1 0x1F AND DUP3 ADD SWAP2 JUMPDEST POP POP POP POP POP DUP2 JUMP JUMPDEST PUSH1 0x2 PUSH1 0x0 SWAP1 SLOAD SWAP1 PUSH2 0x100 EXP SWAP1 DIV PUSH1 0xFF AND DUP2 JUMP JUMPDEST PUSH1 0x1 DUP1 SLOAD PUSH2 0x4AE SWAP1 PUSH2 0xD5B JUMP JUMPDEST DUP1 PUSH1 0x1F ADD PUSH1 0x20 DUP1 SWAP2 DIV MUL PUSH1 0x20 ADD PUSH1 0x40 MLOAD SWAP1 DUP2 ADD PUSH1 0x40 MSTORE DUP1 SWAP3 SWAP2 SWAP1 DUP2 DUP2 MSTORE PUSH1 0x20 ADD DUP3 DUP1 SLOAD PUSH2 0x4DA SWAP1 PUSH2 0xD5B JUMP JUMPDEST DUP1 ISZERO PUSH2 0x527 JUMPI DUP1 PUSH1 0x1F LT PUSH2 0x4FC JUMPI PUSH2 0x100 DUP1 DUP4 SLOAD DIV MUL DUP4 MSTORE SWAP2 PUSH1 0x20 ADD SWAP2 PUSH2 0x527 JUMP JUMPDEST DUP3 ADD SWAP2 SWAP1 PUSH1 0x0 MSTORE PUSH1 0x20 PUSH1 0x0 KECCAK256 SWAP1 JUMPDEST DUP2 SLOAD DUP2 MSTORE SWAP1 PUSH1 0x1 ADD SWAP1 PUSH1 0x20 ADD DUP1 DUP4 GT PUSH2 0x50A JUMPI DUP3 SWAP1 SUB PUSH1 0x1F AND DUP3 ADD SWAP2 JUMPDEST POP POP POP POP POP DUP2 JUMP JUMPDEST PUSH1 0x7 PUSH1 0x0 SWAP1 SLOAD SWAP1 PUSH2 0x100 EXP SWAP1 DIV PUSH20 0xFFFFFFFFFFFFFFFFFFFFFFFFFFFFFFFFFFFFFFFF AND DUP2 JUMP JUMPDEST PUSH1 0x9 PUSH1 0x20 MSTORE DUP1 PUSH1 0x0 MSTORE PUSH1 0x40 PUSH1 0x0 KECCAK256 PUSH1 0x0 SWAP2 POP SWAP1 POP DUP1 PUSH1 0x0 ADD SLOAD SWAP1 DUP1 PUSH1 0x1 ADD DUP1 SLOAD PUSH2 0x57E SWAP1 PUSH2 0xD5B JUMP JUMPDEST DUP1 PUSH1 0x1F ADD PUSH1 0x20 DUP1 SWAP2 DIV MUL PUSH1 0x20 ADD PUSH1 0x40 MLOAD SWAP1 DUP2 ADD PUSH1 0x40 MSTORE DUP1 SWAP3 SWAP2 SWAP1 DUP2 DUP2 MSTORE PUSH1 0x20 ADD DUP3 DUP1 SLOAD PUSH2 0x5AA SWAP1 PUSH2 0xD5B JUMP JUMPDEST DUP1 ISZERO PUSH2 0x5F7 JUMPI DUP1 PUSH1 0x1F LT PUSH2 0x5CC JUMPI PUSH2 0x100 DUP1 DUP4 SLOAD DIV MUL DUP4 MSTORE SWAP2 PUSH1 0x20 ADD SWAP2 PUSH2 0x5F7 JUMP JUMPDEST DUP3 ADD SWAP2 SWAP1 PUSH1 0x0 MSTORE PUSH1 0x20 PUSH1 0x0 KECCAK256 SWAP1 JUMPDEST DUP2 SLOAD DUP2 MSTORE SWAP1 PUSH1 0x1 ADD SWAP1 PUSH1 0x20 ADD DUP1 DUP4 GT PUSH2 0x5DA JUMPI DUP3 SWAP1 SUB PUSH1 0x1F AND DUP3 ADD SWAP2 JUMPDEST POP POP POP POP POP SWAP1 DUP1 PUSH1 0x2 ADD DUP1 SLOAD PUSH2 0x60C SWAP1 PUSH2 0xD5B JUMP JUMPDEST DUP1 PUSH1 0x1F ADD PUSH1 0x20 DUP1 SWAP2 DIV MUL PUSH1 0x20 ADD PUSH1 0x40 MLOAD SWAP1 DUP2 ADD PUSH1 0x40 MSTORE DUP1 SWAP3 SWAP2 SWAP1 DUP2 DUP2 MSTORE PUSH1 0x20 ADD DUP3 DUP1 SLOAD PUSH2 0x638 SWAP1 PUSH2 0xD5B JUMP JUMPDEST DUP1 ISZERO PUSH2 0x685 JUMPI DUP1 PUSH1 0x1F LT PUSH2 0x65A JUMPI PUSH2 0x100 DUP1 DUP4 SLOAD DIV MUL DUP4 MSTORE SWAP2 PUSH1 0x20 ADD SWAP2 PUSH2 0x685 JUMP JUMPDEST DUP3 ADD SWAP2 SWAP1 PUSH1 0x0 MSTORE PUSH1 0x20 PUSH1 0x0 KECCAK256 SWAP1 JUMPDEST DUP2 SLOAD DUP2 MSTORE SWAP1 PUSH1 0x1 ADD SWAP1 PUSH1 0x20 ADD DUP1 DUP4 GT PUSH2 0x668 JUMPI DUP3 SWAP1 SUB PUSH1 0x1F AND DUP3 ADD SWAP2 JUMPDEST POP POP POP POP POP SWAP1 POP DUP4 JUMP JUMPDEST PUSH1 0x7 PUSH1 0x0 SWAP1 SLOAD SWAP1 PUSH2 0x100 EXP SWAP1 DIV PUSH20 0xFFFFFFFFFFFFFFFFFFFFFFFFFFFFFFFFFFFFFFFF AND PUSH20 0xFFFFFFFFFFFFFFFFFFFFFFFFFFFFFFFFFFFFFFFF AND CALLER PUSH20 0xFFFFFFFFFFFFFFFFFFFFFFFFFFFFFFFFFFFFFFFF AND EQ PUSH2 0x71F JUMPI PUSH1 0x40 MLOAD PUSH32 0x8C379A000000000000000000000000000000000000000000000000000000000 DUP2 MSTORE PUSH1 0x4 ADD PUSH2 0x716 SWAP1 PUSH2 0x107C JUMP JUMPDEST PUSH1 0x40 MLOAD DUP1 SWAP2 SUB SWAP1 REVERT JUMPDEST DUP1 PUSH1 0x7 PUSH1 0x0 PUSH2 0x100 EXP DUP2 SLOAD DUP2 PUSH20 0xFFFFFFFFFFFFFFFFFFFFFFFFFFFFFFFFFFFFFFFF MUL NOT AND SWAP1 DUP4 PUSH20 0xFFFFFFFFFFFFFFFFFFFFFFFFFFFFFFFFFFFFFFFF AND MUL OR SWAP1 SSTORE POP POP JUMP JUMPDEST PUSH1 0x5 PUSH1 0x0 SWAP1 SLOAD SWAP1 PUSH2 0x100 EXP SWAP1 DIV PUSH1 0xFF AND DUP2 JUMP JUMPDEST PUSH1 0x1 PUSH1 0x8 PUSH1 0x0 DUP3 DUP3 SLOAD PUSH2 0x789 SWAP2 SWAP1 PUSH2 0x10CB JUMP JUMPDEST SWAP3 POP POP DUP2 SWAP1 SSTORE POP JUMP JUMPDEST PUSH1 0x0 DUP2 MLOAD SWAP1 POP SWAP2 SWAP1 POP JUMP JUMPDEST PUSH1 0x0 DUP3 DUP3 MSTORE PUSH1 0x20 DUP3 ADD SWAP1 POP SWAP3 SWAP2 POP POP JUMP JUMPDEST PUSH1 0x0 JUMPDEST DUP4 DUP2 LT ISZERO PUSH2 0x7CC JUMPI DUP1 DUP3 ADD MLOAD DUP2 DUP5 ADD MSTORE PUSH1 0x20 DUP2 ADD SWAP1 POP PUSH2 0x7B1 JUMP JUMPDEST PUSH1 0x0 DUP5 DUP5 ADD MSTORE POP POP POP POP JUMP JUMPDEST PUSH1 0x0 PUSH1 0x1F NOT PUSH1 0x1F DUP4 ADD AND SWAP1 POP SWAP2 SWAP1 POP JUMP JUMPDEST PUSH1 0x0 PUSH2 0x7F4 DUP3 PUSH2 0x792 JUMP JUMPDEST PUSH2 0x7FE DUP2 DUP6 PUSH2 0x79D JUMP JUMPDEST SWAP4 POP PUSH2 0x80E DUP2 DUP6 PUSH1 0x20 DUP7 ADD PUSH2 0x7AE JUMP JUMPDEST PUSH2 0x817 DUP2 PUSH2 0x7D8 JUMP JUMPDEST DUP5 ADD SWAP2 POP POP SWAP3 SWAP2 POP POP JUMP JUMPDEST PUSH1 0x0 PUSH1 0x20 DUP3 ADD SWAP1 POP DUP2 DUP2 SUB PUSH1 0x0 DUP4 ADD MSTORE PUSH2 0x83C DUP2 DUP5 PUSH2 0x7E9 JUMP JUMPDEST SWAP1 POP SWAP3 SWAP2 POP POP JUMP JUMPDEST PUSH1 0x0 DUP2 ISZERO ISZERO SWAP1 POP SWAP2 SWAP1 POP JUMP JUMPDEST PUSH2 0x859 DUP2 PUSH2 0x844 JUMP JUMPDEST DUP3 MSTORE POP POP JUMP JUMPDEST PUSH1 0x0 PUSH1 0x20 DUP3 ADD SWAP1 POP PUSH2 0x874 PUSH1 0x0 DUP4 ADD DUP5 PUSH2 0x850 JUMP JUMPDEST SWAP3 SWAP2 POP POP JUMP JUMPDEST PUSH1 0x0 PUSH1 0x40 MLOAD SWAP1 POP SWAP1 JUMP JUMPDEST PUSH1 0x0 DUP1 REVERT JUMPDEST PUSH1 0x0 DUP1 REVERT JUMPDEST PUSH1 0x0 DUP1 REVERT JUMPDEST PUSH1 0x0 DUP1 REVERT JUMPDEST PUSH32 0x4E487B7100000000000000000000000000000000000000000000000000000000 PUSH1 0x0 MSTORE PUSH1 0x41 PUSH1 0x4 MSTORE PUSH1 0x24 PUSH1 0x0 REVERT JUMPDEST PUSH2 0x8D0 DUP3 PUSH2 0x7D8 JUMP JUMPDEST DUP2 ADD DUP2 DUP2 LT PUSH8 0xFFFFFFFFFFFFFFFF DUP3 GT OR ISZERO PUSH2 0x8EF JUMPI PUSH2 0x8EE PUSH2 0x898 JUMP JUMPDEST JUMPDEST DUP1 PUSH1 0x40 MSTORE POP POP POP JUMP JUMPDEST PUSH1 0x0 PUSH2 0x902 PUSH2 0x87A JUMP JUMPDEST SWAP1 POP PUSH2 0x90E DUP3 DUP3 PUSH2 0x8C7 JUMP JUMPDEST SWAP2 SWAP1 POP JUMP JUMPDEST PUSH1 0x0 PUSH8 0xFFFFFFFFFFFFFFFF DUP3 GT ISZERO PUSH2 0x92E JUMPI PUSH2 0x92D PUSH2 0x898 JUMP JUMPDEST JUMPDEST PUSH2 0x937 DUP3 PUSH2 0x7D8 JUMP JUMPDEST SWAP1 POP PUSH1 0x20 DUP2 ADD SWAP1 POP SWAP2 SWAP1 POP JUMP JUMPDEST DUP3 DUP2 DUP4 CALLDATACOPY PUSH1 0x0 DUP4 DUP4 ADD MSTORE POP POP POP JUMP JUMPDEST PUSH1 0x0 PUSH2 0x966 PUSH2 0x961 DUP5 PUSH2 0x913 JUMP JUMPDEST PUSH2 0x8F8 JUMP JUMPDEST SWAP1 POP DUP3 DUP2 MSTORE PUSH1 0x20 DUP2 ADD DUP5 DUP5 DUP5 ADD GT ISZERO PUSH2 0x982 JUMPI PUSH2 0x981 PUSH2 0x893 JUMP JUMPDEST JUMPDEST PUSH2 0x98D DUP5 DUP3 DUP6 PUSH2 0x944 JUMP JUMPDEST POP SWAP4 SWAP3 POP POP POP JUMP JUMPDEST PUSH1 0x0 DUP3 PUSH1 0x1F DUP4 ADD SLT PUSH2 0x9AA JUMPI PUSH2 0x9A9 PUSH2 0x88E JUMP JUMPDEST JUMPDEST DUP2 CALLDATALOAD PUSH2 0x9BA DUP5 DUP3 PUSH1 0x20 DUP7 ADD PUSH2 0x953 JUMP JUMPDEST SWAP2 POP POP SWAP3 SWAP2 POP POP JUMP JUMPDEST PUSH1 0x0 DUP1 PUSH1 0x40 DUP4 DUP6 SUB SLT ISZERO PUSH2 0x9DA JUMPI PUSH2 0x9D9 PUSH2 0x884 JUMP JUMPDEST JUMPDEST PUSH1 0x0 DUP4 ADD CALLDATALOAD PUSH8 0xFFFFFFFFFFFFFFFF DUP2 GT ISZERO PUSH2 0x9F8 JUMPI PUSH2 0x9F7 PUSH2 0x889 JUMP JUMPDEST JUMPDEST PUSH2 0xA04 DUP6 DUP3 DUP7 ADD PUSH2 0x995 JUMP JUMPDEST SWAP3 POP POP PUSH1 0x20 DUP4 ADD CALLDATALOAD PUSH8 0xFFFFFFFFFFFFFFFF DUP2 GT ISZERO PUSH2 0xA25 JUMPI PUSH2 0xA24 PUSH2 0x889 JUMP JUMPDEST JUMPDEST PUSH2 0xA31 DUP6 DUP3 DUP7 ADD PUSH2 0x995 JUMP JUMPDEST SWAP2 POP POP SWAP3 POP SWAP3 SWAP1 POP JUMP JUMPDEST PUSH1 0x0 DUP2 SWAP1 POP SWAP2 SWAP1 POP JUMP JUMPDEST PUSH2 0xA4E DUP2 PUSH2 0xA3B JUMP JUMPDEST DUP3 MSTORE POP POP JUMP JUMPDEST PUSH1 0x0 PUSH1 0x20 DUP3 ADD SWAP1 POP PUSH2 0xA69 PUSH1 0x0 DUP4 ADD DUP5 PUSH2 0xA45 JUMP JUMPDEST SWAP3 SWAP2 POP POP JUMP JUMPDEST PUSH1 0x0 PUSH20 0xFFFFFFFFFFFFFFFFFFFFFFFFFFFFFFFFFFFFFFFF DUP3 AND SWAP1 POP SWAP2 SWAP1 POP JUMP JUMPDEST PUSH1 0x0 PUSH2 0xA9A DUP3 PUSH2 0xA6F JUMP JUMPDEST SWAP1 POP SWAP2 SWAP1 POP JUMP JUMPDEST PUSH2 0xAAA DUP2 PUSH2 0xA8F JUMP JUMPDEST DUP3 MSTORE POP POP JUMP JUMPDEST PUSH1 0x0 PUSH1 0x20 DUP3 ADD SWAP1 POP PUSH2 0xAC5 PUSH1 0x0 DUP4 ADD DUP5 PUSH2 0xAA1 JUMP JUMPDEST SWAP3 SWAP2 POP POP JUMP JUMPDEST PUSH2 0xAD4 DUP2 PUSH2 0xA3B JUMP JUMPDEST DUP2 EQ PUSH2 0xADF JUMPI PUSH1 0x0 DUP1 REVERT JUMPDEST POP JUMP JUMPDEST PUSH1 0x0 DUP2 CALLDATALOAD SWAP1 POP PUSH2 0xAF1 DUP2 PUSH2 0xACB JUMP JUMPDEST SWAP3 SWAP2 POP POP JUMP JUMPDEST PUSH1 0x0 PUSH1 0x20 DUP3 DUP5 SUB SLT ISZERO PUSH2 0xB0D JUMPI PUSH2 0xB0C PUSH2 0x884 JUMP JUMPDEST JUMPDEST PUSH1 0x0 PUSH2 0xB1B DUP5 DUP3 DUP6 ADD PUSH2 0xAE2 JUMP JUMPDEST SWAP2 POP POP SWAP3 SWAP2 POP POP JUMP JUMPDEST PUSH1 0x0 PUSH1 0x60 DUP3 ADD SWAP1 POP PUSH2 0xB39 PUSH1 0x0 DUP4 ADD DUP7 PUSH2 0xA45 JUMP JUMPDEST DUP2 DUP2 SUB PUSH1 0x20 DUP4 ADD MSTORE PUSH2 0xB4B DUP2 DUP6 PUSH2 0x7E9 JUMP JUMPDEST SWAP1 POP DUP2 DUP2 SUB PUSH1 0x40 DUP4 ADD MSTORE PUSH2 0xB5F DUP2 DUP5 PUSH2 0x7E9 JUMP JUMPDEST SWAP1 POP SWAP5 SWAP4 POP POP POP POP JUMP JUMPDEST PUSH2 0xB72 DUP2 PUSH2 0xA8F JUMP JUMPDEST DUP2 EQ PUSH2 0xB7D JUMPI PUSH1 0x0 DUP1 REVERT JUMPDEST POP JUMP JUMPDEST PUSH1 0x0 DUP2 CALLDATALOAD SWAP1 POP PUSH2 0xB8F DUP2 PUSH2 0xB69 JUMP JUMPDEST SWAP3 SWAP2 POP POP JUMP JUMPDEST PUSH1 0x0 PUSH1 0x20 DUP3 DUP5 SUB SLT ISZERO PUSH2 0xBAB JUMPI PUSH2 0xBAA PUSH2 0x884 JUMP JUMPDEST JUMPDEST PUSH1 0x0 PUSH2 0xBB9 DUP5 DUP3 DUP6 ADD PUSH2 0xB80 JUMP JUMPDEST SWAP2 POP POP SWAP3 SWAP2 POP POP JUMP JUMPDEST PUSH32 0x4E487B7100000000000000000000000000000000000000000000000000000000 PUSH1 0x0 MSTORE PUSH1 0x21 PUSH1 0x4 MSTORE PUSH1 0x24 PUSH1 0x0 REVERT JUMPDEST PUSH1 0x5 DUP2 LT PUSH2 0xC02 JUMPI PUSH2 0xC01 PUSH2 0xBC2 JUMP JUMPDEST JUMPDEST POP JUMP JUMPDEST PUSH1 0x0 DUP2 SWAP1 POP PUSH2 0xC13 DUP3 PUSH2 0xBF1 JUMP JUMPDEST SWAP2 SWAP1 POP JUMP JUMPDEST PUSH1 0x0 PUSH2 0xC23 DUP3 PUSH2 0xC05 JUMP JUMPDEST SWAP1 POP SWAP2 SWAP1 POP JUMP JUMPDEST PUSH2 0xC33 DUP2 PUSH2 0xC18 JUMP JUMPDEST DUP3 MSTORE POP POP JUMP JUMPDEST PUSH1 0x0 PUSH1 0x20 DUP3 ADD SWAP1 POP PUSH2 0xC4E PUSH1 0x0 DUP4 ADD DUP5 PUSH2 0xC2A JUMP JUMPDEST SWAP3 SWAP2 POP POP JUMP JUMPDEST PUSH32 0x54494D45204E4556455220524541434820424F53530000000000000000000000 PUSH1 0x0 DUP3 ADD MSTORE POP JUMP JUMPDEST PUSH1 0x0 PUSH2 0xC8A PUSH1 0x15 DUP4 PUSH2 0x79D JUMP JUMPDEST SWAP2 POP PUSH2 0xC95 DUP3 PUSH2 0xC54 JUMP JUMPDEST PUSH1 0x20 DUP3 ADD SWAP1 POP SWAP2 SWAP1 POP JUMP JUMPDEST PUSH1 0x0 PUSH1 0x20 DUP3 ADD SWAP1 POP DUP2 DUP2 SUB PUSH1 0x0 DUP4 ADD MSTORE PUSH2 0xCB9 DUP2 PUSH2 0xC7D JUMP JUMPDEST SWAP1 POP SWAP2 SWAP1 POP JUMP JUMPDEST PUSH32 0x4F6E6C7920746865206F776E65722063616E206164642070656F706C65000000 PUSH1 0x0 DUP3 ADD MSTORE POP JUMP JUMPDEST PUSH1 0x0 PUSH2 0xCF6 PUSH1 0x1D DUP4 PUSH2 0x79D JUMP JUMPDEST SWAP2 POP PUSH2 0xD01 DUP3 PUSH2 0xCC0 JUMP JUMPDEST PUSH1 0x20 DUP3 ADD SWAP1 POP SWAP2 SWAP1 POP JUMP JUMPDEST PUSH1 0x0 PUSH1 0x20 DUP3 ADD SWAP1 POP DUP2 DUP2 SUB PUSH1 0x0 DUP4 ADD MSTORE PUSH2 0xD25 DUP2 PUSH2 0xCE9 JUMP JUMPDEST SWAP1 POP SWAP2 SWAP1 POP JUMP JUMPDEST PUSH32 0x4E487B7100000000000000000000000000000000000000000000000000000000 PUSH1 0x0 MSTORE PUSH1 0x22 PUSH1 0x4 MSTORE PUSH1 0x24 PUSH1 0x0 REVERT JUMPDEST PUSH1 0x0 PUSH1 0x2 DUP3 DIV SWAP1 POP PUSH1 0x1 DUP3 AND DUP1 PUSH2 0xD73 JUMPI PUSH1 0x7F DUP3 AND SWAP2 POP JUMPDEST PUSH1 0x20 DUP3 LT DUP2 SUB PUSH2 0xD86 JUMPI PUSH2 0xD85 PUSH2 0xD2C JUMP JUMPDEST JUMPDEST POP SWAP2 SWAP1 POP JUMP JUMPDEST PUSH1 0x0 DUP2 SWAP1 POP DUP2 PUSH1 0x0 MSTORE PUSH1 0x20 PUSH1 0x0 KECCAK256 SWAP1 POP SWAP2 SWAP1 POP JUMP JUMPDEST PUSH1 0x0 PUSH1 0x20 PUSH1 0x1F DUP4 ADD DIV SWAP1 POP SWAP2 SWAP1 POP JUMP JUMPDEST PUSH1 0x0 DUP3 DUP3 SHL SWAP1 POP SWAP3 SWAP2 POP POP JUMP JUMPDEST PUSH1 0x0 PUSH1 0x8 DUP4 MUL PUSH2 0xDEE PUSH32 0xFFFFFFFFFFFFFFFFFFFFFFFFFFFFFFFFFFFFFFFFFFFFFFFFFFFFFFFFFFFFFFFF DUP3 PUSH2 0xDB1 JUMP JUMPDEST PUSH2 0xDF8 DUP7 DUP4 PUSH2 0xDB1 JUMP JUMPDEST SWAP6 POP DUP1 NOT DUP5 AND SWAP4 POP DUP1 DUP7 AND DUP5 OR SWAP3 POP POP POP SWAP4 SWAP3 POP POP POP JUMP JUMPDEST PUSH1 0x0 DUP2 SWAP1 POP SWAP2 SWAP1 POP JUMP JUMPDEST PUSH1 0x0 PUSH2 0xE35 PUSH2 0xE30 PUSH2 0xE2B DUP5 PUSH2 0xA3B JUMP JUMPDEST PUSH2 0xE10 JUMP JUMPDEST PUSH2 0xA3B JUMP JUMPDEST SWAP1 POP SWAP2 SWAP1 POP JUMP JUMPDEST PUSH1 0x0 DUP2 SWAP1 POP SWAP2 SWAP1 POP JUMP JUMPDEST PUSH2 0xE4F DUP4 PUSH2 0xE1A JUMP JUMPDEST PUSH2 0xE63 PUSH2 0xE5B DUP3 PUSH2 0xE3C JUMP JUMPDEST DUP5 DUP5 SLOAD PUSH2 0xDBE JUMP JUMPDEST DUP3 SSTORE POP POP POP POP JUMP JUMPDEST PUSH1 0x0 SWAP1 JUMP JUMPDEST PUSH2 0xE78 PUSH2 0xE6B JUMP JUMPDEST PUSH2 0xE83 DUP2 DUP5 DUP5 PUSH2 0xE46 JUMP JUMPDEST POP POP POP JUMP JUMPDEST JUMPDEST DUP2 DUP2 LT ISZERO PUSH2 0xEA7 JUMPI PUSH2 0xE9C PUSH1 0x0 DUP3 PUSH2 0xE70 JUMP JUMPDEST PUSH1 0x1 DUP2 ADD SWAP1 POP PUSH2 0xE89 JUMP JUMPDEST POP POP JUMP JUMPDEST PUSH1 0x1F DUP3 GT ISZERO PUSH2 0xEEC JUMPI PUSH2 0xEBD DUP2 PUSH2 0xD8C JUMP JUMPDEST PUSH2 0xEC6 DUP5 PUSH2 0xDA1 JUMP JUMPDEST DUP2 ADD PUSH1 0x20 DUP6 LT ISZERO PUSH2 0xED5 JUMPI DUP2 SWAP1 POP JUMPDEST PUSH2 0xEE9 PUSH2 0xEE1 DUP6 PUSH2 0xDA1 JUMP JUMPDEST DUP4 ADD DUP3 PUSH2 0xE88 JUMP JUMPDEST POP POP JUMPDEST POP POP POP JUMP JUMPDEST PUSH1 0x0 DUP3 DUP3 SHR SWAP1 POP SWAP3 SWAP2 POP POP JUMP JUMPDEST PUSH1 0x0 PUSH2 0xF0F PUSH1 0x0 NOT DUP5 PUSH1 0x8 MUL PUSH2 0xEF1 JUMP JUMPDEST NOT DUP1 DUP4 AND SWAP2 POP POP SWAP3 SWAP2 POP POP JUMP JUMPDEST PUSH1 0x0 PUSH2 0xF28 DUP4 DUP4 PUSH2 0xEFE JUMP JUMPDEST SWAP2 POP DUP3 PUSH1 0x2 MUL DUP3 OR SWAP1 POP SWAP3 SWAP2 POP POP JUMP JUMPDEST PUSH2 0xF41 DUP3 PUSH2 0x792 JUMP JUMPDEST PUSH8 0xFFFFFFFFFFFFFFFF DUP2 GT ISZERO PUSH2 0xF5A JUMPI PUSH2 0xF59 PUSH2 0x898 JUMP JUMPDEST JUMPDEST PUSH2 0xF64 DUP3 SLOAD PUSH2 0xD5B JUMP JUMPDEST PUSH2 0xF6F DUP3 DUP3 DUP6 PUSH2 0xEAB JUMP JUMPDEST PUSH1 0x0 PUSH1 0x20 SWAP1 POP PUSH1 0x1F DUP4 GT PUSH1 0x1 DUP2 EQ PUSH2 0xFA2 JUMPI PUSH1 0x0 DUP5 ISZERO PUSH2 0xF90 JUMPI DUP3 DUP8 ADD MLOAD SWAP1 POP JUMPDEST PUSH2 0xF9A DUP6 DUP3 PUSH2 0xF1C JUMP JUMPDEST DUP7 SSTORE POP PUSH2 0x1002 JUMP JUMPDEST PUSH1 0x1F NOT DUP5 AND PUSH2 0xFB0 DUP7 PUSH2 0xD8C JUMP JUMPDEST PUSH1 0x0 JUMPDEST DUP3 DUP2 LT ISZERO PUSH2 0xFD8 JUMPI DUP5 DUP10 ADD MLOAD DUP3 SSTORE PUSH1 0x1 DUP3 ADD SWAP2 POP PUSH1 0x20 DUP6 ADD SWAP5 POP PUSH1 0x20 DUP2 ADD SWAP1 POP PUSH2 0xFB3 JUMP JUMPDEST DUP7 DUP4 LT ISZERO PUSH2 0xFF5 JUMPI DUP5 DUP10 ADD MLOAD PUSH2 0xFF1 PUSH1 0x1F DUP10 AND DUP3 PUSH2 0xEFE JUMP JUMPDEST DUP4 SSTORE POP JUMPDEST PUSH1 0x1 PUSH1 0x2 DUP9 MUL ADD DUP9 SSTORE POP POP POP JUMPDEST POP POP POP POP POP POP JUMP JUMPDEST PUSH32 0x4F6E6C7920746865206F776E65722063616E206368616E676520746865206F77 PUSH1 0x0 DUP3 ADD MSTORE PUSH32 0x6E65720000000000000000000000000000000000000000000000000000000000 PUSH1 0x20 DUP3 ADD MSTORE POP JUMP JUMPDEST PUSH1 0x0 PUSH2 0x1066 PUSH1 0x23 DUP4 PUSH2 0x79D JUMP JUMPDEST SWAP2 POP PUSH2 0x1071 DUP3 PUSH2 0x100A JUMP JUMPDEST PUSH1 0x40 DUP3 ADD SWAP1 POP SWAP2 SWAP1 POP JUMP JUMPDEST PUSH1 0x0 PUSH1 0x20 DUP3 ADD SWAP1 POP DUP2 DUP2 SUB PUSH1 0x0 DUP4 ADD MSTORE PUSH2 0x1095 DUP2 PUSH2 0x1059 JUMP JUMPDEST SWAP1 POP SWAP2 SWAP1 POP JUMP JUMPDEST PUSH32 0x4E487B7100000000000000000000000000000000000000000000000000000000 PUSH1 0x0 MSTORE PUSH1 0x11 PUSH1 0x4 MSTORE PUSH1 0x24 PUSH1 0x0 REVERT JUMPDEST PUSH1 0x0 PUSH2 0x10D6 DUP3 PUSH2 0xA3B JUMP JUMPDEST SWAP2 POP PUSH2 0x10E1 DUP4 PUSH2 0xA3B JUMP JUMPDEST SWAP3 POP DUP3 DUP3 ADD SWAP1 POP DUP1 DUP3 GT ISZERO PUSH2 0x10F9 JUMPI PUSH2 0x10F8 PUSH2 0x109C JUMP JUMPDEST JUMPDEST SWAP3 SWAP2 POP POP JUMP INVALID LOG2 PUSH5 0x6970667358 0x22 SLT KECCAK256 SWAP1 CHAINID PUSH21 0xF63CC0FF0435633E0D9E3801A5923CF96FC81E9FC1 CALLDATALOAD 0xC5 INVALID SDIV 0xE3 STATICCALL LOG2 0xFC PUSH5 0x736F6C6343 STOP ADDMOD SGT STOP CALLER "
				},
				"gasEstimates": {
					"creation": {
						"codeDepositCost": "881000",
						"executionCost": "infinite",
						"totalCost": "infinite"
					},
					"external": {
						"activate()": "infinite",
						"addPerson(string,string)": "infinite",
						"changeOwner(address)": "26980",
						"isActive()": "2560",
						"myBool()": "2471",
						"owner()": "2558",
						"people(uint256)": "infinite",
						"peopleCount()": "2496",
						"state()": "2670",
						"stringValue()": "infinite",
						"value()": "infinite"
					},
					"internal": {
						"incrementCount()": "infinite"
					}
				},
				"methodIdentifiers": {
					"activate()": "0f15f4c0",
					"addPerson(string,string)": "22f5b58d",
					"changeOwner(address)": "a6f9dae1",
					"isActive()": "22f3e2d4",
					"myBool()": "6deecdbe",
					"owner()": "8da5cb5b",
					"people(uint256)": "9e7a13ad",
					"peopleCount()": "267c68e0",
					"state()": "c19d93fb",
					"stringValue()": "7dc93929",
					"value()": "3fa4f245"
				}
			},
			"storageLayout": {
				"storage": [
					{
						"astId": 19,
						"contract": "MyContract.sol:MyContract",
						"label": "value",
						"offset": 0,
						"slot": "0",
						"type": "t_string_storage"
					},
					{
						"astId": 22,
						"contract": "MyContract.sol:MyContract",
						"label": "stringValue",
						"offset": 0,
						"slot": "1",
						"type": "t_string_storage"
					},
					{
						"astId": 25,
						"contract": "MyContract.sol:MyContract",
						"label": "myBool",
						"offset": 0,
						"slot": "2",
						"type": "t_bool"
					},
					{
						"astId": 29,
						"contract": "MyContract.sol:MyContract",
						"label": "age",
						"offset": 0,
						"slot": "3",
						"type": "t_int256"
					},
					{
						"astId": 32,
						"contract": "MyContract.sol:MyContract",
						"label": "temp",
						"offset": 0,
						"slot": "4",
						"type": "t_int256"
					},
					{
						"astId": 41,
						"contract": "MyContract.sol:MyContract",
						"label": "state",
						"offset": 0,
						"slot": "5",
						"type": "t_enum(State)38"
					},
					{
						"astId": 44,
						"contract": "MyContract.sol:MyContract",
						"label": "openingTime",
						"offset": 0,
						"slot": "6",
						"type": "t_uint256"
					},
					{
						"astId": 59,
						"contract": "MyContract.sol:MyContract",
						"label": "owner",
						"offset": 0,
						"slot": "7",
						"type": "t_address"
					},
					{
						"astId": 123,
						"contract": "MyContract.sol:MyContract",
						"label": "peopleCount",
						"offset": 0,
						"slot": "8",
						"type": "t_uint256"
					},
					{
						"astId": 128,
						"contract": "MyContract.sol:MyContract",
						"label": "people",
						"offset": 0,
						"slot": "9",
						"type": "t_mapping(t_uint256,t_struct(Person)120_storage)"
					}
				],
				"types": {
					"t_address": {
						"encoding": "inplace",
						"label": "address",
						"numberOfBytes": "20"
					},
					"t_bool": {
						"encoding": "inplace",
						"label": "bool",
						"numberOfBytes": "1"
					},
					"t_enum(State)38": {
						"encoding": "inplace",
						"label": "enum MyContract.State",
						"numberOfBytes": "1"
					},
					"t_int256": {
						"encoding": "inplace",
						"label": "int256",
						"numberOfBytes": "32"
					},
					"t_mapping(t_uint256,t_struct(Person)120_storage)": {
						"encoding": "mapping",
						"key": "t_uint256",
						"label": "mapping(uint256 => struct MyContract.Person)",
						"numberOfBytes": "32",
						"value": "t_struct(Person)120_storage"
					},
					"t_string_storage": {
						"encoding": "bytes",
						"label": "string",
						"numberOfBytes": "32"
					},
					"t_struct(Person)120_storage": {
						"encoding": "inplace",
						"label": "struct MyContract.Person",
						"members": [
							{
								"astId": 115,
								"contract": "MyContract.sol:MyContract",
								"label": "_id",
								"offset": 0,
								"slot": "0",
								"type": "t_uint256"
							},
							{
								"astId": 117,
								"contract": "MyContract.sol:MyContract",
								"label": "_firstName",
								"offset": 0,
								"slot": "1",
								"type": "t_string_storage"
							},
							{
								"astId": 119,
								"contract": "MyContract.sol:MyContract",
								"label": "_lastName",
								"offset": 0,
								"slot": "2",
								"type": "t_string_storage"
							}
						],
						"numberOfBytes": "96"
					},
					"t_uint256": {
						"encoding": "inplace",
						"label": "uint256",
						"numberOfBytes": "32"
					}
				}
			},
			"userdoc": {
				"kind": "user",
				"methods": {
					"owner()": {
						"notice": "This variable is immutable"
					}
				},
				"version": 1
			}
		}
	}
}